ThinkAir:tcpdump-android andrius$ adb shell tcpdump -XXAvvns 0 'port 6969'
tcpdump: no suitable device found
ThinkAir:tcpdump-android andrius$ adb shell tcpdump -XXAvvns 0 'port 6969'
tcpdump: no suitable device found
ThinkAir:tcpdump-android andrius$ adb root
restarting adbd as root
ThinkAir:tcpdump-android andrius$ adb shell tcpdump -XXAvvns 0 'port 6969'
tcpdump: listening on pdp0, link-type LINUX_SLL (Linux cooked), capture size 65535 bytes
13:48:22.764746 IP (tos 0x0, ttl 51, id 1, offset 0, flags [none], proto TCP (6), length 40)
    192.95.61.160.6969 > 10.108.56.88.23775: Flags [S.], cksum 0x186b (correct), seq 12345, ack 36434, win 8192, length 0
	0x0000:  0000 0200 0000 0000 0000 0000 0000 0800  ................
	0x0010:  4500 0028 0001 0000 3306 470c c05f 3da0  E..(....3.G.?_=?
	0x0020:  0a6c 3858 1b39 5cdf 0000 3039 0000 8e52  .l8X.9\?..09...R
	0x0030:  5012 2000 186b 0000                      P....k..
13:48:22.765448 IP (tos 0x0, ttl 40, id 39474, offset 0, flags [none], proto TCP (6), length 40)
    10.108.56.88.23775 > 192.95.61.160.6969: Flags [.], cksum 0x3894 (correct), seq 1, ack 1, win 65495, length 0
	0x0000:  0004 0200 0000 0000 0000 0000 0000 0800  ................
	0x0010:  4500 0028 9a32 0000 2806 b7da 0a6c 3858  E..(.2..(.??.l8X
	0x0020:  c05f 3da0 5cdf 1b39 0000 8e52 0000 303a  ?_=?\?.9...R..0:
	0x0030:  5010 ffd7 3894 0000                      P.??8...
13:48:22.765672 IP (tos 0x0, ttl 40, id 39475, offset 0, flags [none], proto TCP (6), length 45)
    10.108.56.88.23775 > 192.95.61.160.6969: Flags [P.], cksum 0x54f5 (correct), seq 1:6, ack 1, win 65495, length 5
	0x0000:  0004 0200 0000 0000 0000 0000 0000 0800  ................
	0x0010:  4500 002d 9a33 0000 2806 b7d4 0a6c 3858  E..-.3..(.??.l8X
	0x0020:  c05f 3da0 5cdf 1b39 0000 8e52 0000 303a  ?_=?\?.9...R..0:
	0x0030:  5018 ffd7 54f5 0000 4845 4c4c 4f         P.??T?..HELLO
13:48:23.474804 IP (tos 0x0, ttl 51, id 1, offset 0, flags [none], proto TCP (6), length 44)
    192.95.61.160.6969 > 10.108.56.88.23775: Flags [.], cksum 0x5972 (correct), seq 1:5, ack 6, win 8192, length 4
	0x0000:  0000 0200 0000 0000 0000 0000 0000 0800  ................
	0x0010:  4500 002c 0001 0000 3306 4708 c05f 3da0  E..,....3.G.?_=?
	0x0020:  0a6c 3858 1b39 5cdf 0000 303a 0000 8e57  .l8X.9\?..0:...W
	0x0030:  5010 2000 5972 0000 beef 0001            P...Yr..??..
13:48:23.477041 IP (tos 0x0, ttl 40, id 39477, offset 0, flags [none], proto TCP (6), length 40)
    10.108.56.88.23775 > 192.95.61.160.6969: Flags [.], cksum 0x388b (correct), seq 6, ack 5, win 65495, length 0
	0x0000:  0004 0200 0000 0000 0000 0000 0000 0800  ................
	0x0010:  4500 0028 9a35 0000 2806 b7d7 0a6c 3858  E..(.5..(.??.l8X
	0x0020:  c05f 3da0 5cdf 1b39 0000 8e57 0000 303e  ?_=?\?.9...W..0>
	0x0030:  5010 ffd7 388b 0000                      P.??8...
13:48:23.477486 IP (tos 0x0, ttl 40, id 39478, offset 0, flags [none], proto TCP (6), length 40)
    10.108.56.88.23775 > 192.95.61.160.6969: Flags [F.], cksum 0x388a (correct), seq 6, ack 5, win 65495, length 0
	0x0000:  0004 0200 0000 0000 0000 0000 0000 0800  ................
	0x0010:  4500 0028 9a36 0000 2806 b7d6 0a6c 3858  E..(.6..(.??.l8X
	0x0020:  c05f 3da0 5cdf 1b39 0000 8e57 0000 303e  ?_=?\?.9...W..0>
	0x0030:  5011 ffd7 388a 0000                      P.??8...
13:48:24.084715 IP (tos 0x0, ttl 51, id 1, offset 0, flags [none], proto TCP (6), length 40)
    192.95.61.160.6969 > 10.108.56.88.23775: Flags [F.], cksum 0x1861 (correct), seq 5, ack 7, win 8192, length 0
	0x0000:  0000 0200 0000 0000 0000 0000 0000 0800  ................
	0x0010:  4500 0028 0001 0000 3306 470c c05f 3da0  E..(....3.G.?_=?
	0x0020:  0a6c 3858 1b39 5cdf 0000 303e 0000 8e58  .l8X.9\?..0>...X
	0x0030:  5011 2000 1861 0000                      P....a..
13:48:24.085938 IP (tos 0x0, ttl 40, id 39480, offset 0, flags [none], proto TCP (6), length 40)
    10.108.56.88.23775 > 192.95.61.160.6969: Flags [.], cksum 0xda6f (correct), seq 6, ack 24096, win 65495, length 0
	0x0000:  0004 0200 0000 0000 0000 0000 0000 0800  ................
	0x0010:  4500 0028 9a38 0000 2806 b7d4 0a6c 3858  E..(.8..(.??.l8X
	0x0020:  c05f 3da0 5cdf 1b39 0000 8e57 0000 8e59  ?_=?\?.9...W...Y
	0x0030:  5010 ffd7 da6f 0000                      P.???o..
13:48:24.305626 IP (tos 0x0, ttl 40, id 39481, offset 0, flags [none], proto TCP (6), length 40)
    10.108.56.88.4477 > 192.95.61.160.6969: Flags [S], cksum 0x12ae (correct), seq 29152, win 65495, length 0
	0x0000:  0004 0200 0000 0000 0000 0000 0000 0800  ................
	0x0010:  4500 0028 9a39 0000 2806 b7d3 0a6c 3858  E..(.9..(.??.l8X
	0x0020:  c05f 3da0 117d 1b39 0000 71e0 0000 0000  ?_=?.}.9..q?....
	0x0030:  5002 ffd7 12ae be02                      P.??.??.
13:48:25.154795 IP (tos 0x0, ttl 51, id 1, offset 0, flags [none], proto TCP (6), length 40)
    192.95.61.160.6969 > 10.108.56.88.4477: Flags [S.], cksum 0x803e (correct), seq 12345, ack 29153, win 8192, length 0
	0x0000:  0000 0200 0000 0000 0000 0000 0000 0800  ................
	0x0010:  4500 0028 0001 0000 3306 470c c05f 3da0  E..(....3.G.?_=?
	0x0020:  0a6c 3858 1b39 117d 0000 3039 0000 71e1  .l8X.9.}..09..q?
	0x0030:  5012 2000 803e 0000                      P....>..
13:48:25.156745 IP (tos 0x0, ttl 40, id 39483, offset 0, flags [none], proto TCP (6), length 40)
    10.108.56.88.4477 > 192.95.61.160.6969: Flags [.], cksum 0xa067 (correct), seq 1, ack 1, win 65495, length 0
	0x0000:  0004 0200 0000 0000 0000 0000 0000 0800  ................
	0x0010:  4500 0028 9a3b 0000 2806 b7d1 0a6c 3858  E..(.;..(.??.l8X
	0x0020:  c05f 3da0 117d 1b39 0000 71e1 0000 303a  ?_=?.}.9..q?..0:
	0x0030:  5010 ffd7 a067 0000                      P.?נg..
13:48:25.157485 IP (tos 0x0, ttl 40, id 39484, offset 0, flags [none], proto TCP (6), length 45)
    10.108.56.88.4477 > 192.95.61.160.6969: Flags [P.], cksum 0xbcc8 (correct), seq 1:6, ack 1, win 65495, length 5
	0x0000:  0004 0200 0000 0000 0000 0000 0000 0800  ................
	0x0010:  4500 002d 9a3c 0000 2806 b7cb 0a6c 3858  E..-.<..(.??.l8X
	0x0020:  c05f 3da0 117d 1b39 0000 71e1 0000 303a  ?_=?.}.9..q?..0:
	0x0030:  5018 ffd7 bcc8 0000 4845 4c4c 4f         P.?׼?..HELLO
13:48:26.214722 IP (tos 0x0, ttl 51, id 1, offset 0, flags [none], proto TCP (6), length 42)
    192.95.61.160.6969 > 10.108.56.88.4477: Flags [.], cksum 0xc235 (correct), seq 1:3, ack 6, win 8192, length 2
	0x0000:  0000 0200 0000 0000 0000 0000 0000 0800  ................
	0x0010:  4500 002a 0001 0000 3306 470a c05f 3da0  E..*....3.G.?_=?
	0x0020:  0a6c 3858 1b39 117d 0000 303a 0000 71e6  .l8X.9.}..0:..q?
	0x0030:  5010 2000 c235 0000 be02                 P...?5..?.
13:48:26.215426 IP (tos 0x0, ttl 40, id 39486, offset 0, flags [none], proto TCP (6), length 40)
    10.108.56.88.4477 > 192.95.61.160.6969: Flags [.], cksum 0xa060 (correct), seq 6, ack 3, win 65495, length 0
	0x0000:  0004 0200 0000 0000 0000 0000 0000 0800  ................
	0x0010:  4500 0028 9a3e 0000 2806 b7ce 0a6c 3858  E..(.>..(.??.l8X
	0x0020:  c05f 3da0 117d 1b39 0000 71e6 0000 303c  ?_=?.}.9..q?..0<
	0x0030:  5010 ffd7 a060 0000                      P.?נ`..
13:48:26.215527 IP (tos 0x0, ttl 40, id 39487, offset 0, flags [none], proto TCP (6), length 40)
    10.108.56.88.4477 > 192.95.61.160.6969: Flags [F.], cksum 0xa05f (correct), seq 6, ack 3, win 65495, length 0
	0x0000:  0004 0200 0000 0000 0000 0000 0000 0800  ................
	0x0010:  4500 0028 9a3f 0000 2806 b7cd 0a6c 3858  E..(.?..(.??.l8X
	0x0020:  c05f 3da0 117d 1b39 0000 71e6 0000 303c  ?_=?.}.9..q?..0<
	0x0030:  5011 ffd7 a05f 0000                      P.?נ_..
13:48:26.984816 IP (tos 0x0, ttl 51, id 1, offset 0, flags [none], proto TCP (6), length 40)
    192.95.61.160.6969 > 10.108.56.88.4477: Flags [F.], cksum 0x8036 (correct), seq 3, ack 7, win 8192, length 0
	0x0000:  0000 0200 0000 0000 0000 0000 0000 0800  ................
	0x0010:  4500 0028 0001 0000 3306 470c c05f 3da0  E..(....3.G.?_=?
	0x0020:  0a6c 3858 1b39 117d 0000 303c 0000 71e7  .l8X.9.}..0<..q?
	0x0030:  5011 2000 8036 0000                      P....6..
13:48:26.985645 IP (tos 0x0, ttl 40, id 39489, offset 0, flags [none], proto TCP (6), length 40)
    10.108.56.88.4477 > 192.95.61.160.6969: Flags [.], cksum 0x5eb4 (correct), seq 6, ack 16815, win 65495, length 0
	0x0000:  0004 0200 0000 0000 0000 0000 0000 0800  ................
	0x0010:  4500 0028 9a41 0000 2806 b7cb 0a6c 3858  E..(.A..(.??.l8X
	0x0020:  c05f 3da0 117d 1b39 0000 71e6 0000 71e8  ?_=?.}.9..q?..q?
	0x0030:  5010 ffd7 5eb4 0000                      P.??^?..
13:48:27.199463 IP (tos 0x0, ttl 40, id 39490, offset 0, flags [none], proto TCP (6), length 40)
    10.108.56.88.37932 > 192.95.61.160.6969: Flags [S], cksum 0xb5b1 (correct), seq 19261, win 65495, length 0
	0x0000:  0004 0200 0000 0000 0000 0000 0000 0800  ................
	0x0010:  4500 0028 9a42 0000 2806 b7ca 0a6c 3858  E..(.B..(.??.l8X
	0x0020:  c05f 3da0 942c 1b39 0000 4b3d beef 0003  ?_=?.,.9..K=??..
	0x0030:  5002 ffd7 b5b1 0000                      P.?׵?..
13:48:27.704793 IP (tos 0x0, ttl 51, id 1, offset 0, flags [none], proto TCP (6), length 40)
    192.95.61.160.6969 > 10.108.56.88.37932: Flags [S.], cksum 0x662e (correct), seq 12345, ack 19262, win 8192, length 0
	0x0000:  0000 0200 0000 0000 0000 0000 0000 0800  ................
	0x0010:  4500 0028 0001 0000 3306 470c c05f 3da0  E..(....3.G.?_=?
	0x0020:  0a6c 3858 1b39 942c 0000 3039 0000 4b3e  .l8X.9.,..09..K>
	0x0030:  5012 2000 662e be03                      P...f.?.
13:48:27.706198 IP (tos 0x0, ttl 40, id 39492, offset 0, flags [none], proto TCP (6), length 40)
    10.108.56.88.37932 > 192.95.61.160.6969: Flags [.], cksum 0x445b (correct), seq 1, ack 1, win 65495, length 0
	0x0000:  0004 0200 0000 0000 0000 0000 0000 0800  ................
	0x0010:  4500 0028 9a44 0000 2806 b7c8 0a6c 3858  E..(.D..(.??.l8X
	0x0020:  c05f 3da0 942c 1b39 0000 4b3e 0000 303a  ?_=?.,.9..K>..0:
	0x0030:  5010 ffd7 445b 0000                      P.??D[..
13:48:27.709302 IP (tos 0x0, ttl 40, id 39493, offset 0, flags [none], proto TCP (6), length 45)
    10.108.56.88.37932 > 192.95.61.160.6969: Flags [P.], cksum 0x60bc (correct), seq 1:6, ack 1, win 65495, length 5
	0x0000:  0004 0200 0000 0000 0000 0000 0000 0800  ................
	0x0010:  4500 002d 9a45 0000 2806 b7c2 0a6c 3858  E..-.E..(.??.l8X
	0x0020:  c05f 3da0 942c 1b39 0000 4b3e 0000 303a  ?_=?.,.9..K>..0:
	0x0030:  5018 ffd7 60bc 0000 4845 4c4c 4f         P.??`?..HELLO
13:48:28.946227 IP (tos 0x0, ttl 51, id 1, offset 0, flags [none], proto TCP (6), length 45)
    192.95.61.160.6969 > 10.108.56.88.37932: Flags [.], cksum 0x4097 (correct), seq 1:6, ack 6, win 8192, length 5
	0x0000:  0000 0200 0000 0000 0000 0000 0000 0800  ................
	0x0010:  4500 002d 0001 0000 3306 4707 c05f 3da0  E..-....3.G.?_=?
	0x0020:  0a6c 3858 1b39 942c 0000 303a 0000 4b43  .l8X.9.,..0:..KC
	0x0030:  5010 2000 4097 0000 4f4c 4c45 48         P...@...OLLEH
13:48:28.948691 IP (tos 0x0, ttl 40, id 39495, offset 0, flags [none], proto TCP (6), length 40)
    10.108.56.88.37932 > 192.95.61.160.6969: Flags [.], cksum 0x4451 (correct), seq 6, ack 6, win 65495, length 0
	0x0000:  0004 0200 0000 0000 0000 0000 0000 0800  ................
	0x0010:  4500 0028 9a47 0000 2806 b7c5 0a6c 3858  E..(.G..(.??.l8X
	0x0020:  c05f 3da0 942c 1b39 0000 4b43 0000 303f  ?_=?.,.9..KC..0?
	0x0030:  5010 ffd7 4451 0000                      P.??DQ..
13:48:28.949134 IP (tos 0x0, ttl 40, id 39496, offset 0, flags [none], proto TCP (6), length 40)
    10.108.56.88.37932 > 192.95.61.160.6969: Flags [F.], cksum 0x4450 (correct), seq 6, ack 6, win 65495, length 0
	0x0000:  0004 0200 0000 0000 0000 0000 0000 0800  ................
	0x0010:  4500 0028 9a48 0000 2806 b7c4 0a6c 3858  E..(.H..(.??.l8X
	0x0020:  c05f 3da0 942c 1b39 0000 4b43 0000 303f  ?_=?.,.9..KC..0?
	0x0030:  5011 ffd7 4450 0000                      P.??DP..
13:48:29.845580 IP (tos 0x0, ttl 51, id 1, offset 0, flags [none], proto TCP (6), length 40)
    192.95.61.160.6969 > 10.108.56.88.37932: Flags [F.], cksum 0x2427 (correct), seq 6, ack 7, win 8192, length 0
	0x0000:  0000 0200 0000 0000 0000 0000 0000 0800  ................
	0x0010:  4500 0028 0001 0000 3306 470c c05f 3da0  E..(....3.G.?_=?
	0x0020:  0a6c 3858 1b39 942c 0000 303f 0000 4b44  .l8X.9.,..0?..KD
	0x0030:  5011 2000 2427 0000                      P...$'..
13:48:29.853623 IP (tos 0x0, ttl 40, id 39498, offset 0, flags [none], proto TCP (6), length 40)
    10.108.56.88.37932 > 192.95.61.160.6969: Flags [.], cksum 0x294b (correct), seq 6, ack 6924, win 65495, length 0
	0x0000:  0004 0200 0000 0000 0000 0000 0000 0800  ................
	0x0010:  4500 0028 9a4a 0000 2806 b7c2 0a6c 3858  E..(.J..(.??.l8X
	0x0020:  c05f 3da0 942c 1b39 0000 4b43 0000 4b45  ?_=?.,.9..KC..KE
	0x0030:  5010 ffd7 294b 0000                      P.??)K..
13:48:30.126781 IP (tos 0x0, ttl 40, id 39499, offset 0, flags [none], proto TCP (6), length 40)
    10.108.56.88.21707 > 192.95.61.160.6969: Flags [S], cksum 0x20ba (correct), seq 56968, win 65495, length 0
	0x0000:  0004 0200 0000 0000 0000 0000 0000 0800  ................
	0x0010:  4500 0028 9a4b 0000 2806 b7c1 0a6c 3858  E..(.K..(.??.l8X
	0x0020:  c05f 3da0 54cb 1b39 0000 de88 0000 0000  ?_=?T?.9..?.....
	0x0030:  5002 ffd7 20ba 0000                      P.??.?..
13:48:30.565416 IP (tos 0x0, ttl 51, id 1, offset 0, flags [none], proto TCP (6), length 40)
    192.95.61.160.6969 > 10.108.56.88.21707: Flags [S.], cksum 0x1243 (correct), seq 12345, ack 56969, win 8192, length 0
	0x0000:  0000 0200 0000 0000 0000 0000 0000 0800  ................
	0x0010:  4500 0028 0001 0000 3306 470c c05f 3da0  E..(....3.G.?_=?
	0x0020:  0a6c 3858 1b39 54cb 0000 3039 0000 de89  .l8X.9T?..09..?.
	0x0030:  5012 2000 1243 be04                      P....C?.
13:48:30.566865 IP (tos 0x0, ttl 40, id 39501, offset 0, flags [none], proto TCP (6), length 40)
    10.108.56.88.21707 > 192.95.61.160.6969: Flags [.], cksum 0xf070 (correct), seq 1, ack 1, win 65495, length 0
	0x0000:  0004 0200 0000 0000 0000 0000 0000 0800  ................
	0x0010:  4500 0028 9a4d 0000 2806 b7bf 0a6c 3858  E..(.M..(.??.l8X
	0x0020:  c05f 3da0 54cb 1b39 0000 de89 0000 303a  ?_=?T?.9..?...0:
	0x0030:  5010 ffd7 f070 0000                      P.???p..
13:48:30.567272 IP (tos 0x0, ttl 40, id 39502, offset 0, flags [none], proto TCP (6), length 45)
    10.108.56.88.21707 > 192.95.61.160.6969: Flags [P.], cksum 0x0cd2 (correct), seq 1:6, ack 1, win 65495, length 5
	0x0000:  0004 0200 0000 0000 0000 0000 0000 0800  ................
	0x0010:  4500 002d 9a4e 0000 2806 b7b9 0a6c 3858  E..-.N..(.??.l8X
	0x0020:  c05f 3da0 54cb 1b39 0000 de89 0000 303a  ?_=?T?.9..?...0:
	0x0030:  5018 ffd7 0cd2 0000 4845 4c4c 4f         P.??.?..HELLO
13:48:31.195518 IP (tos 0x0, ttl 51, id 1, offset 0, flags [none], proto TCP (6), length 45)
    192.95.61.160.6969 > 10.108.56.88.21707: Flags [.], cksum 0xecac (correct), seq 1:6, ack 6, win 8192, length 5
	0x0000:  0000 0200 0000 0000 0000 0000 0000 0800  ................
	0x0010:  4500 002d 0001 0000 3306 4707 c05f 3da0  E..-....3.G.?_=?
	0x0020:  0a6c 3858 1b39 54cb 0000 303a 0000 de8e  .l8X.9T?..0:..?.
	0x0030:  5010 2000 ecac 0000 4f4c 4c45 48         P...?..OLLEH
13:48:31.199007 IP (tos 0x0, ttl 40, id 39504, offset 0, flags [none], proto TCP (6), length 40)
    10.108.56.88.21707 > 192.95.61.160.6969: Flags [.], cksum 0xf066 (correct), seq 6, ack 6, win 65495, length 0
	0x0000:  0004 0200 0000 0000 0000 0000 0000 0800  ................
	0x0010:  4500 0028 9a50 0000 2806 b7bc 0a6c 3858  E..(.P..(.??.l8X
	0x0020:  c05f 3da0 54cb 1b39 0000 de8e 0000 303f  ?_=?T?.9..?...0?
	0x0030:  5010 ffd7 f066 0000                      P.???f..
13:48:31.199543 IP (tos 0x0, ttl 40, id 39505, offset 0, flags [none], proto TCP (6), length 40)
    10.108.56.88.21707 > 192.95.61.160.6969: Flags [F.], cksum 0xf065 (correct), seq 6, ack 6, win 65495, length 0
	0x0000:  0004 0200 0000 0000 0000 0000 0000 0800  ................
	0x0010:  4500 0028 9a51 0000 2806 b7bb 0a6c 3858  E..(.Q..(.??.l8X
	0x0020:  c05f 3da0 54cb 1b39 0000 de8e 0000 303f  ?_=?T?.9..?...0?
	0x0030:  5011 ffd7 f065 0000                      P.???e..
13:48:31.785599 IP (tos 0x0, ttl 51, id 1, offset 0, flags [none], proto TCP (6), length 40)
    192.95.61.160.6969 > 10.108.56.88.21707: Flags [F.], cksum 0xd03c (correct), seq 6, ack 7, win 8192, length 0
	0x0000:  0000 0200 0000 0000 0000 0000 0000 0800  ................
	0x0010:  4500 0028 0001 0000 3306 470c c05f 3da0  E..(....3.G.?_=?
	0x0020:  0a6c 3858 1b39 54cb 0000 303f 0000 de8f  .l8X.9T?..0?..?.
	0x0030:  5011 2000 d03c 0000                      P...?<..
13:48:31.790506 IP (tos 0x0, ttl 40, id 39507, offset 0, flags [none], proto TCP (6), length 40)
    10.108.56.88.21707 > 192.95.61.160.6969: Flags [.], cksum 0x4215 (correct), seq 6, ack 44631, win 65495, length 0
	0x0000:  0004 0200 0000 0000 0000 0000 0000 0800  ................
	0x0010:  4500 0028 9a53 0000 2806 b7b9 0a6c 3858  E..(.S..(.??.l8X
	0x0020:  c05f 3da0 54cb 1b39 0000 de8e 0000 de90  ?_=?T?.9..?...?.
	0x0030:  5010 ffd7 4215 0000                      P.??B...
13:48:32.014523 IP (tos 0x0, ttl 40, id 39508, offset 0, flags [none], proto TCP (6), length 40)
    10.108.56.88.22472 > 192.95.61.160.6969: Flags [S], cksum 0x27c9 (correct), seq 5512, win 65495, length 0
	0x0000:  0004 0200 0000 0000 0000 0000 0000 0800  ................
	0x0010:  4500 0028 9a54 0000 2806 b7b8 0a6c 3858  E..(.T..(.??.l8X
	0x0020:  c05f 3da0 57c8 1b39 0000 1588 beef 0005  ?_=?W?.9....??..
	0x0030:  5002 ffd7 27c9 0000                      P.??'?..
13:48:32.535340 IP (tos 0x0, ttl 51, id 1, offset 0, flags [none], proto TCP (6), length 40)
    192.95.61.160.6969 > 10.108.56.88.22472: Flags [S.], cksum 0x2463 (incorrect -> 0x964b), seq 12345, ack 5513, win 8192, length 0
	0x0000:  0000 0200 0000 0000 0000 0000 0000 0800  ................
	0x0010:  4500 0028 0001 0000 3306 470c c05f 3da0  E..(....3.G.?_=?
	0x0020:  0a6c 3858 1b39 57c8 0000 3039 0000 1589  .l8X.9W?..09....
	0x0030:  5012 2000 2463 0000                      P...$c..
13:48:32.535779 IP (tos 0x0, ttl 40, id 39509, offset 0, flags [none], proto TCP (6), length 40)
    10.108.56.88.22472 > 192.95.61.160.6969: Flags [.], cksum 0xb674 (correct), seq 1, ack 1, win 65495, length 0
	0x0000:  0004 0200 0000 0000 0000 0000 0000 0800  ................
	0x0010:  4500 0028 9a55 0000 2806 b7b7 0a6c 3858  E..(.U..(.??.l8X
	0x0020:  c05f 3da0 57c8 1b39 0000 1589 0000 303a  ?_=?W?.9......0:
	0x0030:  5010 ffd7 b674 0000                      P.?׶t..
13:48:32.535994 IP (tos 0x0, ttl 40, id 39510, offset 0, flags [none], proto TCP (6), length 45)
    10.108.56.88.22472 > 192.95.61.160.6969: Flags [P.], cksum 0xd2d5 (correct), seq 1:6, ack 1, win 65495, length 5
	0x0000:  0004 0200 0000 0000 0000 0000 0000 0800  ................
	0x0010:  4500 002d 9a56 0000 2806 b7b1 0a6c 3858  E..-.V..(.??.l8X
	0x0020:  c05f 3da0 57c8 1b39 0000 1589 0000 303a  ?_=?W?.9......0:
	0x0030:  5018 ffd7 d2d5 0000 4845 4c4c 4f         P.????..HELLO
13:48:33.265450 IP (tos 0x0, ttl 51, id 1, offset 0, flags [none], proto TCP (6), length 45)
    192.95.61.160.6969 > 10.108.56.88.22472: Flags [.], cksum 0xb2b0 (correct), seq 1:6, ack 6, win 8192, length 5
	0x0000:  0000 0200 0000 0000 0000 0000 0000 0800  ................
	0x0010:  4500 002d 0001 0000 3306 4707 c05f 3da0  E..-....3.G.?_=?
	0x0020:  0a6c 3858 1b39 57c8 0000 303a 0000 158e  .l8X.9W?..0:....
	0x0030:  5010 2000 b2b0 0000 4f4c 4c45 48         P...??..OLLEH
13:48:33.266237 IP (tos 0x0, ttl 40, id 39512, offset 0, flags [none], proto TCP (6), length 40)
    10.108.56.88.22472 > 192.95.61.160.6969: Flags [.], cksum 0xb66a (correct), seq 6, ack 6, win 65495, length 0
	0x0000:  0004 0200 0000 0000 0000 0000 0000 0800  ................
	0x0010:  4500 0028 9a58 0000 2806 b7b4 0a6c 3858  E..(.X..(.??.l8X
	0x0020:  c05f 3da0 57c8 1b39 0000 158e 0000 303f  ?_=?W?.9......0?
	0x0030:  5010 ffd7 b66a 0000                      P.?׶j..
13:48:33.266357 IP (tos 0x0, ttl 40, id 39513, offset 0, flags [none], proto TCP (6), length 40)
    10.108.56.88.22472 > 192.95.61.160.6969: Flags [F.], cksum 0xb669 (correct), seq 6, ack 6, win 65495, length 0
	0x0000:  0004 0200 0000 0000 0000 0000 0000 0800  ................
	0x0010:  4500 0028 9a59 0000 2806 b7b3 0a6c 3858  E..(.Y..(.??.l8X
	0x0020:  c05f 3da0 57c8 1b39 0000 158e 0000 303f  ?_=?W?.9......0?
	0x0030:  5011 ffd7 b669 0000                      P.?׶i..
13:48:33.915481 IP (tos 0x0, ttl 51, id 1, offset 0, flags [none], proto TCP (6), length 40)
    192.95.61.160.6969 > 10.108.56.88.22472: Flags [F.], cksum 0x9640 (correct), seq 6, ack 7, win 8192, length 0
	0x0000:  0000 0200 0000 0000 0000 0000 0000 0800  ................
	0x0010:  4500 0028 0001 0000 3306 470c c05f 3da0  E..(....3.G.?_=?
	0x0020:  0a6c 3858 1b39 57c8 0000 303f 0000 158f  .l8X.9W?..0?....
	0x0030:  5011 2000 9640 0000                      P....@..
13:48:33.917451 IP (tos 0x0, ttl 40, id 39515, offset 0, flags [none], proto TCP (6), length 40)
    10.108.56.88.22472 > 192.95.61.160.6969: Flags [.], cksum 0xd119 (correct), seq 6, ack 4294960471, win 65495, length 0
	0x0000:  0004 0200 0000 0000 0000 0000 0000 0800  ................
	0x0010:  4500 0028 9a5b 0000 2806 b7b1 0a6c 3858  E..(.[..(.??.l8X
	0x0020:  c05f 3da0 57c8 1b39 0000 158e 0000 1590  ?_=?W?.9........
	0x0030:  5010 ffd7 d119 0000                      P.???...
13:48:34.148909 IP (tos 0x0, ttl 40, id 39516, offset 0, flags [none], proto TCP (6), length 40)
    10.108.56.88.7703 > 192.95.61.160.6969: Flags [S], cksum 0x88e5 (correct), seq 60955, win 65495, length 0
	0x0000:  0004 0200 0000 0000 0000 0000 0000 0800  ................
	0x0010:  4500 0028 9a5c 0000 2806 b7b0 0a6c 3858  E..(.\..(.??.l8X
	0x0020:  c05f 3da0 1e17 1b39 0000 ee1b beef 0006  ?_=?...9..?.??..
	0x0030:  5002 ffd7 88e5 0000                      P.??.?..
13:48:34.905739 IP (tos 0x0, ttl 51, id 1, offset 0, flags [none], proto TCP (6), length 42)
    192.95.61.160.6969 > 10.108.56.88.7703: Flags [S.], cksum 0x5e14 (correct), seq 12345:12347, ack 60956, win 8192, length 2
	0x0000:  0000 0200 0000 0000 0000 0000 0000 0800  ................
	0x0010:  4500 002a 0001 0000 3306 470a c05f 3da0  E..*....3.G.?_=?
	0x0020:  0a6c 3858 1b39 1e17 0000 3039 0000 ee1c  .l8X.9....09..?.
	0x0030:  5012 2000 5e14 0000 9952                 P...^....R
13:48:34.910862 IP (tos 0x0, ttl 40, id 39518, offset 0, flags [none], proto TCP (6), length 40)
    10.108.56.88.7703 > 192.95.61.160.6969: Flags [.], cksum 0x1792 (correct), seq 1, ack 1, win 65495, length 0
	0x0000:  0004 0200 0000 0000 0000 0000 0000 0800  ................
	0x0010:  4500 0028 9a5e 0000 2806 b7ae 0a6c 3858  E..(.^..(.??.l8X
	0x0020:  c05f 3da0 1e17 1b39 0000 ee1c 0000 303a  ?_=?...9..?...0:
	0x0030:  5010 ffd7 1792 0000                      P.??....
13:48:34.912364 IP (tos 0x0, ttl 40, id 39519, offset 0, flags [none], proto TCP (6), length 45)
    10.108.56.88.7703 > 192.95.61.160.6969: Flags [P.], cksum 0x33f3 (correct), seq 1:6, ack 1, win 65495, length 5
	0x0000:  0004 0200 0000 0000 0000 0000 0000 0800  ................
	0x0010:  4500 002d 9a5f 0000 2806 b7a8 0a6c 3858  E..-._..(.??.l8X
	0x0020:  c05f 3da0 1e17 1b39 0000 ee1c 0000 303a  ?_=?...9..?...0:
	0x0030:  5018 ffd7 33f3 0000 4845 4c4c 4f         P.??3?..HELLO
13:48:35.545665 IP (tos 0x0, ttl 51, id 1, offset 0, flags [none], proto TCP (6), length 45)
    192.95.61.160.6969 > 10.108.56.88.7703: Flags [.], cksum 0x13ce (correct), seq 1:6, ack 6, win 8192, length 5
	0x0000:  0000 0200 0000 0000 0000 0000 0000 0800  ................
	0x0010:  4500 002d 0001 0000 3306 4707 c05f 3da0  E..-....3.G.?_=?
	0x0020:  0a6c 3858 1b39 1e17 0000 303a 0000 ee21  .l8X.9....0:..?!
	0x0030:  5010 2000 13ce 0000 4f4c 4c45 48         P....?..OLLEH
13:48:35.551707 IP (tos 0x0, ttl 40, id 39521, offset 0, flags [none], proto TCP (6), length 40)
    10.108.56.88.7703 > 192.95.61.160.6969: Flags [.], cksum 0x1788 (correct), seq 6, ack 6, win 65495, length 0
	0x0000:  0004 0200 0000 0000 0000 0000 0000 0800  ................
	0x0010:  4500 0028 9a61 0000 2806 b7ab 0a6c 3858  E..(.a..(.??.l8X
	0x0020:  c05f 3da0 1e17 1b39 0000 ee21 0000 303f  ?_=?...9..?!..0?
	0x0030:  5010 ffd7 1788 0000                      P.??....
13:48:35.552612 IP (tos 0x0, ttl 40, id 39522, offset 0, flags [none], proto TCP (6), length 40)
    10.108.56.88.7703 > 192.95.61.160.6969: Flags [F.], cksum 0x1787 (correct), seq 6, ack 6, win 65495, length 0
	0x0000:  0004 0200 0000 0000 0000 0000 0000 0800  ................
	0x0010:  4500 0028 9a62 0000 2806 b7aa 0a6c 3858  E..(.b..(.??.l8X
	0x0020:  c05f 3da0 1e17 1b39 0000 ee21 0000 303f  ?_=?...9..?!..0?
	0x0030:  5011 ffd7 1787 0000                      P.??....
13:48:36.175648 IP (tos 0x0, ttl 51, id 1, offset 0, flags [none], proto TCP (6), length 40)
    192.95.61.160.6969 > 10.108.56.88.7703: Flags [F.], cksum 0xf75d (correct), seq 6, ack 7, win 8192, length 0
	0x0000:  0000 0200 0000 0000 0000 0000 0000 0800  ................
	0x0010:  4500 0028 0001 0000 3306 470c c05f 3da0  E..(....3.G.?_=?
	0x0020:  0a6c 3858 1b39 1e17 0000 303f 0000 ee22  .l8X.9....0?..?"
	0x0030:  5011 2000 f75d 0000                      P...?]..
13:48:36.180133 IP (tos 0x0, ttl 40, id 39524, offset 0, flags [none], proto TCP (6), length 40)
    10.108.56.88.7703 > 192.95.61.160.6969: Flags [.], cksum 0x59a3 (correct), seq 6, ack 48618, win 65495, length 0
	0x0000:  0004 0200 0000 0000 0000 0000 0000 0800  ................
	0x0010:  4500 0028 9a64 0000 2806 b7a8 0a6c 3858  E..(.d..(.??.l8X
	0x0020:  c05f 3da0 1e17 1b39 0000 ee21 0000 ee23  ?_=?...9..?!..?#
	0x0030:  5010 ffd7 59a3 0000                      P.??Y?..
13:48:36.427271 IP (tos 0x0, ttl 40, id 39525, offset 0, flags [none], proto TCP (6), length 40)
    10.108.56.88.4364 > 192.95.61.160.6969: Flags [S], cksum 0xe491 (correct), seq 41064, win 65495, length 0
	0x0000:  0004 0200 0000 0000 0000 0000 0000 0800  ................
	0x0010:  4500 0028 9a65 0000 2806 b7a7 0a6c 3858  E..(.e..(.??.l8X
	0x0020:  c05f 3da0 110c 1b39 0000 a068 0000 0000  ?_=?...9..?h....
	0x0030:  5002 ffd7 e491 be07                      P.???.?.
13:48:36.925522 IP (tos 0x0, ttl 51, id 1, offset 0, flags [none], proto TCP (6), length 40)
    192.95.61.160.6969 > 10.108.56.88.4364: Flags [S.], cksum 0x941f (correct), seq 12345, ack 41065, win 8192, length 0
	0x0000:  0000 0200 0000 0000 0000 0000 0000 0800  ................
	0x0010:  4500 0028 0001 0000 3306 470c c05f 3da0  E..(....3.G.?_=?
	0x0020:  0a6c 3858 1b39 110c 0000 3039 0000 a069  .l8X.9....09..?i
	0x0030:  5012 2000 941f be07                      P.....?.
13:48:36.931345 IP (tos 0x0, ttl 40, id 39527, offset 0, flags [none], proto TCP (6), length 40)
    10.108.56.88.4364 > 192.95.61.160.6969: Flags [.], cksum 0x7250 (correct), seq 1, ack 1, win 65495, length 0
	0x0000:  0004 0200 0000 0000 0000 0000 0000 0800  ................
	0x0010:  4500 0028 9a67 0000 2806 b7a5 0a6c 3858  E..(.g..(.??.l8X
	0x0020:  c05f 3da0 110c 1b39 0000 a069 0000 303a  ?_=?...9..?i..0:
	0x0030:  5010 ffd7 7250 0000                      P.??rP..
13:48:36.936827 IP (tos 0x0, ttl 40, id 39528, offset 0, flags [none], proto TCP (6), length 45)
    10.108.56.88.4364 > 192.95.61.160.6969: Flags [P.], cksum 0x8eb1 (correct), seq 1:6, ack 1, win 65495, length 5
	0x0000:  0004 0200 0000 0000 0000 0000 0000 0800  ................
	0x0010:  4500 002d 9a68 0000 2806 b79f 0a6c 3858  E..-.h..(.?..l8X
	0x0020:  c05f 3da0 110c 1b39 0000 a069 0000 303a  ?_=?...9..?i..0:
	0x0030:  5018 ffd7 8eb1 0000 4845 4c4c 4f         P.??.?..HELLO
13:48:37.575538 IP (tos 0x0, ttl 51, id 1, offset 0, flags [none], proto TCP (6), length 45)
    192.95.61.160.6969 > 10.108.56.88.4364: Flags [.], cksum 0x6e8c (correct), seq 1:6, ack 6, win 8192, length 5
	0x0000:  0000 0200 0000 0000 0000 0000 0000 0800  ................
	0x0010:  4500 002d 0001 0000 3306 4707 c05f 3da0  E..-....3.G.?_=?
	0x0020:  0a6c 3858 1b39 110c 0000 303a 0000 a06e  .l8X.9....0:..?n
	0x0030:  5010 2000 6e8c 0000 4f4c 4c45 48         P...n...OLLEH
13:48:37.577614 IP (tos 0x0, ttl 40, id 39530, offset 0, flags [none], proto TCP (6), length 40)
    10.108.56.88.4364 > 192.95.61.160.6969: Flags [.], cksum 0x7246 (correct), seq 6, ack 6, win 65495, length 0
	0x0000:  0004 0200 0000 0000 0000 0000 0000 0800  ................
	0x0010:  4500 0028 9a6a 0000 2806 b7a2 0a6c 3858  E..(.j..(.??.l8X
	0x0020:  c05f 3da0 110c 1b39 0000 a06e 0000 303f  ?_=?...9..?n..0?
	0x0030:  5010 ffd7 7246 0000                      P.??rF..
13:48:37.578070 IP (tos 0x0, ttl 40, id 39531, offset 0, flags [none], proto TCP (6), length 40)
    10.108.56.88.4364 > 192.95.61.160.6969: Flags [F.], cksum 0x7245 (correct), seq 6, ack 6, win 65495, length 0
	0x0000:  0004 0200 0000 0000 0000 0000 0000 0800  ................
	0x0010:  4500 0028 9a6b 0000 2806 b7a1 0a6c 3858  E..(.k..(.??.l8X
	0x0020:  c05f 3da0 110c 1b39 0000 a06e 0000 303f  ?_=?...9..?n..0?
	0x0030:  5011 ffd7 7245 0000                      P.??rE..
13:48:38.225588 IP (tos 0x0, ttl 51, id 1, offset 0, flags [none], proto TCP (6), length 40)
    192.95.61.160.6969 > 10.108.56.88.4364: Flags [F.], cksum 0x521c (correct), seq 6, ack 7, win 8192, length 0
	0x0000:  0000 0200 0000 0000 0000 0000 0000 0800  ................
	0x0010:  4500 0028 0001 0000 3306 470c c05f 3da0  E..(....3.G.?_=?
	0x0020:  0a6c 3858 1b39 110c 0000 303f 0000 a06f  .l8X.9....0?..?o
	0x0030:  5011 2000 521c 0000                      P...R...
13:48:38.227913 IP (tos 0x0, ttl 40, id 39533, offset 0, flags [none], proto TCP (6), length 40)
    10.108.56.88.4364 > 192.95.61.160.6969: Flags [.], cksum 0x0215 (correct), seq 6, ack 28727, win 65495, length 0
	0x0000:  0004 0200 0000 0000 0000 0000 0000 0800  ................
	0x0010:  4500 0028 9a6d 0000 2806 b79f 0a6c 3858  E..(.m..(.?..l8X
	0x0020:  c05f 3da0 110c 1b39 0000 a06e 0000 a070  ?_=?...9..?n..?p
	0x0030:  5010 ffd7 0215 0000                      P.??....
13:48:38.456199 IP (tos 0x0, ttl 40, id 39534, offset 0, flags [none], proto TCP (6), length 40)
    10.108.56.88.7347 > 192.95.61.160.6969: Flags [S], cksum 0xb6a9 (correct), seq 49832, win 65495, length 0
	0x0000:  0004 0200 0000 0000 0000 0000 0000 0800  ................
	0x0010:  4500 0028 9a6e 0000 2806 b79e 0a6c 3858  E..(.n..(.?..l8X
	0x0020:  c05f 3da0 1cb3 1b39 0000 c2a8 0000 0000  ?_=?.?.9..¨....
	0x0030:  5002 ffd7 b6a9 be08                      P.?׶??.
13:48:38.955746 IP (tos 0x0, ttl 51, id 1, offset 0, flags [none], proto TCP (6), length 40)
    192.95.61.160.6969 > 10.108.56.88.7347: Flags [S.], cksum 0x663b (correct), seq 12345, ack 49833, win 8192, length 0
	0x0000:  0000 0200 0000 0000 0000 0000 0000 0800  ................
	0x0010:  4500 0028 0001 0000 3306 470c c05f 3da0  E..(....3.G.?_=?
	0x0020:  0a6c 3858 1b39 1cb3 0000 3039 0000 c2a9  .l8X.9.?..09..©
	0x0030:  5012 2000 663b be04                      P...f;?.
13:48:39.204155 IP (tos 0x0, ttl 40, id 39536, offset 0, flags [none], proto TCP (6), length 40)
    10.108.56.88.45921 > 192.95.61.160.6969: Flags [S], cksum 0x9d4d (correct), seq 17749, win 65495, length 0
	0x0000:  0004 0200 0000 0000 0000 0000 0000 0800  ................
	0x0010:  4500 0028 9a70 0000 2806 b79c 0a6c 3858  E..(.p..(.?..l8X
	0x0020:  c05f 3da0 b361 1b39 0000 4555 0000 0000  ?_=??a.9..EU....
	0x0030:  5002 ffd7 9d4d be09                      P.??.M?.
13:48:39.635772 IP (tos 0x0, ttl 51, id 1, offset 0, flags [none], proto TCP (6), length 40)
    192.95.61.160.6969 > 10.108.56.88.45921: Flags [S.], cksum 0xc8c9 (incorrect -> 0x0ae5), seq 12345, ack 17750, win 8192, length 0
	0x0000:  0000 0200 0000 0000 0000 0000 0000 0800  ................
	0x0010:  4500 0028 0001 0000 3306 470c c05f 3da0  E..(....3.G.?_=?
	0x0020:  0a6c 3858 1b39 b361 0000 3039 0000 4556  .l8X.9?a..09..EV
	0x0030:  5012 2000 c8c9 0000                      P...??..
13:48:39.637145 IP (tos 0x0, ttl 40, id 39537, offset 0, flags [none], proto TCP (6), length 40)
    10.108.56.88.45921 > 192.95.61.160.6969: Flags [.], cksum 0x2b0e (correct), seq 1, ack 1, win 65495, length 0
	0x0000:  0004 0200 0000 0000 0000 0000 0000 0800  ................
	0x0010:  4500 0028 9a71 0000 2806 b79b 0a6c 3858  E..(.q..(.?..l8X
	0x0020:  c05f 3da0 b361 1b39 0000 4556 0000 303a  ?_=??a.9..EV..0:
	0x0030:  5010 ffd7 2b0e 0000                      P.??+...
13:48:39.637548 IP (tos 0x0, ttl 40, id 39538, offset 0, flags [none], proto TCP (6), length 45)
    10.108.56.88.45921 > 192.95.61.160.6969: Flags [P.], cksum 0x476f (correct), seq 1:6, ack 1, win 65495, length 5
	0x0000:  0004 0200 0000 0000 0000 0000 0000 0800  ................
	0x0010:  4500 002d 9a72 0000 2806 b795 0a6c 3858  E..-.r..(.?..l8X
	0x0020:  c05f 3da0 b361 1b39 0000 4556 0000 303a  ?_=??a.9..EV..0:
	0x0030:  5018 ffd7 476f 0000 4845 4c4c 4f         P.??Go..HELLO
13:48:43.175977 IP (tos 0x0, ttl 51, id 1, offset 0, flags [none], proto TCP (6), length 45)
    192.95.61.160.6969 > 10.108.56.88.45921: Flags [.], cksum 0x274a (correct), seq 1:6, ack 6, win 8192, length 5
	0x0000:  0000 0200 0000 0000 0000 0000 0000 0800  ................
	0x0010:  4500 002d 0001 0000 3306 4707 c05f 3da0  E..-....3.G.?_=?
	0x0020:  0a6c 3858 1b39 b361 0000 303a 0000 455b  .l8X.9?a..0:..E[
	0x0030:  5010 2000 274a 0000 4f4c 4c45 48         P...'J..OLLEH
13:48:43.179809 IP (tos 0x0, ttl 40, id 39540, offset 0, flags [none], proto TCP (6), length 40)
    10.108.56.88.45921 > 192.95.61.160.6969: Flags [.], cksum 0x2b04 (correct), seq 6, ack 6, win 65495, length 0
	0x0000:  0004 0200 0000 0000 0000 0000 0000 0800  ................
	0x0010:  4500 0028 9a74 0000 2806 b798 0a6c 3858  E..(.t..(.?..l8X
	0x0020:  c05f 3da0 b361 1b39 0000 455b 0000 303f  ?_=??a.9..E[..0?
	0x0030:  5010 ffd7 2b04 0000                      P.??+...
13:48:43.180270 IP (tos 0x0, ttl 40, id 39541, offset 0, flags [none], proto TCP (6), length 40)
    10.108.56.88.45921 > 192.95.61.160.6969: Flags [F.], cksum 0x2b03 (correct), seq 6, ack 6, win 65495, length 0
	0x0000:  0004 0200 0000 0000 0000 0000 0000 0800  ................
	0x0010:  4500 0028 9a75 0000 2806 b797 0a6c 3858  E..(.u..(.?..l8X
	0x0020:  c05f 3da0 b361 1b39 0000 455b 0000 303f  ?_=??a.9..E[..0?
	0x0030:  5011 ffd7 2b03 0000                      P.??+...
13:48:43.805943 IP (tos 0x0, ttl 51, id 1, offset 0, flags [none], proto TCP (6), length 40)
    192.95.61.160.6969 > 10.108.56.88.45921: Flags [F.], cksum 0x0ada (correct), seq 6, ack 7, win 8192, length 0
	0x0000:  0000 0200 0000 0000 0000 0000 0000 0800  ................
	0x0010:  4500 0028 0001 0000 3306 470c c05f 3da0  E..(....3.G.?_=?
	0x0020:  0a6c 3858 1b39 b361 0000 303f 0000 455c  .l8X.9?a..0?..E\
	0x0030:  5011 2000 0ada 0000                      P....?..
13:48:43.808946 IP (tos 0x0, ttl 40, id 39543, offset 0, flags [none], proto TCP (6), length 40)
    10.108.56.88.45921 > 192.95.61.160.6969: Flags [.], cksum 0x15e6 (correct), seq 6, ack 5412, win 65495, length 0
	0x0000:  0004 0200 0000 0000 0000 0000 0000 0800  ................
	0x0010:  4500 0028 9a77 0000 2806 b795 0a6c 3858  E..(.w..(.?..l8X
	0x0020:  c05f 3da0 b361 1b39 0000 455b 0000 455d  ?_=??a.9..E[..E]
	0x0030:  5010 ffd7 15e6 0000                      P.??.?..
13:48:44.058629 IP (tos 0x0, ttl 40, id 39544, offset 0, flags [none], proto TCP (6), length 40)
    10.108.56.88.59180 > 192.95.61.160.6969: Flags [S], cksum 0xa0b5 (correct), seq 52011, win 65495, length 0
	0x0000:  0004 0200 0000 0000 0000 0000 0000 0800  ................
	0x0010:  4500 0028 9a78 0000 2806 b794 0a6c 3858  E..(.x..(.?..l8X
	0x0020:  c05f 3da0 e72c 1b39 0000 cb2b 0000 0000  ?_=??,.9..?+....
	0x0030:  5102 ffd7 a0b5 0000                      Q.?נ?..
13:48:44.557171 IP (tos 0x0, ttl 51, id 1, offset 0, flags [none], proto TCP (6), length 40)
    192.95.61.160.6969 > 10.108.56.88.59180: Flags [S.], cksum 0x5043 (correct), seq 12345, ack 52012, win 8192, length 0
	0x0000:  0000 0200 0000 0000 0000 0000 0000 0800  ................
	0x0010:  4500 0028 0001 0000 3306 470c c05f 3da0  E..(....3.G.?_=?
	0x0020:  0a6c 3858 1b39 e72c 0000 3039 0000 cb2c  .l8X.9?,..09..?,
	0x0030:  5112 2000 5043 0000                      Q...PC..
13:48:44.557922 IP (tos 0x0, ttl 40, id 39546, offset 0, flags [none], proto TCP (6), length 40)
    10.108.56.88.59180 > 192.95.61.160.6969: Flags [.], cksum 0x706c (correct), seq 1, ack 1, win 65495, length 0
	0x0000:  0004 0200 0000 0000 0000 0000 0000 0800  ................
	0x0010:  4500 0028 9a7a 0000 2806 b792 0a6c 3858  E..(.z..(.?..l8X
	0x0020:  c05f 3da0 e72c 1b39 0000 cb2c 0000 303a  ?_=??,.9..?,..0:
	0x0030:  5110 ffd7 706c 0000                      Q.??pl..
13:48:44.558110 IP (tos 0x0, ttl 40, id 39547, offset 0, flags [none], proto TCP (6), length 45)
    10.108.56.88.59180 > 192.95.61.160.6969: Flags [P.], cksum 0x8dcd (correct), seq 1:6, ack 1, win 65495, length 5
	0x0000:  0004 0200 0000 0000 0000 0000 0000 0800  ................
	0x0010:  4500 002d 9a7b 0000 2806 b78c 0a6c 3858  E..-.{..(.?..l8X
	0x0020:  c05f 3da0 e72c 1b39 0000 cb2c 0000 303a  ?_=??,.9..?,..0:
	0x0030:  5018 ffd7 8dcd 0000 4845 4c4c 4f         P.??.?..HELLO
13:48:45.185522 IP (tos 0x0, ttl 51, id 1, offset 0, flags [none], proto TCP (6), length 45)
    192.95.61.160.6969 > 10.108.56.88.59180: Flags [.], cksum 0x6da8 (correct), seq 1:6, ack 6, win 8192, length 5
	0x0000:  0000 0200 0000 0000 0000 0000 0000 0800  ................
	0x0010:  4500 002d 0001 0000 3306 4707 c05f 3da0  E..-....3.G.?_=?
	0x0020:  0a6c 3858 1b39 e72c 0000 303a 0000 cb31  .l8X.9?,..0:..?1
	0x0030:  5010 2000 6da8 0000 4f4c 4c45 48         P...m?..OLLEH
13:48:45.186260 IP (tos 0x0, ttl 40, id 39549, offset 0, flags [none], proto TCP (6), length 40)
    10.108.56.88.59180 > 192.95.61.160.6969: Flags [.], cksum 0x7162 (correct), seq 6, ack 6, win 65495, length 0
	0x0000:  0004 0200 0000 0000 0000 0000 0000 0800  ................
	0x0010:  4500 0028 9a7d 0000 2806 b78f 0a6c 3858  E..(.}..(.?..l8X
	0x0020:  c05f 3da0 e72c 1b39 0000 cb31 0000 303f  ?_=??,.9..?1..0?
	0x0030:  5010 ffd7 7162 0000                      P.??qb..
13:48:45.186358 IP (tos 0x0, ttl 40, id 39550, offset 0, flags [none], proto TCP (6), length 40)
    10.108.56.88.59180 > 192.95.61.160.6969: Flags [F.], cksum 0x7161 (correct), seq 6, ack 6, win 65495, length 0
	0x0000:  0004 0200 0000 0000 0000 0000 0000 0800  ................
	0x0010:  4500 0028 9a7e 0000 2806 b78e 0a6c 3858  E..(.~..(.?..l8X
	0x0020:  c05f 3da0 e72c 1b39 0000 cb31 0000 303f  ?_=??,.9..?1..0?
	0x0030:  5011 ffd7 7161 0000                      P.??qa..
13:48:45.975506 IP (tos 0x0, ttl 51, id 1, offset 0, flags [none], proto TCP (6), length 40)
    192.95.61.160.6969 > 10.108.56.88.59180: Flags [F.], cksum 0x5138 (correct), seq 6, ack 7, win 8192, length 0
	0x0000:  0000 0200 0000 0000 0000 0000 0000 0800  ................
	0x0010:  4500 0028 0001 0000 3306 470c c05f 3da0  E..(....3.G.?_=?
	0x0020:  0a6c 3858 1b39 e72c 0000 303f 0000 cb32  .l8X.9?,..0?..?2
	0x0030:  5011 2000 5138 0000                      P...Q8..
13:48:45.976234 IP (tos 0x0, ttl 40, id 39552, offset 0, flags [none], proto TCP (6), length 40)
    10.108.56.88.59180 > 192.95.61.160.6969: Flags [.], cksum 0xd66d (correct), seq 6, ack 39674, win 65495, length 0
	0x0000:  0004 0200 0000 0000 0000 0000 0000 0800  ................
	0x0010:  4500 0028 9a80 0000 2806 b78c 0a6c 3858  E..(....(.?..l8X
	0x0020:  c05f 3da0 e72c 1b39 0000 cb31 0000 cb33  ?_=??,.9..?1..?3
	0x0030:  5010 ffd7 d66d 0000                      P.???m..
13:48:46.692150 IP (tos 0x0, ttl 40, id 39553, offset 0, flags [none], proto TCP (6), length 40)
    10.108.56.88.36157 > 192.95.61.160.6969: Flags [S], cksum 0x978d (correct), seq 11587, win 65495, length 0
	0x0000:  0004 0200 0000 0000 0000 0000 0000 0800  ................
	0x0010:  4500 0028 9a81 0000 2806 b78b 0a6c 3858  E..(....(.?..l8X
	0x0020:  c05f 3da0 8d3d 1b39 0000 2d43 0000 0000  ?_=?.=.9..-C....
	0x0030:  5202 ffd7 978d 0000                      R.??....
13:48:48.885579 IP (tos 0x0, ttl 51, id 1, offset 0, flags [none], proto TCP (6), length 40)
    192.95.61.160.6969 > 10.108.56.88.36157: Flags [S.], cksum 0x471b (correct), seq 12345, ack 11588, win 8192, length 0
	0x0000:  0000 0200 0000 0000 0000 0000 0000 0800  ................
	0x0010:  4500 0028 0001 0000 3306 470c c05f 3da0  E..(....3.G.?_=?
	0x0020:  0a6c 3858 1b39 8d3d 0000 3039 0000 2d44  .l8X.9.=..09..-D
	0x0030:  5212 2000 471b 0000                      R...G...
13:48:48.886419 IP (tos 0x0, ttl 40, id 39555, offset 0, flags [none], proto TCP (6), length 40)
    10.108.56.88.36157 > 192.95.61.160.6969: Flags [.], cksum 0x6744 (correct), seq 1, ack 1, win 65495, length 0
	0x0000:  0004 0200 0000 0000 0000 0000 0000 0800  ................
	0x0010:  4500 0028 9a83 0000 2806 b789 0a6c 3858  E..(....(.?..l8X
	0x0020:  c05f 3da0 8d3d 1b39 0000 2d44 0000 303a  ?_=?.=.9..-D..0:
	0x0030:  5210 ffd7 6744 0000                      R.??gD..
13:48:48.886664 IP (tos 0x0, ttl 40, id 39556, offset 0, flags [none], proto TCP (6), length 45)
    10.108.56.88.36157 > 192.95.61.160.6969: Flags [P.], cksum 0x85a5 (correct), seq 1:6, ack 1, win 65495, length 5
	0x0000:  0004 0200 0000 0000 0000 0000 0000 0800  ................
	0x0010:  4500 002d 9a84 0000 2806 b783 0a6c 3858  E..-....(.?..l8X
	0x0020:  c05f 3da0 8d3d 1b39 0000 2d44 0000 303a  ?_=?.=.9..-D..0:
	0x0030:  5018 ffd7 85a5 0000 4845 4c4c 4f         P.??.?..HELLO
13:48:50.085885 IP (tos 0x0, ttl 51, id 1, offset 0, flags [none], proto TCP (6), length 45)
    192.95.61.160.6969 > 10.108.56.88.36157: Flags [.], cksum 0x6580 (correct), seq 1:6, ack 6, win 8192, length 5
	0x0000:  0000 0200 0000 0000 0000 0000 0000 0800  ................
	0x0010:  4500 002d 0001 0000 3306 4707 c05f 3da0  E..-....3.G.?_=?
	0x0020:  0a6c 3858 1b39 8d3d 0000 303a 0000 2d49  .l8X.9.=..0:..-I
	0x0030:  5010 2000 6580 0000 4f4c 4c45 48         P...e...OLLEH
13:48:50.090291 IP (tos 0x0, ttl 40, id 39558, offset 0, flags [none], proto TCP (6), length 40)
    10.108.56.88.36157 > 192.95.61.160.6969: Flags [.], cksum 0x693a (correct), seq 6, ack 6, win 65495, length 0
	0x0000:  0004 0200 0000 0000 0000 0000 0000 0800  ................
	0x0010:  4500 0028 9a86 0000 2806 b786 0a6c 3858  E..(....(.?..l8X
	0x0020:  c05f 3da0 8d3d 1b39 0000 2d49 0000 303f  ?_=?.=.9..-I..0?
	0x0030:  5010 ffd7 693a 0000                      P.??i:..
13:48:50.091183 IP (tos 0x0, ttl 40, id 39559, offset 0, flags [none], proto TCP (6), length 40)
    10.108.56.88.36157 > 192.95.61.160.6969: Flags [F.], cksum 0x6939 (correct), seq 6, ack 6, win 65495, length 0
	0x0000:  0004 0200 0000 0000 0000 0000 0000 0800  ................
	0x0010:  4500 0028 9a87 0000 2806 b785 0a6c 3858  E..(....(.?..l8X
	0x0020:  c05f 3da0 8d3d 1b39 0000 2d49 0000 303f  ?_=?.=.9..-I..0?
	0x0030:  5011 ffd7 6939 0000                      P.??i9..
13:48:51.216155 IP (tos 0x0, ttl 51, id 1, offset 0, flags [none], proto TCP (6), length 40)
    192.95.61.160.6969 > 10.108.56.88.36157: Flags [F.], cksum 0x4910 (correct), seq 6, ack 7, win 8192, length 0
	0x0000:  0000 0200 0000 0000 0000 0000 0000 0800  ................
	0x0010:  4500 0028 0001 0000 3306 470c c05f 3da0  E..(....3.G.?_=?
	0x0020:  0a6c 3858 1b39 8d3d 0000 303f 0000 2d4a  .l8X.9.=..0?..-J
	0x0030:  5011 2000 4910 0000                      P...I...
13:48:51.219206 IP (tos 0x0, ttl 40, id 39561, offset 0, flags [none], proto TCP (6), length 40)
    10.108.56.88.36157 > 192.95.61.160.6969: Flags [.], cksum 0x6c2e (correct), seq 6, ack 4294966546, win 65495, length 0
	0x0000:  0004 0200 0000 0000 0000 0000 0000 0800  ................
	0x0010:  4500 0028 9a89 0000 2806 b783 0a6c 3858  E..(....(.?..l8X
	0x0020:  c05f 3da0 8d3d 1b39 0000 2d49 0000 2d4b  ?_=?.=.9..-I..-K
	0x0030:  5010 ffd7 6c2e 0000                      P.??l...
13:48:51.472389 IP (tos 0x0, ttl 40, id 39562, offset 0, flags [none], proto TCP (6), length 40)
    10.108.56.88.5717 > 192.95.61.160.6969: Flags [S], cksum 0x81d6 (correct), seq 47074, win 65495, length 0
	0x0000:  0004 0200 0000 0000 0000 0000 0000 0800  ................
	0x0010:  4500 0028 9a8a 0000 2806 b782 0a6c 3858  E..(....(.?..l8X
	0x0020:  c05f 3da0 1655 1b39 0000 b7e2 0000 0000  ?_=?.U.9..??....
	0x0030:  5402 ffd7 81d6 0000                      T.??.?..
13:48:55.066314 IP (tos 0x0, ttl 51, id 1, offset 0, flags [none], proto TCP (6), length 40)
    192.95.61.160.6969 > 10.108.56.88.5717: Flags [S.], cksum 0x3164 (correct), seq 12345, ack 47075, win 8192, length 0
	0x0000:  0000 0200 0000 0000 0000 0000 0000 0800  ................
	0x0010:  4500 0028 0001 0000 3306 470c c05f 3da0  E..(....3.G.?_=?
	0x0020:  0a6c 3858 1b39 1655 0000 3039 0000 b7e3  .l8X.9.U..09..??
	0x0030:  5412 2000 3164 0000                      T...1d..
13:48:55.070827 IP (tos 0x0, ttl 40, id 39564, offset 0, flags [none], proto TCP (6), length 40)
    10.108.56.88.5717 > 192.95.61.160.6969: Flags [.], cksum 0x518d (correct), seq 1, ack 1, win 65495, length 0
	0x0000:  0004 0200 0000 0000 0000 0000 0000 0800  ................
	0x0010:  4500 0028 9a8c 0000 2806 b780 0a6c 3858  E..(....(.?..l8X
	0x0020:  c05f 3da0 1655 1b39 0000 b7e3 0000 303a  ?_=?.U.9..??..0:
	0x0030:  5410 ffd7 518d 0000                      T.??Q...
13:48:55.072333 IP (tos 0x0, ttl 40, id 39565, offset 0, flags [none], proto TCP (6), length 45)
    10.108.56.88.5717 > 192.95.61.160.6969: Flags [P.], cksum 0x71ee (correct), seq 1:6, ack 1, win 65495, length 5
	0x0000:  0004 0200 0000 0000 0000 0000 0000 0800  ................
	0x0010:  4500 002d 9a8d 0000 2806 b77a 0a6c 3858  E..-....(.?z.l8X
	0x0020:  c05f 3da0 1655 1b39 0000 b7e3 0000 303a  ?_=?.U.9..??..0:
	0x0030:  5018 ffd7 71ee 0000 4845 4c4c 4f         P.??q?..HELLO
13:48:56.065803 IP (tos 0x0, ttl 51, id 1, offset 0, flags [none], proto TCP (6), length 45)
    192.95.61.160.6969 > 10.108.56.88.5717: Flags [.], cksum 0x51c9 (correct), seq 1:6, ack 6, win 8192, length 5
	0x0000:  0000 0200 0000 0000 0000 0000 0000 0800  ................
	0x0010:  4500 002d 0001 0000 3306 4707 c05f 3da0  E..-....3.G.?_=?
	0x0020:  0a6c 3858 1b39 1655 0000 303a 0000 b7e8  .l8X.9.U..0:..??
	0x0030:  5010 2000 51c9 0000 4f4c 4c45 48         P...Q?..OLLEH
13:48:56.068286 IP (tos 0x0, ttl 40, id 39567, offset 0, flags [none], proto TCP (6), length 40)
    10.108.56.88.5717 > 192.95.61.160.6969: Flags [.], cksum 0x5583 (correct), seq 6, ack 6, win 65495, length 0
	0x0000:  0004 0200 0000 0000 0000 0000 0000 0800  ................
	0x0010:  4500 0028 9a8f 0000 2806 b77d 0a6c 3858  E..(....(.?}.l8X
	0x0020:  c05f 3da0 1655 1b39 0000 b7e8 0000 303f  ?_=?.U.9..??..0?
	0x0030:  5010 ffd7 5583 0000                      P.??U...
13:48:56.071417 IP (tos 0x0, ttl 40, id 39568, offset 0, flags [none], proto TCP (6), length 40)
    10.108.56.88.5717 > 192.95.61.160.6969: Flags [F.], cksum 0x5582 (correct), seq 6, ack 6, win 65495, length 0
	0x0000:  0004 0200 0000 0000 0000 0000 0000 0800  ................
	0x0010:  4500 0028 9a90 0000 2806 b77c 0a6c 3858  E..(....(.?|.l8X
	0x0020:  c05f 3da0 1655 1b39 0000 b7e8 0000 303f  ?_=?.U.9..??..0?
	0x0030:  5011 ffd7 5582 0000                      P.??U...
13:48:57.175854 IP (tos 0x0, ttl 51, id 1, offset 0, flags [none], proto TCP (6), length 40)
    192.95.61.160.6969 > 10.108.56.88.5717: Flags [F.], cksum 0x3559 (correct), seq 6, ack 7, win 8192, length 0
	0x0000:  0000 0200 0000 0000 0000 0000 0000 0800  ................
	0x0010:  4500 0028 0001 0000 3306 470c c05f 3da0  E..(....3.G.?_=?
	0x0020:  0a6c 3858 1b39 1655 0000 303f 0000 b7e9  .l8X.9.U..0?..??
	0x0030:  5011 2000 3559 0000                      P...5Y..
13:48:57.180153 IP (tos 0x0, ttl 40, id 39570, offset 0, flags [none], proto TCP (6), length 40)
    10.108.56.88.5717 > 192.95.61.160.6969: Flags [.], cksum 0xcdd7 (correct), seq 6, ack 34737, win 65495, length 0
	0x0000:  0004 0200 0000 0000 0000 0000 0000 0800  ................
	0x0010:  4500 0028 9a92 0000 2806 b77a 0a6c 3858  E..(....(.?z.l8X
	0x0020:  c05f 3da0 1655 1b39 0000 b7e8 0000 b7ea  ?_=?.U.9..??..??
	0x0030:  5010 ffd7 cdd7 0000                      P.????..
13:48:57.399051 IP (tos 0x0, ttl 40, id 39571, offset 0, flags [none], proto TCP (6), length 40)
    10.108.56.88.65327 > 192.95.61.160.6969: Flags [S], cksum 0x6ca7 (correct), seq 57398, win 65495, length 0
	0x0000:  0004 0200 0000 0000 0000 0000 0000 0800  ................
	0x0010:  4500 0028 9a93 0000 2806 b779 0a6c 3858  E..(....(.?y.l8X
	0x0020:  c05f 3da0 ff2f 1b39 0000 e036 0000 0000  ?_=??/.9..?6....
	0x0030:  5802 ffd7 6ca7 0000                      X.??l?..
13:48:58.086046 IP (tos 0x0, ttl 51, id 1, offset 0, flags [none], proto TCP (6), length 40)
    192.95.61.160.6969 > 10.108.56.88.65327: Flags [S.], cksum 0x1c35 (correct), seq 12345, ack 57399, win 8192, length 0
	0x0000:  0000 0200 0000 0000 0000 0000 0000 0800  ................
	0x0010:  4500 0028 0001 0000 3306 470c c05f 3da0  E..(....3.G.?_=?
	0x0020:  0a6c 3858 1b39 ff2f 0000 3039 0000 e037  .l8X.9?/..09..?7
	0x0030:  5812 2000 1c35 0000                      X....5..
13:48:58.090328 IP (tos 0x0, ttl 40, id 39573, offset 0, flags [none], proto TCP (6), length 40)
    10.108.56.88.65327 > 192.95.61.160.6969: Flags [.], cksum 0x3c5e (correct), seq 1, ack 1, win 65495, length 0
	0x0000:  0004 0200 0000 0000 0000 0000 0000 0800  ................
	0x0010:  4500 0028 9a95 0000 2806 b777 0a6c 3858  E..(....(.?w.l8X
	0x0020:  c05f 3da0 ff2f 1b39 0000 e037 0000 303a  ?_=??/.9..?7..0:
	0x0030:  5810 ffd7 3c5e 0000                      X.??<^..
13:48:58.091836 IP (tos 0x0, ttl 40, id 39574, offset 0, flags [none], proto TCP (6), length 45)
    10.108.56.88.65327 > 192.95.61.160.6969: Flags [P.], cksum 0x60bf (correct), seq 1:6, ack 1, win 65495, length 5
	0x0000:  0004 0200 0000 0000 0000 0000 0000 0800  ................
	0x0010:  4500 002d 9a96 0000 2806 b771 0a6c 3858  E..-....(.?q.l8X
	0x0020:  c05f 3da0 ff2f 1b39 0000 e037 0000 303a  ?_=??/.9..?7..0:
	0x0030:  5018 ffd7 60bf 0000 4845 4c4c 4f         P.??`?..HELLO
13:49:03.365911 IP (tos 0x0, ttl 51, id 1, offset 0, flags [none], proto TCP (6), length 45)
    192.95.61.160.6969 > 10.108.56.88.65327: Flags [.], cksum 0x409a (correct), seq 1:6, ack 6, win 8192, length 5
	0x0000:  0000 0200 0000 0000 0000 0000 0000 0800  ................
	0x0010:  4500 002d 0001 0000 3306 4707 c05f 3da0  E..-....3.G.?_=?
	0x0020:  0a6c 3858 1b39 ff2f 0000 303a 0000 e03c  .l8X.9?/..0:..?<
	0x0030:  5010 2000 409a 0000 4f4c 4c45 48         P...@...OLLEH
13:49:03.368405 IP (tos 0x0, ttl 40, id 39576, offset 0, flags [none], proto TCP (6), length 40)
    10.108.56.88.65327 > 192.95.61.160.6969: Flags [.], cksum 0x4454 (correct), seq 6, ack 6, win 65495, length 0
	0x0000:  0004 0200 0000 0000 0000 0000 0000 0800  ................
	0x0010:  4500 0028 9a98 0000 2806 b774 0a6c 3858  E..(....(.?t.l8X
	0x0020:  c05f 3da0 ff2f 1b39 0000 e03c 0000 303f  ?_=??/.9..?<..0?
	0x0030:  5010 ffd7 4454 0000                      P.??DT..
13:49:03.368889 IP (tos 0x0, ttl 40, id 39577, offset 0, flags [none], proto TCP (6), length 40)
    10.108.56.88.65327 > 192.95.61.160.6969: Flags [F.], cksum 0x4453 (correct), seq 6, ack 6, win 65495, length 0
	0x0000:  0004 0200 0000 0000 0000 0000 0000 0800  ................
	0x0010:  4500 0028 9a99 0000 2806 b773 0a6c 3858  E..(....(.?s.l8X
	0x0020:  c05f 3da0 ff2f 1b39 0000 e03c 0000 303f  ?_=??/.9..?<..0?
	0x0030:  5011 ffd7 4453 0000                      P.??DS..
13:49:08.016455 IP (tos 0x0, ttl 51, id 1, offset 0, flags [none], proto TCP (6), length 40)
    192.95.61.160.6969 > 10.108.56.88.65327: Flags [F.], cksum 0x242a (correct), seq 6, ack 7, win 8192, length 0
	0x0000:  0000 0200 0000 0000 0000 0000 0000 0800  ................
	0x0010:  4500 0028 0001 0000 3306 470c c05f 3da0  E..(....3.G.?_=?
	0x0020:  0a6c 3858 1b39 ff2f 0000 303f 0000 e03d  .l8X.9?/..0?..?=
	0x0030:  5011 2000 242a 0000                      P...$*..
13:49:08.025041 IP (tos 0x0, ttl 40, id 39579, offset 0, flags [none], proto TCP (6), length 40)
    10.108.56.88.65327 > 192.95.61.160.6969: Flags [.], cksum 0x9454 (correct), seq 6, ack 45061, win 65495, length 0
	0x0000:  0004 0200 0000 0000 0000 0000 0000 0800  ................
	0x0010:  4500 0028 9a9b 0000 2806 b771 0a6c 3858  E..(....(.?q.l8X
	0x0020:  c05f 3da0 ff2f 1b39 0000 e03c 0000 e03e  ?_=??/.9..?<..?>
	0x0030:  5010 ffd7 9454 0000                      P.??.T..
13:49:08.263221 IP (tos 0x0, ttl 40, id 39580, offset 0, flags [none], proto TCP (6), length 40)
    10.108.56.88.27614 > 192.95.61.160.6969: Flags [S], cksum 0xc062 (correct), seq 10189, win 65495, length 0
	0x0000:  0004 0200 0000 0000 0000 0000 0000 0800  ................
	0x0010:  4500 0028 9a9c 0000 2806 b770 0a6c 3858  E..(....(.?p.l8X
	0x0020:  c05f 3da0 6bde 1b39 0000 27cd 0000 0000  ?_=?k?.9..'?....
	0x0030:  5002 ffd7 c062 0000                      P.???b..
13:49:10.765995 IP (tos 0x0, ttl 51, id 1, offset 0, flags [none], proto TCP (6), length 40)
    192.95.61.160.6969 > 10.108.56.88.27614: Flags [S.], cksum 0xb1eb (correct), seq 12345, ack 10190, win 8192, length 0
	0x0000:  0000 0200 0000 0000 0000 0000 0000 0800  ................
	0x0010:  4500 0028 0001 0000 3306 470c c05f 3da0  E..(....3.G.?_=?
	0x0020:  0a6c 3858 1b39 6bde 0000 3039 0000 27ce  .l8X.9k?..09..'?
	0x0030:  5012 2000 b1eb be04                      P...??.
13:49:10.768734 IP (tos 0x0, ttl 40, id 39582, offset 0, flags [none], proto TCP (6), length 40)
    10.108.56.88.27614 > 192.95.61.160.6969: Flags [.], cksum 0x9019 (correct), seq 1, ack 1, win 65495, length 0
	0x0000:  0004 0200 0000 0000 0000 0000 0000 0800  ................
	0x0010:  4500 0028 9a9e 0000 2806 b76e 0a6c 3858  E..(....(.?n.l8X
	0x0020:  c05f 3da0 6bde 1b39 0000 27ce 0000 303a  ?_=?k?.9..'?..0:
	0x0030:  5010 ffd7 9019 0000                      P.??....
13:49:10.769502 IP (tos 0x0, ttl 40, id 39583, offset 0, flags [none], proto TCP (6), length 45)
    10.108.56.88.27614 > 192.95.61.160.6969: Flags [P.], cksum 0xab7a (correct), seq 1:6, ack 1, win 65495, length 5
	0x0000:  0004 0200 0000 0000 0000 0000 0000 0800  ................
	0x0010:  4500 002d 9a9f 0000 2806 b768 0a6c 3858  E..-....(.?h.l8X
	0x0020:  c05f 3da0 6bde 1b39 0000 27ce 0000 303a  ?_=?k?.9..'?..0:
	0x0030:  5118 ffd7 ab7a 0000 4845 4c4c 4f         Q.?׫z..HELLO
13:49:11.396039 IP (tos 0x0, ttl 51, id 1, offset 0, flags [none], proto TCP (6), length 45)
    192.95.61.160.6969 > 10.108.56.88.27614: Flags [.], cksum 0x8b55 (correct), seq 1:6, ack 6, win 8192, length 5
	0x0000:  0000 0200 0000 0000 0000 0000 0000 0800  ................
	0x0010:  4500 002d 0001 0000 3306 4707 c05f 3da0  E..-....3.G.?_=?
	0x0020:  0a6c 3858 1b39 6bde 0000 303a 0000 27d3  .l8X.9k?..0:..'?
	0x0030:  5110 2000 8b55 0000 4f4c 4c45 48         Q....U..OLLEH
13:49:11.397886 IP (tos 0x0, ttl 40, id 39585, offset 0, flags [none], proto TCP (6), length 40)
    10.108.56.88.27614 > 192.95.61.160.6969: Flags [.], cksum 0x8f0f (correct), seq 6, ack 6, win 65495, length 0
	0x0000:  0004 0200 0000 0000 0000 0000 0000 0800  ................
	0x0010:  4500 0028 9aa1 0000 2806 b76b 0a6c 3858  E..(.?..(.?k.l8X
	0x0020:  c05f 3da0 6bde 1b39 0000 27d3 0000 303f  ?_=?k?.9..'?..0?
	0x0030:  5110 ffd7 8f0f 0000                      Q.??....
13:49:11.398328 IP (tos 0x0, ttl 40, id 39586, offset 0, flags [none], proto TCP (6), length 40)
    10.108.56.88.27614 > 192.95.61.160.6969: Flags [F.], cksum 0x8f0e (correct), seq 6, ack 6, win 65495, length 0
	0x0000:  0004 0200 0000 0000 0000 0000 0000 0800  ................
	0x0010:  4500 0028 9aa2 0000 2806 b76a 0a6c 3858  E..(.?..(.?j.l8X
	0x0020:  c05f 3da0 6bde 1b39 0000 27d3 0000 303f  ?_=?k?.9..'?..0?
	0x0030:  5111 ffd7 8f0e 0000                      Q.??....
13:49:12.166106 IP (tos 0x0, ttl 51, id 1, offset 0, flags [none], proto TCP (6), length 40)
    192.95.61.160.6969 > 10.108.56.88.27614: Flags [F.], cksum 0x6fe5 (correct), seq 6, ack 7, win 8192, length 0
	0x0000:  0000 0200 0000 0000 0000 0000 0000 0800  ................
	0x0010:  4500 0028 0001 0000 3306 470c c05f 3da0  E..(....3.G.?_=?
	0x0020:  0a6c 3858 1b39 6bde 0000 303f 0000 27d4  .l8X.9k?..0?..'?
	0x0030:  5011 2000 6fe5 0000                      P...o?..
13:49:12.168689 IP (tos 0x0, ttl 40, id 39588, offset 0, flags [none], proto TCP (6), length 40)
    10.108.56.88.27614 > 192.95.61.160.6969: Flags [.], cksum 0x9879 (correct), seq 6, ack 4294965148, win 65495, length 0
	0x0000:  0004 0200 0000 0000 0000 0000 0000 0800  ................
	0x0010:  4500 0028 9aa4 0000 2806 b768 0a6c 3858  E..(.?..(.?h.l8X
	0x0020:  c05f 3da0 6bde 1b39 0000 27d3 0000 27d5  ?_=?k?.9..'?..'?
	0x0030:  5010 ffd7 9879 0000                      P.??.y..
13:49:12.391772 IP (tos 0x0, ttl 40, id 39589, offset 0, flags [none], proto TCP (6), length 40)
    10.108.56.88.19199 > 192.95.61.160.6969: Flags [S], cksum 0x8038 (correct), seq 35030, win 65495, length 0
	0x0000:  0004 0200 0000 0000 0000 0000 0000 0800  ................
	0x0010:  4500 0028 9aa5 0000 2806 b767 0a6c 3858  E..(.?..(.?g.l8X
	0x0020:  c05f 3da0 4aff 1b39 0000 88d6 0000 0000  ?_=?J?.9...?....
	0x0030:  5002 ffd7 8038 0000                      P.??.8..
13:49:12.916107 IP (tos 0x0, ttl 51, id 1, offset 0, flags [none], proto TCP (6), length 40)
    192.95.61.160.6969 > 10.108.56.88.19199: Flags [S.], cksum 0x71c1 (correct), seq 12345, ack 35031, win 8192, length 0
	0x0000:  0000 0200 0000 0000 0000 0000 0000 0800  ................
	0x0010:  4500 0028 0001 0000 3306 470c c05f 3da0  E..(....3.G.?_=?
	0x0020:  0a6c 3858 1b39 4aff 0000 3039 0000 88d7  .l8X.9J?..09...?
	0x0030:  5012 2000 71c1 be04                      P...q??.
13:49:12.923155 IP (tos 0x0, ttl 40, id 39591, offset 0, flags [none], proto TCP (6), length 40)
    10.108.56.88.19199 > 192.95.61.160.6969: Flags [.], cksum 0x4fef (correct), seq 1, ack 1, win 65495, length 0
	0x0000:  0004 0200 0000 0000 0000 0000 0000 0800  ................
	0x0010:  4500 0028 9aa7 0000 2806 b765 0a6c 3858  E..(.?..(.?e.l8X
	0x0020:  c05f 3da0 4aff 1b39 0000 88d7 0000 303a  ?_=?J?.9...?..0:
	0x0030:  5010 ffd7 4fef 0000                      P.??O?..
13:49:12.933104 IP (tos 0x0, ttl 40, id 39592, offset 0, flags [none], proto TCP (6), length 45)
    10.108.56.88.19199 > 192.95.61.160.6969: Flags [P.], cksum 0x6a50 (correct), seq 1:6, ack 1, win 65495, length 5
	0x0000:  0004 0200 0000 0000 0000 0000 0000 0800  ................
	0x0010:  4500 002d 9aa8 0000 2806 b75f 0a6c 3858  E..-.?..(.?_.l8X
	0x0020:  c05f 3da0 4aff 1b39 0000 88d7 0000 303a  ?_=?J?.9...?..0:
	0x0030:  5218 ffd7 6a50 0000 4845 4c4c 4f         R.??jP..HELLO
13:49:13.726366 IP (tos 0x0, ttl 51, id 1, offset 0, flags [none], proto TCP (6), length 45)
    192.95.61.160.6969 > 10.108.56.88.19199: Flags [.], cksum 0x4a2b (correct), seq 1:6, ack 6, win 8192, length 5
	0x0000:  0000 0200 0000 0000 0000 0000 0000 0800  ................
	0x0010:  4500 002d 0001 0000 3306 4707 c05f 3da0  E..-....3.G.?_=?
	0x0020:  0a6c 3858 1b39 4aff 0000 303a 0000 88dc  .l8X.9J?..0:...?
	0x0030:  5210 2000 4a2b 0000 4f4c 4c45 48         R...J+..OLLEH
13:49:13.730910 IP (tos 0x0, ttl 40, id 39594, offset 0, flags [none], proto TCP (6), length 40)
    10.108.56.88.19199 > 192.95.61.160.6969: Flags [.], cksum 0x4de5 (correct), seq 6, ack 6, win 65495, length 0
	0x0000:  0004 0200 0000 0000 0000 0000 0000 0800  ................
	0x0010:  4500 0028 9aaa 0000 2806 b762 0a6c 3858  E..(.?..(.?b.l8X
	0x0020:  c05f 3da0 4aff 1b39 0000 88dc 0000 303f  ?_=?J?.9...?..0?
	0x0030:  5210 ffd7 4de5 0000                      R.??M?..
13:49:13.731832 IP (tos 0x0, ttl 40, id 39595, offset 0, flags [none], proto TCP (6), length 40)
    10.108.56.88.19199 > 192.95.61.160.6969: Flags [F.], cksum 0x4de4 (correct), seq 6, ack 6, win 65495, length 0
	0x0000:  0004 0200 0000 0000 0000 0000 0000 0800  ................
	0x0010:  4500 0028 9aab 0000 2806 b761 0a6c 3858  E..(.?..(.?a.l8X
	0x0020:  c05f 3da0 4aff 1b39 0000 88dc 0000 303f  ?_=?J?.9...?..0?
	0x0030:  5211 ffd7 4de4 0000                      R.??M?..
13:49:14.916608 IP (tos 0x0, ttl 51, id 1, offset 0, flags [none], proto TCP (6), length 40)
    192.95.61.160.6969 > 10.108.56.88.19199: Flags [F.], cksum 0x2fbb (correct), seq 6, ack 7, win 8192, length 0
	0x0000:  0000 0200 0000 0000 0000 0000 0000 0800  ................
	0x0010:  4500 0028 0001 0000 3306 470c c05f 3da0  E..(....3.G.?_=?
	0x0020:  0a6c 3858 1b39 4aff 0000 303f 0000 88dd  .l8X.9J?..0?...?
	0x0030:  5011 2000 2fbb 0000                      P.../?..
13:49:14.923259 IP (tos 0x0, ttl 40, id 39597, offset 0, flags [none], proto TCP (6), length 40)
    10.108.56.88.19199 > 192.95.61.160.6969: Flags [.], cksum 0xf745 (correct), seq 6, ack 22693, win 65495, length 0
	0x0000:  0004 0200 0000 0000 0000 0000 0000 0800  ................
	0x0010:  4500 0028 9aad 0000 2806 b75f 0a6c 3858  E..(.?..(.?_.l8X
	0x0020:  c05f 3da0 4aff 1b39 0000 88dc 0000 88de  ?_=?J?.9...?...?
	0x0030:  5010 ffd7 f745 0000                      P.???E..
13:49:15.169219 IP (tos 0x0, ttl 40, id 39598, offset 0, flags [none], proto TCP (6), length 40)
    10.108.56.88.11317 > 192.95.61.160.6969: Flags [S], cksum 0x6cb1 (correct), seq 47911, win 65495, length 0
	0x0000:  0004 0200 0000 0000 0000 0000 0000 0800  ................
	0x0010:  4500 0028 9aae 0000 2806 b75e 0a6c 3858  E..(.?..(.?^.l8X
	0x0020:  c05f 3da0 2c35 1b39 0000 bb27 0000 0000  ?_=?,5.9..?'....
	0x0030:  5002 ffd7 6cb1 0000                      P.??l?..
13:49:15.666572 IP (tos 0x0, ttl 51, id 1, offset 0, flags [none], proto TCP (6), length 40)
    192.95.61.160.6969 > 10.108.56.88.11317: Flags [S.], cksum 0x5e3a (correct), seq 12345, ack 47912, win 8192, length 0
	0x0000:  0000 0200 0000 0000 0000 0000 0000 0800  ................
	0x0010:  4500 0028 0001 0000 3306 470c c05f 3da0  E..(....3.G.?_=?
	0x0020:  0a6c 3858 1b39 2c35 0000 3039 0000 bb28  .l8X.9,5..09..?(
	0x0030:  5012 2000 5e3a be04                      P...^:?.
13:49:15.673396 IP (tos 0x0, ttl 40, id 39600, offset 0, flags [none], proto TCP (6), length 40)
    10.108.56.88.11317 > 192.95.61.160.6969: Flags [.], cksum 0x3c68 (correct), seq 1, ack 1, win 65495, length 0
	0x0000:  0004 0200 0000 0000 0000 0000 0000 0800  ................
	0x0010:  4500 0028 9ab0 0000 2806 b75c 0a6c 3858  E..(.?..(.?\.l8X
	0x0020:  c05f 3da0 2c35 1b39 0000 bb28 0000 303a  ?_=?,5.9..?(..0:
	0x0030:  5010 ffd7 3c68 0000                      P.??<h..
13:49:15.681007 IP (tos 0x0, ttl 40, id 39601, offset 0, flags [none], proto TCP (6), length 45)
    10.108.56.88.11317 > 192.95.61.160.6969: Flags [P.], cksum 0x54c9 (correct), seq 1:6, ack 1, win 65495, length 5
	0x0000:  0004 0200 0000 0000 0000 0000 0000 0800  ................
	0x0010:  4500 002d 9ab1 0000 2806 b756 0a6c 3858  E..-.?..(.?V.l8X
	0x0020:  c05f 3da0 2c35 1b39 0000 bb28 0000 303a  ?_=?,5.9..?(..0:
	0x0030:  5418 ffd7 54c9 0000 4845 4c4c 4f         T.??T?..HELLO
13:49:16.526298 IP (tos 0x0, ttl 51, id 1, offset 0, flags [none], proto TCP (6), length 45)
    192.95.61.160.6969 > 10.108.56.88.11317: Flags [.], cksum 0x34a4 (correct), seq 1:6, ack 6, win 8192, length 5
	0x0000:  0000 0200 0000 0000 0000 0000 0000 0800  ................
	0x0010:  4500 002d 0001 0000 3306 4707 c05f 3da0  E..-....3.G.?_=?
	0x0020:  0a6c 3858 1b39 2c35 0000 303a 0000 bb2d  .l8X.9,5..0:..?-
	0x0030:  5410 2000 34a4 0000 4f4c 4c45 48         T...4?..OLLEH
13:49:16.531685 IP (tos 0x0, ttl 40, id 39603, offset 0, flags [none], proto TCP (6), length 40)
    10.108.56.88.11317 > 192.95.61.160.6969: Flags [.], cksum 0x385e (correct), seq 6, ack 6, win 65495, length 0
	0x0000:  0004 0200 0000 0000 0000 0000 0000 0800  ................
	0x0010:  4500 0028 9ab3 0000 2806 b759 0a6c 3858  E..(.?..(.?Y.l8X
	0x0020:  c05f 3da0 2c35 1b39 0000 bb2d 0000 303f  ?_=?,5.9..?-..0?
	0x0030:  5410 ffd7 385e 0000                      T.??8^..
13:49:16.532617 IP (tos 0x0, ttl 40, id 39604, offset 0, flags [none], proto TCP (6), length 40)
    10.108.56.88.11317 > 192.95.61.160.6969: Flags [F.], cksum 0x385d (correct), seq 6, ack 6, win 65495, length 0
	0x0000:  0004 0200 0000 0000 0000 0000 0000 0800  ................
	0x0010:  4500 0028 9ab4 0000 2806 b758 0a6c 3858  E..(.?..(.?X.l8X
	0x0020:  c05f 3da0 2c35 1b39 0000 bb2d 0000 303f  ?_=?,5.9..?-..0?
	0x0030:  5411 ffd7 385d 0000                      T.??8]..
13:49:17.316444 IP (tos 0x0, ttl 51, id 1, offset 0, flags [none], proto TCP (6), length 40)
    192.95.61.160.6969 > 10.108.56.88.11317: Flags [F.], cksum 0x1c34 (correct), seq 6, ack 7, win 8192, length 0
	0x0000:  0000 0200 0000 0000 0000 0000 0000 0800  ................
	0x0010:  4500 0028 0001 0000 3306 470c c05f 3da0  E..(....3.G.?_=?
	0x0020:  0a6c 3858 1b39 2c35 0000 303f 0000 bb2e  .l8X.9,5..0?..?.
	0x0030:  5011 2000 1c34 0000                      P....4..
13:49:17.320668 IP (tos 0x0, ttl 40, id 39606, offset 0, flags [none], proto TCP (6), length 40)
    10.108.56.88.11317 > 192.95.61.160.6969: Flags [.], cksum 0xb16d (correct), seq 6, ack 35574, win 65495, length 0
	0x0000:  0004 0200 0000 0000 0000 0000 0000 0800  ................
	0x0010:  4500 0028 9ab6 0000 2806 b756 0a6c 3858  E..(.?..(.?V.l8X
	0x0020:  c05f 3da0 2c35 1b39 0000 bb2d 0000 bb2f  ?_=?,5.9..?-..?/
	0x0030:  5010 ffd7 b16d 0000                      P.?ױm..
13:49:17.549055 IP (tos 0x0, ttl 40, id 39607, offset 0, flags [none], proto TCP (6), length 40)
    10.108.56.88.59194 > 192.95.61.160.6969: Flags [S], cksum 0x86b6 (correct), seq 58908, win 65495, length 0
	0x0000:  0004 0200 0000 0000 0000 0000 0000 0800  ................
	0x0010:  4500 0028 9ab7 0000 2806 b755 0a6c 3858  E..(.?..(.?U.l8X
	0x0020:  c05f 3da0 e73a 1b39 0000 e61c 0000 0000  ?_=??:.9..?.....
	0x0030:  5002 ffd7 86b6 0000                      P.??.?..
13:49:18.286368 IP (tos 0x0, ttl 51, id 1, offset 0, flags [none], proto TCP (6), length 40)
    192.95.61.160.6969 > 10.108.56.88.59194: Flags [S.], cksum 0x783f (correct), seq 12345, ack 58909, win 8192, length 0
	0x0000:  0000 0200 0000 0000 0000 0000 0000 0800  ................
	0x0010:  4500 0028 0001 0000 3306 470c c05f 3da0  E..(....3.G.?_=?
	0x0020:  0a6c 3858 1b39 e73a 0000 3039 0000 e61d  .l8X.9?:..09..?.
	0x0030:  5012 2000 783f be04                      P...x??.
13:49:18.300276 IP (tos 0x0, ttl 40, id 39609, offset 0, flags [none], proto TCP (6), length 40)
    10.108.56.88.59194 > 192.95.61.160.6969: Flags [.], cksum 0x566d (correct), seq 1, ack 1, win 65495, length 0
	0x0000:  0004 0200 0000 0000 0000 0000 0000 0800  ................
	0x0010:  4500 0028 9ab9 0000 2806 b753 0a6c 3858  E..(.?..(.?S.l8X
	0x0020:  c05f 3da0 e73a 1b39 0000 e61d 0000 303a  ?_=??:.9..?...0:
	0x0030:  5010 ffd7 566d 0000                      P.??Vm..
13:49:18.301922 IP (tos 0x0, ttl 40, id 39610, offset 0, flags [none], proto TCP (6), length 45)
    10.108.56.88.59194 > 192.95.61.160.6969: Flags [P.], cksum 0x6ace (correct), seq 1:6, ack 1, win 65495, length 5
	0x0000:  0004 0200 0000 0000 0000 0000 0000 0800  ................
	0x0010:  4500 002d 9aba 0000 2806 b74d 0a6c 3858  E..-.?..(.?M.l8X
	0x0020:  c05f 3da0 e73a 1b39 0000 e61d 0000 303a  ?_=??:.9..?...0:
	0x0030:  5818 ffd7 6ace 0000 4845 4c4c 4f         X.??j?..HELLO
13:49:19.156286 IP (tos 0x0, ttl 51, id 1, offset 0, flags [none], proto TCP (6), length 45)
    192.95.61.160.6969 > 10.108.56.88.59194: Flags [.], cksum 0x4aa9 (correct), seq 1:6, ack 6, win 8192, length 5
	0x0000:  0000 0200 0000 0000 0000 0000 0000 0800  ................
	0x0010:  4500 002d 0001 0000 3306 4707 c05f 3da0  E..-....3.G.?_=?
	0x0020:  0a6c 3858 1b39 e73a 0000 303a 0000 e622  .l8X.9?:..0:..?"
	0x0030:  5810 2000 4aa9 0000 4f4c 4c45 48         X...J?..OLLEH
13:49:19.160691 IP (tos 0x0, ttl 40, id 39612, offset 0, flags [none], proto TCP (6), length 40)
    10.108.56.88.59194 > 192.95.61.160.6969: Flags [.], cksum 0x4e63 (correct), seq 6, ack 6, win 65495, length 0
	0x0000:  0004 0200 0000 0000 0000 0000 0000 0800  ................
	0x0010:  4500 0028 9abc 0000 2806 b750 0a6c 3858  E..(.?..(.?P.l8X
	0x0020:  c05f 3da0 e73a 1b39 0000 e622 0000 303f  ?_=??:.9..?"..0?
	0x0030:  5810 ffd7 4e63 0000                      X.??Nc..
13:49:19.161628 IP (tos 0x0, ttl 40, id 39613, offset 0, flags [none], proto TCP (6), length 40)
    10.108.56.88.59194 > 192.95.61.160.6969: Flags [F.], cksum 0x4e62 (correct), seq 6, ack 6, win 65495, length 0
	0x0000:  0004 0200 0000 0000 0000 0000 0000 0800  ................
	0x0010:  4500 0028 9abd 0000 2806 b74f 0a6c 3858  E..(.?..(.?O.l8X
	0x0020:  c05f 3da0 e73a 1b39 0000 e622 0000 303f  ?_=??:.9..?"..0?
	0x0030:  5811 ffd7 4e62 0000                      X.??Nb..
13:49:20.446352 IP (tos 0x0, ttl 51, id 1, offset 0, flags [none], proto TCP (6), length 40)
    192.95.61.160.6969 > 10.108.56.88.59194: Flags [F.], cksum 0x3639 (correct), seq 6, ack 7, win 8192, length 0
	0x0000:  0000 0200 0000 0000 0000 0000 0000 0800  ................
	0x0010:  4500 0028 0001 0000 3306 470c c05f 3da0  E..(....3.G.?_=?
	0x0020:  0a6c 3858 1b39 e73a 0000 303f 0000 e623  .l8X.9?:..0?..?#
	0x0030:  5011 2000 3639 0000                      P...69..
13:49:20.457445 IP (tos 0x0, ttl 40, id 39615, offset 0, flags [none], proto TCP (6), length 40)
    10.108.56.88.59194 > 192.95.61.160.6969: Flags [.], cksum 0xa07d (correct), seq 6, ack 46571, win 65495, length 0
	0x0000:  0004 0200 0000 0000 0000 0000 0000 0800  ................
	0x0010:  4500 0028 9abf 0000 2806 b74d 0a6c 3858  E..(.?..(.?M.l8X
	0x0020:  c05f 3da0 e73a 1b39 0000 e622 0000 e624  ?_=??:.9..?"..?$
	0x0030:  5010 ffd7 a07d 0000                      P.?נ}..
13:49:20.693106 IP (tos 0x0, ttl 40, id 39616, offset 0, flags [none], proto TCP (6), length 40)
    10.108.56.88.48758 > 192.95.61.160.6969: Flags [S], cksum 0xaa59 (correct), seq 11329, win 65495, length 0
	0x0000:  0004 0200 0000 0000 0000 0000 0000 0800  ................
	0x0010:  4500 0028 9ac0 0000 2806 b74c 0a6c 3858  E..(.?..(.?L.l8X
	0x0020:  c05f 3da0 be76 1b39 0000 2c41 beef 000d  ?_=??v.9..,A??..
	0x0030:  5002 ffd7 aa59 0000                      P.?תY..
13:49:22.366273 IP (tos 0x0, ttl 51, id 1, offset 0, flags [none], proto TCP (6), length 40)
    192.95.61.160.6969 > 10.108.56.88.48758: Flags [S.], cksum 0x6138 (incorrect -> 0x18e4), seq 12345, ack 11330, win 8192, length 0
	0x0000:  0000 0200 0000 0000 0000 0000 0000 0800  ................
	0x0010:  4500 0028 0001 0000 3306 470c c05f 3da0  E..(....3.G.?_=?
	0x0020:  0a6c 3858 1b39 be76 0000 3039 0000 2c42  .l8X.9?v..09..,B
	0x0030:  5012 2000 6138 0000                      P...a8..
13:49:22.368822 IP (tos 0x0, ttl 40, id 39617, offset 0, flags [none], proto TCP (6), length 40)
    10.108.56.88.48758 > 192.95.61.160.6969: Flags [.], cksum 0x390d (correct), seq 1, ack 1, win 65495, length 0
	0x0000:  0004 0200 0000 0000 0000 0000 0000 0800  ................
	0x0010:  4500 0028 9ac1 0000 2806 b74b 0a6c 3858  E..(.?..(.?K.l8X
	0x0020:  c05f 3da0 be76 1b39 0000 2c42 0000 303a  ?_=??v.9..,B..0:
	0x0030:  5010 ffd7 390d 0000                      P.??9...
13:49:22.373643 IP (tos 0x0, ttl 40, id 39618, offset 0, flags [none], proto TCP (6), length 45)
    10.108.56.88.48758 > 192.95.61.160.6969: Flags [P.], cksum 0x556e (correct), seq 1:6, ack 1, win 65495, length 5
	0x0000:  0004 0200 0000 0000 0000 0000 0000 0800  ................
	0x0010:  4500 002d 9ac2 0000 2806 b745 0a6c 3858  E..-.?..(.?E.l8X
	0x0020:  c05f 3da0 be76 1b39 0000 2c42 0000 303a  ?_=??v.9..,B..0:
	0x0030:  5018 ffd7 556e 0000 4845 4c4c 4f         P.??Un..HELLO
13:49:22.996135 IP (tos 0x0, ttl 51, id 1, offset 0, flags [none], proto TCP (6), length 45)
    192.95.61.160.6969 > 10.108.56.88.48758: Flags [.], cksum 0x3549 (correct), seq 1:6, ack 6, win 8192, length 5
	0x0000:  0000 0200 0000 0000 0000 0000 0000 0800  ................
	0x0010:  4500 002d 0001 0000 3306 4707 c05f 3da0  E..-....3.G.?_=?
	0x0020:  0a6c 3858 1b39 be76 0000 303a 0000 2c47  .l8X.9?v..0:..,G
	0x0030:  5010 2000 3549 0000 4f4c 4c45 48         P...5I..OLLEH
13:49:23.000148 IP (tos 0x0, ttl 40, id 39620, offset 0, flags [none], proto TCP (6), length 40)
    10.108.56.88.48758 > 192.95.61.160.6969: Flags [.], cksum 0x3903 (correct), seq 6, ack 6, win 65495, length 0
	0x0000:  0004 0200 0000 0000 0000 0000 0000 0800  ................
	0x0010:  4500 0028 9ac4 0000 2806 b748 0a6c 3858  E..(.?..(.?H.l8X
	0x0020:  c05f 3da0 be76 1b39 0000 2c47 0000 303f  ?_=??v.9..,G..0?
	0x0030:  5010 ffd7 3903 0000                      P.??9...
13:49:23.000609 IP (tos 0x0, ttl 40, id 39621, offset 0, flags [none], proto TCP (6), length 40)
    10.108.56.88.48758 > 192.95.61.160.6969: Flags [F.], cksum 0x3902 (correct), seq 6, ack 6, win 65495, length 0
	0x0000:  0004 0200 0000 0000 0000 0000 0000 0800  ................
	0x0010:  4500 0028 9ac5 0000 2806 b747 0a6c 3858  E..(.?..(.?G.l8X
	0x0020:  c05f 3da0 be76 1b39 0000 2c47 0000 303f  ?_=??v.9..,G..0?
	0x0030:  5011 ffd7 3902 0000                      P.??9...
13:49:23.626122 IP (tos 0x0, ttl 51, id 1, offset 0, flags [none], proto TCP (6), length 40)
    192.95.61.160.6969 > 10.108.56.88.48758: Flags [F.], cksum 0x18d9 (correct), seq 6, ack 7, win 8192, length 0
	0x0000:  0000 0200 0000 0000 0000 0000 0000 0800  ................
	0x0010:  4500 0028 0001 0000 3306 470c c05f 3da0  E..(....3.G.?_=?
	0x0020:  0a6c 3858 1b39 be76 0000 303f 0000 2c48  .l8X.9?v..0?..,H
	0x0030:  5011 2000 18d9 0000                      P....?..
13:49:23.628352 IP (tos 0x0, ttl 40, id 39623, offset 0, flags [none], proto TCP (6), length 40)
    10.108.56.88.48758 > 192.95.61.160.6969: Flags [.], cksum 0x3cf9 (correct), seq 6, ack 4294966288, win 65495, length 0
	0x0000:  0004 0200 0000 0000 0000 0000 0000 0800  ................
	0x0010:  4500 0028 9ac7 0000 2806 b745 0a6c 3858  E..(.?..(.?E.l8X
	0x0020:  c05f 3da0 be76 1b39 0000 2c47 0000 2c49  ?_=??v.9..,G..,I
	0x0030:  5010 ffd7 3cf9 0000                      P.??<?..

