08:48:21.211622 IP (tos 0x0, ttl 27, id 39472, offset 0, flags [none], proto TCP (6), length 40)
    149.254.56.205.40009 > 192.95.61.160.6969: Flags [S], cksum 0xde7a (correct), seq 36433, win 65495, length 0
	0x0000:  0200 00d2 bf75 6c9c edba ec40 0800 4500  .....ul....@..E.
	0x0010:  0028 9a30 0000 1b06 38d5 95fe 38cd c05f  .(.0....8...8.._
	0x0020:  3da0 9c49 1b39 0000 8e51 beef 0001 5002  =..I.9...Q....P.
	0x0030:  ffd7 de7a 0000 0000 0000 0000            ...z........
08:48:21.240516 IP (tos 0x0, ttl 64, id 1, offset 0, flags [none], proto TCP (6), length 40)
    192.95.61.160.6969 > 149.254.56.205.40009: Flags [S.], cksum 0x4cf9 (correct), seq 12345, ack 36434, win 8192, length 0
	0x0000:  0007 b400 0102 0200 00d2 bf75 0800 4500  ...........u..E.
	0x0010:  0028 0001 0000 4006 ae04 c05f 3da0 95fe  .(....@...._=...
	0x0020:  38cd 1b39 9c49 0000 3039 0000 8e52 5012  8..9.I..09...RP.
	0x0030:  2000 4cf9 0000                           ..L...
08:48:21.837501 IP (tos 0x0, ttl 27, id 39474, offset 0, flags [none], proto TCP (6), length 40)
    149.254.56.205.40009 > 192.95.61.160.6969: Flags [.], cksum 0x6d22 (correct), seq 1, ack 1, win 65495, length 0
	0x0000:  0200 00d2 bf75 6c9c edba ec40 0800 4500  .....ul....@..E.
	0x0010:  0028 9a32 0000 1b06 38d3 95fe 38cd c05f  .(.2....8...8.._
	0x0020:  3da0 9c49 1b39 0000 8e52 0000 303a 5010  =..I.9...R..0:P.
	0x0030:  ffd7 6d22 0000 0000 0000 0000            ..m"........
08:48:21.946703 IP (tos 0x0, ttl 27, id 39475, offset 0, flags [none], proto TCP (6), length 45)
    149.254.56.205.40009 > 192.95.61.160.6969: Flags [P.], cksum 0x8983 (correct), seq 1:6, ack 1, win 65495, length 5
	0x0000:  0200 00d2 bf75 6c9c edba ec40 0800 4500  .....ul....@..E.
	0x0010:  002d 9a33 0000 1b06 38cd 95fe 38cd c05f  .-.3....8...8.._
	0x0020:  3da0 9c49 1b39 0000 8e52 0000 303a 5018  =..I.9...R..0:P.
	0x0030:  ffd7 8983 0000 4845 4c4c 4f00            ......HELLO.
08:48:21.953748 IP (tos 0x0, ttl 64, id 1, offset 0, flags [none], proto TCP (6), length 44)
    192.95.61.160.6969 > 149.254.56.205.40009: Flags [.], cksum 0x8e00 (correct), seq 1:5, ack 6, win 8192, length 4
	0x0000:  0007 b400 0102 0200 00d2 bf75 0800 4500  ...........u..E.
	0x0010:  002c 0001 0000 4006 ae00 c05f 3da0 95fe  .,....@...._=...
	0x0020:  38cd 1b39 9c49 0000 303a 0000 8e57 5010  8..9.I..0:...WP.
	0x0030:  2000 8e00 0000 beef 0001                 ..........
08:48:22.466681 IP (tos 0x0, ttl 27, id 39477, offset 0, flags [none], proto TCP (6), length 40)
    149.254.56.205.40009 > 192.95.61.160.6969: Flags [.], cksum 0x6d19 (correct), seq 6, ack 5, win 65495, length 0
	0x0000:  0200 00d2 bf75 6c9c edba ec40 0800 4500  .....ul....@..E.
	0x0010:  0028 9a35 0000 1b06 38d0 95fe 38cd c05f  .(.5....8...8.._
	0x0020:  3da0 9c49 1b39 0000 8e57 0000 303e 5010  =..I.9...W..0>P.
	0x0030:  ffd7 6d19 0000 0000 0000 0000            ..m.........
08:48:22.564057 IP (tos 0x0, ttl 27, id 39478, offset 0, flags [none], proto TCP (6), length 40)
    149.254.56.205.40009 > 192.95.61.160.6969: Flags [F.], cksum 0x6d18 (correct), seq 6, ack 5, win 65495, length 0
	0x0000:  0200 00d2 bf75 6c9c edba ec40 0800 4500  .....ul....@..E.
	0x0010:  0028 9a36 0000 1b06 38cf 95fe 38cd c05f  .(.6....8...8.._
	0x0020:  3da0 9c49 1b39 0000 8e57 0000 303e 5011  =..I.9...W..0>P.
	0x0030:  ffd7 6d18 0000 0000 0000 0000            ..m.........
08:48:22.568886 IP (tos 0x0, ttl 64, id 1, offset 0, flags [none], proto TCP (6), length 40)
    192.95.61.160.6969 > 149.254.56.205.40009: Flags [F.], cksum 0x4cef (correct), seq 5, ack 7, win 8192, length 0
	0x0000:  0007 b400 0102 0200 00d2 bf75 0800 4500  ...........u..E.
	0x0010:  0028 0001 0000 4006 ae04 c05f 3da0 95fe  .(....@...._=...
	0x0020:  38cd 1b39 9c49 0000 303e 0000 8e58 5011  8..9.I..0>...XP.
	0x0030:  2000 4cef 0000                           ..L...
08:48:23.518886 IP (tos 0x0, ttl 27, id 39480, offset 0, flags [none], proto TCP (6), length 40)
    149.254.56.205.40009 > 192.95.61.160.6969: Flags [.], cksum 0x0efe (correct), seq 6, ack 24096, win 65495, length 0
	0x0000:  0200 00d2 bf75 6c9c edba ec40 0800 4500  .....ul....@..E.
	0x0010:  0028 9a38 0000 1b06 38cd 95fe 38cd c05f  .(.8....8...8.._
	0x0020:  3da0 9c49 1b39 0000 8e57 0000 8e59 5010  =..I.9...W...YP.
	0x0030:  ffd7 0efe 0000 0000 0000 0000            ............
08:48:23.635585 IP (tos 0x0, ttl 27, id 39481, offset 0, flags [none], proto TCP (6), length 40)
    149.254.56.205.12779 > 192.95.61.160.6969: Flags [S], cksum 0x6638 (correct), seq 29152, win 65495, length 0
	0x0000:  0200 00d2 bf75 6c9c edba ec40 0800 4500  .....ul....@..E.
	0x0010:  0028 9a39 0000 1b06 38cc 95fe 38cd c05f  .(.9....8...8.._
	0x0020:  3da0 31eb 1b39 0000 71e0 0000 0000 5002  =.1..9..q.....P.
	0x0030:  ffd7 6638 be02 0000 0000 0000            ..f8........
08:48:23.640525 IP (tos 0x0, ttl 64, id 1, offset 0, flags [none], proto TCP (6), length 40)
    192.95.61.160.6969 > 149.254.56.205.12779: Flags [S.], cksum 0xd3c8 (correct), seq 12345, ack 29153, win 8192, length 0
	0x0000:  0007 b400 0102 0200 00d2 bf75 0800 4500  ...........u..E.
	0x0010:  0028 0001 0000 4006 ae04 c05f 3da0 95fe  .(....@...._=...
	0x0020:  38cd 1b39 31eb 0000 3039 0000 71e1 5012  8..91...09..q.P.
	0x0030:  2000 d3c8 0000                           ......
08:48:24.567671 IP (tos 0x0, ttl 27, id 39483, offset 0, flags [none], proto TCP (6), length 40)
    149.254.56.205.12779 > 192.95.61.160.6969: Flags [.], cksum 0xf3f1 (correct), seq 1, ack 1, win 65495, length 0
	0x0000:  0200 00d2 bf75 6c9c edba ec40 0800 4500  .....ul....@..E.
	0x0010:  0028 9a3b 0000 1b06 38ca 95fe 38cd c05f  .(.;....8...8.._
	0x0020:  3da0 31eb 1b39 0000 71e1 0000 303a 5010  =.1..9..q...0:P.
	0x0030:  ffd7 f3f1 0000 0000 0000 0000            ............
08:48:24.672381 IP (tos 0x0, ttl 27, id 39484, offset 0, flags [none], proto TCP (6), length 45)
    149.254.56.205.12779 > 192.95.61.160.6969: Flags [P.], cksum 0x1053 (correct), seq 1:6, ack 1, win 65495, length 5
	0x0000:  0200 00d2 bf75 6c9c edba ec40 0800 4500  .....ul....@..E.
	0x0010:  002d 9a3c 0000 1b06 38c4 95fe 38cd c05f  .-.<....8...8.._
	0x0020:  3da0 31eb 1b39 0000 71e1 0000 303a 5018  =.1..9..q...0:P.
	0x0030:  ffd7 1053 0000 4845 4c4c 4f00            ...S..HELLO.
08:48:24.678286 IP (tos 0x0, ttl 64, id 1, offset 0, flags [none], proto TCP (6), length 42)
    192.95.61.160.6969 > 149.254.56.205.12779: Flags [.], cksum 0x15c0 (correct), seq 1:3, ack 6, win 8192, length 2
	0x0000:  0007 b400 0102 0200 00d2 bf75 0800 4500  ...........u..E.
	0x0010:  002a 0001 0000 4006 ae02 c05f 3da0 95fe  .*....@...._=...
	0x0020:  38cd 1b39 31eb 0000 303a 0000 71e6 5010  8..91...0:..q.P.
	0x0030:  2000 15c0 0000 be02                      ........
08:48:25.288774 IP (tos 0x0, ttl 27, id 39486, offset 0, flags [none], proto TCP (6), length 40)
    149.254.56.205.12779 > 192.95.61.160.6969: Flags [.], cksum 0xf3ea (correct), seq 6, ack 3, win 65495, length 0
	0x0000:  0200 00d2 bf75 6c9c edba ec40 0800 4500  .....ul....@..E.
	0x0010:  0028 9a3e 0000 1b06 38c7 95fe 38cd c05f  .(.>....8...8.._
	0x0020:  3da0 31eb 1b39 0000 71e6 0000 303c 5010  =.1..9..q...0<P.
	0x0030:  ffd7 f3ea 0000 0000 0000 0000            ............
08:48:25.405847 IP (tos 0x0, ttl 27, id 39487, offset 0, flags [none], proto TCP (6), length 40)
    149.254.56.205.12779 > 192.95.61.160.6969: Flags [F.], cksum 0xf3e9 (correct), seq 6, ack 3, win 65495, length 0
	0x0000:  0200 00d2 bf75 6c9c edba ec40 0800 4500  .....ul....@..E.
	0x0010:  0028 9a3f 0000 1b06 38c6 95fe 38cd c05f  .(.?....8...8.._
	0x0020:  3da0 31eb 1b39 0000 71e6 0000 303c 5011  =.1..9..q...0<P.
	0x0030:  ffd7 f3e9 0000 0000 0000 0000            ............
08:48:25.411113 IP (tos 0x0, ttl 64, id 1, offset 0, flags [none], proto TCP (6), length 40)
    192.95.61.160.6969 > 149.254.56.205.12779: Flags [F.], cksum 0xd3c0 (correct), seq 3, ack 7, win 8192, length 0
	0x0000:  0007 b400 0102 0200 00d2 bf75 0800 4500  ...........u..E.
	0x0010:  0028 0001 0000 4006 ae04 c05f 3da0 95fe  .(....@...._=...
	0x0020:  38cd 1b39 31eb 0000 303c 0000 71e7 5011  8..91...0<..q.P.
	0x0030:  2000 d3c0 0000                           ......
08:48:26.071524 IP (tos 0x0, ttl 27, id 39489, offset 0, flags [none], proto TCP (6), length 40)
    149.254.56.205.12779 > 192.95.61.160.6969: Flags [.], cksum 0xb23e (correct), seq 6, ack 16815, win 65495, length 0
	0x0000:  0200 00d2 bf75 6c9c edba ec40 0800 4500  .....ul....@..E.
	0x0010:  0028 9a41 0000 1b06 38c4 95fe 38cd c05f  .(.A....8...8.._
	0x0020:  3da0 31eb 1b39 0000 71e6 0000 71e8 5010  =.1..9..q...q.P.
	0x0030:  ffd7 b23e 0000 0000 0000 0000            ...>........
08:48:26.173583 IP (tos 0x0, ttl 27, id 39490, offset 0, flags [none], proto TCP (6), length 40)
    149.254.56.205.42170 > 192.95.61.160.6969: Flags [S], cksum 0x191c (correct), seq 19261, win 65495, length 0
	0x0000:  0200 00d2 bf75 6c9c edba ec40 0800 4500  .....ul....@..E.
	0x0010:  0028 9a42 0000 1b06 38c3 95fe 38cd c05f  .(.B....8...8.._
	0x0020:  3da0 a4ba 1b39 0000 4b3d beef 0003 5002  =....9..K=....P.
	0x0030:  ffd7 191c 0000 0000 0000 0000            ............
08:48:26.178458 IP (tos 0x0, ttl 64, id 1, offset 0, flags [none], proto TCP (6), length 40)
    192.95.61.160.6969 > 149.254.56.205.42170: Flags [S.], cksum 0xc998 (correct), seq 12345, ack 19262, win 8192, length 0
	0x0000:  0007 b400 0102 0200 00d2 bf75 0800 4500  ...........u..E.
	0x0010:  0028 0001 0000 4006 ae04 c05f 3da0 95fe  .(....@...._=...
	0x0020:  38cd 1b39 a4ba 0000 3039 0000 4b3e 5012  8..9....09..K>P.
	0x0030:  2000 c998 be03                           ......
08:48:26.703255 IP (tos 0x0, ttl 27, id 39492, offset 0, flags [none], proto TCP (6), length 40)
    149.254.56.205.42170 > 192.95.61.160.6969: Flags [.], cksum 0xa7c5 (correct), seq 1, ack 1, win 65495, length 0
	0x0000:  0200 00d2 bf75 6c9c edba ec40 0800 4500  .....ul....@..E.
	0x0010:  0028 9a44 0000 1b06 38c1 95fe 38cd c05f  .(.D....8...8.._
	0x0020:  3da0 a4ba 1b39 0000 4b3e 0000 303a 5010  =....9..K>..0:P.
	0x0030:  ffd7 a7c5 0000 0000 0000 0000            ............
08:48:26.808358 IP (tos 0x0, ttl 27, id 39493, offset 0, flags [none], proto TCP (6), length 45)
    149.254.56.205.42170 > 192.95.61.160.6969: Flags [P.], cksum 0xc426 (correct), seq 1:6, ack 1, win 65495, length 5
	0x0000:  0200 00d2 bf75 6c9c edba ec40 0800 4500  .....ul....@..E.
	0x0010:  002d 9a45 0000 1b06 38bb 95fe 38cd c05f  .-.E....8...8.._
	0x0020:  3da0 a4ba 1b39 0000 4b3e 0000 303a 5018  =....9..K>..0:P.
	0x0030:  ffd7 c426 0000 4845 4c4c 4f00            ...&..HELLO.
08:48:26.814056 IP (tos 0x0, ttl 64, id 1, offset 0, flags [none], proto TCP (6), length 45)
    192.95.61.160.6969 > 149.254.56.205.42170: Flags [.], cksum 0xa401 (correct), seq 1:6, ack 6, win 8192, length 5
	0x0000:  0007 b400 0102 0200 00d2 bf75 0800 4500  ...........u..E.
	0x0010:  002d 0001 0000 4006 adff c05f 3da0 95fe  .-....@...._=...
	0x0020:  38cd 1b39 a4ba 0000 303a 0000 4b43 5010  8..9....0:..KCP.
	0x0030:  2000 a401 0000 4f4c 4c45 48              ......OLLEH
08:48:27.585735 IP (tos 0x0, ttl 27, id 39495, offset 0, flags [none], proto TCP (6), length 40)
    149.254.56.205.42170 > 192.95.61.160.6969: Flags [.], cksum 0xa7bb (correct), seq 6, ack 6, win 65495, length 0
	0x0000:  0200 00d2 bf75 6c9c edba ec40 0800 4500  .....ul....@..E.
	0x0010:  0028 9a47 0000 1b06 38be 95fe 38cd c05f  .(.G....8...8.._
	0x0020:  3da0 a4ba 1b39 0000 4b43 0000 303f 5010  =....9..KC..0?P.
	0x0030:  ffd7 a7bb 0000 0000 0000 0000            ............
08:48:27.705874 IP (tos 0x0, ttl 27, id 39496, offset 0, flags [none], proto TCP (6), length 40)
    149.254.56.205.42170 > 192.95.61.160.6969: Flags [F.], cksum 0xa7ba (correct), seq 6, ack 6, win 65495, length 0
	0x0000:  0200 00d2 bf75 6c9c edba ec40 0800 4500  .....ul....@..E.
	0x0010:  0028 9a48 0000 1b06 38bd 95fe 38cd c05f  .(.H....8...8.._
	0x0020:  3da0 a4ba 1b39 0000 4b43 0000 303f 5011  =....9..KC..0?P.
	0x0030:  ffd7 a7ba 0000 0000 0000 0000            ............
08:48:27.710630 IP (tos 0x0, ttl 64, id 1, offset 0, flags [none], proto TCP (6), length 40)
    192.95.61.160.6969 > 149.254.56.205.42170: Flags [F.], cksum 0x8791 (correct), seq 6, ack 7, win 8192, length 0
	0x0000:  0007 b400 0102 0200 00d2 bf75 0800 4500  ...........u..E.
	0x0010:  0028 0001 0000 4006 ae04 c05f 3da0 95fe  .(....@...._=...
	0x0020:  38cd 1b39 a4ba 0000 303f 0000 4b44 5011  8..9....0?..KDP.
	0x0030:  2000 8791 0000                           ......
08:48:28.225839 IP (tos 0x0, ttl 27, id 39498, offset 0, flags [none], proto TCP (6), length 40)
    149.254.56.205.42170 > 192.95.61.160.6969: Flags [.], cksum 0x8cb5 (correct), seq 6, ack 6924, win 65495, length 0
	0x0000:  0200 00d2 bf75 6c9c edba ec40 0800 4500  .....ul....@..E.
	0x0010:  0028 9a4a 0000 1b06 38bb 95fe 38cd c05f  .(.J....8...8.._
	0x0020:  3da0 a4ba 1b39 0000 4b43 0000 4b45 5010  =....9..KC..KEP.
	0x0030:  ffd7 8cb5 0000 0000 0000 0000            ............
08:48:28.436856 IP (tos 0x0, ttl 27, id 39499, offset 0, flags [none], proto TCP (6), length 40)
    149.254.56.205.37981 > 192.95.61.160.6969: Flags [S], cksum 0x5520 (correct), seq 56968, win 65495, length 0
	0x0000:  0200 00d2 bf75 6c9c edba ec40 0800 4500  .....ul....@..E.
	0x0010:  0028 9a4b 0000 1b06 38ba 95fe 38cd c05f  .(.K....8...8.._
	0x0020:  3da0 945d 1b39 0000 de88 0000 0000 5002  =..].9........P.
	0x0030:  ffd7 5520 0000 0000 0000 0000            ..U.........
08:48:28.442603 IP (tos 0x0, ttl 64, id 1, offset 0, flags [none], proto TCP (6), length 40)
    192.95.61.160.6969 > 149.254.56.205.37981: Flags [S.], cksum 0x46a9 (correct), seq 12345, ack 56969, win 8192, length 0
	0x0000:  0007 b400 0102 0200 00d2 bf75 0800 4500  ...........u..E.
	0x0010:  0028 0001 0000 4006 ae04 c05f 3da0 95fe  .(....@...._=...
	0x0020:  38cd 1b39 945d 0000 3039 0000 de89 5012  8..9.]..09....P.
	0x0030:  2000 46a9 be04                           ..F...
08:48:28.956841 IP (tos 0x0, ttl 27, id 39501, offset 0, flags [none], proto TCP (6), length 40)
    149.254.56.205.37981 > 192.95.61.160.6969: Flags [.], cksum 0x24d7 (correct), seq 1, ack 1, win 65495, length 0
	0x0000:  0200 00d2 bf75 6c9c edba ec40 0800 4500  .....ul....@..E.
	0x0010:  0028 9a4d 0000 1b06 38b8 95fe 38cd c05f  .(.M....8...8.._
	0x0020:  3da0 945d 1b39 0000 de89 0000 303a 5010  =..].9......0:P.
	0x0030:  ffd7 24d7 0000 0000 0000 0000            ..$.........
08:48:29.061514 IP (tos 0x0, ttl 27, id 39502, offset 0, flags [none], proto TCP (6), length 45)
    149.254.56.205.37981 > 192.95.61.160.6969: Flags [P.], cksum 0x4138 (correct), seq 1:6, ack 1, win 65495, length 5
	0x0000:  0200 00d2 bf75 6c9c edba ec40 0800 4500  .....ul....@..E.
	0x0010:  002d 9a4e 0000 1b06 38b2 95fe 38cd c05f  .-.N....8...8.._
	0x0020:  3da0 945d 1b39 0000 de89 0000 303a 5018  =..].9......0:P.
	0x0030:  ffd7 4138 0000 4845 4c4c 4f00            ..A8..HELLO.
08:48:29.067257 IP (tos 0x0, ttl 64, id 1, offset 0, flags [none], proto TCP (6), length 45)
    192.95.61.160.6969 > 149.254.56.205.37981: Flags [.], cksum 0x2113 (correct), seq 1:6, ack 6, win 8192, length 5
	0x0000:  0007 b400 0102 0200 00d2 bf75 0800 4500  ...........u..E.
	0x0010:  002d 0001 0000 4006 adff c05f 3da0 95fe  .-....@...._=...
	0x0020:  38cd 1b39 945d 0000 303a 0000 de8e 5010  8..9.]..0:....P.
	0x0030:  2000 2113 0000 4f4c 4c45 48              ..!...OLLEH
08:48:29.571545 IP (tos 0x0, ttl 27, id 39504, offset 0, flags [none], proto TCP (6), length 40)
    149.254.56.205.37981 > 192.95.61.160.6969: Flags [.], cksum 0x24cd (correct), seq 6, ack 6, win 65495, length 0
	0x0000:  0200 00d2 bf75 6c9c edba ec40 0800 4500  .....ul....@..E.
	0x0010:  0028 9a50 0000 1b06 38b5 95fe 38cd c05f  .(.P....8...8.._
	0x0020:  3da0 945d 1b39 0000 de8e 0000 303f 5010  =..].9......0?P.
	0x0030:  ffd7 24cd 0000 0000 0000 0000            ..$.........
08:48:29.667947 IP (tos 0x0, ttl 27, id 39505, offset 0, flags [none], proto TCP (6), length 40)
    149.254.56.205.37981 > 192.95.61.160.6969: Flags [F.], cksum 0x24cc (correct), seq 6, ack 6, win 65495, length 0
	0x0000:  0200 00d2 bf75 6c9c edba ec40 0800 4500  .....ul....@..E.
	0x0010:  0028 9a51 0000 1b06 38b4 95fe 38cd c05f  .(.Q....8...8.._
	0x0020:  3da0 945d 1b39 0000 de8e 0000 303f 5011  =..].9......0?P.
	0x0030:  ffd7 24cc 0000 0000 0000 0000            ..$.........
08:48:29.672684 IP (tos 0x0, ttl 64, id 1, offset 0, flags [none], proto TCP (6), length 40)
    192.95.61.160.6969 > 149.254.56.205.37981: Flags [F.], cksum 0x04a3 (correct), seq 6, ack 7, win 8192, length 0
	0x0000:  0007 b400 0102 0200 00d2 bf75 0800 4500  ...........u..E.
	0x0010:  0028 0001 0000 4006 ae04 c05f 3da0 95fe  .(....@...._=...
	0x0020:  38cd 1b39 945d 0000 303f 0000 de8f 5011  8..9.]..0?....P.
	0x0030:  2000 04a3 0000                           ......
08:48:30.195097 IP (tos 0x0, ttl 27, id 39507, offset 0, flags [none], proto TCP (6), length 40)
    149.254.56.205.37981 > 192.95.61.160.6969: Flags [.], cksum 0x767b (correct), seq 6, ack 44631, win 65495, length 0
	0x0000:  0200 00d2 bf75 6c9c edba ec40 0800 4500  .....ul....@..E.
	0x0010:  0028 9a53 0000 1b06 38b2 95fe 38cd c05f  .(.S....8...8.._
	0x0020:  3da0 945d 1b39 0000 de8e 0000 de90 5010  =..].9........P.
	0x0030:  ffd7 767b 0000 0000 0000 0000            ..v{........
08:48:30.409077 IP (tos 0x0, ttl 27, id 39508, offset 0, flags [none], proto TCP (6), length 40)
    149.254.56.205.34654 > 192.95.61.160.6969: Flags [S], cksum 0x6c2b (correct), seq 5512, win 65495, length 0
	0x0000:  0200 00d2 bf75 6c9c edba ec40 0800 4500  .....ul....@..E.
	0x0010:  0028 9a54 0000 1b06 38b1 95fe 38cd c05f  .(.T....8...8.._
	0x0020:  3da0 875e 1b39 0000 1588 beef 0005 5002  =..^.9........P.
	0x0030:  ffd7 6c2b 0000 0000 0000 0000            ..l+........
08:48:30.414158 IP (tos 0x0, ttl 64, id 1, offset 0, flags [none], proto TCP (6), length 40)
    192.95.61.160.6969 > 149.254.56.205.34654: Flags [S.], cksum 0x68c5 (incorrect -> 0xdaad), seq 12345, ack 5513, win 8192, length 0
	0x0000:  0007 b400 0102 0200 00d2 bf75 0800 4500  ...........u..E.
	0x0010:  0028 0001 0000 4006 ae04 c05f 3da0 95fe  .(....@...._=...
	0x0020:  38cd 1b39 875e 0000 3039 0000 1589 5012  8..9.^..09....P.
	0x0030:  2000 68c5 0000                           ..h...
08:48:31.016031 IP (tos 0x0, ttl 27, id 39509, offset 0, flags [none], proto TCP (6), length 40)
    149.254.56.205.34654 > 192.95.61.160.6969: Flags [.], cksum 0xfad6 (correct), seq 1, ack 1, win 65495, length 0
	0x0000:  0200 00d2 bf75 6c9c edba ec40 0800 4500  .....ul....@..E.
	0x0010:  0028 9a55 0000 1b06 38b0 95fe 38cd c05f  .(.U....8...8.._
	0x0020:  3da0 875e 1b39 0000 1589 0000 303a 5010  =..^.9......0:P.
	0x0030:  ffd7 fad6 0000 0000 0000 0000            ............
08:48:31.132531 IP (tos 0x0, ttl 27, id 39510, offset 0, flags [none], proto TCP (6), length 45)
    149.254.56.205.34654 > 192.95.61.160.6969: Flags [P.], cksum 0x1738 (correct), seq 1:6, ack 1, win 65495, length 5
	0x0000:  0200 00d2 bf75 6c9c edba ec40 0800 4500  .....ul....@..E.
	0x0010:  002d 9a56 0000 1b06 38aa 95fe 38cd c05f  .-.V....8...8.._
	0x0020:  3da0 875e 1b39 0000 1589 0000 303a 5018  =..^.9......0:P.
	0x0030:  ffd7 1738 0000 4845 4c4c 4f00            ...8..HELLO.
08:48:31.138616 IP (tos 0x0, ttl 64, id 1, offset 0, flags [none], proto TCP (6), length 45)
    192.95.61.160.6969 > 149.254.56.205.34654: Flags [.], cksum 0xf712 (correct), seq 1:6, ack 6, win 8192, length 5
	0x0000:  0007 b400 0102 0200 00d2 bf75 0800 4500  ...........u..E.
	0x0010:  002d 0001 0000 4006 adff c05f 3da0 95fe  .-....@...._=...
	0x0020:  38cd 1b39 875e 0000 303a 0000 158e 5010  8..9.^..0:....P.
	0x0030:  2000 f712 0000 4f4c 4c45 48              ......OLLEH
08:48:31.671869 IP (tos 0x0, ttl 27, id 39512, offset 0, flags [none], proto TCP (6), length 40)
    149.254.56.205.34654 > 192.95.61.160.6969: Flags [.], cksum 0xfacc (correct), seq 6, ack 6, win 65495, length 0
	0x0000:  0200 00d2 bf75 6c9c edba ec40 0800 4500  .....ul....@..E.
	0x0010:  0028 9a58 0000 1b06 38ad 95fe 38cd c05f  .(.X....8...8.._
	0x0020:  3da0 875e 1b39 0000 158e 0000 303f 5010  =..^.9......0?P.
	0x0030:  ffd7 facc 0000 0000 0000 0000            ............
08:48:31.780645 IP (tos 0x0, ttl 27, id 39513, offset 0, flags [none], proto TCP (6), length 40)
    149.254.56.205.34654 > 192.95.61.160.6969: Flags [F.], cksum 0xfacb (correct), seq 6, ack 6, win 65495, length 0
	0x0000:  0200 00d2 bf75 6c9c edba ec40 0800 4500  .....ul....@..E.
	0x0010:  0028 9a59 0000 1b06 38ac 95fe 38cd c05f  .(.Y....8...8.._
	0x0020:  3da0 875e 1b39 0000 158e 0000 303f 5011  =..^.9......0?P.
	0x0030:  ffd7 facb 0000 0000 0000 0000            ............
08:48:31.785210 IP (tos 0x0, ttl 64, id 1, offset 0, flags [none], proto TCP (6), length 40)
    192.95.61.160.6969 > 149.254.56.205.34654: Flags [F.], cksum 0xdaa2 (correct), seq 6, ack 7, win 8192, length 0
	0x0000:  0007 b400 0102 0200 00d2 bf75 0800 4500  ...........u..E.
	0x0010:  0028 0001 0000 4006 ae04 c05f 3da0 95fe  .(....@...._=...
	0x0020:  38cd 1b39 875e 0000 303f 0000 158f 5011  8..9.^..0?....P.
	0x0030:  2000 daa2 0000                           ......
08:48:32.321358 IP (tos 0x0, ttl 27, id 39515, offset 0, flags [none], proto TCP (6), length 40)
    149.254.56.205.34654 > 192.95.61.160.6969: Flags [.], cksum 0x157c (correct), seq 6, ack 4294960471, win 65495, length 0
	0x0000:  0200 00d2 bf75 6c9c edba ec40 0800 4500  .....ul....@..E.
	0x0010:  0028 9a5b 0000 1b06 38aa 95fe 38cd c05f  .(.[....8...8.._
	0x0020:  3da0 875e 1b39 0000 158e 0000 1590 5010  =..^.9........P.
	0x0030:  ffd7 157c 0000 0000 0000 0000            ...|........
08:48:32.772895 IP (tos 0x0, ttl 27, id 39516, offset 0, flags [none], proto TCP (6), length 40)
    149.254.56.205.65153 > 192.95.61.160.6969: Flags [S], cksum 0x1c73 (correct), seq 60955, win 65495, length 0
	0x0000:  0200 00d2 bf75 6c9c edba ec40 0800 4500  .....ul....@..E.
	0x0010:  0028 9a5c 0000 1b06 38a9 95fe 38cd c05f  .(.\....8...8.._
	0x0020:  3da0 fe81 1b39 0000 ee1b beef 0006 5002  =....9........P.
	0x0030:  ffd7 1c73 0000 0000 0000 0000            ...s........
08:48:32.779899 IP (tos 0x0, ttl 64, id 1, offset 0, flags [none], proto TCP (6), length 42)
    192.95.61.160.6969 > 149.254.56.205.65153: Flags [S.], cksum 0xf1a1 (correct), seq 12345:12347, ack 60956, win 8192, length 2
	0x0000:  0007 b400 0102 0200 00d2 bf75 0800 4500  ...........u..E.
	0x0010:  002a 0001 0000 4006 ae02 c05f 3da0 95fe  .*....@...._=...
	0x0020:  38cd 1b39 fe81 0000 3039 0000 ee1c 5012  8..9....09....P.
	0x0030:  2000 f1a1 0000 9952                      .......R
08:48:33.297246 IP (tos 0x0, ttl 27, id 39518, offset 0, flags [none], proto TCP (6), length 40)
    149.254.56.205.65153 > 192.95.61.160.6969: Flags [.], cksum 0xab1f (correct), seq 1, ack 1, win 65495, length 0
	0x0000:  0200 00d2 bf75 6c9c edba ec40 0800 4500  .....ul....@..E.
	0x0010:  0028 9a5e 0000 1b06 38a7 95fe 38cd c05f  .(.^....8...8.._
	0x0020:  3da0 fe81 1b39 0000 ee1c 0000 303a 5010  =....9......0:P.
	0x0030:  ffd7 ab1f 0000 0000 0000 0000            ............
08:48:33.408426 IP (tos 0x0, ttl 27, id 39519, offset 0, flags [none], proto TCP (6), length 45)
    149.254.56.205.65153 > 192.95.61.160.6969: Flags [P.], cksum 0xc780 (correct), seq 1:6, ack 1, win 65495, length 5
	0x0000:  0200 00d2 bf75 6c9c edba ec40 0800 4500  .....ul....@..E.
	0x0010:  002d 9a5f 0000 1b06 38a1 95fe 38cd c05f  .-._....8...8.._
	0x0020:  3da0 fe81 1b39 0000 ee1c 0000 303a 5018  =....9......0:P.
	0x0030:  ffd7 c780 0000 4845 4c4c 4f00            ......HELLO.
08:48:33.414542 IP (tos 0x0, ttl 64, id 1, offset 0, flags [none], proto TCP (6), length 45)
    192.95.61.160.6969 > 149.254.56.205.65153: Flags [.], cksum 0xa75b (correct), seq 1:6, ack 6, win 8192, length 5
	0x0000:  0007 b400 0102 0200 00d2 bf75 0800 4500  ...........u..E.
	0x0010:  002d 0001 0000 4006 adff c05f 3da0 95fe  .-....@...._=...
	0x0020:  38cd 1b39 fe81 0000 303a 0000 ee21 5010  8..9....0:...!P.
	0x0030:  2000 a75b 0000 4f4c 4c45 48              ...[..OLLEH
08:48:33.945423 IP (tos 0x0, ttl 27, id 39521, offset 0, flags [none], proto TCP (6), length 40)
    149.254.56.205.65153 > 192.95.61.160.6969: Flags [.], cksum 0xab15 (correct), seq 6, ack 6, win 65495, length 0
	0x0000:  0200 00d2 bf75 6c9c edba ec40 0800 4500  .....ul....@..E.
	0x0010:  0028 9a61 0000 1b06 38a4 95fe 38cd c05f  .(.a....8...8.._
	0x0020:  3da0 fe81 1b39 0000 ee21 0000 303f 5010  =....9...!..0?P.
	0x0030:  ffd7 ab15 0000 0000 0000 0000            ............
08:48:34.041219 IP (tos 0x0, ttl 27, id 39522, offset 0, flags [none], proto TCP (6), length 40)
    149.254.56.205.65153 > 192.95.61.160.6969: Flags [F.], cksum 0xab14 (correct), seq 6, ack 6, win 65495, length 0
	0x0000:  0200 00d2 bf75 6c9c edba ec40 0800 4500  .....ul....@..E.
	0x0010:  0028 9a62 0000 1b06 38a3 95fe 38cd c05f  .(.b....8...8.._
	0x0020:  3da0 fe81 1b39 0000 ee21 0000 303f 5011  =....9...!..0?P.
	0x0030:  ffd7 ab14 0000 0000 0000 0000            ............
08:48:34.045862 IP (tos 0x0, ttl 64, id 1, offset 0, flags [none], proto TCP (6), length 40)
    192.95.61.160.6969 > 149.254.56.205.65153: Flags [F.], cksum 0x8aeb (correct), seq 6, ack 7, win 8192, length 0
	0x0000:  0007 b400 0102 0200 00d2 bf75 0800 4500  ...........u..E.
	0x0010:  0028 0001 0000 4006 ae04 c05f 3da0 95fe  .(....@...._=...
	0x0020:  38cd 1b39 fe81 0000 303f 0000 ee22 5011  8..9....0?..."P.
	0x0030:  2000 8aeb 0000                           ......
08:48:34.569382 IP (tos 0x0, ttl 27, id 39524, offset 0, flags [none], proto TCP (6), length 40)
    149.254.56.205.65153 > 192.95.61.160.6969: Flags [.], cksum 0xed30 (correct), seq 6, ack 48618, win 65495, length 0
	0x0000:  0200 00d2 bf75 6c9c edba ec40 0800 4500  .....ul....@..E.
	0x0010:  0028 9a64 0000 1b06 38a1 95fe 38cd c05f  .(.d....8...8.._
	0x0020:  3da0 fe81 1b39 0000 ee21 0000 ee23 5010  =....9...!...#P.
	0x0030:  ffd7 ed30 0000 0000 0000 0000            ...0........
08:48:34.791012 IP (tos 0x0, ttl 27, id 39525, offset 0, flags [none], proto TCP (6), length 40)
    149.254.56.205.49562 > 192.95.61.160.6969: Flags [S], cksum 0xa7fb (correct), seq 41064, win 65495, length 0
	0x0000:  0200 00d2 bf75 6c9c edba ec40 0800 4500  .....ul....@..E.
	0x0010:  0028 9a65 0000 1b06 38a0 95fe 38cd c05f  .(.e....8...8.._
	0x0020:  3da0 c19a 1b39 0000 a068 0000 0000 5002  =....9...h....P.
	0x0030:  ffd7 a7fb be07 0000 0000 0000            ............
08:48:34.796086 IP (tos 0x0, ttl 64, id 1, offset 0, flags [none], proto TCP (6), length 40)
    192.95.61.160.6969 > 149.254.56.205.49562: Flags [S.], cksum 0x5789 (correct), seq 12345, ack 41065, win 8192, length 0
	0x0000:  0007 b400 0102 0200 00d2 bf75 0800 4500  ...........u..E.
	0x0010:  0028 0001 0000 4006 ae04 c05f 3da0 95fe  .(....@...._=...
	0x0020:  38cd 1b39 c19a 0000 3039 0000 a069 5012  8..9....09...iP.
	0x0030:  2000 5789 be07                           ..W...
08:48:35.327856 IP (tos 0x0, ttl 27, id 39527, offset 0, flags [none], proto TCP (6), length 40)
    149.254.56.205.49562 > 192.95.61.160.6969: Flags [.], cksum 0x35ba (correct), seq 1, ack 1, win 65495, length 0
	0x0000:  0200 00d2 bf75 6c9c edba ec40 0800 4500  .....ul....@..E.
	0x0010:  0028 9a67 0000 1b06 389e 95fe 38cd c05f  .(.g....8...8.._
	0x0020:  3da0 c19a 1b39 0000 a069 0000 303a 5010  =....9...i..0:P.
	0x0030:  ffd7 35ba 0000 0000 0000 0000            ..5.........
08:48:35.441401 IP (tos 0x0, ttl 27, id 39528, offset 0, flags [none], proto TCP (6), length 45)
    149.254.56.205.49562 > 192.95.61.160.6969: Flags [P.], cksum 0x521b (correct), seq 1:6, ack 1, win 65495, length 5
	0x0000:  0200 00d2 bf75 6c9c edba ec40 0800 4500  .....ul....@..E.
	0x0010:  002d 9a68 0000 1b06 3898 95fe 38cd c05f  .-.h....8...8.._
	0x0020:  3da0 c19a 1b39 0000 a069 0000 303a 5018  =....9...i..0:P.
	0x0030:  ffd7 521b 0000 4845 4c4c 4f00            ..R...HELLO.
08:48:35.447102 IP (tos 0x0, ttl 64, id 1, offset 0, flags [none], proto TCP (6), length 45)
    192.95.61.160.6969 > 149.254.56.205.49562: Flags [.], cksum 0x31f6 (correct), seq 1:6, ack 6, win 8192, length 5
	0x0000:  0007 b400 0102 0200 00d2 bf75 0800 4500  ...........u..E.
	0x0010:  002d 0001 0000 4006 adff c05f 3da0 95fe  .-....@...._=...
	0x0020:  38cd 1b39 c19a 0000 303a 0000 a06e 5010  8..9....0:...nP.
	0x0030:  2000 31f6 0000 4f4c 4c45 48              ..1...OLLEH
08:48:35.980988 IP (tos 0x0, ttl 27, id 39530, offset 0, flags [none], proto TCP (6), length 40)
    149.254.56.205.49562 > 192.95.61.160.6969: Flags [.], cksum 0x35b0 (correct), seq 6, ack 6, win 65495, length 0
	0x0000:  0200 00d2 bf75 6c9c edba ec40 0800 4500  .....ul....@..E.
	0x0010:  0028 9a6a 0000 1b06 389b 95fe 38cd c05f  .(.j....8...8.._
	0x0020:  3da0 c19a 1b39 0000 a06e 0000 303f 5010  =....9...n..0?P.
	0x0030:  ffd7 35b0 0000 0000 0000 0000            ..5.........
08:48:36.088441 IP (tos 0x0, ttl 27, id 39531, offset 0, flags [none], proto TCP (6), length 40)
    149.254.56.205.49562 > 192.95.61.160.6969: Flags [F.], cksum 0x35af (correct), seq 6, ack 6, win 65495, length 0
	0x0000:  0200 00d2 bf75 6c9c edba ec40 0800 4500  .....ul....@..E.
	0x0010:  0028 9a6b 0000 1b06 389a 95fe 38cd c05f  .(.k....8...8.._
	0x0020:  3da0 c19a 1b39 0000 a06e 0000 303f 5011  =....9...n..0?P.
	0x0030:  ffd7 35af 0000 0000 0000 0000            ..5.........
08:48:36.093630 IP (tos 0x0, ttl 64, id 1, offset 0, flags [none], proto TCP (6), length 40)
    192.95.61.160.6969 > 149.254.56.205.49562: Flags [F.], cksum 0x1586 (correct), seq 6, ack 7, win 8192, length 0
	0x0000:  0007 b400 0102 0200 00d2 bf75 0800 4500  ...........u..E.
	0x0010:  0028 0001 0000 4006 ae04 c05f 3da0 95fe  .(....@...._=...
	0x0020:  38cd 1b39 c19a 0000 303f 0000 a06f 5011  8..9....0?...oP.
	0x0030:  2000 1586 0000                           ......
08:48:36.620413 IP (tos 0x0, ttl 27, id 39533, offset 0, flags [none], proto TCP (6), length 40)
    149.254.56.205.49562 > 192.95.61.160.6969: Flags [.], cksum 0xc57e (correct), seq 6, ack 28727, win 65495, length 0
	0x0000:  0200 00d2 bf75 6c9c edba ec40 0800 4500  .....ul....@..E.
	0x0010:  0028 9a6d 0000 1b06 3898 95fe 38cd c05f  .(.m....8...8.._
	0x0020:  3da0 c19a 1b39 0000 a06e 0000 a070 5010  =....9...n...pP.
	0x0030:  ffd7 c57e 0000 0000 0000 0000            ...~........
08:48:36.831590 IP (tos 0x0, ttl 27, id 39534, offset 0, flags [none], proto TCP (6), length 40)
    149.254.56.205.60453 > 192.95.61.160.6969: Flags [S], cksum 0x5b2f (correct), seq 49832, win 65495, length 0
	0x0000:  0200 00d2 bf75 6c9c edba ec40 0800 4500  .....ul....@..E.
	0x0010:  0028 9a6e 0000 1b06 3897 95fe 38cd c05f  .(.n....8...8.._
	0x0020:  3da0 ec25 1b39 0000 c2a8 0000 0000 5002  =..%.9........P.
	0x0030:  ffd7 5b2f be08 0000 0000 0000            ..[/........
08:48:36.836707 IP (tos 0x0, ttl 64, id 1, offset 0, flags [none], proto TCP (6), length 40)
    192.95.61.160.6969 > 149.254.56.205.60453: Flags [S.], cksum 0x0ac1 (correct), seq 12345, ack 49833, win 8192, length 0
	0x0000:  0007 b400 0102 0200 00d2 bf75 0800 4500  ...........u..E.
	0x0010:  0028 0001 0000 4006 ae04 c05f 3da0 95fe  .(....@...._=...
	0x0020:  38cd 1b39 ec25 0000 3039 0000 c2a9 5012  8..9.%..09....P.
	0x0030:  2000 0ac1 be04                           ......
08:48:37.505433 IP (tos 0x0, ttl 27, id 39536, offset 0, flags [none], proto TCP (6), length 40)
    149.254.56.205.33783 > 192.95.61.160.6969: Flags [S], cksum 0x40b0 (correct), seq 17749, win 65495, length 0
	0x0000:  0200 00d2 bf75 6c9c edba ec40 0800 4500  .....ul....@..E.
	0x0010:  0028 9a70 0000 1b06 3895 95fe 38cd c05f  .(.p....8...8.._
	0x0020:  3da0 83f7 1b39 0000 4555 0000 0000 5002  =....9..EU....P.
	0x0030:  ffd7 40b0 be09 0000 0000 0000            ..@.........
08:48:37.510510 IP (tos 0x0, ttl 64, id 1, offset 0, flags [none], proto TCP (6), length 40)
    192.95.61.160.6969 > 149.254.56.205.33783: Flags [S.], cksum 0x6c2c (incorrect -> 0xae47), seq 12345, ack 17750, win 8192, length 0
	0x0000:  0007 b400 0102 0200 00d2 bf75 0800 4500  ...........u..E.
	0x0010:  0028 0001 0000 4006 ae04 c05f 3da0 95fe  .(....@...._=...
	0x0020:  38cd 1b39 83f7 0000 3039 0000 4556 5012  8..9....09..EVP.
	0x0030:  2000 6c2c 0000                           ..l,..
08:48:41.032453 IP (tos 0x0, ttl 27, id 39537, offset 0, flags [none], proto TCP (6), length 40)
    149.254.56.205.33783 > 192.95.61.160.6969: Flags [.], cksum 0xce70 (correct), seq 1, ack 1, win 65495, length 0
	0x0000:  0200 00d2 bf75 6c9c edba ec40 0800 4500  .....ul....@..E.
	0x0010:  0028 9a71 0000 1b06 3894 95fe 38cd c05f  .(.q....8...8.._
	0x0020:  3da0 83f7 1b39 0000 4556 0000 303a 5010  =....9..EV..0:P.
	0x0030:  ffd7 ce70 0000 0000 0000 0000            ...p........
08:48:41.032511 IP (tos 0x0, ttl 27, id 39538, offset 0, flags [none], proto TCP (6), length 45)
    149.254.56.205.33783 > 192.95.61.160.6969: Flags [P.], cksum 0xead1 (correct), seq 1:6, ack 1, win 65495, length 5
	0x0000:  0200 00d2 bf75 6c9c edba ec40 0800 4500  .....ul....@..E.
	0x0010:  002d 9a72 0000 1b06 388e 95fe 38cd c05f  .-.r....8...8.._
	0x0020:  3da0 83f7 1b39 0000 4556 0000 303a 5018  =....9..EV..0:P.
	0x0030:  ffd7 ead1 0000 4845 4c4c 4f00            ......HELLO.
08:48:41.040121 IP (tos 0x0, ttl 64, id 1, offset 0, flags [none], proto TCP (6), length 45)
    192.95.61.160.6969 > 149.254.56.205.33783: Flags [.], cksum 0xcaac (correct), seq 1:6, ack 6, win 8192, length 5
	0x0000:  0007 b400 0102 0200 00d2 bf75 0800 4500  ...........u..E.
	0x0010:  002d 0001 0000 4006 adff c05f 3da0 95fe  .-....@...._=...
	0x0020:  38cd 1b39 83f7 0000 303a 0000 455b 5010  8..9....0:..E[P.
	0x0030:  2000 caac 0000 4f4c 4c45 48              ......OLLEH
08:48:41.575599 IP (tos 0x0, ttl 27, id 39540, offset 0, flags [none], proto TCP (6), length 40)
    149.254.56.205.33783 > 192.95.61.160.6969: Flags [.], cksum 0xce66 (correct), seq 6, ack 6, win 65495, length 0
	0x0000:  0200 00d2 bf75 6c9c edba ec40 0800 4500  .....ul....@..E.
	0x0010:  0028 9a74 0000 1b06 3891 95fe 38cd c05f  .(.t....8...8.._
	0x0020:  3da0 83f7 1b39 0000 455b 0000 303f 5010  =....9..E[..0?P.
	0x0030:  ffd7 ce66 0000 0000 0000 0000            ...f........
08:48:41.673507 IP (tos 0x0, ttl 27, id 39541, offset 0, flags [none], proto TCP (6), length 40)
    149.254.56.205.33783 > 192.95.61.160.6969: Flags [F.], cksum 0xce65 (correct), seq 6, ack 6, win 65495, length 0
	0x0000:  0200 00d2 bf75 6c9c edba ec40 0800 4500  .....ul....@..E.
	0x0010:  0028 9a75 0000 1b06 3890 95fe 38cd c05f  .(.u....8...8.._
	0x0020:  3da0 83f7 1b39 0000 455b 0000 303f 5011  =....9..E[..0?P.
	0x0030:  ffd7 ce65 0000 0000 0000 0000            ...e........
08:48:41.678695 IP (tos 0x0, ttl 64, id 1, offset 0, flags [none], proto TCP (6), length 40)
    192.95.61.160.6969 > 149.254.56.205.33783: Flags [F.], cksum 0xae3c (correct), seq 6, ack 7, win 8192, length 0
	0x0000:  0007 b400 0102 0200 00d2 bf75 0800 4500  ...........u..E.
	0x0010:  0028 0001 0000 4006 ae04 c05f 3da0 95fe  .(....@...._=...
	0x0020:  38cd 1b39 83f7 0000 303f 0000 455c 5011  8..9....0?..E\P.
	0x0030:  2000 ae3c 0000                           ...<..
08:48:42.201095 IP (tos 0x0, ttl 27, id 39543, offset 0, flags [none], proto TCP (6), length 40)
    149.254.56.205.33783 > 192.95.61.160.6969: Flags [.], cksum 0xb948 (correct), seq 6, ack 5412, win 65495, length 0
	0x0000:  0200 00d2 bf75 6c9c edba ec40 0800 4500  .....ul....@..E.
	0x0010:  0028 9a77 0000 1b06 388e 95fe 38cd c05f  .(.w....8...8.._
	0x0020:  3da0 83f7 1b39 0000 455b 0000 455d 5010  =....9..E[..E]P.
	0x0030:  ffd7 b948 0000 0000 0000 0000            ...H........
08:48:42.430144 IP (tos 0x0, ttl 27, id 39544, offset 0, flags [none], proto TCP (6), length 40)
    149.254.56.205.51130 > 192.95.61.160.6969: Flags [S], cksum 0x3420 (correct), seq 52011, win 65495, length 0
	0x0000:  0200 00d2 bf75 6c9c edba ec40 0800 4500  .....ul....@..E.
	0x0010:  0028 9a78 0000 1b06 388d 95fe 38cd c05f  .(.x....8...8.._
	0x0020:  3da0 c7ba 1b39 0000 cb2b 0000 0000 5102  =....9...+....Q.
	0x0030:  ffd7 3420 0000 0000 0000 0000            ..4.........
08:48:42.435421 IP (tos 0x0, ttl 64, id 1, offset 0, flags [none], proto TCP (6), length 40)
    192.95.61.160.6969 > 149.254.56.205.51130: Flags [S.], cksum 0xe3ad (correct), seq 12345, ack 52012, win 8192, length 0
	0x0000:  0007 b400 0102 0200 00d2 bf75 0800 4500  ...........u..E.
	0x0010:  0028 0001 0000 4006 ae04 c05f 3da0 95fe  .(....@...._=...
	0x0020:  38cd 1b39 c7ba 0000 3039 0000 cb2c 5112  8..9....09...,Q.
	0x0030:  2000 e3ad 0000                           ......
08:48:42.957724 IP (tos 0x0, ttl 27, id 39546, offset 0, flags [none], proto TCP (6), length 40)
    149.254.56.205.51130 > 192.95.61.160.6969: Flags [.], cksum 0x03d7 (correct), seq 1, ack 1, win 65495, length 0
	0x0000:  0200 00d2 bf75 6c9c edba ec40 0800 4500  .....ul....@..E.
	0x0010:  0028 9a7a 0000 1b06 388b 95fe 38cd c05f  .(.z....8...8.._
	0x0020:  3da0 c7ba 1b39 0000 cb2c 0000 303a 5110  =....9...,..0:Q.
	0x0030:  ffd7 03d7 0000 0000 0000 0000            ............
08:48:43.056704 IP (tos 0x0, ttl 27, id 39547, offset 0, flags [none], proto TCP (6), length 45)
    149.254.56.205.51130 > 192.95.61.160.6969: Flags [P.], cksum 0x2138 (correct), seq 1:6, ack 1, win 65495, length 5
	0x0000:  0200 00d2 bf75 6c9c edba ec40 0800 4500  .....ul....@..E.
	0x0010:  002d 9a7b 0000 1b06 3885 95fe 38cd c05f  .-.{....8...8.._
	0x0020:  3da0 c7ba 1b39 0000 cb2c 0000 303a 5018  =....9...,..0:P.
	0x0030:  ffd7 2138 0000 4845 4c4c 4f00            ..!8..HELLO.
08:48:43.062403 IP (tos 0x0, ttl 64, id 1, offset 0, flags [none], proto TCP (6), length 45)
    192.95.61.160.6969 > 149.254.56.205.51130: Flags [.], cksum 0x0113 (correct), seq 1:6, ack 6, win 8192, length 5
	0x0000:  0007 b400 0102 0200 00d2 bf75 0800 4500  ...........u..E.
	0x0010:  002d 0001 0000 4006 adff c05f 3da0 95fe  .-....@...._=...
	0x0020:  38cd 1b39 c7ba 0000 303a 0000 cb31 5010  8..9....0:...1P.
	0x0030:  2000 0113 0000 4f4c 4c45 48              ......OLLEH
08:48:43.577303 IP (tos 0x0, ttl 27, id 39549, offset 0, flags [none], proto TCP (6), length 40)
    149.254.56.205.51130 > 192.95.61.160.6969: Flags [.], cksum 0x04cd (correct), seq 6, ack 6, win 65495, length 0
	0x0000:  0200 00d2 bf75 6c9c edba ec40 0800 4500  .....ul....@..E.
	0x0010:  0028 9a7d 0000 1b06 3888 95fe 38cd c05f  .(.}....8...8.._
	0x0020:  3da0 c7ba 1b39 0000 cb31 0000 303f 5010  =....9...1..0?P.
	0x0030:  ffd7 04cd 0000 0000 0000 0000            ............
08:48:43.838457 IP (tos 0x0, ttl 27, id 39550, offset 0, flags [none], proto TCP (6), length 40)
    149.254.56.205.51130 > 192.95.61.160.6969: Flags [F.], cksum 0x04cc (correct), seq 6, ack 6, win 65495, length 0
	0x0000:  0200 00d2 bf75 6c9c edba ec40 0800 4500  .....ul....@..E.
	0x0010:  0028 9a7e 0000 1b06 3887 95fe 38cd c05f  .(.~....8...8.._
	0x0020:  3da0 c7ba 1b39 0000 cb31 0000 303f 5011  =....9...1..0?P.
	0x0030:  ffd7 04cc 0000 0000 0000 0000            ............
08:48:43.843200 IP (tos 0x0, ttl 64, id 1, offset 0, flags [none], proto TCP (6), length 40)
    192.95.61.160.6969 > 149.254.56.205.51130: Flags [F.], cksum 0xe4a2 (correct), seq 6, ack 7, win 8192, length 0
	0x0000:  0007 b400 0102 0200 00d2 bf75 0800 4500  ...........u..E.
	0x0010:  0028 0001 0000 4006 ae04 c05f 3da0 95fe  .(....@...._=...
	0x0020:  38cd 1b39 c7ba 0000 303f 0000 cb32 5011  8..9....0?...2P.
	0x0030:  2000 e4a2 0000                           ......
08:48:44.365029 IP (tos 0x0, ttl 27, id 39552, offset 0, flags [none], proto TCP (6), length 40)
    149.254.56.205.51130 > 192.95.61.160.6969: Flags [.], cksum 0x69d8 (correct), seq 6, ack 39674, win 65495, length 0
	0x0000:  0200 00d2 bf75 6c9c edba ec40 0800 4500  .....ul....@..E.
	0x0010:  0028 9a80 0000 1b06 3885 95fe 38cd c05f  .(......8...8.._
	0x0020:  3da0 c7ba 1b39 0000 cb31 0000 cb33 5010  =....9...1...3P.
	0x0030:  ffd7 69d8 0000 0000 0000 0000            ..i.........
08:48:46.756185 IP (tos 0x0, ttl 27, id 39553, offset 0, flags [none], proto TCP (6), length 40)
    149.254.56.205.48555 > 192.95.61.160.6969: Flags [S], cksum 0xdb17 (correct), seq 11587, win 65495, length 0
	0x0000:  0200 00d2 bf75 6c9c edba ec40 0800 4500  .....ul....@..E.
	0x0010:  0028 9a81 0000 1b06 3884 95fe 38cd c05f  .(......8...8.._
	0x0020:  3da0 bdab 1b39 0000 2d43 0000 0000 5202  =....9..-C....R.
	0x0030:  ffd7 db17 0000 0000 0000 0000            ............
08:48:46.762155 IP (tos 0x0, ttl 64, id 1, offset 0, flags [none], proto TCP (6), length 40)
    192.95.61.160.6969 > 149.254.56.205.48555: Flags [S.], cksum 0x8aa5 (correct), seq 12345, ack 11588, win 8192, length 0
	0x0000:  0007 b400 0102 0200 00d2 bf75 0800 4500  ...........u..E.
	0x0010:  0028 0001 0000 4006 ae04 c05f 3da0 95fe  .(....@...._=...
	0x0020:  38cd 1b39 bdab 0000 3039 0000 2d44 5212  8..9....09..-DR.
	0x0030:  2000 8aa5 0000                           ......
08:48:47.944224 IP (tos 0x0, ttl 27, id 39555, offset 0, flags [none], proto TCP (6), length 40)
    149.254.56.205.48555 > 192.95.61.160.6969: Flags [.], cksum 0xaace (correct), seq 1, ack 1, win 65495, length 0
	0x0000:  0200 00d2 bf75 6c9c edba ec40 0800 4500  .....ul....@..E.
	0x0010:  0028 9a83 0000 1b06 3882 95fe 38cd c05f  .(......8...8.._
	0x0020:  3da0 bdab 1b39 0000 2d44 0000 303a 5210  =....9..-D..0:R.
	0x0030:  ffd7 aace 0000 0000 0000 0000            ............
08:48:47.944819 IP (tos 0x0, ttl 27, id 39556, offset 0, flags [none], proto TCP (6), length 45)
    149.254.56.205.48555 > 192.95.61.160.6969: Flags [P.], cksum 0xc92f (correct), seq 1:6, ack 1, win 65495, length 5
	0x0000:  0200 00d2 bf75 6c9c edba ec40 0800 4500  .....ul....@..E.
	0x0010:  002d 9a84 0000 1b06 387c 95fe 38cd c05f  .-......8|..8.._
	0x0020:  3da0 bdab 1b39 0000 2d44 0000 303a 5018  =....9..-D..0:P.
	0x0030:  ffd7 c92f 0000 4845 4c4c 4f00            .../..HELLO.
08:48:47.952085 IP (tos 0x0, ttl 64, id 1, offset 0, flags [none], proto TCP (6), length 45)
    192.95.61.160.6969 > 149.254.56.205.48555: Flags [.], cksum 0xa90a (correct), seq 1:6, ack 6, win 8192, length 5
	0x0000:  0007 b400 0102 0200 00d2 bf75 0800 4500  ...........u..E.
	0x0010:  002d 0001 0000 4006 adff c05f 3da0 95fe  .-....@...._=...
	0x0020:  38cd 1b39 bdab 0000 303a 0000 2d49 5010  8..9....0:..-IP.
	0x0030:  2000 a90a 0000 4f4c 4c45 48              ......OLLEH
08:48:48.980330 IP (tos 0x0, ttl 27, id 39558, offset 0, flags [none], proto TCP (6), length 40)
    149.254.56.205.48555 > 192.95.61.160.6969: Flags [.], cksum 0xacc4 (correct), seq 6, ack 6, win 65495, length 0
	0x0000:  0200 00d2 bf75 6c9c edba ec40 0800 4500  .....ul....@..E.
	0x0010:  0028 9a86 0000 1b06 387f 95fe 38cd c05f  .(......8...8.._
	0x0020:  3da0 bdab 1b39 0000 2d49 0000 303f 5010  =....9..-I..0?P.
	0x0030:  ffd7 acc4 0000 0000 0000 0000            ............
08:48:49.092171 IP (tos 0x0, ttl 27, id 39559, offset 0, flags [none], proto TCP (6), length 40)
    149.254.56.205.48555 > 192.95.61.160.6969: Flags [F.], cksum 0xacc3 (correct), seq 6, ack 6, win 65495, length 0
	0x0000:  0200 00d2 bf75 6c9c edba ec40 0800 4500  .....ul....@..E.
	0x0010:  0028 9a87 0000 1b06 387e 95fe 38cd c05f  .(......8~..8.._
	0x0020:  3da0 bdab 1b39 0000 2d49 0000 303f 5011  =....9..-I..0?P.
	0x0030:  ffd7 acc3 0000 0000 0000 0000            ............
08:48:49.096964 IP (tos 0x0, ttl 64, id 1, offset 0, flags [none], proto TCP (6), length 40)
    192.95.61.160.6969 > 149.254.56.205.48555: Flags [F.], cksum 0x8c9a (correct), seq 6, ack 7, win 8192, length 0
	0x0000:  0007 b400 0102 0200 00d2 bf75 0800 4500  ...........u..E.
	0x0010:  0028 0001 0000 4006 ae04 c05f 3da0 95fe  .(....@...._=...
	0x0020:  38cd 1b39 bdab 0000 303f 0000 2d4a 5011  8..9....0?..-JP.
	0x0030:  2000 8c9a 0000                           ......
08:48:49.699791 IP (tos 0x0, ttl 27, id 39561, offset 0, flags [none], proto TCP (6), length 40)
    149.254.56.205.48555 > 192.95.61.160.6969: Flags [.], cksum 0xafb8 (correct), seq 6, ack 4294966546, win 65495, length 0
	0x0000:  0200 00d2 bf75 6c9c edba ec40 0800 4500  .....ul....@..E.
	0x0010:  0028 9a89 0000 1b06 387c 95fe 38cd c05f  .(......8|..8.._
	0x0020:  3da0 bdab 1b39 0000 2d49 0000 2d4b 5010  =....9..-I..-KP.
	0x0030:  ffd7 afb8 0000 0000 0000 0000            ............
08:48:52.942993 IP (tos 0x0, ttl 27, id 39562, offset 0, flags [none], proto TCP (6), length 40)
    149.254.56.205.18115 > 192.95.61.160.6969: Flags [S], cksum 0xc560 (correct), seq 47074, win 65495, length 0
	0x0000:  0200 00d2 bf75 6c9c edba ec40 0800 4500  .....ul....@..E.
	0x0010:  0028 9a8a 0000 1b06 387b 95fe 38cd c05f  .(......8{..8.._
	0x0020:  3da0 46c3 1b39 0000 b7e2 0000 0000 5402  =.F..9........T.
	0x0030:  ffd7 c560 0000 0000 0000 0000            ...`........
08:48:52.948503 IP (tos 0x0, ttl 64, id 1, offset 0, flags [none], proto TCP (6), length 40)
    192.95.61.160.6969 > 149.254.56.205.18115: Flags [S.], cksum 0x74ee (correct), seq 12345, ack 47075, win 8192, length 0
	0x0000:  0007 b400 0102 0200 00d2 bf75 0800 4500  ...........u..E.
	0x0010:  0028 0001 0000 4006 ae04 c05f 3da0 95fe  .(....@...._=...
	0x0020:  38cd 1b39 46c3 0000 3039 0000 b7e3 5412  8..9F...09....T.
	0x0030:  2000 74ee 0000                           ..t...
08:48:53.828729 IP (tos 0x0, ttl 27, id 39564, offset 0, flags [none], proto TCP (6), length 40)
    149.254.56.205.18115 > 192.95.61.160.6969: Flags [.], cksum 0x9517 (correct), seq 1, ack 1, win 65495, length 0
	0x0000:  0200 00d2 bf75 6c9c edba ec40 0800 4500  .....ul....@..E.
	0x0010:  0028 9a8c 0000 1b06 3879 95fe 38cd c05f  .(......8y..8.._
	0x0020:  3da0 46c3 1b39 0000 b7e3 0000 303a 5410  =.F..9......0:T.
	0x0030:  ffd7 9517 0000 0000 0000 0000            ............
08:48:53.934531 IP (tos 0x0, ttl 27, id 39565, offset 0, flags [none], proto TCP (6), length 45)
    149.254.56.205.18115 > 192.95.61.160.6969: Flags [P.], cksum 0xb578 (correct), seq 1:6, ack 1, win 65495, length 5
	0x0000:  0200 00d2 bf75 6c9c edba ec40 0800 4500  .....ul....@..E.
	0x0010:  002d 9a8d 0000 1b06 3873 95fe 38cd c05f  .-......8s..8.._
	0x0020:  3da0 46c3 1b39 0000 b7e3 0000 303a 5018  =.F..9......0:P.
	0x0030:  ffd7 b578 0000 4845 4c4c 4f00            ...x..HELLO.
08:48:53.940726 IP (tos 0x0, ttl 64, id 1, offset 0, flags [none], proto TCP (6), length 45)
    192.95.61.160.6969 > 149.254.56.205.18115: Flags [.], cksum 0x9553 (correct), seq 1:6, ack 6, win 8192, length 5
	0x0000:  0007 b400 0102 0200 00d2 bf75 0800 4500  ...........u..E.
	0x0010:  002d 0001 0000 4006 adff c05f 3da0 95fe  .-....@...._=...
	0x0020:  38cd 1b39 46c3 0000 303a 0000 b7e8 5010  8..9F...0:....P.
	0x0030:  2000 9553 0000 4f4c 4c45 48              ...S..OLLEH
08:48:54.929441 IP (tos 0x0, ttl 27, id 39567, offset 0, flags [none], proto TCP (6), length 40)
    149.254.56.205.18115 > 192.95.61.160.6969: Flags [.], cksum 0x990d (correct), seq 6, ack 6, win 65495, length 0
	0x0000:  0200 00d2 bf75 6c9c edba ec40 0800 4500  .....ul....@..E.
	0x0010:  0028 9a8f 0000 1b06 3876 95fe 38cd c05f  .(......8v..8.._
	0x0020:  3da0 46c3 1b39 0000 b7e8 0000 303f 5010  =.F..9......0?P.
	0x0030:  ffd7 990d 0000 0000 0000 0000            ............
08:48:55.040920 IP (tos 0x0, ttl 27, id 39568, offset 0, flags [none], proto TCP (6), length 40)
    149.254.56.205.18115 > 192.95.61.160.6969: Flags [F.], cksum 0x990c (correct), seq 6, ack 6, win 65495, length 0
	0x0000:  0200 00d2 bf75 6c9c edba ec40 0800 4500  .....ul....@..E.
	0x0010:  0028 9a90 0000 1b06 3875 95fe 38cd c05f  .(......8u..8.._
	0x0020:  3da0 46c3 1b39 0000 b7e8 0000 303f 5011  =.F..9......0?P.
	0x0030:  ffd7 990c 0000 0000 0000 0000            ............
08:48:55.045664 IP (tos 0x0, ttl 64, id 1, offset 0, flags [none], proto TCP (6), length 40)
    192.95.61.160.6969 > 149.254.56.205.18115: Flags [F.], cksum 0x78e3 (correct), seq 6, ack 7, win 8192, length 0
	0x0000:  0007 b400 0102 0200 00d2 bf75 0800 4500  ...........u..E.
	0x0010:  0028 0001 0000 4006 ae04 c05f 3da0 95fe  .(....@...._=...
	0x0020:  38cd 1b39 46c3 0000 303f 0000 b7e9 5011  8..9F...0?....P.
	0x0030:  2000 78e3 0000                           ..x...
08:48:55.600298 IP (tos 0x0, ttl 27, id 39570, offset 0, flags [none], proto TCP (6), length 40)
    149.254.56.205.18115 > 192.95.61.160.6969: Flags [.], cksum 0x1162 (correct), seq 6, ack 34737, win 65495, length 0
	0x0000:  0200 00d2 bf75 6c9c edba ec40 0800 4500  .....ul....@..E.
	0x0010:  0028 9a92 0000 1b06 3873 95fe 38cd c05f  .(......8s..8.._
	0x0020:  3da0 46c3 1b39 0000 b7e8 0000 b7ea 5010  =.F..9........P.
	0x0030:  ffd7 1162 0000 0000 0000 0000            ...b........
08:48:55.954361 IP (tos 0x0, ttl 27, id 39571, offset 0, flags [none], proto TCP (6), length 40)
    149.254.56.205.40889 > 192.95.61.160.6969: Flags [S], cksum 0x4016 (correct), seq 57398, win 65495, length 0
	0x0000:  0200 00d2 bf75 6c9c edba ec40 0800 4500  .....ul....@..E.
	0x0010:  0028 9a93 0000 1b06 3872 95fe 38cd c05f  .(......8r..8.._
	0x0020:  3da0 9fb9 1b39 0000 e036 0000 0000 5802  =....9...6....X.
	0x0030:  ffd7 4016 0000 0000 0000 0000            ..@.........
08:48:55.959636 IP (tos 0x0, ttl 64, id 1, offset 0, flags [none], proto TCP (6), length 40)
    192.95.61.160.6969 > 149.254.56.205.40889: Flags [S.], cksum 0xefa3 (correct), seq 12345, ack 57399, win 8192, length 0
	0x0000:  0007 b400 0102 0200 00d2 bf75 0800 4500  ...........u..E.
	0x0010:  0028 0001 0000 4006 ae04 c05f 3da0 95fe  .(....@...._=...
	0x0020:  38cd 1b39 9fb9 0000 3039 0000 e037 5812  8..9....09...7X.
	0x0030:  2000 efa3 0000                           ......
08:49:01.243745 IP (tos 0x0, ttl 27, id 39573, offset 0, flags [none], proto TCP (6), length 40)
    149.254.56.205.40889 > 192.95.61.160.6969: Flags [.], cksum 0x0fcd (correct), seq 1, ack 1, win 65495, length 0
	0x0000:  0200 00d2 bf75 6c9c edba ec40 0800 4500  .....ul....@..E.
	0x0010:  0028 9a95 0000 1b06 3870 95fe 38cd c05f  .(......8p..8.._
	0x0020:  3da0 9fb9 1b39 0000 e037 0000 303a 5810  =....9...7..0:X.
	0x0030:  ffd7 0fcd 0000 0000 0000 0000            ............
08:49:01.244322 IP (tos 0x0, ttl 27, id 39574, offset 0, flags [none], proto TCP (6), length 45)
    149.254.56.205.40889 > 192.95.61.160.6969: Flags [P.], cksum 0x342e (correct), seq 1:6, ack 1, win 65495, length 5
	0x0000:  0200 00d2 bf75 6c9c edba ec40 0800 4500  .....ul....@..E.
	0x0010:  002d 9a96 0000 1b06 386a 95fe 38cd c05f  .-......8j..8.._
	0x0020:  3da0 9fb9 1b39 0000 e037 0000 303a 5018  =....9...7..0:P.
	0x0030:  ffd7 342e 0000 4845 4c4c 4f00            ..4...HELLO.
08:49:01.251741 IP (tos 0x0, ttl 64, id 1, offset 0, flags [none], proto TCP (6), length 45)
    192.95.61.160.6969 > 149.254.56.205.40889: Flags [.], cksum 0x1409 (correct), seq 1:6, ack 6, win 8192, length 5
	0x0000:  0007 b400 0102 0200 00d2 bf75 0800 4500  ...........u..E.
	0x0010:  002d 0001 0000 4006 adff c05f 3da0 95fe  .-....@...._=...
	0x0020:  38cd 1b39 9fb9 0000 303a 0000 e03c 5010  8..9....0:...<P.
	0x0030:  2000 1409 0000 4f4c 4c45 48              ......OLLEH
08:49:05.889524 IP (tos 0x0, ttl 27, id 39576, offset 0, flags [none], proto TCP (6), length 40)
    149.254.56.205.40889 > 192.95.61.160.6969: Flags [.], cksum 0x17c3 (correct), seq 6, ack 6, win 65495, length 0
	0x0000:  0200 00d2 bf75 6c9c edba ec40 0800 4500  .....ul....@..E.
	0x0010:  0028 9a98 0000 1b06 386d 95fe 38cd c05f  .(......8m..8.._
	0x0020:  3da0 9fb9 1b39 0000 e03c 0000 303f 5010  =....9...<..0?P.
	0x0030:  ffd7 17c3 0000 0000 0000 0000            ............
08:49:05.889580 IP (tos 0x0, ttl 27, id 39577, offset 0, flags [none], proto TCP (6), length 40)
    149.254.56.205.40889 > 192.95.61.160.6969: Flags [F.], cksum 0x17c2 (correct), seq 6, ack 6, win 65495, length 0
	0x0000:  0200 00d2 bf75 6c9c edba ec40 0800 4500  .....ul....@..E.
	0x0010:  0028 9a99 0000 1b06 386c 95fe 38cd c05f  .(......8l..8.._
	0x0020:  3da0 9fb9 1b39 0000 e03c 0000 303f 5011  =....9...<..0?P.
	0x0030:  ffd7 17c2 0000 0000 0000 0000            ............
08:49:05.897425 IP (tos 0x0, ttl 64, id 1, offset 0, flags [none], proto TCP (6), length 40)
    192.95.61.160.6969 > 149.254.56.205.40889: Flags [F.], cksum 0xf798 (correct), seq 6, ack 7, win 8192, length 0
	0x0000:  0007 b400 0102 0200 00d2 bf75 0800 4500  ...........u..E.
	0x0010:  0028 0001 0000 4006 ae04 c05f 3da0 95fe  .(....@...._=...
	0x0020:  38cd 1b39 9fb9 0000 303f 0000 e03d 5011  8..9....0?...=P.
	0x0030:  2000 f798 0000                           ......
08:49:08.601963 IP (tos 0x0, ttl 27, id 39579, offset 0, flags [none], proto TCP (6), length 40)
    149.254.56.205.40889 > 192.95.61.160.6969: Flags [.], cksum 0x67c3 (correct), seq 6, ack 45061, win 65495, length 0
	0x0000:  0200 00d2 bf75 6c9c edba ec40 0800 4500  .....ul....@..E.
	0x0010:  0028 9a9b 0000 1b06 386a 95fe 38cd c05f  .(......8j..8.._
	0x0020:  3da0 9fb9 1b39 0000 e03c 0000 e03e 5010  =....9...<...>P.
	0x0030:  ffd7 67c3 0000 0000 0000 0000            ..g.........
08:49:08.636056 IP (tos 0x0, ttl 27, id 39580, offset 0, flags [none], proto TCP (6), length 40)
    149.254.56.205.6984 > 192.95.61.160.6969: Flags [S], cksum 0x84f1 (correct), seq 10189, win 65495, length 0
	0x0000:  0200 00d2 bf75 6c9c edba ec40 0800 4500  .....ul....@..E.
	0x0010:  0028 9a9c 0000 1b06 3869 95fe 38cd c05f  .(......8i..8.._
	0x0020:  3da0 1b48 1b39 0000 27cd 0000 0000 5002  =..H.9..'.....P.
	0x0030:  ffd7 84f1 0000 0000 0000 0000            ............
08:49:08.641270 IP (tos 0x0, ttl 64, id 1, offset 0, flags [none], proto TCP (6), length 40)
    192.95.61.160.6969 > 149.254.56.205.6984: Flags [S.], cksum 0x767a (correct), seq 12345, ack 10190, win 8192, length 0
	0x0000:  0007 b400 0102 0200 00d2 bf75 0800 4500  ...........u..E.
	0x0010:  0028 0001 0000 4006 ae04 c05f 3da0 95fe  .(....@...._=...
	0x0020:  38cd 1b39 1b48 0000 3039 0000 27ce 5012  8..9.H..09..'.P.
	0x0030:  2000 767a be04                           ..vz..
08:49:09.160967 IP (tos 0x0, ttl 27, id 39582, offset 0, flags [none], proto TCP (6), length 40)
    149.254.56.205.6984 > 192.95.61.160.6969: Flags [.], cksum 0x54a8 (correct), seq 1, ack 1, win 65495, length 0
	0x0000:  0200 00d2 bf75 6c9c edba ec40 0800 4500  .....ul....@..E.
	0x0010:  0028 9a9e 0000 1b06 3867 95fe 38cd c05f  .(......8g..8.._
	0x0020:  3da0 1b48 1b39 0000 27ce 0000 303a 5010  =..H.9..'...0:P.
	0x0030:  ffd7 54a8 0000 0000 0000 0000            ..T.........
08:49:09.272718 IP (tos 0x0, ttl 27, id 39583, offset 0, flags [none], proto TCP (6), length 45)
    149.254.56.205.6984 > 192.95.61.160.6969: Flags [P.], cksum 0x7009 (correct), seq 1:6, ack 1, win 65495, length 5
	0x0000:  0200 00d2 bf75 6c9c edba ec40 0800 4500  .....ul....@..E.
	0x0010:  002d 9a9f 0000 1b06 3861 95fe 38cd c05f  .-......8a..8.._
	0x0020:  3da0 1b48 1b39 0000 27ce 0000 303a 5118  =..H.9..'...0:Q.
	0x0030:  ffd7 7009 0000 4845 4c4c 4f00            ..p...HELLO.
08:49:09.278694 IP (tos 0x0, ttl 64, id 1, offset 0, flags [none], proto TCP (6), length 45)
    192.95.61.160.6969 > 149.254.56.205.6984: Flags [.], cksum 0x4fe4 (correct), seq 1:6, ack 6, win 8192, length 5
	0x0000:  0007 b400 0102 0200 00d2 bf75 0800 4500  ...........u..E.
	0x0010:  002d 0001 0000 4006 adff c05f 3da0 95fe  .-....@...._=...
	0x0020:  38cd 1b39 1b48 0000 303a 0000 27d3 5110  8..9.H..0:..'.Q.
	0x0030:  2000 4fe4 0000 4f4c 4c45 48              ..O...OLLEH
08:49:09.776271 IP (tos 0x0, ttl 27, id 39585, offset 0, flags [none], proto TCP (6), length 40)
    149.254.56.205.6984 > 192.95.61.160.6969: Flags [.], cksum 0x539e (correct), seq 6, ack 6, win 65495, length 0
	0x0000:  0200 00d2 bf75 6c9c edba ec40 0800 4500  .....ul....@..E.
	0x0010:  0028 9aa1 0000 1b06 3864 95fe 38cd c05f  .(......8d..8.._
	0x0020:  3da0 1b48 1b39 0000 27d3 0000 303f 5110  =..H.9..'...0?Q.
	0x0030:  ffd7 539e 0000 0000 0000 0000            ..S.........
08:49:10.043397 IP (tos 0x0, ttl 27, id 39586, offset 0, flags [none], proto TCP (6), length 40)
    149.254.56.205.6984 > 192.95.61.160.6969: Flags [F.], cksum 0x539d (correct), seq 6, ack 6, win 65495, length 0
	0x0000:  0200 00d2 bf75 6c9c edba ec40 0800 4500  .....ul....@..E.
	0x0010:  0028 9aa2 0000 1b06 3863 95fe 38cd c05f  .(......8c..8.._
	0x0020:  3da0 1b48 1b39 0000 27d3 0000 303f 5111  =..H.9..'...0?Q.
	0x0030:  ffd7 539d 0000 0000 0000 0000            ..S.........
08:49:10.048116 IP (tos 0x0, ttl 64, id 1, offset 0, flags [none], proto TCP (6), length 40)
    192.95.61.160.6969 > 149.254.56.205.6984: Flags [F.], cksum 0x3474 (correct), seq 6, ack 7, win 8192, length 0
	0x0000:  0007 b400 0102 0200 00d2 bf75 0800 4500  ...........u..E.
	0x0010:  0028 0001 0000 4006 ae04 c05f 3da0 95fe  .(....@...._=...
	0x0020:  38cd 1b39 1b48 0000 303f 0000 27d4 5011  8..9.H..0?..'.P.
	0x0030:  2000 3474 0000                           ..4t..
08:49:10.568123 IP (tos 0x0, ttl 27, id 39588, offset 0, flags [none], proto TCP (6), length 40)
    149.254.56.205.6984 > 192.95.61.160.6969: Flags [.], cksum 0x5d08 (correct), seq 6, ack 4294965148, win 65495, length 0
	0x0000:  0200 00d2 bf75 6c9c edba ec40 0800 4500  .....ul....@..E.
	0x0010:  0028 9aa4 0000 1b06 3861 95fe 38cd c05f  .(......8a..8.._
	0x0020:  3da0 1b48 1b39 0000 27d3 0000 27d5 5010  =..H.9..'...'.P.
	0x0030:  ffd7 5d08 0000 0000 0000 0000            ..].........
08:49:10.784415 IP (tos 0x0, ttl 27, id 39589, offset 0, flags [none], proto TCP (6), length 40)
    149.254.56.205.47721 > 192.95.61.160.6969: Flags [S], cksum 0x84c6 (correct), seq 35030, win 65495, length 0
	0x0000:  0200 00d2 bf75 6c9c edba ec40 0800 4500  .....ul....@..E.
	0x0010:  0028 9aa5 0000 1b06 3860 95fe 38cd c05f  .(......8`..8.._
	0x0020:  3da0 ba69 1b39 0000 88d6 0000 0000 5002  =..i.9........P.
	0x0030:  ffd7 84c6 0000 0000 0000 0000            ............
08:49:10.789855 IP (tos 0x0, ttl 64, id 1, offset 0, flags [none], proto TCP (6), length 40)
    192.95.61.160.6969 > 149.254.56.205.47721: Flags [S.], cksum 0x764f (correct), seq 12345, ack 35031, win 8192, length 0
	0x0000:  0007 b400 0102 0200 00d2 bf75 0800 4500  ...........u..E.
	0x0010:  0028 0001 0000 4006 ae04 c05f 3da0 95fe  .(....@...._=...
	0x0020:  38cd 1b39 ba69 0000 3039 0000 88d7 5012  8..9.i..09....P.
	0x0030:  2000 764f be04                           ..vO..
08:49:11.477642 IP (tos 0x0, ttl 27, id 39591, offset 0, flags [none], proto TCP (6), length 40)
    149.254.56.205.47721 > 192.95.61.160.6969: Flags [.], cksum 0x547d (correct), seq 1, ack 1, win 65495, length 0
	0x0000:  0200 00d2 bf75 6c9c edba ec40 0800 4500  .....ul....@..E.
	0x0010:  0028 9aa7 0000 1b06 385e 95fe 38cd c05f  .(......8^..8.._
	0x0020:  3da0 ba69 1b39 0000 88d7 0000 303a 5010  =..i.9......0:P.
	0x0030:  ffd7 547d 0000 0000 0000 0000            ..T}........
08:49:11.592202 IP (tos 0x0, ttl 27, id 39592, offset 0, flags [none], proto TCP (6), length 45)
    149.254.56.205.47721 > 192.95.61.160.6969: Flags [P.], cksum 0x6ede (correct), seq 1:6, ack 1, win 65495, length 5
	0x0000:  0200 00d2 bf75 6c9c edba ec40 0800 4500  .....ul....@..E.
	0x0010:  002d 9aa8 0000 1b06 3858 95fe 38cd c05f  .-......8X..8.._
	0x0020:  3da0 ba69 1b39 0000 88d7 0000 303a 5218  =..i.9......0:R.
	0x0030:  ffd7 6ede 0000 4845 4c4c 4f00            ..n...HELLO.
08:49:11.598384 IP (tos 0x0, ttl 64, id 1, offset 0, flags [none], proto TCP (6), length 45)
    192.95.61.160.6969 > 149.254.56.205.47721: Flags [.], cksum 0x4eb9 (correct), seq 1:6, ack 6, win 8192, length 5
	0x0000:  0007 b400 0102 0200 00d2 bf75 0800 4500  ...........u..E.
	0x0010:  002d 0001 0000 4006 adff c05f 3da0 95fe  .-....@...._=...
	0x0020:  38cd 1b39 ba69 0000 303a 0000 88dc 5210  8..9.i..0:....R.
	0x0030:  2000 4eb9 0000 4f4c 4c45 48              ..N...OLLEH
08:49:12.782310 IP (tos 0x0, ttl 27, id 39594, offset 0, flags [none], proto TCP (6), length 40)
    149.254.56.205.47721 > 192.95.61.160.6969: Flags [.], cksum 0x5273 (correct), seq 6, ack 6, win 65495, length 0
	0x0000:  0200 00d2 bf75 6c9c edba ec40 0800 4500  .....ul....@..E.
	0x0010:  0028 9aaa 0000 1b06 385b 95fe 38cd c05f  .(......8[..8.._
	0x0020:  3da0 ba69 1b39 0000 88dc 0000 303f 5210  =..i.9......0?R.
	0x0030:  ffd7 5273 0000 0000 0000 0000            ..Rs........
08:49:12.782351 IP (tos 0x0, ttl 27, id 39595, offset 0, flags [none], proto TCP (6), length 40)
    149.254.56.205.47721 > 192.95.61.160.6969: Flags [F.], cksum 0x5272 (correct), seq 6, ack 6, win 65495, length 0
	0x0000:  0200 00d2 bf75 6c9c edba ec40 0800 4500  .....ul....@..E.
	0x0010:  0028 9aab 0000 1b06 385a 95fe 38cd c05f  .(......8Z..8.._
	0x0020:  3da0 ba69 1b39 0000 88dc 0000 303f 5211  =..i.9......0?R.
	0x0030:  ffd7 5272 0000 0000 0000 0000            ..Rr........
08:49:12.788782 IP (tos 0x0, ttl 64, id 1, offset 0, flags [none], proto TCP (6), length 40)
    192.95.61.160.6969 > 149.254.56.205.47721: Flags [F.], cksum 0x3449 (correct), seq 6, ack 7, win 8192, length 0
	0x0000:  0007 b400 0102 0200 00d2 bf75 0800 4500  ...........u..E.
	0x0010:  0028 0001 0000 4006 ae04 c05f 3da0 95fe  .(....@...._=...
	0x0020:  38cd 1b39 ba69 0000 303f 0000 88dd 5011  8..9.i..0?....P.
	0x0030:  2000 3449 0000                           ..4I..
08:49:13.306447 IP (tos 0x0, ttl 27, id 39597, offset 0, flags [none], proto TCP (6), length 40)
    149.254.56.205.47721 > 192.95.61.160.6969: Flags [.], cksum 0xfbd3 (correct), seq 6, ack 22693, win 65495, length 0
	0x0000:  0200 00d2 bf75 6c9c edba ec40 0800 4500  .....ul....@..E.
	0x0010:  0028 9aad 0000 1b06 3858 95fe 38cd c05f  .(......8X..8.._
	0x0020:  3da0 ba69 1b39 0000 88dc 0000 88de 5010  =..i.9........P.
	0x0030:  ffd7 fbd3 0000 0000 0000 0000            ............
08:49:13.532448 IP (tos 0x0, ttl 27, id 39598, offset 0, flags [none], proto TCP (6), length 40)
    149.254.56.205.36003 > 192.95.61.160.6969: Flags [S], cksum 0x803b (correct), seq 47911, win 65495, length 0
	0x0000:  0200 00d2 bf75 6c9c edba ec40 0800 4500  .....ul....@..E.
	0x0010:  0028 9aae 0000 1b06 3857 95fe 38cd c05f  .(......8W..8.._
	0x0020:  3da0 8ca3 1b39 0000 bb27 0000 0000 5002  =....9...'....P.
	0x0030:  ffd7 803b 0000 0000 0000 0000            ...;........
08:49:13.537690 IP (tos 0x0, ttl 64, id 1, offset 0, flags [none], proto TCP (6), length 40)
    192.95.61.160.6969 > 149.254.56.205.36003: Flags [S.], cksum 0x71c4 (correct), seq 12345, ack 47912, win 8192, length 0
	0x0000:  0007 b400 0102 0200 00d2 bf75 0800 4500  ...........u..E.
	0x0010:  0028 0001 0000 4006 ae04 c05f 3da0 95fe  .(....@...._=...
	0x0020:  38cd 1b39 8ca3 0000 3039 0000 bb28 5012  8..9....09...(P.
	0x0030:  2000 71c4 be04                           ..q...
08:49:14.384206 IP (tos 0x0, ttl 27, id 39600, offset 0, flags [none], proto TCP (6), length 40)
    149.254.56.205.36003 > 192.95.61.160.6969: Flags [.], cksum 0x4ff2 (correct), seq 1, ack 1, win 65495, length 0
	0x0000:  0200 00d2 bf75 6c9c edba ec40 0800 4500  .....ul....@..E.
	0x0010:  0028 9ab0 0000 1b06 3855 95fe 38cd c05f  .(......8U..8.._
	0x0020:  3da0 8ca3 1b39 0000 bb28 0000 303a 5010  =....9...(..0:P.
	0x0030:  ffd7 4ff2 0000 0000 0000 0000            ..O.........
08:49:14.385244 IP (tos 0x0, ttl 27, id 39601, offset 0, flags [none], proto TCP (6), length 45)
    149.254.56.205.36003 > 192.95.61.160.6969: Flags [P.], cksum 0x6853 (correct), seq 1:6, ack 1, win 65495, length 5
	0x0000:  0200 00d2 bf75 6c9c edba ec40 0800 4500  .....ul....@..E.
	0x0010:  002d 9ab1 0000 1b06 384f 95fe 38cd c05f  .-......8O..8.._
	0x0020:  3da0 8ca3 1b39 0000 bb28 0000 303a 5418  =....9...(..0:T.
	0x0030:  ffd7 6853 0000 4845 4c4c 4f00            ..hS..HELLO.
08:49:14.392566 IP (tos 0x0, ttl 64, id 1, offset 0, flags [none], proto TCP (6), length 45)
    192.95.61.160.6969 > 149.254.56.205.36003: Flags [.], cksum 0x482e (correct), seq 1:6, ack 6, win 8192, length 5
	0x0000:  0007 b400 0102 0200 00d2 bf75 0800 4500  ...........u..E.
	0x0010:  002d 0001 0000 4006 adff c05f 3da0 95fe  .-....@...._=...
	0x0020:  38cd 1b39 8ca3 0000 303a 0000 bb2d 5410  8..9....0:...-T.
	0x0030:  2000 482e 0000 4f4c 4c45 48              ..H...OLLEH
08:49:15.076984 IP (tos 0x0, ttl 27, id 39603, offset 0, flags [none], proto TCP (6), length 40)
    149.254.56.205.36003 > 192.95.61.160.6969: Flags [.], cksum 0x4be8 (correct), seq 6, ack 6, win 65495, length 0
	0x0000:  0200 00d2 bf75 6c9c edba ec40 0800 4500  .....ul....@..E.
	0x0010:  0028 9ab3 0000 1b06 3852 95fe 38cd c05f  .(......8R..8.._
	0x0020:  3da0 8ca3 1b39 0000 bb2d 0000 303f 5410  =....9...-..0?T.
	0x0030:  ffd7 4be8 0000 0000 0000 0000            ..K.........
08:49:15.179700 IP (tos 0x0, ttl 27, id 39604, offset 0, flags [none], proto TCP (6), length 40)
    149.254.56.205.36003 > 192.95.61.160.6969: Flags [F.], cksum 0x4be7 (correct), seq 6, ack 6, win 65495, length 0
	0x0000:  0200 00d2 bf75 6c9c edba ec40 0800 4500  .....ul....@..E.
	0x0010:  0028 9ab4 0000 1b06 3851 95fe 38cd c05f  .(......8Q..8.._
	0x0020:  3da0 8ca3 1b39 0000 bb2d 0000 303f 5411  =....9...-..0?T.
	0x0030:  ffd7 4be7 0000 0000 0000 0000            ..K.........
08:49:15.184511 IP (tos 0x0, ttl 64, id 1, offset 0, flags [none], proto TCP (6), length 40)
    192.95.61.160.6969 > 149.254.56.205.36003: Flags [F.], cksum 0x2fbe (correct), seq 6, ack 7, win 8192, length 0
	0x0000:  0007 b400 0102 0200 00d2 bf75 0800 4500  ...........u..E.
	0x0010:  0028 0001 0000 4006 ae04 c05f 3da0 95fe  .(....@...._=...
	0x0020:  38cd 1b39 8ca3 0000 303f 0000 bb2e 5011  8..9....0?....P.
	0x0030:  2000 2fbe 0000                           ../...
08:49:15.717106 IP (tos 0x0, ttl 27, id 39606, offset 0, flags [none], proto TCP (6), length 40)
    149.254.56.205.36003 > 192.95.61.160.6969: Flags [.], cksum 0xc4f7 (correct), seq 6, ack 35574, win 65495, length 0
	0x0000:  0200 00d2 bf75 6c9c edba ec40 0800 4500  .....ul....@..E.
	0x0010:  0028 9ab6 0000 1b06 384f 95fe 38cd c05f  .(......8O..8.._
	0x0020:  3da0 8ca3 1b39 0000 bb2d 0000 bb2f 5010  =....9...-.../P.
	0x0030:  ffd7 c4f7 0000 0000 0000 0000            ............
08:49:16.165842 IP (tos 0x0, ttl 27, id 39607, offset 0, flags [none], proto TCP (6), length 40)
    149.254.56.205.55212 > 192.95.61.160.6969: Flags [S], cksum 0x0a3d (correct), seq 58908, win 65495, length 0
	0x0000:  0200 00d2 bf75 6c9c edba ec40 0800 4500  .....ul....@..E.
	0x0010:  0028 9ab7 0000 1b06 384e 95fe 38cd c05f  .(......8N..8.._
	0x0020:  3da0 d7ac 1b39 0000 e61c 0000 0000 5002  =....9........P.
	0x0030:  ffd7 0a3d 0000 0000 0000 0000            ...=........
08:49:16.171072 IP (tos 0x0, ttl 64, id 1, offset 0, flags [none], proto TCP (6), length 40)
    192.95.61.160.6969 > 149.254.56.205.55212: Flags [S.], cksum 0xfbc5 (correct), seq 12345, ack 58909, win 8192, length 0
	0x0000:  0007 b400 0102 0200 00d2 bf75 0800 4500  ...........u..E.
	0x0010:  0028 0001 0000 4006 ae04 c05f 3da0 95fe  .(....@...._=...
	0x0020:  38cd 1b39 d7ac 0000 3039 0000 e61d 5012  8..9....09....P.
	0x0030:  2000 fbc5 be04                           ......
08:49:16.913796 IP (tos 0x0, ttl 27, id 39609, offset 0, flags [none], proto TCP (6), length 40)
    149.254.56.205.55212 > 192.95.61.160.6969: Flags [.], cksum 0xd9f3 (correct), seq 1, ack 1, win 65495, length 0
	0x0000:  0200 00d2 bf75 6c9c edba ec40 0800 4500  .....ul....@..E.
	0x0010:  0028 9ab9 0000 1b06 384c 95fe 38cd c05f  .(......8L..8.._
	0x0020:  3da0 d7ac 1b39 0000 e61d 0000 303a 5010  =....9......0:P.
	0x0030:  ffd7 d9f3 0000 0000 0000 0000            ............
08:49:17.015748 IP (tos 0x0, ttl 27, id 39610, offset 0, flags [none], proto TCP (6), length 45)
    149.254.56.205.55212 > 192.95.61.160.6969: Flags [P.], cksum 0xee54 (correct), seq 1:6, ack 1, win 65495, length 5
	0x0000:  0200 00d2 bf75 6c9c edba ec40 0800 4500  .....ul....@..E.
	0x0010:  002d 9aba 0000 1b06 3846 95fe 38cd c05f  .-......8F..8.._
	0x0020:  3da0 d7ac 1b39 0000 e61d 0000 303a 5818  =....9......0:X.
	0x0030:  ffd7 ee54 0000 4845 4c4c 4f00            ...T..HELLO.
08:49:17.021653 IP (tos 0x0, ttl 64, id 1, offset 0, flags [none], proto TCP (6), length 45)
    192.95.61.160.6969 > 149.254.56.205.55212: Flags [.], cksum 0xce2f (correct), seq 1:6, ack 6, win 8192, length 5
	0x0000:  0007 b400 0102 0200 00d2 bf75 0800 4500  ...........u..E.
	0x0010:  002d 0001 0000 4006 adff c05f 3da0 95fe  .-....@...._=...
	0x0020:  38cd 1b39 d7ac 0000 303a 0000 e622 5810  8..9....0:..."X.
	0x0030:  2000 ce2f 0000 4f4c 4c45 48              .../..OLLEH
08:49:18.315587 IP (tos 0x0, ttl 27, id 39612, offset 0, flags [none], proto TCP (6), length 40)
    149.254.56.205.55212 > 192.95.61.160.6969: Flags [.], cksum 0xd1e9 (correct), seq 6, ack 6, win 65495, length 0
	0x0000:  0200 00d2 bf75 6c9c edba ec40 0800 4500  .....ul....@..E.
	0x0010:  0028 9abc 0000 1b06 3849 95fe 38cd c05f  .(......8I..8.._
	0x0020:  3da0 d7ac 1b39 0000 e622 0000 303f 5810  =....9..."..0?X.
	0x0030:  ffd7 d1e9 0000 0000 0000 0000            ............
08:49:18.315631 IP (tos 0x0, ttl 27, id 39613, offset 0, flags [none], proto TCP (6), length 40)
    149.254.56.205.55212 > 192.95.61.160.6969: Flags [F.], cksum 0xd1e8 (correct), seq 6, ack 6, win 65495, length 0
	0x0000:  0200 00d2 bf75 6c9c edba ec40 0800 4500  .....ul....@..E.
	0x0010:  0028 9abd 0000 1b06 3848 95fe 38cd c05f  .(......8H..8.._
	0x0020:  3da0 d7ac 1b39 0000 e622 0000 303f 5811  =....9..."..0?X.
	0x0030:  ffd7 d1e8 0000 0000 0000 0000            ............
08:49:18.322356 IP (tos 0x0, ttl 64, id 1, offset 0, flags [none], proto TCP (6), length 40)
    192.95.61.160.6969 > 149.254.56.205.55212: Flags [F.], cksum 0xb9bf (correct), seq 6, ack 7, win 8192, length 0
	0x0000:  0007 b400 0102 0200 00d2 bf75 0800 4500  ...........u..E.
	0x0010:  0028 0001 0000 4006 ae04 c05f 3da0 95fe  .(....@...._=...
	0x0020:  38cd 1b39 d7ac 0000 303f 0000 e623 5011  8..9....0?...#P.
	0x0030:  2000 b9bf 0000                           ......
08:49:18.836797 IP (tos 0x0, ttl 27, id 39615, offset 0, flags [none], proto TCP (6), length 40)
    149.254.56.205.55212 > 192.95.61.160.6969: Flags [.], cksum 0x2404 (correct), seq 6, ack 46571, win 65495, length 0
	0x0000:  0200 00d2 bf75 6c9c edba ec40 0800 4500  .....ul....@..E.
	0x0010:  0028 9abf 0000 1b06 3846 95fe 38cd c05f  .(......8F..8.._
	0x0020:  3da0 d7ac 1b39 0000 e622 0000 e624 5010  =....9..."...$P.
	0x0030:  ffd7 2404 0000 0000 0000 0000            ..$.........
08:49:20.182596 IP (tos 0x0, ttl 27, id 39616, offset 0, flags [none], proto TCP (6), length 40)
    149.254.56.205.7904 > 192.95.61.160.6969: Flags [S], cksum 0xbde8 (correct), seq 11329, win 65495, length 0
	0x0000:  0200 00d2 bf75 6c9c edba ec40 0800 4500  .....ul....@..E.
	0x0010:  0028 9ac0 0000 1b06 3845 95fe 38cd c05f  .(......8E..8.._
	0x0020:  3da0 1ee0 1b39 0000 2c41 beef 000d 5002  =....9..,A....P.
	0x0030:  ffd7 bde8 0000 0000 0000 0000            ............
08:49:20.187961 IP (tos 0x0, ttl 64, id 1, offset 0, flags [none], proto TCP (6), length 40)
    192.95.61.160.6969 > 149.254.56.205.7904: Flags [S.], cksum 0x74c7 (incorrect -> 0x2c73), seq 12345, ack 11330, win 8192, length 0
	0x0000:  0007 b400 0102 0200 00d2 bf75 0800 4500  ...........u..E.
	0x0010:  0028 0001 0000 4006 ae04 c05f 3da0 95fe  .(....@...._=...
	0x0020:  38cd 1b39 1ee0 0000 3039 0000 2c42 5012  8..9....09..,BP.
	0x0030:  2000 74c7 0000                           ..t...
08:49:20.755882 IP (tos 0x0, ttl 27, id 39617, offset 0, flags [none], proto TCP (6), length 40)
    149.254.56.205.7904 > 192.95.61.160.6969: Flags [.], cksum 0x4c9c (correct), seq 1, ack 1, win 65495, length 0
	0x0000:  0200 00d2 bf75 6c9c edba ec40 0800 4500  .....ul....@..E.
	0x0010:  0028 9ac1 0000 1b06 3844 95fe 38cd c05f  .(......8D..8.._
	0x0020:  3da0 1ee0 1b39 0000 2c42 0000 303a 5010  =....9..,B..0:P.
	0x0030:  ffd7 4c9c 0000 0000 0000 0000            ..L.........
08:49:20.867325 IP (tos 0x0, ttl 27, id 39618, offset 0, flags [none], proto TCP (6), length 45)
    149.254.56.205.7904 > 192.95.61.160.6969: Flags [P.], cksum 0x68fd (correct), seq 1:6, ack 1, win 65495, length 5
	0x0000:  0200 00d2 bf75 6c9c edba ec40 0800 4500  .....ul....@..E.
	0x0010:  002d 9ac2 0000 1b06 383e 95fe 38cd c05f  .-......8>..8.._
	0x0020:  3da0 1ee0 1b39 0000 2c42 0000 303a 5018  =....9..,B..0:P.
	0x0030:  ffd7 68fd 0000 4845 4c4c 4f00            ..h...HELLO.
08:49:20.873045 IP (tos 0x0, ttl 64, id 1, offset 0, flags [none], proto TCP (6), length 45)
    192.95.61.160.6969 > 149.254.56.205.7904: Flags [.], cksum 0x48d8 (correct), seq 1:6, ack 6, win 8192, length 5
	0x0000:  0007 b400 0102 0200 00d2 bf75 0800 4500  ...........u..E.
	0x0010:  002d 0001 0000 4006 adff c05f 3da0 95fe  .-....@...._=...
	0x0020:  38cd 1b39 1ee0 0000 303a 0000 2c47 5010  8..9....0:..,GP.
	0x0030:  2000 48d8 0000 4f4c 4c45 48              ..H...OLLEH
08:49:21.389978 IP (tos 0x0, ttl 27, id 39620, offset 0, flags [none], proto TCP (6), length 40)
    149.254.56.205.7904 > 192.95.61.160.6969: Flags [.], cksum 0x4c92 (correct), seq 6, ack 6, win 65495, length 0
	0x0000:  0200 00d2 bf75 6c9c edba ec40 0800 4500  .....ul....@..E.
	0x0010:  0028 9ac4 0000 1b06 3841 95fe 38cd c05f  .(......8A..8.._
	0x0020:  3da0 1ee0 1b39 0000 2c47 0000 303f 5010  =....9..,G..0?P.
	0x0030:  ffd7 4c92 0000 0000 0000 0000            ..L.........
08:49:21.498924 IP (tos 0x0, ttl 27, id 39621, offset 0, flags [none], proto TCP (6), length 40)
    149.254.56.205.7904 > 192.95.61.160.6969: Flags [F.], cksum 0x4c91 (correct), seq 6, ack 6, win 65495, length 0
	0x0000:  0200 00d2 bf75 6c9c edba ec40 0800 4500  .....ul....@..E.
	0x0010:  0028 9ac5 0000 1b06 3840 95fe 38cd c05f  .(......8@..8.._
	0x0020:  3da0 1ee0 1b39 0000 2c47 0000 303f 5011  =....9..,G..0?P.
	0x0030:  ffd7 4c91 0000 0000 0000 0000            ..L.........
08:49:21.503752 IP (tos 0x0, ttl 64, id 1, offset 0, flags [none], proto TCP (6), length 40)
    192.95.61.160.6969 > 149.254.56.205.7904: Flags [F.], cksum 0x2c68 (correct), seq 6, ack 7, win 8192, length 0
	0x0000:  0007 b400 0102 0200 00d2 bf75 0800 4500  ...........u..E.
	0x0010:  0028 0001 0000 4006 ae04 c05f 3da0 95fe  .(....@...._=...
	0x0020:  38cd 1b39 1ee0 0000 303f 0000 2c48 5011  8..9....0?..,HP.
	0x0030:  2000 2c68 0000                           ..,h..
08:49:23.044551 IP (tos 0x0, ttl 27, id 39623, offset 0, flags [none], proto TCP (6), length 40)
    149.254.56.205.7904 > 192.95.61.160.6969: Flags [.], cksum 0x5088 (correct), seq 6, ack 4294966288, win 65495, length 0
	0x0000:  0200 00d2 bf75 6c9c edba ec40 0800 4500  .....ul....@..E.
	0x0010:  0028 9ac7 0000 1b06 383e 95fe 38cd c05f  .(......8>..8.._
	0x0020:  3da0 1ee0 1b39 0000 2c47 0000 2c49 5010  =....9..,G..,IP.
	0x0030:  ffd7 5088 0000 0000 0000 0000            ..P.........

