09:57:07.916000 IP (tos 0x0, ttl 51, id 14741, offset 0, flags [DF], proto TCP (6), length 64)
    82.132.230.201.44120 > 192.95.61.160.6969: Flags [S], cksum 0xab4f (correct), seq 2472656076, win 32850, options [mss 1460,nop,nop,TS val 898467266 ecr 0,nop,wscale 2,nop,nop,sackOK], length 0
	0x0000:  0200 00d2 bf75 6c9c edba ec40 0800 4500  .....ul....@..E.
	0x0010:  0040 3995 4000 3306 d6d5 5284 e6c9 c05f  .@9.@.3...R...._
	0x0020:  3da0 ac58 1b39 9361 bccc 0000 0000 b002  =..X.9.a........
	0x0030:  8052 ab4f 0000 0204 05b4 0101 080a 358d  .R.O..........5.
	0x0040:  85c2 0000 0000 0103 0302 0101 0402       ..............
09:57:07.940580 IP (tos 0x0, ttl 64, id 1, offset 0, flags [none], proto TCP (6), length 40)
    192.95.61.160.6969 > 82.132.230.201.44120: Flags [S.], cksum 0x5286 (correct), seq 12345, ack 2472656077, win 8192, length 0
	0x0000:  0007 b400 0102 0200 00d2 bf75 0800 4500  ...........u..E.
	0x0010:  0028 0001 0000 4006 4382 c05f 3da0 5284  .(....@.C.._=.R.
	0x0020:  e6c9 1b39 ac58 0000 3039 9361 bccd 5012  ...9.X..09.a..P.
	0x0030:  2000 5286 be04                           ..R...
09:57:08.030552 IP (tos 0x0, ttl 51, id 14742, offset 0, flags [DF], proto TCP (6), length 40)
    82.132.230.201.44120 > 192.95.61.160.6969: Flags [.], cksum 0x311b (correct), seq 1, ack 1, win 65392, length 0
	0x0000:  0200 00d2 bf75 6c9c edba ec40 0800 4500  .....ul....@..E.
	0x0010:  0028 3996 4000 3306 d6ec 5284 e6c9 c05f  .(9.@.3...R...._
	0x0020:  3da0 ac58 1b39 9361 bccd 0000 303a 5010  =..X.9.a....0:P.
	0x0030:  ff70 311b 0000 0000 0000 0000            .p1.........
09:57:08.030598 IP (tos 0x0, ttl 51, id 14743, offset 0, flags [DF], proto TCP (6), length 45)
    82.132.230.201.44120 > 192.95.61.160.6969: Flags [P.], cksum 0x4d7c (correct), seq 1:6, ack 1, win 65392, length 5
	0x0000:  0200 00d2 bf75 6c9c edba ec40 0800 4500  .....ul....@..E.
	0x0010:  002d 3997 4000 3306 d6e6 5284 e6c9 c05f  .-9.@.3...R...._
	0x0020:  3da0 ac58 1b39 9361 bccd 0000 303a 5018  =..X.9.a....0:P.
	0x0030:  ff70 4d7c 0000 4845 4c4c 4f00            .pM|..HELLO.
09:57:08.039170 IP (tos 0x0, ttl 64, id 1, offset 0, flags [none], proto TCP (6), length 45)
    192.95.61.160.6969 > 82.132.230.201.44120: Flags [.], cksum 0x2cf0 (correct), seq 1:6, ack 6, win 8192, length 5
	0x0000:  0007 b400 0102 0200 00d2 bf75 0800 4500  ...........u..E.
	0x0010:  002d 0001 0000 4006 437d c05f 3da0 5284  .-....@.C}._=.R.
	0x0020:  e6c9 1b39 ac58 0000 303a 9361 bcd2 5010  ...9.X..0:.a..P.
	0x0030:  2000 2cf0 0000 4f4c 4c45 48              ..,...OLLEH
09:57:08.128945 IP (tos 0x0, ttl 51, id 14744, offset 0, flags [DF], proto TCP (6), length 40)
    82.132.230.201.44120 > 192.95.61.160.6969: Flags [.], cksum 0x3116 (correct), seq 6, ack 6, win 65387, length 0
	0x0000:  0200 00d2 bf75 6c9c edba ec40 0800 4500  .....ul....@..E.
	0x0010:  0028 3998 4000 3306 d6ea 5284 e6c9 c05f  .(9.@.3...R...._
	0x0020:  3da0 ac58 1b39 9361 bcd2 0000 303f 5010  =..X.9.a....0?P.
	0x0030:  ff6b 3116 0000 0000 0000 0000            .k1.........
09:57:08.261631 IP (tos 0x0, ttl 51, id 14745, offset 0, flags [DF], proto TCP (6), length 40)
    82.132.230.201.44120 > 192.95.61.160.6969: Flags [F.], cksum 0x3115 (correct), seq 6, ack 6, win 65387, length 0
	0x0000:  0200 00d2 bf75 6c9c edba ec40 0800 4500  .....ul....@..E.
	0x0010:  0028 3999 4000 3306 d6e9 5284 e6c9 c05f  .(9.@.3...R...._
	0x0020:  3da0 ac58 1b39 9361 bcd2 0000 303f 5011  =..X.9.a....0?P.
	0x0030:  ff6b 3115 0000 0000 0000 0000            .k1.........
09:57:08.267093 IP (tos 0x0, ttl 64, id 1, offset 0, flags [none], proto TCP (6), length 40)
    192.95.61.160.6969 > 82.132.230.201.44120: Flags [F.], cksum 0x1080 (correct), seq 6, ack 7, win 8192, length 0
	0x0000:  0007 b400 0102 0200 00d2 bf75 0800 4500  ...........u..E.
	0x0010:  0028 0001 0000 4006 4382 c05f 3da0 5284  .(....@.C.._=.R.
	0x0020:  e6c9 1b39 ac58 0000 303f 9361 bcd3 5011  ...9.X..0?.a..P.
	0x0030:  2000 1080 0000                           ......
09:57:08.356494 IP (tos 0x0, ttl 51, id 14746, offset 0, flags [DF], proto TCP (6), length 40)
    82.132.230.201.44120 > 192.95.61.160.6969: Flags [.], cksum 0x3114 (correct), seq 7, ack 7, win 65387, length 0
	0x0000:  0200 00d2 bf75 6c9c edba ec40 0800 4500  .....ul....@..E.
	0x0010:  0028 399a 4000 3306 d6e8 5284 e6c9 c05f  .(9.@.3...R...._
	0x0020:  3da0 ac58 1b39 9361 bcd3 0000 3040 5010  =..X.9.a....0@P.
	0x0030:  ff6b 3114 0000 0000 0000 0000            .k1.........
09:57:09.238029 IP (tos 0x0, ttl 52, id 14747, offset 0, flags [DF], proto TCP (6), length 64)
    82.132.230.201.44126 > 192.95.61.160.6969: Flags [S], cksum 0x9029 (correct), seq 3216091928, win 32850, options [mss 1460,nop,nop,TS val 898467398 ecr 0,nop,wscale 2,nop,nop,sackOK], length 0
	0x0000:  0200 00d2 bf75 6c9c edba ec40 0800 4500  .....ul....@..E.
	0x0010:  0040 399b 4000 3406 d5cf 5284 e6c9 c05f  .@9.@.4...R...._
	0x0020:  3da0 ac5e 1b39 bfb1 ab18 0000 0000 b002  =..^.9..........
	0x0030:  8052 9029 0000 0204 05b4 0101 080a 358d  .R.)..........5.
	0x0040:  8646 0000 0000 0103 0302 0101 0402       .F............
09:57:09.243562 IP (tos 0x0, ttl 64, id 1, offset 0, flags [none], proto TCP (6), length 40)
    192.95.61.160.6969 > 82.132.230.201.44126: Flags [S.], cksum 0x37e4 (correct), seq 12345, ack 3216091929, win 8192, length 0
	0x0000:  0007 b400 0102 0200 00d2 bf75 0800 4500  ...........u..E.
	0x0010:  0028 0001 0000 4006 4382 c05f 3da0 5284  .(....@.C.._=.R.
	0x0020:  e6c9 1b39 ac5e 0000 3039 bfb1 ab19 5012  ...9.^..09....P.
	0x0030:  2000 37e4 be04                           ..7...
09:57:09.331782 IP (tos 0x0, ttl 52, id 14748, offset 0, flags [DF], proto TCP (6), length 40)
    82.132.230.201.44126 > 192.95.61.160.6969: Flags [.], cksum 0x1679 (correct), seq 1, ack 1, win 65392, length 0
	0x0000:  0200 00d2 bf75 6c9c edba ec40 0800 4500  .....ul....@..E.
	0x0010:  0028 399c 4000 3406 d5e6 5284 e6c9 c05f  .(9.@.4...R...._
	0x0020:  3da0 ac5e 1b39 bfb1 ab19 0000 303a 5010  =..^.9......0:P.
	0x0030:  ff70 1679 0000 0000 0000 0000            .p.y........
09:57:09.331819 IP (tos 0x0, ttl 52, id 14749, offset 0, flags [DF], proto TCP (6), length 45)
    82.132.230.201.44126 > 192.95.61.160.6969: Flags [P.], cksum 0x32da (correct), seq 1:6, ack 1, win 65392, length 5
	0x0000:  0200 00d2 bf75 6c9c edba ec40 0800 4500  .....ul....@..E.
	0x0010:  002d 399d 4000 3406 d5e0 5284 e6c9 c05f  .-9.@.4...R...._
	0x0020:  3da0 ac5e 1b39 bfb1 ab19 0000 303a 5018  =..^.9......0:P.
	0x0030:  ff70 32da 0000 4845 4c4c 4f00            .p2...HELLO.
09:57:09.338873 IP (tos 0x0, ttl 64, id 1, offset 0, flags [none], proto TCP (6), length 45)
    192.95.61.160.6969 > 82.132.230.201.44126: Flags [.], cksum 0x124e (correct), seq 1:6, ack 6, win 8192, length 5
	0x0000:  0007 b400 0102 0200 00d2 bf75 0800 4500  ...........u..E.
	0x0010:  002d 0001 0000 4006 437d c05f 3da0 5284  .-....@.C}._=.R.
	0x0020:  e6c9 1b39 ac5e 0000 303a bfb1 ab1e 5010  ...9.^..0:....P.
	0x0030:  2000 124e 0000 4f4c 4c45 48              ...N..OLLEH
09:57:09.426151 IP (tos 0x0, ttl 52, id 14750, offset 0, flags [DF], proto TCP (6), length 40)
    82.132.230.201.44126 > 192.95.61.160.6969: Flags [.], cksum 0x1674 (correct), seq 6, ack 6, win 65387, length 0
	0x0000:  0200 00d2 bf75 6c9c edba ec40 0800 4500  .....ul....@..E.
	0x0010:  0028 399e 4000 3406 d5e4 5284 e6c9 c05f  .(9.@.4...R...._
	0x0020:  3da0 ac5e 1b39 bfb1 ab1e 0000 303f 5010  =..^.9......0?P.
	0x0030:  ff6b 1674 0000 0000 0000 0000            .k.t........
09:57:09.585731 IP (tos 0x0, ttl 52, id 14751, offset 0, flags [DF], proto TCP (6), length 40)
    82.132.230.201.44126 > 192.95.61.160.6969: Flags [F.], cksum 0x1673 (correct), seq 6, ack 6, win 65387, length 0
	0x0000:  0200 00d2 bf75 6c9c edba ec40 0800 4500  .....ul....@..E.
	0x0010:  0028 399f 4000 3406 d5e3 5284 e6c9 c05f  .(9.@.4...R...._
	0x0020:  3da0 ac5e 1b39 bfb1 ab1e 0000 303f 5011  =..^.9......0?P.
	0x0030:  ff6b 1673 0000 0000 0000 0000            .k.s........
09:57:09.590493 IP (tos 0x0, ttl 64, id 1, offset 0, flags [none], proto TCP (6), length 40)
    192.95.61.160.6969 > 82.132.230.201.44126: Flags [F.], cksum 0xf5dd (correct), seq 6, ack 7, win 8192, length 0
	0x0000:  0007 b400 0102 0200 00d2 bf75 0800 4500  ...........u..E.
	0x0010:  0028 0001 0000 4006 4382 c05f 3da0 5284  .(....@.C.._=.R.
	0x0020:  e6c9 1b39 ac5e 0000 303f bfb1 ab1f 5011  ...9.^..0?....P.
	0x0030:  2000 f5dd 0000                           ......
09:57:09.677641 IP (tos 0x0, ttl 52, id 14752, offset 0, flags [DF], proto TCP (6), length 40)
    82.132.230.201.44126 > 192.95.61.160.6969: Flags [.], cksum 0x1672 (correct), seq 7, ack 7, win 65387, length 0
	0x0000:  0200 00d2 bf75 6c9c edba ec40 0800 4500  .....ul....@..E.
	0x0010:  0028 39a0 4000 3406 d5e2 5284 e6c9 c05f  .(9.@.4...R...._
	0x0020:  3da0 ac5e 1b39 bfb1 ab1f 0000 3040 5010  =..^.9......0@P.
	0x0030:  ff6b 1672 0000 0000 0000 0000            .k.r........
09:57:16.865963 IP (tos 0x0, ttl 51, id 14753, offset 0, flags [DF], proto TCP (6), length 64)
    82.132.230.201.44177 > 192.95.61.160.6969: Flags [S], cksum 0x7c2e (correct), seq 2575163929, win 32850, options [mss 1460,nop,nop,TS val 898468161 ecr 0,nop,wscale 2,nop,nop,sackOK], length 0
	0x0000:  0200 00d2 bf75 6c9c edba ec40 0800 4500  .....ul....@..E.
	0x0010:  0040 39a1 4000 3306 d6c9 5284 e6c9 c05f  .@9.@.3...R...._
	0x0020:  3da0 ac91 1b39 997d e219 0000 0000 b002  =....9.}........
	0x0030:  8052 7c2e 0000 0204 05b4 0101 080a 358d  .R|...........5.
	0x0040:  8941 0000 0000 0103 0302 0101 0402       .A............
09:57:16.871853 IP (tos 0x0, ttl 64, id 1, offset 0, flags [none], proto TCP (6), length 40)
    192.95.61.160.6969 > 82.132.230.201.44177: Flags [S.], cksum 0x26e4 (correct), seq 12345, ack 2575163930, win 8192, length 0
	0x0000:  0007 b400 0102 0200 00d2 bf75 0800 4500  ...........u..E.
	0x0010:  0028 0001 0000 4006 4382 c05f 3da0 5284  .(....@.C.._=.R.
	0x0020:  e6c9 1b39 ac91 0000 3039 997d e21a 5012  ...9....09.}..P.
	0x0030:  2000 26e4 be04                           ..&...
09:57:16.968063 IP (tos 0x0, ttl 51, id 14754, offset 0, flags [DF], proto TCP (6), length 40)
    82.132.230.201.44177 > 192.95.61.160.6969: Flags [.], cksum 0x0579 (correct), seq 1, ack 1, win 65392, length 0
	0x0000:  0200 00d2 bf75 6c9c edba ec40 0800 4500  .....ul....@..E.
	0x0010:  0028 39a2 4000 3306 d6e0 5284 e6c9 c05f  .(9.@.3...R...._
	0x0020:  3da0 ac91 1b39 997d e21a 0000 303a 5010  =....9.}....0:P.
	0x0030:  ff70 0579 0000 0000 0000 0000            .p.y........
09:57:16.968100 IP (tos 0x0, ttl 51, id 14755, offset 0, flags [DF], proto TCP (6), length 45)
    82.132.230.201.44177 > 192.95.61.160.6969: Flags [P.], cksum 0x21da (correct), seq 1:6, ack 1, win 65392, length 5
	0x0000:  0200 00d2 bf75 6c9c edba ec40 0800 4500  .....ul....@..E.
	0x0010:  002d 39a3 4000 3306 d6da 5284 e6c9 c05f  .-9.@.3...R...._
	0x0020:  3da0 ac91 1b39 997d e21a 0000 303a 5018  =....9.}....0:P.
	0x0030:  ff70 21da 0000 4845 4c4c 4f00            .p!...HELLO.
09:57:16.975141 IP (tos 0x0, ttl 64, id 1, offset 0, flags [none], proto TCP (6), length 45)
    192.95.61.160.6969 > 82.132.230.201.44177: Flags [.], cksum 0x014e (correct), seq 1:6, ack 6, win 8192, length 5
	0x0000:  0007 b400 0102 0200 00d2 bf75 0800 4500  ...........u..E.
	0x0010:  002d 0001 0000 4006 437d c05f 3da0 5284  .-....@.C}._=.R.
	0x0020:  e6c9 1b39 ac91 0000 303a 997d e21f 5010  ...9....0:.}..P.
	0x0030:  2000 014e 0000 4f4c 4c45 48              ...N..OLLEH
09:57:17.064603 IP (tos 0x0, ttl 51, id 14756, offset 0, flags [DF], proto TCP (6), length 40)
    82.132.230.201.44177 > 192.95.61.160.6969: Flags [.], cksum 0x0574 (correct), seq 6, ack 6, win 65387, length 0
	0x0000:  0200 00d2 bf75 6c9c edba ec40 0800 4500  .....ul....@..E.
	0x0010:  0028 39a4 4000 3306 d6de 5284 e6c9 c05f  .(9.@.3...R...._
	0x0020:  3da0 ac91 1b39 997d e21f 0000 303f 5010  =....9.}....0?P.
	0x0030:  ff6b 0574 0000 0000 0000 0000            .k.t........
09:57:17.302956 IP (tos 0x0, ttl 51, id 14757, offset 0, flags [DF], proto TCP (6), length 40)
    82.132.230.201.44177 > 192.95.61.160.6969: Flags [F.], cksum 0x0573 (correct), seq 6, ack 6, win 65387, length 0
	0x0000:  0200 00d2 bf75 6c9c edba ec40 0800 4500  .....ul....@..E.
	0x0010:  0028 39a5 4000 3306 d6dd 5284 e6c9 c05f  .(9.@.3...R...._
	0x0020:  3da0 ac91 1b39 997d e21f 0000 303f 5011  =....9.}....0?P.
	0x0030:  ff6b 0573 0000 0000 0000 0000            .k.s........
09:57:17.307685 IP (tos 0x0, ttl 64, id 1, offset 0, flags [none], proto TCP (6), length 40)
    192.95.61.160.6969 > 82.132.230.201.44177: Flags [F.], cksum 0xe4dd (correct), seq 6, ack 7, win 8192, length 0
	0x0000:  0007 b400 0102 0200 00d2 bf75 0800 4500  ...........u..E.
	0x0010:  0028 0001 0000 4006 4382 c05f 3da0 5284  .(....@.C.._=.R.
	0x0020:  e6c9 1b39 ac91 0000 303f 997d e220 5011  ...9....0?.}..P.
	0x0030:  2000 e4dd 0000                           ......
09:57:17.397130 IP (tos 0x0, ttl 51, id 14758, offset 0, flags [DF], proto TCP (6), length 40)
    82.132.230.201.44177 > 192.95.61.160.6969: Flags [.], cksum 0x0572 (correct), seq 7, ack 7, win 65387, length 0
	0x0000:  0200 00d2 bf75 6c9c edba ec40 0800 4500  .....ul....@..E.
	0x0010:  0028 39a6 4000 3306 d6dc 5284 e6c9 c05f  .(9.@.3...R...._
	0x0020:  3da0 ac91 1b39 997d e220 0000 3040 5010  =....9.}....0@P.
	0x0030:  ff6b 0572 0000 0000 0000 0000            .k.r........
09:57:18.721266 IP (tos 0x0, ttl 51, id 14759, offset 0, flags [DF], proto TCP (6), length 64)
    82.132.230.201.44181 > 192.95.61.160.6969: Flags [S], cksum 0xe751 (correct), seq 1014616893, win 32850, options [mss 1460,nop,nop,TS val 898468346 ecr 0,nop,wscale 2,nop,nop,sackOK], length 0
	0x0000:  0200 00d2 bf75 6c9c edba ec40 0800 4500  .....ul....@..E.
	0x0010:  0040 39a7 4000 3306 d6c3 5284 e6c9 c05f  .@9.@.3...R...._
	0x0020:  3da0 ac95 1b39 3c79 d33d 0000 0000 b002  =....9<y.=......
	0x0030:  8052 e751 0000 0204 05b4 0101 080a 358d  .R.Q..........5.
	0x0040:  89fa 0000 0000 0103 0302 0101 0402       ..............
09:57:18.726077 IP (tos 0x0, ttl 64, id 1, offset 0, flags [none], proto TCP (6), length 40)
    192.95.61.160.6969 > 82.132.230.201.44181: Flags [S.], cksum 0x92c0 (correct), seq 12345, ack 1014616894, win 8192, length 0
	0x0000:  0007 b400 0102 0200 00d2 bf75 0800 4500  ...........u..E.
	0x0010:  0028 0001 0000 4006 4382 c05f 3da0 5284  .(....@.C.._=.R.
	0x0020:  e6c9 1b39 ac95 0000 3039 3c79 d33e 5012  ...9....09<y.>P.
	0x0030:  2000 92c0 be04                           ......
09:57:18.815963 IP (tos 0x0, ttl 51, id 14760, offset 0, flags [DF], proto TCP (6), length 40)
    82.132.230.201.44181 > 192.95.61.160.6969: Flags [.], cksum 0x7155 (correct), seq 1, ack 1, win 65392, length 0
	0x0000:  0200 00d2 bf75 6c9c edba ec40 0800 4500  .....ul....@..E.
	0x0010:  0028 39a8 4000 3306 d6da 5284 e6c9 c05f  .(9.@.3...R...._
	0x0020:  3da0 ac95 1b39 3c79 d33e 0000 303a 5010  =....9<y.>..0:P.
	0x0030:  ff70 7155 0000 0000 0000 0000            .pqU........
09:57:18.815999 IP (tos 0x0, ttl 51, id 14761, offset 0, flags [DF], proto TCP (6), length 45)
    82.132.230.201.44181 > 192.95.61.160.6969: Flags [P.], cksum 0x8db6 (correct), seq 1:6, ack 1, win 65392, length 5
	0x0000:  0200 00d2 bf75 6c9c edba ec40 0800 4500  .....ul....@..E.
	0x0010:  002d 39a9 4000 3306 d6d4 5284 e6c9 c05f  .-9.@.3...R...._
	0x0020:  3da0 ac95 1b39 3c79 d33e 0000 303a 5018  =....9<y.>..0:P.
	0x0030:  ff70 8db6 0000 4845 4c4c 4f00            .p....HELLO.
09:57:18.823528 IP (tos 0x0, ttl 64, id 1, offset 0, flags [none], proto TCP (6), length 45)
    192.95.61.160.6969 > 82.132.230.201.44181: Flags [.], cksum 0x6d2a (correct), seq 1:6, ack 6, win 8192, length 5
	0x0000:  0007 b400 0102 0200 00d2 bf75 0800 4500  ...........u..E.
	0x0010:  002d 0001 0000 4006 437d c05f 3da0 5284  .-....@.C}._=.R.
	0x0020:  e6c9 1b39 ac95 0000 303a 3c79 d343 5010  ...9....0:<y.CP.
	0x0030:  2000 6d2a 0000 4f4c 4c45 48              ..m*..OLLEH
09:57:18.912890 IP (tos 0x0, ttl 51, id 14762, offset 0, flags [DF], proto TCP (6), length 40)
    82.132.230.201.44181 > 192.95.61.160.6969: Flags [.], cksum 0x7150 (correct), seq 6, ack 6, win 65387, length 0
	0x0000:  0200 00d2 bf75 6c9c edba ec40 0800 4500  .....ul....@..E.
	0x0010:  0028 39aa 4000 3306 d6d8 5284 e6c9 c05f  .(9.@.3...R...._
	0x0020:  3da0 ac95 1b39 3c79 d343 0000 303f 5010  =....9<y.C..0?P.
	0x0030:  ff6b 7150 0000 0000 0000 0000            .kqP........
09:57:19.062745 IP (tos 0x0, ttl 51, id 14763, offset 0, flags [DF], proto TCP (6), length 40)
    82.132.230.201.44181 > 192.95.61.160.6969: Flags [F.], cksum 0x714f (correct), seq 6, ack 6, win 65387, length 0
	0x0000:  0200 00d2 bf75 6c9c edba ec40 0800 4500  .....ul....@..E.
	0x0010:  0028 39ab 4000 3306 d6d7 5284 e6c9 c05f  .(9.@.3...R...._
	0x0020:  3da0 ac95 1b39 3c79 d343 0000 303f 5011  =....9<y.C..0?P.
	0x0030:  ff6b 714f 0000 0000 0000 0000            .kqO........
09:57:19.067509 IP (tos 0x0, ttl 64, id 1, offset 0, flags [none], proto TCP (6), length 40)
    192.95.61.160.6969 > 82.132.230.201.44181: Flags [F.], cksum 0x50ba (correct), seq 6, ack 7, win 8192, length 0
	0x0000:  0007 b400 0102 0200 00d2 bf75 0800 4500  ...........u..E.
	0x0010:  0028 0001 0000 4006 4382 c05f 3da0 5284  .(....@.C.._=.R.
	0x0020:  e6c9 1b39 ac95 0000 303f 3c79 d344 5011  ...9....0?<y.DP.
	0x0030:  2000 50ba 0000                           ..P...
09:57:19.157068 IP (tos 0x0, ttl 51, id 14764, offset 0, flags [DF], proto TCP (6), length 40)
    82.132.230.201.44181 > 192.95.61.160.6969: Flags [.], cksum 0x714e (correct), seq 7, ack 7, win 65387, length 0
	0x0000:  0200 00d2 bf75 6c9c edba ec40 0800 4500  .....ul....@..E.
	0x0010:  0028 39ac 4000 3306 d6d6 5284 e6c9 c05f  .(9.@.3...R...._
	0x0020:  3da0 ac95 1b39 3c79 d344 0000 3040 5010  =....9<y.D..0@P.
	0x0030:  ff6b 714e 0000 0000 0000 0000            .kqN........
09:57:20.263928 IP (tos 0x0, ttl 52, id 14765, offset 0, flags [DF], proto TCP (6), length 64)
    82.132.230.201.44182 > 192.95.61.160.6969: Flags [S], cksum 0x2925 (correct), seq 2238728151, win 32850, options [mss 1460,nop,nop,TS val 898468501 ecr 0,nop,wscale 2,nop,nop,sackOK], length 0
	0x0000:  0200 00d2 bf75 6c9c edba ec40 0800 4500  .....ul....@..E.
	0x0010:  0040 39ad 4000 3406 d5bd 5284 e6c9 c05f  .@9.@.4...R...._
	0x0020:  3da0 ac96 1b39 8570 47d7 0000 0000 b002  =....9.pG.......
	0x0030:  8052 2925 0000 0204 05b4 0101 080a 358d  .R)%..........5.
	0x0040:  8a95 0000 0000 0103 0302 0101 0402       ..............
09:57:20.268726 IP (tos 0x0, ttl 64, id 1, offset 0, flags [none], proto TCP (6), length 40)
    192.95.61.160.6969 > 82.132.230.201.44182: Flags [S.], cksum 0xd52e (correct), seq 12345, ack 2238728152, win 8192, length 0
	0x0000:  0007 b400 0102 0200 00d2 bf75 0800 4500  ...........u..E.
	0x0010:  0028 0001 0000 4006 4382 c05f 3da0 5284  .(....@.C.._=.R.
	0x0020:  e6c9 1b39 ac96 0000 3039 8570 47d8 5012  ...9....09.pG.P.
	0x0030:  2000 d52e be04                           ......
09:57:20.356230 IP (tos 0x0, ttl 52, id 14766, offset 0, flags [DF], proto TCP (6), length 40)
    82.132.230.201.44182 > 192.95.61.160.6969: Flags [.], cksum 0xb3c3 (correct), seq 1, ack 1, win 65392, length 0
	0x0000:  0200 00d2 bf75 6c9c edba ec40 0800 4500  .....ul....@..E.
	0x0010:  0028 39ae 4000 3406 d5d4 5284 e6c9 c05f  .(9.@.4...R...._
	0x0020:  3da0 ac96 1b39 8570 47d8 0000 303a 5010  =....9.pG...0:P.
	0x0030:  ff70 b3c3 0000 0000 0000 0000            .p..........
09:57:20.356267 IP (tos 0x0, ttl 52, id 14767, offset 0, flags [DF], proto TCP (6), length 45)
    82.132.230.201.44182 > 192.95.61.160.6969: Flags [P.], cksum 0xd024 (correct), seq 1:6, ack 1, win 65392, length 5
	0x0000:  0200 00d2 bf75 6c9c edba ec40 0800 4500  .....ul....@..E.
	0x0010:  002d 39af 4000 3406 d5ce 5284 e6c9 c05f  .-9.@.4...R...._
	0x0020:  3da0 ac96 1b39 8570 47d8 0000 303a 5018  =....9.pG...0:P.
	0x0030:  ff70 d024 0000 4845 4c4c 4f00            .p.$..HELLO.
09:57:20.363447 IP (tos 0x0, ttl 64, id 1, offset 0, flags [none], proto TCP (6), length 45)
    192.95.61.160.6969 > 82.132.230.201.44182: Flags [.], cksum 0xaf98 (correct), seq 1:6, ack 6, win 8192, length 5
	0x0000:  0007 b400 0102 0200 00d2 bf75 0800 4500  ...........u..E.
	0x0010:  002d 0001 0000 4006 437d c05f 3da0 5284  .-....@.C}._=.R.
	0x0020:  e6c9 1b39 ac96 0000 303a 8570 47dd 5010  ...9....0:.pG.P.
	0x0030:  2000 af98 0000 4f4c 4c45 48              ......OLLEH
09:57:20.450919 IP (tos 0x0, ttl 52, id 14768, offset 0, flags [DF], proto TCP (6), length 40)
    82.132.230.201.44182 > 192.95.61.160.6969: Flags [.], cksum 0xb3be (correct), seq 6, ack 6, win 65387, length 0
	0x0000:  0200 00d2 bf75 6c9c edba ec40 0800 4500  .....ul....@..E.
	0x0010:  0028 39b0 4000 3406 d5d2 5284 e6c9 c05f  .(9.@.4...R...._
	0x0020:  3da0 ac96 1b39 8570 47dd 0000 303f 5010  =....9.pG...0?P.
	0x0030:  ff6b b3be 0000 0000 0000 0000            .k..........
09:57:20.644461 IP (tos 0x0, ttl 52, id 14769, offset 0, flags [DF], proto TCP (6), length 40)
    82.132.230.201.44182 > 192.95.61.160.6969: Flags [F.], cksum 0xb3bd (correct), seq 6, ack 6, win 65387, length 0
	0x0000:  0200 00d2 bf75 6c9c edba ec40 0800 4500  .....ul....@..E.
	0x0010:  0028 39b1 4000 3406 d5d1 5284 e6c9 c05f  .(9.@.4...R...._
	0x0020:  3da0 ac96 1b39 8570 47dd 0000 303f 5011  =....9.pG...0?P.
	0x0030:  ff6b b3bd 0000 0000 0000 0000            .k..........
09:57:20.649840 IP (tos 0x0, ttl 64, id 1, offset 0, flags [none], proto TCP (6), length 40)
    192.95.61.160.6969 > 82.132.230.201.44182: Flags [F.], cksum 0x9328 (correct), seq 6, ack 7, win 8192, length 0
	0x0000:  0007 b400 0102 0200 00d2 bf75 0800 4500  ...........u..E.
	0x0010:  0028 0001 0000 4006 4382 c05f 3da0 5284  .(....@.C.._=.R.
	0x0020:  e6c9 1b39 ac96 0000 303f 8570 47de 5011  ...9....0?.pG.P.
	0x0030:  2000 9328 0000                           ...(..
09:57:20.737107 IP (tos 0x0, ttl 52, id 14770, offset 0, flags [DF], proto TCP (6), length 40)
    82.132.230.201.44182 > 192.95.61.160.6969: Flags [.], cksum 0xb3bc (correct), seq 7, ack 7, win 65387, length 0
	0x0000:  0200 00d2 bf75 6c9c edba ec40 0800 4500  .....ul....@..E.
	0x0010:  0028 39b2 4000 3406 d5d0 5284 e6c9 c05f  .(9.@.4...R...._
	0x0020:  3da0 ac96 1b39 8570 47de 0000 3040 5010  =....9.pG...0@P.
	0x0030:  ff6b b3bc 0000 0000 0000 0000            .k..........
09:57:21.625703 IP (tos 0x0, ttl 52, id 14771, offset 0, flags [DF], proto TCP (6), length 64)
    82.132.230.201.44191 > 192.95.61.160.6969: Flags [S], cksum 0xe38b (correct), seq 108530648, win 32850, options [mss 1460,nop,nop,TS val 898468637 ecr 0,nop,wscale 2,nop,nop,sackOK], length 0
	0x0000:  0200 00d2 bf75 6c9c edba ec40 0800 4500  .....ul....@..E.
	0x0010:  0040 39b3 4000 3406 d5b7 5284 e6c9 c05f  .@9.@.4...R...._
	0x0020:  3da0 ac9f 1b39 0678 0bd8 0000 0000 b002  =....9.x........
	0x0030:  8052 e38b 0000 0204 05b4 0101 080a 358d  .R............5.
	0x0040:  8b1d 0000 0000 0103 0302 0101 0402       ..............
09:57:21.631212 IP (tos 0x0, ttl 64, id 1, offset 0, flags [none], proto TCP (6), length 40)
    192.95.61.160.6969 > 82.132.230.201.44191: Flags [S.], cksum 0x901d (correct), seq 12345, ack 108530649, win 8192, length 0
	0x0000:  0007 b400 0102 0200 00d2 bf75 0800 4500  ...........u..E.
	0x0010:  0028 0001 0000 4006 4382 c05f 3da0 5284  .(....@.C.._=.R.
	0x0020:  e6c9 1b39 ac9f 0000 3039 0678 0bd9 5012  ...9....09.x..P.
	0x0030:  2000 901d be04                           ......
09:57:21.719381 IP (tos 0x0, ttl 52, id 14772, offset 0, flags [DF], proto TCP (6), length 40)
    82.132.230.201.44191 > 192.95.61.160.6969: Flags [.], cksum 0x6eb2 (correct), seq 1, ack 1, win 65392, length 0
	0x0000:  0200 00d2 bf75 6c9c edba ec40 0800 4500  .....ul....@..E.
	0x0010:  0028 39b4 4000 3406 d5ce 5284 e6c9 c05f  .(9.@.4...R...._
	0x0020:  3da0 ac9f 1b39 0678 0bd9 0000 303a 5010  =....9.x....0:P.
	0x0030:  ff70 6eb2 0000 0000 0000 0000            .pn.........
09:57:21.719418 IP (tos 0x0, ttl 52, id 14773, offset 0, flags [DF], proto TCP (6), length 45)
    82.132.230.201.44191 > 192.95.61.160.6969: Flags [P.], cksum 0x8b13 (correct), seq 1:6, ack 1, win 65392, length 5
	0x0000:  0200 00d2 bf75 6c9c edba ec40 0800 4500  .....ul....@..E.
	0x0010:  002d 39b5 4000 3406 d5c8 5284 e6c9 c05f  .-9.@.4...R...._
	0x0020:  3da0 ac9f 1b39 0678 0bd9 0000 303a 5018  =....9.x....0:P.
	0x0030:  ff70 8b13 0000 4845 4c4c 4f00            .p....HELLO.
09:57:21.726550 IP (tos 0x0, ttl 64, id 1, offset 0, flags [none], proto TCP (6), length 45)
    192.95.61.160.6969 > 82.132.230.201.44191: Flags [.], cksum 0x6a87 (correct), seq 1:6, ack 6, win 8192, length 5
	0x0000:  0007 b400 0102 0200 00d2 bf75 0800 4500  ...........u..E.
	0x0010:  002d 0001 0000 4006 437d c05f 3da0 5284  .-....@.C}._=.R.
	0x0020:  e6c9 1b39 ac9f 0000 303a 0678 0bde 5010  ...9....0:.x..P.
	0x0030:  2000 6a87 0000 4f4c 4c45 48              ..j...OLLEH
09:57:21.813858 IP (tos 0x0, ttl 52, id 14774, offset 0, flags [DF], proto TCP (6), length 40)
    82.132.230.201.44191 > 192.95.61.160.6969: Flags [.], cksum 0x6ead (correct), seq 6, ack 6, win 65387, length 0
	0x0000:  0200 00d2 bf75 6c9c edba ec40 0800 4500  .....ul....@..E.
	0x0010:  0028 39b6 4000 3406 d5cc 5284 e6c9 c05f  .(9.@.4...R...._
	0x0020:  3da0 ac9f 1b39 0678 0bde 0000 303f 5010  =....9.x....0?P.
	0x0030:  ff6b 6ead 0000 0000 0000 0000            .kn.........
09:57:21.967689 IP (tos 0x0, ttl 52, id 14775, offset 0, flags [DF], proto TCP (6), length 40)
    82.132.230.201.44191 > 192.95.61.160.6969: Flags [F.], cksum 0x6eac (correct), seq 6, ack 6, win 65387, length 0
	0x0000:  0200 00d2 bf75 6c9c edba ec40 0800 4500  .....ul....@..E.
	0x0010:  0028 39b7 4000 3406 d5cb 5284 e6c9 c05f  .(9.@.4...R...._
	0x0020:  3da0 ac9f 1b39 0678 0bde 0000 303f 5011  =....9.x....0?P.
	0x0030:  ff6b 6eac 0000 0000 0000 0000            .kn.........
09:57:21.972347 IP (tos 0x0, ttl 64, id 1, offset 0, flags [none], proto TCP (6), length 40)
    192.95.61.160.6969 > 82.132.230.201.44191: Flags [F.], cksum 0x4e17 (correct), seq 6, ack 7, win 8192, length 0
	0x0000:  0007 b400 0102 0200 00d2 bf75 0800 4500  ...........u..E.
	0x0010:  0028 0001 0000 4006 4382 c05f 3da0 5284  .(....@.C.._=.R.
	0x0020:  e6c9 1b39 ac9f 0000 303f 0678 0bdf 5011  ...9....0?.x..P.
	0x0030:  2000 4e17 0000                           ..N...
09:57:22.059690 IP (tos 0x0, ttl 52, id 14776, offset 0, flags [DF], proto TCP (6), length 40)
    82.132.230.201.44191 > 192.95.61.160.6969: Flags [.], cksum 0x6eab (correct), seq 7, ack 7, win 65387, length 0
	0x0000:  0200 00d2 bf75 6c9c edba ec40 0800 4500  .....ul....@..E.
	0x0010:  0028 39b8 4000 3406 d5ca 5284 e6c9 c05f  .(9.@.4...R...._
	0x0020:  3da0 ac9f 1b39 0678 0bdf 0000 3040 5010  =....9.x....0@P.
	0x0030:  ff6b 6eab 0000 0000 0000 0000            .kn.........

