14:57:09.316373 IP (tos 0x0, ttl 59, id 14251, offset 0, flags [DF], proto TCP (6), length 44)
    192.95.61.160.6969 > 10.144.236.130.38270: Flags [S.], cksum 0x9b16 (correct), seq 2088193415, ack 36434, win 65392, options [mss 1320], length 0
	0x0000:  0000 0200 0000 0000 0000 0000 0000 0800  ................
	0x0010:  4500 002c 37ab 4000 3b06 130f c05f 3da0  E..,7?@.;...?_=?
	0x0020:  0a90 ec82 1b39 957e 7c77 4d87 0000 8e52  ..?..9.~|wM....R
	0x0030:  6012 ff70 9b16 0000 0204 0528            `.?p.......(
14:57:09.317118 IP (tos 0x0, ttl 40, id 13382, offset 0, flags [none], proto TCP (6), length 40)
    10.144.236.130.38270 > 192.95.61.160.6969: Flags [.], cksum 0xb1e0 (correct), seq 1, ack 1, win 65495, length 0
	0x0000:  0004 0200 0000 0000 0000 0000 0000 0800  ................
	0x0010:  4500 0028 3446 0000 2806 6978 0a90 ec82  E..(4F..(.ix..?.
	0x0020:  c05f 3da0 957e 1b39 0000 8e52 7c77 4d88  ?_=?.~.9...R|wM.
	0x0030:  5010 ffd7 b1e0 0000                      P.?ױ?..
14:57:09.317310 IP (tos 0x0, ttl 40, id 13383, offset 0, flags [none], proto TCP (6), length 45)
    10.144.236.130.38270 > 192.95.61.160.6969: Flags [P.], cksum 0xce41 (correct), seq 1:6, ack 1, win 65495, length 5
	0x0000:  0004 0200 0000 0000 0000 0000 0000 0800  ................
	0x0010:  4500 002d 3447 0000 2806 6972 0a90 ec82  E..-4G..(.ir..?.
	0x0020:  c05f 3da0 957e 1b39 0000 8e52 7c77 4d88  ?_=?.~.9...R|wM.
	0x0030:  5018 ffd7 ce41 0000 4845 4c4c 4f         P.???A..HELLO
14:57:09.747625 IP (tos 0x0, ttl 59, id 14252, offset 0, flags [DF], proto TCP (6), length 40)
    192.95.61.160.6969 > 10.144.236.130.38270: Flags [.], cksum 0xb242 (correct), seq 1, ack 6, win 65392, length 0
	0x0000:  0000 0200 0000 0000 0000 0000 0000 0800  ................
	0x0010:  4500 0028 37ac 4000 3b06 1312 c05f 3da0  E..(7?@.;...?_=?
	0x0020:  0a90 ec82 1b39 957e 7c77 4d88 0000 8e57  ..?..9.~|wM....W
	0x0030:  5010 ff70 b242 0000                      P.?p?B..
14:57:09.748320 IP (tos 0x0, ttl 40, id 13385, offset 0, flags [none], proto TCP (6), length 40)
    10.144.236.130.38270 > 192.95.61.160.6969: Flags [F.], cksum 0xb1da (correct), seq 6, ack 1, win 65495, length 0
	0x0000:  0004 0200 0000 0000 0000 0000 0000 0800  ................
	0x0010:  4500 0028 3449 0000 2806 6975 0a90 ec82  E..(4I..(.iu..?.
	0x0020:  c05f 3da0 957e 1b39 0000 8e57 7c77 4d88  ?_=?.~.9...W|wM.
	0x0030:  5011 ffd7 b1da 0000                      P.?ױ?..
14:57:10.006256 IP (tos 0x0, ttl 59, id 14253, offset 0, flags [DF], proto TCP (6), length 45)
    192.95.61.160.6969 > 10.144.236.130.38270: Flags [P.], cksum 0xcea3 (correct), seq 1:6, ack 6, win 65392, length 5
	0x0000:  0000 0200 0000 0000 0000 0000 0000 0800  ................
	0x0010:  4500 002d 37ad 4000 3b06 130c c05f 3da0  E..-7?@.;...?_=?
	0x0020:  0a90 ec82 1b39 957e 7c77 4d88 0000 8e57  ..?..9.~|wM....W
	0x0030:  5018 ff70 cea3 0000 4f4c 4c45 48         P.?pΣ..OLLEH
14:57:10.086200 IP (tos 0x0, ttl 59, id 14254, offset 0, flags [DF], proto TCP (6), length 40)
    192.95.61.160.6969 > 10.144.236.130.38270: Flags [.], cksum 0xb23c (correct), seq 6, ack 7, win 65392, length 0
	0x0000:  0000 0200 0000 0000 0000 0000 0000 0800  ................
	0x0010:  4500 0028 37ae 4000 3b06 1310 c05f 3da0  E..(7?@.;...?_=?
	0x0020:  0a90 ec82 1b39 957e 7c77 4d8d 0000 8e58  ..?..9.~|wM....X
	0x0030:  5010 ff70 b23c 0000                      P.?p?<..
14:57:10.086372 IP (tos 0x0, ttl 64, id 13387, offset 0, flags [DF], proto TCP (6), length 40)
    10.144.236.130.38270 > 192.95.61.160.6969: Flags [R], cksum 0x7bbe (correct), seq 36440, win 0, length 0
	0x0000:  0004 0200 0000 0000 0000 0000 0000 0800  ................
	0x0010:  4500 0028 344b 4000 4006 1173 0a90 ec82  E..(4K@.@..s..?.
	0x0020:  c05f 3da0 957e 1b39 0000 8e58 0000 0000  ?_=?.~.9...X....
	0x0030:  5004 0000 7bbe 0000                      P...{?..
14:57:10.196103 IP (tos 0x0, ttl 59, id 14255, offset 0, flags [DF], proto TCP (6), length 40)
    192.95.61.160.6969 > 10.144.236.130.38270: Flags [F.], cksum 0xb23b (correct), seq 6, ack 7, win 65392, length 0
	0x0000:  0000 0200 0000 0000 0000 0000 0000 0800  ................
	0x0010:  4500 0028 37af 4000 3b06 130f c05f 3da0  E..(7?@.;...?_=?
	0x0020:  0a90 ec82 1b39 957e 7c77 4d8d 0000 8e58  ..?..9.~|wM....X
	0x0030:  5011 ff70 b23b 0000                      P.?p?;..
14:57:10.196272 IP (tos 0x0, ttl 64, id 13388, offset 0, flags [DF], proto TCP (6), length 40)
    10.144.236.130.38270 > 192.95.61.160.6969: Flags [R], cksum 0x7bbe (correct), seq 36440, win 0, length 0
	0x0000:  0004 0200 0000 0000 0000 0000 0000 0800  ................
	0x0010:  4500 0028 344c 4000 4006 1172 0a90 ec82  E..(4L@.@..r..?.
	0x0020:  c05f 3da0 957e 1b39 0000 8e58 0000 0000  ?_=?.~.9...X....
	0x0030:  5004 0000 7bbe 0000                      P...{?..
14:57:10.212462 IP (tos 0x0, ttl 40, id 13389, offset 0, flags [none], proto TCP (6), length 40)
    10.144.236.130.3433 > 192.95.61.160.6969: Flags [S], cksum 0x6273 (correct), seq 29152, win 65495, length 0
	0x0000:  0004 0200 0000 0000 0000 0000 0000 0800  ................
	0x0010:  4500 0028 344d 0000 2806 6971 0a90 ec82  E..(4M..(.iq..?.
	0x0020:  c05f 3da0 0d69 1b39 0000 71e0 0000 0000  ?_=?.i.9..q?....
	0x0030:  5002 ffd7 6273 be02                      P.??bs?.
14:57:10.656425 IP (tos 0x0, ttl 59, id 14256, offset 0, flags [DF], proto TCP (6), length 44)
    192.95.61.160.6969 > 10.144.236.130.3433: Flags [S.], cksum 0x13cf (correct), seq 2514771944, ack 29153, win 65392, options [mss 1320], length 0
	0x0000:  0000 0200 0000 0000 0000 0000 0000 0800  ................
	0x0010:  4500 002c 37b0 4000 3b06 130a c05f 3da0  E..,7?@.;...?_=?
	0x0020:  0a90 ec82 1b39 0d69 95e4 5fe8 0000 71e1  ..?..9.i.?_?..q?
	0x0030:  6012 ff70 13cf 0000 0204 0528            `.?p.?.....(
14:57:10.660074 IP (tos 0x0, ttl 40, id 13391, offset 0, flags [none], proto TCP (6), length 40)
    10.144.236.130.3433 > 192.95.61.160.6969: Flags [.], cksum 0x2a99 (correct), seq 1, ack 1, win 65495, length 0
	0x0000:  0004 0200 0000 0000 0000 0000 0000 0800  ................
	0x0010:  4500 0028 344f 0000 2806 696f 0a90 ec82  E..(4O..(.io..?.
	0x0020:  c05f 3da0 0d69 1b39 0000 71e1 95e4 5fe9  ?_=?.i.9..q?.?_?
	0x0030:  5010 ffd7 2a99 0000                      P.??*...
14:57:10.661619 IP (tos 0x0, ttl 40, id 13392, offset 0, flags [none], proto TCP (6), length 45)
    10.144.236.130.3433 > 192.95.61.160.6969: Flags [P.], cksum 0x46fa (correct), seq 1:6, ack 1, win 65495, length 5
	0x0000:  0004 0200 0000 0000 0000 0000 0000 0800  ................
	0x0010:  4500 002d 3450 0000 2806 6969 0a90 ec82  E..-4P..(.ii..?.
	0x0020:  c05f 3da0 0d69 1b39 0000 71e1 95e4 5fe9  ?_=?.i.9..q?.?_?
	0x0030:  5018 ffd7 46fa 0000 4845 4c4c 4f         P.??F?..HELLO
14:57:11.076542 IP (tos 0x0, ttl 59, id 14257, offset 0, flags [DF], proto TCP (6), length 40)
    192.95.61.160.6969 > 10.144.236.130.3433: Flags [.], cksum 0x2afb (correct), seq 1, ack 6, win 65392, length 0
	0x0000:  0000 0200 0000 0000 0000 0000 0000 0800  ................
	0x0010:  4500 0028 37b1 4000 3b06 130d c05f 3da0  E..(7?@.;...?_=?
	0x0020:  0a90 ec82 1b39 0d69 95e4 5fe9 0000 71e6  ..?..9.i.?_?..q?
	0x0030:  5010 ff70 2afb 0000                      P.?p*?..
14:57:11.081851 IP (tos 0x0, ttl 40, id 13394, offset 0, flags [none], proto TCP (6), length 40)
    10.144.236.130.3433 > 192.95.61.160.6969: Flags [F.], cksum 0x2a93 (correct), seq 6, ack 1, win 65495, length 0
	0x0000:  0004 0200 0000 0000 0000 0000 0000 0800  ................
	0x0010:  4500 0028 3452 0000 2806 696c 0a90 ec82  E..(4R..(.il..?.
	0x0020:  c05f 3da0 0d69 1b39 0000 71e6 95e4 5fe9  ?_=?.i.9..q?.?_?
	0x0030:  5011 ffd7 2a93 0000                      P.??*...
14:57:11.316168 IP (tos 0x0, ttl 59, id 14258, offset 0, flags [DF], proto TCP (6), length 45)
    192.95.61.160.6969 > 10.144.236.130.3433: Flags [P.], cksum 0x475c (correct), seq 1:6, ack 6, win 65392, length 5
	0x0000:  0000 0200 0000 0000 0000 0000 0000 0800  ................
	0x0010:  4500 002d 37b2 4000 3b06 1307 c05f 3da0  E..-7?@.;...?_=?
	0x0020:  0a90 ec82 1b39 0d69 95e4 5fe9 0000 71e6  ..?..9.i.?_?..q?
	0x0030:  5018 ff70 475c 0000 4f4c 4c45 48         P.?pG\..OLLEH
14:57:11.446195 IP (tos 0x0, ttl 59, id 14259, offset 0, flags [DF], proto TCP (6), length 40)
    192.95.61.160.6969 > 10.144.236.130.3433: Flags [.], cksum 0x2af5 (correct), seq 6, ack 7, win 65392, length 0
	0x0000:  0000 0200 0000 0000 0000 0000 0000 0800  ................
	0x0010:  4500 0028 37b3 4000 3b06 130b c05f 3da0  E..(7?@.;...?_=?
	0x0020:  0a90 ec82 1b39 0d69 95e4 5fee 0000 71e7  ..?..9.i.?_?..q?
	0x0030:  5010 ff70 2af5 0000                      P.?p*?..
14:57:11.446408 IP (tos 0x0, ttl 64, id 13396, offset 0, flags [DF], proto TCP (6), length 40)
    10.144.236.130.3433 > 192.95.61.160.6969: Flags [R], cksum 0x2045 (correct), seq 29159, win 0, length 0
	0x0000:  0004 0200 0000 0000 0000 0000 0000 0800  ................
	0x0010:  4500 0028 3454 4000 4006 116a 0a90 ec82  E..(4T@.@..j..?.
	0x0020:  c05f 3da0 0d69 1b39 0000 71e7 0000 0000  ?_=?.i.9..q?....
	0x0030:  5004 0000 2045 0000                      P....E..
14:57:11.506220 IP (tos 0x0, ttl 59, id 14260, offset 0, flags [DF], proto TCP (6), length 40)
    192.95.61.160.6969 > 10.144.236.130.3433: Flags [F.], cksum 0x2af4 (correct), seq 6, ack 7, win 65392, length 0
	0x0000:  0000 0200 0000 0000 0000 0000 0000 0800  ................
	0x0010:  4500 0028 37b4 4000 3b06 130a c05f 3da0  E..(7?@.;...?_=?
	0x0020:  0a90 ec82 1b39 0d69 95e4 5fee 0000 71e7  ..?..9.i.?_?..q?
	0x0030:  5011 ff70 2af4 0000                      P.?p*?..
14:57:11.506428 IP (tos 0x0, ttl 64, id 13397, offset 0, flags [DF], proto TCP (6), length 40)
    10.144.236.130.3433 > 192.95.61.160.6969: Flags [R], cksum 0x2045 (correct), seq 29159, win 0, length 0
	0x0000:  0004 0200 0000 0000 0000 0000 0000 0800  ................
	0x0010:  4500 0028 3455 4000 4006 1169 0a90 ec82  E..(4U@.@..i..?.
	0x0020:  c05f 3da0 0d69 1b39 0000 71e7 0000 0000  ?_=?.i.9..q?....
	0x0030:  5004 0000 2045 0000                      P....E..
14:57:11.524839 IP (tos 0x0, ttl 40, id 13398, offset 0, flags [none], proto TCP (6), length 40)
    10.144.236.130.45106 > 192.95.61.160.6969: Flags [S], cksum 0xe55c (correct), seq 19261, win 65495, length 0
	0x0000:  0004 0200 0000 0000 0000 0000 0000 0800  ................
	0x0010:  4500 0028 3456 0000 2806 6968 0a90 ec82  E..(4V..(.ih..?.
	0x0020:  c05f 3da0 b032 1b39 0000 4b3d beef 0003  ?_=??2.9..K=??..
	0x0030:  5002 ffd7 e55c 0000                      P.???\..
14:57:12.046378 IP (tos 0x0, ttl 59, id 14261, offset 0, flags [DF], proto TCP (6), length 44)
    192.95.61.160.6969 > 10.144.236.130.45106: Flags [S.], cksum 0x2ae7 (correct), seq 527450910, ack 19262, win 65392, options [mss 1320], length 0
	0x0000:  0000 0200 0000 0000 0000 0000 0000 0800  ................
	0x0010:  4500 002c 37b5 4000 3b06 1305 c05f 3da0  E..,7?@.;...?_=?
	0x0020:  0a90 ec82 1b39 b032 1f70 431e 0000 4b3e  ..?..9?2.pC...K>
	0x0030:  6012 ff70 2ae7 0000 0204 0528            `.?p*?.....(
14:57:12.265872 IP (tos 0x0, ttl 40, id 13400, offset 0, flags [none], proto TCP (6), length 40)
    10.144.236.130.21348 > 192.95.61.160.6969: Flags [S], cksum 0x6dd2 (correct), seq 56968, win 65495, length 0
	0x0000:  0004 0200 0000 0000 0000 0000 0000 0800  ................
	0x0010:  4500 0028 3458 0000 2806 6966 0a90 ec82  E..(4X..(.if..?.
	0x0020:  c05f 3da0 5364 1b39 0000 de88 0000 0000  ?_=?Sd.9..?.....
	0x0030:  5002 ffd7 6dd2 0000                      P.??m?..
14:57:12.546508 IP (tos 0x0, ttl 59, id 14262, offset 0, flags [DF], proto TCP (6), length 44)
    192.95.61.160.6969 > 10.144.236.130.21348: Flags [S.], cksum 0xbfc0 (correct), seq 232556891, ack 56969, win 65392, options [mss 1320], length 0
	0x0000:  0000 0200 0000 0000 0000 0000 0000 0800  ................
	0x0010:  4500 002c 37b6 4000 3b06 1304 c05f 3da0  E..,7?@.;...?_=?
	0x0020:  0a90 ec82 1b39 5364 0ddc 895b 0000 de89  ..?..9Sd.?.[..?.
	0x0030:  6012 ff70 bfc0 0000 0204 0528            `.?p??.....(
14:57:12.792559 IP (tos 0x0, ttl 40, id 13402, offset 0, flags [none], proto TCP (6), length 40)
    10.144.236.130.61492 > 192.95.61.160.6969: Flags [S], cksum 0xdb0d (correct), seq 5512, win 65495, length 0
	0x0000:  0004 0200 0000 0000 0000 0000 0000 0800  ................
	0x0010:  4500 0028 345a 0000 2806 6964 0a90 ec82  E..(4Z..(.id..?.
	0x0020:  c05f 3da0 f034 1b39 0000 1588 beef 0005  ?_=??4.9....??..
	0x0030:  5002 ffd7 db0d 0000                      P.???...
14:57:13.086583 IP (tos 0x0, ttl 59, id 14263, offset 0, flags [DF], proto TCP (6), length 44)
    192.95.61.160.6969 > 10.144.236.130.61492: Flags [S.], cksum 0x7c56 (correct), seq 242939991, ack 5513, win 65392, options [mss 1320], length 0
	0x0000:  0000 0200 0000 0000 0000 0000 0000 0800  ................
	0x0010:  4500 002c 37b7 4000 3b06 1303 c05f 3da0  E..,7?@.;...?_=?
	0x0020:  0a90 ec82 1b39 f034 0e7a f857 0000 1589  ..?..9?4.z?W....
	0x0030:  6012 ff70 7c56 0000 0204 0528            `.?p|V.....(
14:57:13.116372 IP (tos 0x0, ttl 59, id 14264, offset 0, flags [DF], proto TCP (6), length 44)
    192.95.61.160.6969 > 10.144.236.130.45106: Flags [S.], cksum 0x2ae7 (correct), seq 527450910, ack 19262, win 65392, options [mss 1320], length 0
	0x0000:  0000 0200 0000 0000 0000 0000 0000 0800  ................
	0x0010:  4500 002c 37b8 4000 3b06 1302 c05f 3da0  E..,7?@.;...?_=?
	0x0020:  0a90 ec82 1b39 b032 1f70 431e 0000 4b3e  ..?..9?2.pC...K>
	0x0030:  6012 ff70 2ae7 0000 0204 0528            `.?p*?.....(
14:57:13.117214 IP (tos 0x0, ttl 64, id 13404, offset 0, flags [DF], proto TCP (6), length 40)
    10.144.236.130.45106 > 192.95.61.160.6969: Flags [R], cksum 0xa424 (correct), seq 19262, win 0, length 0
	0x0000:  0004 0200 0000 0000 0000 0000 0000 0800  ................
	0x0010:  4500 0028 345c 4000 4006 1162 0a90 ec82  E..(4\@.@..b..?.
	0x0020:  c05f 3da0 b032 1b39 0000 4b3e 0000 0000  ?_=??2.9..K>....
	0x0030:  5004 0000 a424 0000                      P...?$..
14:57:13.336314 IP (tos 0x0, ttl 40, id 13405, offset 0, flags [none], proto TCP (6), length 40)
    10.144.236.130.20946 > 192.95.61.160.6969: Flags [S], cksum 0xa0db (correct), seq 60955, win 65495, length 0
	0x0000:  0004 0200 0000 0000 0000 0000 0000 0800  ................
	0x0010:  4500 0028 345d 0000 2806 6961 0a90 ec82  E..(4]..(.ia..?.
	0x0020:  c05f 3da0 51d2 1b39 0000 ee1b beef 0006  ?_=?Q?.9..?.??..
	0x0030:  5002 ffd7 a0db 0000                      P.?נ?..
14:57:13.676386 IP (tos 0x0, ttl 59, id 14265, offset 0, flags [DF], proto TCP (6), length 44)
    192.95.61.160.6969 > 10.144.236.130.20946: Flags [S.], cksum 0xf792 (correct), seq 4143995491, ack 60956, win 65392, options [mss 1320], length 0
	0x0000:  0000 0200 0000 0000 0000 0000 0000 0800  ................
	0x0010:  4500 002c 37b9 4000 3b06 1301 c05f 3da0  E..,7?@.;...?_=?
	0x0020:  0a90 ec82 1b39 51d2 f700 5a63 0000 ee1c  ..?..9Q??.Zc..?.
	0x0030:  6012 ff70 f792 0000 0204 0528            `.?p?......(
14:57:13.696446 IP (tos 0x0, ttl 59, id 14266, offset 0, flags [DF], proto TCP (6), length 44)
    192.95.61.160.6969 > 10.144.236.130.21348: Flags [S.], cksum 0xbfc0 (correct), seq 232556891, ack 56969, win 65392, options [mss 1320], length 0
	0x0000:  0000 0200 0000 0000 0000 0000 0000 0800  ................
	0x0010:  4500 002c 37ba 4000 3b06 1300 c05f 3da0  E..,7?@.;...?_=?
	0x0020:  0a90 ec82 1b39 5364 0ddc 895b 0000 de89  ..?..9Sd.?.[..?.
	0x0030:  6012 ff70 bfc0 0000 0204 0528            `.?p??.....(
14:57:13.696977 IP (tos 0x0, ttl 64, id 13407, offset 0, flags [DF], proto TCP (6), length 40)
    10.144.236.130.21348 > 192.95.61.160.6969: Flags [R], cksum 0x6da7 (correct), seq 56969, win 0, length 0
	0x0000:  0004 0200 0000 0000 0000 0000 0000 0800  ................
	0x0010:  4500 0028 345f 4000 4006 115f 0a90 ec82  E..(4_@.@.._..?.
	0x0020:  c05f 3da0 5364 1b39 0000 de89 0000 0000  ?_=?Sd.9..?.....
	0x0030:  5004 0000 6da7 0000                      P...m?..
14:57:13.925722 IP (tos 0x0, ttl 40, id 13408, offset 0, flags [none], proto TCP (6), length 40)
    10.144.236.130.64846 > 192.95.61.160.6969: Flags [S], cksum 0x4400 (correct), seq 41064, win 65495, length 0
	0x0000:  0004 0200 0000 0000 0000 0000 0000 0800  ................
	0x0010:  4500 0028 3460 0000 2806 695e 0a90 ec82  E..(4`..(.i^..?.
	0x0020:  c05f 3da0 fd4e 1b39 0000 a068 0000 0000  ?_=??N.9..?h....
	0x0030:  5002 ffd7 4400 be07                      P.??D.?.
14:57:14.206625 IP (tos 0x0, ttl 59, id 14267, offset 0, flags [DF], proto TCP (6), length 44)
    192.95.61.160.6969 > 10.144.236.130.61492: Flags [S.], cksum 0x7c56 (correct), seq 242939991, ack 5513, win 65392, options [mss 1320], length 0
	0x0000:  0000 0200 0000 0000 0000 0000 0000 0800  ................
	0x0010:  4500 002c 37bb 4000 3b06 12ff c05f 3da0  E..,7?@.;..??_=?
	0x0020:  0a90 ec82 1b39 f034 0e7a f857 0000 1589  ..?..9?4.z?W....
	0x0030:  6012 ff70 7c56 0000 0204 0528            `.?p|V.....(
14:57:14.207627 IP (tos 0x0, ttl 64, id 13409, offset 0, flags [DF], proto TCP (6), length 40)
    10.144.236.130.61492 > 192.95.61.160.6969: Flags [R], cksum 0x99d7 (correct), seq 5513, win 0, length 0
	0x0000:  0004 0200 0000 0000 0000 0000 0000 0800  ................
	0x0010:  4500 0028 3461 4000 4006 115d 0a90 ec82  E..(4a@.@..]..?.
	0x0020:  c05f 3da0 f034 1b39 0000 1589 0000 0000  ?_=??4.9........
	0x0030:  5004 0000 99d7 0000                      P....?..
14:57:14.266677 IP (tos 0x0, ttl 59, id 14268, offset 0, flags [DF], proto TCP (6), length 44)
    192.95.61.160.6969 > 10.144.236.130.64846: Flags [S.], cksum 0x0c03 (correct), seq 4136364190, ack 41065, win 65392, options [mss 1320], length 0
	0x0000:  0000 0200 0000 0000 0000 0000 0000 0800  ................
	0x0010:  4500 002c 37bc 4000 3b06 12fe c05f 3da0  E..,7?@.;..??_=?
	0x0020:  0a90 ec82 1b39 fd4e f68b e89e 0000 a069  ..?..9?N?.?...?i
	0x0030:  6012 ff70 0c03 0000 0204 0528            `.?p.......(
14:57:14.532725 IP (tos 0x0, ttl 40, id 13411, offset 0, flags [none], proto TCP (6), length 40)
    10.144.236.130.31112 > 192.95.61.160.6969: Flags [S], cksum 0xa585 (correct), seq 49832, win 65495, length 0
	0x0000:  0004 0200 0000 0000 0000 0000 0000 0800  ................
	0x0010:  4500 0028 3463 0000 2806 695b 0a90 ec82  E..(4c..(.i[..?.
	0x0020:  c05f 3da0 7988 1b39 0000 c2a8 0000 0000  ?_=?y..9..¨....
	0x0030:  5002 ffd7 a585 be08                      P.?ץ.?.
14:57:14.776865 IP (tos 0x0, ttl 59, id 14269, offset 0, flags [DF], proto TCP (6), length 44)
    192.95.61.160.6969 > 10.144.236.130.20946: Flags [S.], cksum 0xf792 (correct), seq 4143995491, ack 60956, win 65392, options [mss 1320], length 0
	0x0000:  0000 0200 0000 0000 0000 0000 0000 0800  ................
	0x0010:  4500 002c 37bd 4000 3b06 12fd c05f 3da0  E..,7?@.;..??_=?
	0x0020:  0a90 ec82 1b39 51d2 f700 5a63 0000 ee1c  ..?..9Q??.Zc..?.
	0x0030:  6012 ff70 f792 0000 0204 0528            `.?p?......(
14:57:14.777870 IP (tos 0x0, ttl 64, id 13412, offset 0, flags [DF], proto TCP (6), length 40)
    10.144.236.130.20946 > 192.95.61.160.6969: Flags [R], cksum 0x5fa6 (correct), seq 60956, win 0, length 0
	0x0000:  0004 0200 0000 0000 0000 0000 0000 0800  ................
	0x0010:  4500 0028 3464 4000 4006 115a 0a90 ec82  E..(4d@.@..Z..?.
	0x0020:  c05f 3da0 51d2 1b39 0000 ee1c 0000 0000  ?_=?Q?.9..?.....
	0x0030:  5004 0000 5fa6 0000                      P..._?..
14:57:14.836702 IP (tos 0x0, ttl 59, id 14270, offset 0, flags [DF], proto TCP (6), length 44)
    192.95.61.160.6969 > 10.144.236.130.31112: Flags [S.], cksum 0x7748 (correct), seq 499038125, ack 49833, win 65392, options [mss 1320], length 0
	0x0000:  0000 0200 0000 0000 0000 0000 0000 0800  ................
	0x0010:  4500 002c 37be 4000 3b06 12fc c05f 3da0  E..,7?@.;..??_=?
	0x0020:  0a90 ec82 1b39 7988 1dbe b7ad 0000 c2a9  ..?..9y..???..©
	0x0030:  6012 ff70 7748 0000 0204 0528            `.?pwH.....(
14:57:15.079654 IP (tos 0x0, ttl 40, id 13414, offset 0, flags [none], proto TCP (6), length 40)
    10.144.236.130.9962 > 192.95.61.160.6969: Flags [S], cksum 0x7576 (correct), seq 17749, win 65495, length 0
	0x0000:  0004 0200 0000 0000 0000 0000 0000 0800  ................
	0x0010:  4500 0028 3466 0000 2806 6958 0a90 ec82  E..(4f..(.iX..?.
	0x0020:  c05f 3da0 26ea 1b39 0000 4555 0000 0000  ?_=?&?.9..EU....
	0x0030:  5002 ffd7 7576 be09                      P.??uv?.
14:57:15.386738 IP (tos 0x0, ttl 59, id 14271, offset 0, flags [DF], proto TCP (6), length 44)
    192.95.61.160.6969 > 10.144.236.130.9962: Flags [S.], cksum 0x8139 (correct), seq 2111380883, ack 17750, win 65392, options [mss 1320], length 0
	0x0000:  0000 0200 0000 0000 0000 0000 0000 0800  ................
	0x0010:  4500 002c 37bf 4000 3b06 12fb c05f 3da0  E..,7?@.;..??_=?
	0x0020:  0a90 ec82 1b39 26ea 7dd9 1d93 0000 4556  ..?..9&?}?....EV
	0x0030:  6012 ff70 8139 0000 0204 0528            `.?p.9.....(
14:57:15.406532 IP (tos 0x0, ttl 59, id 14272, offset 0, flags [DF], proto TCP (6), length 44)
    192.95.61.160.6969 > 10.144.236.130.64846: Flags [S.], cksum 0x0c03 (correct), seq 4136364190, ack 41065, win 65392, options [mss 1320], length 0
	0x0000:  0000 0200 0000 0000 0000 0000 0000 0800  ................
	0x0010:  4500 002c 37c0 4000 3b06 12fa c05f 3da0  E..,7?@.;..??_=?
	0x0020:  0a90 ec82 1b39 fd4e f68b e89e 0000 a069  ..?..9?N?.?...?i
	0x0030:  6012 ff70 0c03 0000 0204 0528            `.?p.......(
14:57:15.407426 IP (tos 0x0, ttl 64, id 13416, offset 0, flags [DF], proto TCP (6), length 40)
    10.144.236.130.64846 > 192.95.61.160.6969: Flags [R], cksum 0x01dd (correct), seq 41065, win 0, length 0
	0x0000:  0004 0200 0000 0000 0000 0000 0000 0800  ................
	0x0010:  4500 0028 3468 4000 4006 1156 0a90 ec82  E..(4h@.@..V..?.
	0x0020:  c05f 3da0 fd4e 1b39 0000 a069 0000 0000  ?_=??N.9..?i....
	0x0030:  5004 0000 01dd 0000                      P....?..
14:57:15.652972 IP (tos 0x0, ttl 40, id 13417, offset 0, flags [none], proto TCP (6), length 40)
    10.144.236.130.4319 > 192.95.61.160.6969: Flags [S], cksum 0xc2b4 (correct), seq 52011, win 65495, length 0
	0x0000:  0004 0200 0000 0000 0000 0000 0000 0800  ................
	0x0010:  4500 0028 3469 0000 2806 6955 0a90 ec82  E..(4i..(.iU..?.
	0x0020:  c05f 3da0 10df 1b39 0000 cb2b 0000 0000  ?_=?.?.9..?+....
	0x0030:  5102 ffd7 c2b4 0000                      Q.??´..
14:57:15.956525 IP (tos 0x0, ttl 59, id 14273, offset 0, flags [DF], proto TCP (6), length 44)
    192.95.61.160.6969 > 10.144.236.130.4319: Flags [S.], cksum 0xfd68 (correct), seq 829980153, ack 52012, win 65392, options [mss 1320], length 0
	0x0000:  0000 0200 0000 0000 0000 0000 0000 0800  ................
	0x0010:  4500 002c 37c1 4000 3b06 12f9 c05f 3da0  E..,7?@.;..??_=?
	0x0020:  0a90 ec82 1b39 10df 3178 7df9 0000 cb2c  ..?..9.?1x}?..?,
	0x0030:  6012 ff70 fd68 0000 0204 0528            `.?p?h.....(
14:57:15.977128 IP (tos 0x0, ttl 59, id 14274, offset 0, flags [DF], proto TCP (6), length 44)
    192.95.61.160.6969 > 10.144.236.130.31112: Flags [S.], cksum 0x7748 (correct), seq 499038125, ack 49833, win 65392, options [mss 1320], length 0
	0x0000:  0000 0200 0000 0000 0000 0000 0000 0800  ................
	0x0010:  4500 002c 37c2 4000 3b06 12f8 c05f 3da0  E..,7?@.;..??_=?
	0x0020:  0a90 ec82 1b39 7988 1dbe b7ad 0000 c2a9  ..?..9y..???..©
	0x0030:  6012 ff70 7748 0000 0204 0528            `.?pwH.....(
14:57:15.977979 IP (tos 0x0, ttl 64, id 13419, offset 0, flags [DF], proto TCP (6), length 40)
    10.144.236.130.31112 > 192.95.61.160.6969: Flags [R], cksum 0x6363 (correct), seq 49833, win 0, length 0
	0x0000:  0004 0200 0000 0000 0000 0000 0000 0800  ................
	0x0010:  4500 0028 346b 4000 4006 1153 0a90 ec82  E..(4k@.@..S..?.
	0x0020:  c05f 3da0 7988 1b39 0000 c2a9 0000 0000  ?_=?y..9..©....
	0x0030:  5004 0000 6363 0000                      P...cc..
14:57:16.213488 IP (tos 0x0, ttl 40, id 13420, offset 0, flags [none], proto TCP (6), length 40)
    10.144.236.130.10243 > 192.95.61.160.6969: Flags [S], cksum 0x4879 (correct), seq 11587, win 65495, length 0
	0x0000:  0004 0200 0000 0000 0000 0000 0000 0800  ................
	0x0010:  4500 0028 346c 0000 2806 6952 0a90 ec82  E..(4l..(.iR..?.
	0x0020:  c05f 3da0 2803 1b39 0000 2d43 0000 0000  ?_=?(..9..-C....
	0x0030:  5202 ffd7 4879 0000                      R.??Hy..
14:57:16.516840 IP (tos 0x0, ttl 59, id 14275, offset 0, flags [DF], proto TCP (6), length 44)
    192.95.61.160.6969 > 10.144.236.130.9962: Flags [S.], cksum 0x8139 (correct), seq 2111380883, ack 17750, win 65392, options [mss 1320], length 0
	0x0000:  0000 0200 0000 0000 0000 0000 0000 0800  ................
	0x0010:  4500 002c 37c3 4000 3b06 12f7 c05f 3da0  E..,7?@.;..??_=?
	0x0020:  0a90 ec82 1b39 26ea 7dd9 1d93 0000 4556  ..?..9&?}?....EV
	0x0030:  6012 ff70 8139 0000 0204 0528            `.?p.9.....(
14:57:16.518052 IP (tos 0x0, ttl 64, id 13421, offset 0, flags [DF], proto TCP (6), length 40)
    10.144.236.130.9962 > 192.95.61.160.6969: Flags [R], cksum 0x3355 (correct), seq 17750, win 0, length 0
	0x0000:  0004 0200 0000 0000 0000 0000 0000 0800  ................
	0x0010:  4500 0028 346d 4000 4006 1151 0a90 ec82  E..(4m@.@..Q..?.
	0x0020:  c05f 3da0 26ea 1b39 0000 4556 0000 0000  ?_=?&?.9..EV....
	0x0030:  5004 0000 3355 0000                      P...3U..
14:57:16.536560 IP (tos 0x0, ttl 59, id 14276, offset 0, flags [DF], proto TCP (6), length 44)
    192.95.61.160.6969 > 10.144.236.130.10243: Flags [S.], cksum 0x81f4 (correct), seq 1273062857, ack 11588, win 65392, options [mss 1320], length 0
	0x0000:  0000 0200 0000 0000 0000 0000 0000 0800  ................
	0x0010:  4500 002c 37c4 4000 3b06 12f6 c05f 3da0  E..,7?@.;..??_=?
	0x0020:  0a90 ec82 1b39 2803 4be1 65c9 0000 2d44  ..?..9(.K?e?..-D
	0x0030:  6012 ff70 81f4 0000 0204 0528            `.?p.?.....(
14:57:16.785916 IP (tos 0x0, ttl 40, id 13423, offset 0, flags [none], proto TCP (6), length 40)
    10.144.236.130.64978 > 192.95.61.160.6969: Flags [S], cksum 0xe609 (correct), seq 47074, win 65495, length 0
	0x0000:  0004 0200 0000 0000 0000 0000 0000 0800  ................
	0x0010:  4500 0028 346f 0000 2806 694f 0a90 ec82  E..(4o..(.iO..?.
	0x0020:  c05f 3da0 fdd2 1b39 0000 b7e2 0000 0000  ?_=???.9..??....
	0x0030:  5402 ffd7 e609 0000                      T.???...
14:57:17.076582 IP (tos 0x0, ttl 59, id 14277, offset 0, flags [DF], proto TCP (6), length 44)
    192.95.61.160.6969 > 10.144.236.130.4319: Flags [S.], cksum 0xfd68 (correct), seq 829980153, ack 52012, win 65392, options [mss 1320], length 0
	0x0000:  0000 0200 0000 0000 0000 0000 0000 0800  ................
	0x0010:  4500 002c 37c5 4000 3b06 12f5 c05f 3da0  E..,7?@.;..??_=?
	0x0020:  0a90 ec82 1b39 10df 3178 7df9 0000 cb2c  ..?..9.?1x}?..?,
	0x0030:  6012 ff70 fd68 0000 0204 0528            `.?p?h.....(
14:57:17.077595 IP (tos 0x0, ttl 64, id 13424, offset 0, flags [DF], proto TCP (6), length 40)
    10.144.236.130.4319 > 192.95.61.160.6969: Flags [R], cksum 0xc389 (correct), seq 52012, win 0, length 0
	0x0000:  0004 0200 0000 0000 0000 0000 0000 0800  ................
	0x0010:  4500 0028 3470 4000 4006 114e 0a90 ec82  E..(4p@.@..N..?.
	0x0020:  c05f 3da0 10df 1b39 0000 cb2c 0000 0000  ?_=?.?.9..?,....
	0x0030:  5004 0000 c389 0000                      P...?...
14:57:17.096509 IP (tos 0x0, ttl 59, id 14278, offset 0, flags [DF], proto TCP (6), length 44)
    192.95.61.160.6969 > 10.144.236.130.64978: Flags [S.], cksum 0x1915 (correct), seq 1578523652, ack 47075, win 65392, options [mss 1320], length 0
	0x0000:  0000 0200 0000 0000 0000 0000 0000 0800  ................
	0x0010:  4500 002c 37c6 4000 3b06 12f4 c05f 3da0  E..,7?@.;..??_=?
	0x0020:  0a90 ec82 1b39 fdd2 5e16 5c04 0000 b7e3  ..?..9??^.\...??
	0x0030:  6012 ff70 1915 0000 0204 0528            `.?p.......(
14:57:17.329412 IP (tos 0x0, ttl 40, id 13426, offset 0, flags [none], proto TCP (6), length 40)
    10.144.236.130.33297 > 192.95.61.160.6969: Flags [S], cksum 0x3577 (correct), seq 57398, win 65495, length 0
	0x0000:  0004 0200 0000 0000 0000 0000 0000 0800  ................
	0x0010:  4500 0028 3472 0000 2806 694c 0a90 ec82  E..(4r..(.iL..?.
	0x0020:  c05f 3da0 8211 1b39 0000 e036 0000 0000  ?_=?...9..?6....
	0x0030:  5802 ffd7 3577 0000                      X.??5w..
14:57:17.636631 IP (tos 0x0, ttl 59, id 14279, offset 0, flags [DF], proto TCP (6), length 44)
    192.95.61.160.6969 > 10.144.236.130.33297: Flags [S.], cksum 0xb33b (correct), seq 1704594887, ack 57399, win 65392, options [mss 1320], length 0
	0x0000:  0000 0200 0000 0000 0000 0000 0000 0800  ................
	0x0010:  4500 002c 37c7 4000 3b06 12f3 c05f 3da0  E..,7?@.;..??_=?
	0x0020:  0a90 ec82 1b39 8211 659a 0dc7 0000 e037  ..?..9..e..?..?7
	0x0030:  6012 ff70 b33b 0000 0204 0528            `.?p?;.....(
14:57:17.676537 IP (tos 0x0, ttl 59, id 14280, offset 0, flags [DF], proto TCP (6), length 44)
    192.95.61.160.6969 > 10.144.236.130.10243: Flags [S.], cksum 0x81f4 (correct), seq 1273062857, ack 11588, win 65392, options [mss 1320], length 0
	0x0000:  0000 0200 0000 0000 0000 0000 0000 0800  ................
	0x0010:  4500 002c 37c8 4000 3b06 12f2 c05f 3da0  E..,7?@.;..??_=?
	0x0020:  0a90 ec82 1b39 2803 4be1 65c9 0000 2d44  ..?..9(.K?e?..-D
	0x0030:  6012 ff70 81f4 0000 0204 0528            `.?p.?.....(
14:57:17.677769 IP (tos 0x0, ttl 64, id 13428, offset 0, flags [DF], proto TCP (6), length 40)
    10.144.236.130.10243 > 192.95.61.160.6969: Flags [R], cksum 0x4a4e (correct), seq 11588, win 0, length 0
	0x0000:  0004 0200 0000 0000 0000 0000 0000 0800  ................
	0x0010:  4500 0028 3474 4000 4006 114a 0a90 ec82  E..(4t@.@..J..?.
	0x0020:  c05f 3da0 2803 1b39 0000 2d44 0000 0000  ?_=?(..9..-D....
	0x0030:  5004 0000 4a4e 0000                      P...JN..
14:57:17.896641 IP (tos 0x0, ttl 40, id 13429, offset 0, flags [none], proto TCP (6), length 40)
    10.144.236.130.53408 > 192.95.61.160.6969: Flags [S], cksum 0xa751 (correct), seq 10189, win 65495, length 0
	0x0000:  0004 0200 0000 0000 0000 0000 0000 0800  ................
	0x0010:  4500 0028 3475 0000 2806 6949 0a90 ec82  E..(4u..(.iI..?.
	0x0020:  c05f 3da0 d0a0 1b39 0000 27cd 0000 0000  ?_=?Р.9..'?....
	0x0030:  5002 ffd7 a751 0000                      P.?קQ..
14:57:18.206692 IP (tos 0x0, ttl 59, id 14281, offset 0, flags [DF], proto TCP (6), length 44)
    192.95.61.160.6969 > 10.144.236.130.53408: Flags [S.], cksum 0x038f (correct), seq 3938820642, ack 10190, win 65392, options [mss 1320], length 0
	0x0000:  0000 0200 0000 0000 0000 0000 0000 0800  ................
	0x0010:  4500 002c 37c9 4000 3b06 12f1 c05f 3da0  E..,7?@.;..??_=?
	0x0020:  0a90 ec82 1b39 d0a0 eac5 a222 0000 27ce  ..?..9Р?Ţ"..'?
	0x0030:  6012 ff70 038f 0000 0204 0528            `.?p.......(
14:57:18.210967 IP (tos 0x0, ttl 40, id 13431, offset 0, flags [none], proto TCP (6), length 40)
    10.144.236.130.53408 > 192.95.61.160.6969: Flags [.], cksum 0x1a59 (correct), seq 1, ack 1, win 65495, length 0
	0x0000:  0004 0200 0000 0000 0000 0000 0000 0800  ................
	0x0010:  4500 0028 3477 0000 2806 6947 0a90 ec82  E..(4w..(.iG..?.
	0x0020:  c05f 3da0 d0a0 1b39 0000 27ce eac5 a223  ?_=?Р.9..'??Ţ#
	0x0030:  5010 ffd7 1a59 0000                      P.??.Y..
14:57:18.212582 IP (tos 0x0, ttl 40, id 13432, offset 0, flags [none], proto TCP (6), length 45)
    10.144.236.130.53408 > 192.95.61.160.6969: Flags [P.], cksum 0x35ba (correct), seq 1:6, ack 1, win 65495, length 5
	0x0000:  0004 0200 0000 0000 0000 0000 0000 0800  ................
	0x0010:  4500 002d 3478 0000 2806 6941 0a90 ec82  E..-4x..(.iA..?.
	0x0020:  c05f 3da0 d0a0 1b39 0000 27ce eac5 a223  ?_=?Р.9..'??Ţ#
	0x0030:  5118 ffd7 35ba 0000 4845 4c4c 4f         Q.??5?..HELLO
14:57:18.226565 IP (tos 0x0, ttl 59, id 14282, offset 0, flags [DF], proto TCP (6), length 44)
    192.95.61.160.6969 > 10.144.236.130.64978: Flags [S.], cksum 0x1915 (correct), seq 1578523652, ack 47075, win 65392, options [mss 1320], length 0
	0x0000:  0000 0200 0000 0000 0000 0000 0000 0800  ................
	0x0010:  4500 002c 37ca 4000 3b06 12f0 c05f 3da0  E..,7?@.;..??_=?
	0x0020:  0a90 ec82 1b39 fdd2 5e16 5c04 0000 b7e3  ..?..9??^.\...??
	0x0030:  6012 ff70 1915 0000 0204 0528            `.?p.......(
14:57:18.227486 IP (tos 0x0, ttl 64, id 13433, offset 0, flags [DF], proto TCP (6), length 40)
    10.144.236.130.64978 > 192.95.61.160.6969: Flags [R], cksum 0xe9de (correct), seq 47075, win 0, length 0
	0x0000:  0004 0200 0000 0000 0000 0000 0000 0800  ................
	0x0010:  4500 0028 3479 4000 4006 1145 0a90 ec82  E..(4y@.@..E..?.
	0x0020:  c05f 3da0 fdd2 1b39 0000 b7e3 0000 0000  ?_=???.9..??....
	0x0030:  5004 0000 e9de 0000                      P...??..
14:57:18.706614 IP (tos 0x0, ttl 59, id 14283, offset 0, flags [DF], proto TCP (6), length 40)
    192.95.61.160.6969 > 10.144.236.130.53408: Flags [.], cksum 0x1abb (correct), seq 1, ack 6, win 65392, length 0
	0x0000:  0000 0200 0000 0000 0000 0000 0000 0800  ................
	0x0010:  4500 0028 37cb 4000 3b06 12f3 c05f 3da0  E..(7?@.;..??_=?
	0x0020:  0a90 ec82 1b39 d0a0 eac5 a223 0000 27d3  ..?..9Р?Ţ#..'?
	0x0030:  5010 ff70 1abb 0000                      P.?p.?..
14:57:18.710996 IP (tos 0x0, ttl 40, id 13435, offset 0, flags [none], proto TCP (6), length 40)
    10.144.236.130.53408 > 192.95.61.160.6969: Flags [F.], cksum 0x1a53 (correct), seq 6, ack 1, win 65495, length 0
	0x0000:  0004 0200 0000 0000 0000 0000 0000 0800  ................
	0x0010:  4500 0028 347b 0000 2806 6943 0a90 ec82  E..(4{..(.iC..?.
	0x0020:  c05f 3da0 d0a0 1b39 0000 27d3 eac5 a223  ?_=?Р.9..'??Ţ#
	0x0030:  5011 ffd7 1a53 0000                      P.??.S..
14:57:18.776451 IP (tos 0x0, ttl 59, id 14284, offset 0, flags [DF], proto TCP (6), length 44)
    192.95.61.160.6969 > 10.144.236.130.33297: Flags [S.], cksum 0xb33b (correct), seq 1704594887, ack 57399, win 65392, options [mss 1320], length 0
	0x0000:  0000 0200 0000 0000 0000 0000 0000 0800  ................
	0x0010:  4500 002c 37cc 4000 3b06 12ee c05f 3da0  E..,7?@.;..??_=?
	0x0020:  0a90 ec82 1b39 8211 659a 0dc7 0000 e037  ..?..9..e..?..?7
	0x0030:  6012 ff70 b33b 0000 0204 0528            `.?p?;.....(
14:57:18.776955 IP (tos 0x0, ttl 64, id 13436, offset 0, flags [DF], proto TCP (6), length 40)
    10.144.236.130.33297 > 192.95.61.160.6969: Flags [R], cksum 0x3d4c (correct), seq 57399, win 0, length 0
	0x0000:  0004 0200 0000 0000 0000 0000 0000 0800  ................
	0x0010:  4500 0028 347c 4000 4006 1142 0a90 ec82  E..(4|@.@..B..?.
	0x0020:  c05f 3da0 8211 1b39 0000 e037 0000 0000  ?_=?...9..?7....
	0x0030:  5004 0000 3d4c 0000                      P...=L..
14:57:18.956252 IP (tos 0x0, ttl 59, id 14285, offset 0, flags [DF], proto TCP (6), length 45)
    192.95.61.160.6969 > 10.144.236.130.53408: Flags [P.], cksum 0x371c (correct), seq 1:6, ack 6, win 65392, length 5
	0x0000:  0000 0200 0000 0000 0000 0000 0000 0800  ................
	0x0010:  4500 002d 37cd 4000 3b06 12ec c05f 3da0  E..-7?@.;..??_=?
	0x0020:  0a90 ec82 1b39 d0a0 eac5 a223 0000 27d3  ..?..9Р?Ţ#..'?
	0x0030:  5018 ff70 371c 0000 4f4c 4c45 48         P.?p7...OLLEH
14:57:19.136207 IP (tos 0x0, ttl 59, id 14286, offset 0, flags [DF], proto TCP (6), length 40)
    192.95.61.160.6969 > 10.144.236.130.53408: Flags [.], cksum 0x1ab5 (correct), seq 6, ack 7, win 65392, length 0
	0x0000:  0000 0200 0000 0000 0000 0000 0000 0800  ................
	0x0010:  4500 0028 37ce 4000 3b06 12f0 c05f 3da0  E..(7?@.;..??_=?
	0x0020:  0a90 ec82 1b39 d0a0 eac5 a228 0000 27d4  ..?..9Р?Ţ(..'?
	0x0030:  5010 ff70 1ab5 0000                      P.?p.?..
14:57:19.136418 IP (tos 0x0, ttl 64, id 13438, offset 0, flags [DF], proto TCP (6), length 40)
    10.144.236.130.53408 > 192.95.61.160.6969: Flags [R], cksum 0xa720 (correct), seq 10196, win 0, length 0
	0x0000:  0004 0200 0000 0000 0000 0000 0000 0800  ................
	0x0010:  4500 0028 347e 4000 4006 1140 0a90 ec82  E..(4~@.@..@..?.
	0x0020:  c05f 3da0 d0a0 1b39 0000 27d4 0000 0000  ?_=?Р.9..'?....
	0x0030:  5004 0000 a720 0000                      P...?...
14:57:19.169418 IP (tos 0x0, ttl 40, id 13439, offset 0, flags [none], proto TCP (6), length 40)
    10.144.236.130.17994 > 192.95.61.160.6969: Flags [S], cksum 0xd09e (correct), seq 35030, win 65495, length 0
	0x0000:  0004 0200 0000 0000 0000 0000 0000 0800  ................
	0x0010:  4500 0028 347f 0000 2806 693f 0a90 ec82  E..(4...(.i?..?.
	0x0020:  c05f 3da0 464a 1b39 0000 88d6 0000 0000  ?_=?FJ.9...?....
	0x0030:  5002 ffd7 d09e 0000                      P.???...
14:57:19.240191 IP (tos 0x0, ttl 59, id 14287, offset 0, flags [DF], proto TCP (6), length 40)
    192.95.61.160.6969 > 10.144.236.130.53408: Flags [F.], cksum 0x1ab4 (correct), seq 6, ack 7, win 65392, length 0
	0x0000:  0000 0200 0000 0000 0000 0000 0000 0800  ................
	0x0010:  4500 0028 37cf 4000 3b06 12ef c05f 3da0  E..(7?@.;..??_=?
	0x0020:  0a90 ec82 1b39 d0a0 eac5 a228 0000 27d4  ..?..9Р?Ţ(..'?
	0x0030:  5011 ff70 1ab4 0000                      P.?p.?..
14:57:19.241222 IP (tos 0x0, ttl 64, id 13440, offset 0, flags [DF], proto TCP (6), length 40)
    10.144.236.130.53408 > 192.95.61.160.6969: Flags [R], cksum 0xa720 (correct), seq 10196, win 0, length 0
	0x0000:  0004 0200 0000 0000 0000 0000 0000 0800  ................
	0x0010:  4500 0028 3480 4000 4006 113e 0a90 ec82  E..(4.@.@..>..?.
	0x0020:  c05f 3da0 d0a0 1b39 0000 27d4 0000 0000  ?_=?Р.9..'?....
	0x0030:  5004 0000 a720 0000                      P...?...
14:57:19.656820 IP (tos 0x0, ttl 59, id 14288, offset 0, flags [DF], proto TCP (6), length 44)
    192.95.61.160.6969 > 10.144.236.130.17994: Flags [S.], cksum 0xb50e (correct), seq 2265284016, ack 35031, win 65392, options [mss 1320], length 0
	0x0000:  0000 0200 0000 0000 0000 0000 0000 0800  ................
	0x0010:  4500 002c 37d0 4000 3b06 12ea c05f 3da0  E..,7?@.;..??_=?
	0x0020:  0a90 ec82 1b39 464a 8705 7db0 0000 88d7  ..?..9FJ..}?...?
	0x0030:  6012 ff70 b50e 0000 0204 0528            `.?p?......(
14:57:19.669955 IP (tos 0x0, ttl 40, id 13442, offset 0, flags [none], proto TCP (6), length 40)
    10.144.236.130.17994 > 192.95.61.160.6969: Flags [.], cksum 0xcbd8 (correct), seq 1, ack 1, win 65495, length 0
	0x0000:  0004 0200 0000 0000 0000 0000 0000 0800  ................
	0x0010:  4500 0028 3482 0000 2806 693c 0a90 ec82  E..(4...(.i<..?.
	0x0020:  c05f 3da0 464a 1b39 0000 88d7 8705 7db1  ?_=?FJ.9...?..}?
	0x0030:  5010 ffd7 cbd8 0000                      P.????..
14:57:19.671680 IP (tos 0x0, ttl 40, id 13443, offset 0, flags [none], proto TCP (6), length 45)
    10.144.236.130.17994 > 192.95.61.160.6969: Flags [P.], cksum 0xe639 (correct), seq 1:6, ack 1, win 65495, length 5
	0x0000:  0004 0200 0000 0000 0000 0000 0000 0800  ................
	0x0010:  4500 002d 3483 0000 2806 6936 0a90 ec82  E..-4...(.i6..?.
	0x0020:  c05f 3da0 464a 1b39 0000 88d7 8705 7db1  ?_=?FJ.9...?..}?
	0x0030:  5218 ffd7 e639 0000 4845 4c4c 4f         R.???9..HELLO
14:57:20.556722 IP (tos 0x0, ttl 59, id 14289, offset 0, flags [DF], proto TCP (6), length 40)
    192.95.61.160.6969 > 10.144.236.130.17994: Flags [.], cksum 0xcc3a (correct), seq 1, ack 6, win 65392, length 0
	0x0000:  0000 0200 0000 0000 0000 0000 0000 0800  ................
	0x0010:  4500 0028 37d1 4000 3b06 12ed c05f 3da0  E..(7?@.;..??_=?
	0x0020:  0a90 ec82 1b39 464a 8705 7db1 0000 88dc  ..?..9FJ..}?...?
	0x0030:  5010 ff70 cc3a 0000                      P.?p?:..
14:57:20.560047 IP (tos 0x0, ttl 40, id 13445, offset 0, flags [none], proto TCP (6), length 40)
    10.144.236.130.17994 > 192.95.61.160.6969: Flags [F.], cksum 0xcbd2 (correct), seq 6, ack 1, win 65495, length 0
	0x0000:  0004 0200 0000 0000 0000 0000 0000 0800  ................
	0x0010:  4500 0028 3485 0000 2806 6939 0a90 ec82  E..(4...(.i9..?.
	0x0020:  c05f 3da0 464a 1b39 0000 88dc 8705 7db1  ?_=?FJ.9...?..}?
	0x0030:  5011 ffd7 cbd2 0000                      P.????..
14:57:20.816688 IP (tos 0x0, ttl 59, id 14290, offset 0, flags [DF], proto TCP (6), length 45)
    192.95.61.160.6969 > 10.144.236.130.17994: Flags [P.], cksum 0xe89b (correct), seq 1:6, ack 6, win 65392, length 5
	0x0000:  0000 0200 0000 0000 0000 0000 0000 0800  ................
	0x0010:  4500 002d 37d2 4000 3b06 12e7 c05f 3da0  E..-7?@.;..??_=?
	0x0020:  0a90 ec82 1b39 464a 8705 7db1 0000 88dc  ..?..9FJ..}?...?
	0x0030:  5018 ff70 e89b 0000 4f4c 4c45 48         P.?p?...OLLEH
14:57:20.897510 IP (tos 0x0, ttl 59, id 14291, offset 0, flags [DF], proto TCP (6), length 40)
    192.95.61.160.6969 > 10.144.236.130.17994: Flags [.], cksum 0xcc34 (correct), seq 6, ack 7, win 65392, length 0
	0x0000:  0000 0200 0000 0000 0000 0000 0000 0800  ................
	0x0010:  4500 0028 37d3 4000 3b06 12eb c05f 3da0  E..(7?@.;..??_=?
	0x0020:  0a90 ec82 1b39 464a 8705 7db6 0000 88dd  ..?..9FJ..}?...?
	0x0030:  5010 ff70 cc34 0000                      P.?p?4..
14:57:20.898034 IP (tos 0x0, ttl 64, id 13447, offset 0, flags [DF], proto TCP (6), length 40)
    10.144.236.130.17994 > 192.95.61.160.6969: Flags [R], cksum 0xd06d (correct), seq 35037, win 0, length 0
	0x0000:  0004 0200 0000 0000 0000 0000 0000 0800  ................
	0x0010:  4500 0028 3487 4000 4006 1137 0a90 ec82  E..(4.@.@..7..?.
	0x0020:  c05f 3da0 464a 1b39 0000 88dd 0000 0000  ?_=?FJ.9...?....
	0x0030:  5004 0000 d06d 0000                      P...?m..
14:57:20.996371 IP (tos 0x0, ttl 59, id 14292, offset 0, flags [DF], proto TCP (6), length 40)
    192.95.61.160.6969 > 10.144.236.130.17994: Flags [F.], cksum 0xcc33 (correct), seq 6, ack 7, win 65392, length 0
	0x0000:  0000 0200 0000 0000 0000 0000 0000 0800  ................
	0x0010:  4500 0028 37d4 4000 3b06 12ea c05f 3da0  E..(7?@.;..??_=?
	0x0020:  0a90 ec82 1b39 464a 8705 7db6 0000 88dd  ..?..9FJ..}?...?
	0x0030:  5011 ff70 cc33 0000                      P.?p?3..
14:57:20.996591 IP (tos 0x0, ttl 64, id 13448, offset 0, flags [DF], proto TCP (6), length 40)
    10.144.236.130.17994 > 192.95.61.160.6969: Flags [R], cksum 0xd06d (correct), seq 35037, win 0, length 0
	0x0000:  0004 0200 0000 0000 0000 0000 0000 0800  ................
	0x0010:  4500 0028 3488 4000 4006 1136 0a90 ec82  E..(4.@.@..6..?.
	0x0020:  c05f 3da0 464a 1b39 0000 88dd 0000 0000  ?_=?FJ.9...?....
	0x0030:  5004 0000 d06d 0000                      P...?m..
14:57:21.063022 IP (tos 0x0, ttl 40, id 13449, offset 0, flags [none], proto TCP (6), length 40)
    10.144.236.130.15764 > 192.95.61.160.6969: Flags [S], cksum 0xa703 (correct), seq 47911, win 65495, length 0
	0x0000:  0004 0200 0000 0000 0000 0000 0000 0800  ................
	0x0010:  4500 0028 3489 0000 2806 6935 0a90 ec82  E..(4...(.i5..?.
	0x0020:  c05f 3da0 3d94 1b39 0000 bb27 0000 0000  ?_=?=..9..?'....
	0x0030:  5002 ffd7 a703 0000                      P.?ק...
14:57:21.466711 IP (tos 0x0, ttl 59, id 14293, offset 0, flags [DF], proto TCP (6), length 44)
    192.95.61.160.6969 > 10.144.236.130.15764: Flags [S.], cksum 0x547a (correct), seq 4162798479, ack 47912, win 65392, options [mss 1320], length 0
	0x0000:  0000 0200 0000 0000 0000 0000 0000 0800  ................
	0x0010:  4500 002c 37d5 4000 3b06 12e5 c05f 3da0  E..,7?@.;..??_=?
	0x0020:  0a90 ec82 1b39 3d94 f81f 438f 0000 bb28  ..?..9=.?.C...?(
	0x0030:  6012 ff70 547a 0000 0204 0528            `.?pTz.....(
14:57:21.472228 IP (tos 0x0, ttl 40, id 13451, offset 0, flags [none], proto TCP (6), length 40)
    10.144.236.130.15764 > 192.95.61.160.6969: Flags [.], cksum 0x6b44 (correct), seq 1, ack 1, win 65495, length 0
	0x0000:  0004 0200 0000 0000 0000 0000 0000 0800  ................
	0x0010:  4500 0028 348b 0000 2806 6933 0a90 ec82  E..(4...(.i3..?.
	0x0020:  c05f 3da0 3d94 1b39 0000 bb28 f81f 4390  ?_=?=..9..?(?.C.
	0x0030:  5010 ffd7 6b44 0000                      P.??kD..
14:57:21.473842 IP (tos 0x0, ttl 40, id 13452, offset 0, flags [none], proto TCP (6), length 45)
    10.144.236.130.15764 > 192.95.61.160.6969: Flags [P.], cksum 0x83a5 (correct), seq 1:6, ack 1, win 65495, length 5
	0x0000:  0004 0200 0000 0000 0000 0000 0000 0800  ................
	0x0010:  4500 002d 348c 0000 2806 692d 0a90 ec82  E..-4...(.i-..?.
	0x0020:  c05f 3da0 3d94 1b39 0000 bb28 f81f 4390  ?_=?=..9..?(?.C.
	0x0030:  5418 ffd7 83a5 0000 4845 4c4c 4f         T.??.?..HELLO
14:57:22.116610 IP (tos 0x0, ttl 59, id 14294, offset 0, flags [DF], proto TCP (6), length 40)
    192.95.61.160.6969 > 10.144.236.130.15764: Flags [.], cksum 0x6bab (correct), seq 1, ack 6, win 65387, length 0
	0x0000:  0000 0200 0000 0000 0000 0000 0000 0800  ................
	0x0010:  4500 0028 37d6 4000 3b06 12e8 c05f 3da0  E..(7?@.;..??_=?
	0x0020:  0a90 ec82 1b39 3d94 f81f 4390 0000 bb2d  ..?..9=.?.C...?-
	0x0030:  5010 ff6b 6bab 0000                      P.?kk?..
14:57:22.121288 IP (tos 0x0, ttl 40, id 13454, offset 0, flags [none], proto TCP (6), length 40)
    10.144.236.130.15764 > 192.95.61.160.6969: Flags [F.], cksum 0x6b3e (correct), seq 6, ack 1, win 65495, length 0
	0x0000:  0004 0200 0000 0000 0000 0000 0000 0800  ................
	0x0010:  4500 0028 348e 0000 2806 6930 0a90 ec82  E..(4...(.i0..?.
	0x0020:  c05f 3da0 3d94 1b39 0000 bb2d f81f 4390  ?_=?=..9..?-?.C.
	0x0030:  5011 ffd7 6b3e 0000                      P.??k>..
14:57:22.346647 IP (tos 0x0, ttl 59, id 14295, offset 0, flags [DF], proto TCP (6), length 45)
    192.95.61.160.6969 > 10.144.236.130.15764: Flags [P.], cksum 0x8807 (correct), seq 1:6, ack 6, win 65392, length 5
	0x0000:  0000 0200 0000 0000 0000 0000 0000 0800  ................
	0x0010:  4500 002d 37d7 4000 3b06 12e2 c05f 3da0  E..-7?@.;..??_=?
	0x0020:  0a90 ec82 1b39 3d94 f81f 4390 0000 bb2d  ..?..9=.?.C...?-
	0x0030:  5018 ff70 8807 0000 4f4c 4c45 48         P.?p....OLLEH
14:57:22.486833 IP (tos 0x0, ttl 59, id 14296, offset 0, flags [DF], proto TCP (6), length 40)
    192.95.61.160.6969 > 10.144.236.130.15764: Flags [.], cksum 0x6ba0 (correct), seq 6, ack 7, win 65392, length 0
	0x0000:  0000 0200 0000 0000 0000 0000 0000 0800  ................
	0x0010:  4500 0028 37d8 4000 3b06 12e6 c05f 3da0  E..(7?@.;..??_=?
	0x0020:  0a90 ec82 1b39 3d94 f81f 4395 0000 bb2e  ..?..9=.?.C...?.
	0x0030:  5010 ff70 6ba0 0000                      P.?pk?..
14:57:22.487052 IP (tos 0x0, ttl 64, id 13456, offset 0, flags [DF], proto TCP (6), length 40)
    10.144.236.130.15764 > 192.95.61.160.6969: Flags [R], cksum 0xa6d2 (correct), seq 47918, win 0, length 0
	0x0000:  0004 0200 0000 0000 0000 0000 0000 0800  ................
	0x0010:  4500 0028 3490 4000 4006 112e 0a90 ec82  E..(4.@.@.....?.
	0x0020:  c05f 3da0 3d94 1b39 0000 bb2e 0000 0000  ?_=?=..9..?.....
	0x0030:  5004 0000 a6d2 0000                      P...??..
14:57:22.566428 IP (tos 0x0, ttl 59, id 14297, offset 0, flags [DF], proto TCP (6), length 40)
    192.95.61.160.6969 > 10.144.236.130.15764: Flags [F.], cksum 0x6b9f (correct), seq 6, ack 7, win 65392, length 0
	0x0000:  0000 0200 0000 0000 0000 0000 0000 0800  ................
	0x0010:  4500 0028 37d9 4000 3b06 12e5 c05f 3da0  E..(7?@.;..??_=?
	0x0020:  0a90 ec82 1b39 3d94 f81f 4395 0000 bb2e  ..?..9=.?.C...?.
	0x0030:  5011 ff70 6b9f 0000                      P.?pk...
14:57:22.566622 IP (tos 0x0, ttl 64, id 13457, offset 0, flags [DF], proto TCP (6), length 40)
    10.144.236.130.15764 > 192.95.61.160.6969: Flags [R], cksum 0xa6d2 (correct), seq 47918, win 0, length 0
	0x0000:  0004 0200 0000 0000 0000 0000 0000 0800  ................
	0x0010:  4500 0028 3491 4000 4006 112d 0a90 ec82  E..(4.@.@..-..?.
	0x0020:  c05f 3da0 3d94 1b39 0000 bb2e 0000 0000  ?_=?=..9..?.....
	0x0030:  5004 0000 a6d2 0000                      P...??..
14:57:22.585003 IP (tos 0x0, ttl 40, id 13458, offset 0, flags [none], proto TCP (6), length 40)
    10.144.236.130.50681 > 192.95.61.160.6969: Flags [S], cksum 0xf3a8 (correct), seq 58908, win 65495, length 0
	0x0000:  0004 0200 0000 0000 0000 0000 0000 0800  ................
	0x0010:  4500 0028 3492 0000 2806 692c 0a90 ec82  E..(4...(.i,..?.
	0x0020:  c05f 3da0 c5f9 1b39 0000 e61c 0000 0000  ?_=???.9..?.....
	0x0030:  5002 ffd7 f3a8 0000                      P.???..
14:57:23.046765 IP (tos 0x0, ttl 59, id 14298, offset 0, flags [DF], proto TCP (6), length 44)
    192.95.61.160.6969 > 10.144.236.130.50681: Flags [S.], cksum 0xea77 (correct), seq 3917023453, ack 58909, win 65392, options [mss 1320], length 0
	0x0000:  0000 0200 0000 0000 0000 0000 0000 0800  ................
	0x0010:  4500 002c 37da 4000 3b06 12e0 c05f 3da0  E..,7?@.;..??_=?
	0x0020:  0a90 ec82 1b39 c5f9 e979 08dd 0000 e61d  ..?..9???y.?..?.
	0x0030:  6012 ff70 ea77 0000 0204 0528            `.?p?w.....(
14:57:23.050838 IP (tos 0x0, ttl 40, id 13460, offset 0, flags [none], proto TCP (6), length 40)
    10.144.236.130.50681 > 192.95.61.160.6969: Flags [.], cksum 0x0142 (correct), seq 1, ack 1, win 65495, length 0
	0x0000:  0004 0200 0000 0000 0000 0000 0000 0800  ................
	0x0010:  4500 0028 3494 0000 2806 692a 0a90 ec82  E..(4...(.i*..?.
	0x0020:  c05f 3da0 c5f9 1b39 0000 e61d e979 08de  ?_=???.9..?.?y.?
	0x0030:  5010 ffd7 0142 0000                      P.??.B..
14:57:23.062354 IP (tos 0x0, ttl 40, id 13461, offset 0, flags [none], proto TCP (6), length 45)
    10.144.236.130.50681 > 192.95.61.160.6969: Flags [P.], cksum 0x15a3 (correct), seq 1:6, ack 1, win 65495, length 5
	0x0000:  0004 0200 0000 0000 0000 0000 0000 0800  ................
	0x0010:  4500 002d 3495 0000 2806 6924 0a90 ec82  E..-4...(.i$..?.
	0x0020:  c05f 3da0 c5f9 1b39 0000 e61d e979 08de  ?_=???.9..?.?y.?
	0x0030:  5818 ffd7 15a3 0000 4845 4c4c 4f         X.??.?..HELLO
14:57:23.456578 IP (tos 0x0, ttl 59, id 14299, offset 0, flags [DF], proto TCP (6), length 40)
    192.95.61.160.6969 > 10.144.236.130.50681: Flags [.], cksum 0x01a4 (correct), seq 1, ack 6, win 65392, length 0
	0x0000:  0000 0200 0000 0000 0000 0000 0000 0800  ................
	0x0010:  4500 0028 37db 4000 3b06 12e3 c05f 3da0  E..(7?@.;..??_=?
	0x0020:  0a90 ec82 1b39 c5f9 e979 08de 0000 e622  ..?..9???y.?..?"
	0x0030:  5010 ff70 01a4 0000                      P.?p.?..
14:57:23.461165 IP (tos 0x0, ttl 40, id 13463, offset 0, flags [none], proto TCP (6), length 40)
    10.144.236.130.50681 > 192.95.61.160.6969: Flags [F.], cksum 0x013c (correct), seq 6, ack 1, win 65495, length 0
	0x0000:  0004 0200 0000 0000 0000 0000 0000 0800  ................
	0x0010:  4500 0028 3497 0000 2806 6927 0a90 ec82  E..(4...(.i'..?.
	0x0020:  c05f 3da0 c5f9 1b39 0000 e622 e979 08de  ?_=???.9..?"?y.?
	0x0030:  5011 ffd7 013c 0000                      P.??.<..
14:57:23.706633 IP (tos 0x0, ttl 59, id 14300, offset 0, flags [DF], proto TCP (6), length 45)
    192.95.61.160.6969 > 10.144.236.130.50681: Flags [P.], cksum 0x1e05 (correct), seq 1:6, ack 6, win 65392, length 5
	0x0000:  0000 0200 0000 0000 0000 0000 0000 0800  ................
	0x0010:  4500 002d 37dc 4000 3b06 12dd c05f 3da0  E..-7?@.;..??_=?
	0x0020:  0a90 ec82 1b39 c5f9 e979 08de 0000 e622  ..?..9???y.?..?"
	0x0030:  5018 ff70 1e05 0000 4f4c 4c45 48         P.?p....OLLEH
14:57:23.816446 IP (tos 0x0, ttl 59, id 14301, offset 0, flags [DF], proto TCP (6), length 40)
    192.95.61.160.6969 > 10.144.236.130.50681: Flags [.], cksum 0x019e (correct), seq 6, ack 7, win 65392, length 0
	0x0000:  0000 0200 0000 0000 0000 0000 0000 0800  ................
	0x0010:  4500 0028 37dd 4000 3b06 12e1 c05f 3da0  E..(7?@.;..??_=?
	0x0020:  0a90 ec82 1b39 c5f9 e979 08e3 0000 e623  ..?..9???y.?..?#
	0x0030:  5010 ff70 019e 0000                      P.?p....
14:57:23.816782 IP (tos 0x0, ttl 64, id 13465, offset 0, flags [DF], proto TCP (6), length 40)
    10.144.236.130.50681 > 192.95.61.160.6969: Flags [R], cksum 0xf377 (correct), seq 58915, win 0, length 0
	0x0000:  0004 0200 0000 0000 0000 0000 0000 0800  ................
	0x0010:  4500 0028 3499 4000 4006 1125 0a90 ec82  E..(4.@.@..%..?.
	0x0020:  c05f 3da0 c5f9 1b39 0000 e623 0000 0000  ?_=???.9..?#....
	0x0030:  5004 0000 f377 0000                      P...?w..
14:57:23.946291 IP (tos 0x0, ttl 59, id 14302, offset 0, flags [DF], proto TCP (6), length 40)
    192.95.61.160.6969 > 10.144.236.130.50681: Flags [F.], cksum 0x019d (correct), seq 6, ack 7, win 65392, length 0
	0x0000:  0000 0200 0000 0000 0000 0000 0000 0800  ................
	0x0010:  4500 0028 37de 4000 3b06 12e0 c05f 3da0  E..(7?@.;..??_=?
	0x0020:  0a90 ec82 1b39 c5f9 e979 08e3 0000 e623  ..?..9???y.?..?#
	0x0030:  5011 ff70 019d 0000                      P.?p....
14:57:23.946495 IP (tos 0x0, ttl 64, id 13466, offset 0, flags [DF], proto TCP (6), length 40)
    10.144.236.130.50681 > 192.95.61.160.6969: Flags [R], cksum 0xf377 (correct), seq 58915, win 0, length 0
	0x0000:  0004 0200 0000 0000 0000 0000 0000 0800  ................
	0x0010:  4500 0028 349a 4000 4006 1124 0a90 ec82  E..(4.@.@..$..?.
	0x0020:  c05f 3da0 c5f9 1b39 0000 e623 0000 0000  ?_=???.9..?#....
	0x0030:  5004 0000 f377 0000                      P...?w..
14:57:23.949499 IP (tos 0x0, ttl 40, id 13467, offset 0, flags [none], proto TCP (6), length 40)
    10.144.236.130.34930 > 192.95.61.160.6969: Flags [S], cksum 0x2c0f (correct), seq 11329, win 65495, length 0
	0x0000:  0004 0200 0000 0000 0000 0000 0000 0800  ................
	0x0010:  4500 0028 349b 0000 2806 6923 0a90 ec82  E..(4...(.i#..?.
	0x0020:  c05f 3da0 8872 1b39 0000 2c41 beef 000d  ?_=?.r.9..,A??..
	0x0030:  5002 ffd7 2c0f 0000                      P.??,...
14:57:24.436846 IP (tos 0x0, ttl 59, id 14303, offset 0, flags [DF], proto TCP (6), length 44)
    192.95.61.160.6969 > 10.144.236.130.34930: Flags [S.], cksum 0xc8ca (correct), seq 1262665764, ack 11330, win 65392, options [mss 1320], length 0
	0x0000:  0000 0200 0000 0000 0000 0000 0000 0800  ................
	0x0010:  4500 002c 37df 4000 3b06 12db c05f 3da0  E..,7?@.;..??_=?
	0x0020:  0a90 ec82 1b39 8872 4b42 c024 0000 2c42  ..?..9.rKB?$..,B
	0x0030:  6012 ff70 c8ca 0000 0204 0528            `.?p??.....(
14:57:25.546710 IP (tos 0x0, ttl 59, id 14304, offset 0, flags [DF], proto TCP (6), length 44)
    192.95.61.160.6969 > 10.144.236.130.34930: Flags [S.], cksum 0xc8ca (correct), seq 1262665764, ack 11330, win 65392, options [mss 1320], length 0
	0x0000:  0000 0200 0000 0000 0000 0000 0000 0800  ................
	0x0010:  4500 002c 37e0 4000 3b06 12da c05f 3da0  E..,7?@.;..??_=?
	0x0020:  0a90 ec82 1b39 8872 4b42 c024 0000 2c42  ..?..9.rKB?$..,B
	0x0030:  6012 ff70 c8ca 0000 0204 0528            `.?p??.....(
14:57:25.547569 IP (tos 0x0, ttl 64, id 13469, offset 0, flags [DF], proto TCP (6), length 40)
    10.144.236.130.34930 > 192.95.61.160.6969: Flags [R], cksum 0xeae0 (correct), seq 11330, win 0, length 0
	0x0000:  0004 0200 0000 0000 0000 0000 0000 0800  ................
	0x0010:  4500 0028 349d 4000 4006 1121 0a90 ec82  E..(4.@.@..!..?.
	0x0020:  c05f 3da0 8872 1b39 0000 2c42 0000 0000  ?_=?.r.9..,B....
	0x0030:  5004 0000 eae0 0000                      P...??..

