14:16:46.851093 IP (tos 0x0, ttl 52, id 1, offset 0, flags [none], proto TCP (6), length 40)
    192.95.61.160.6969 > 10.84.13.68.49367: Flags [S.], cksum 0xdf9e (correct), seq 12345, ack 36434, win 8192, length 0
	0x0000:  0000 0200 0000 0000 0000 0000 0000 0800  ................
	0x0010:  4500 0028 0001 0000 3406 7138 c05f 3da0  E..(....4.q8?_=?
	0x0020:  0a54 0d44 1b39 c0d7 0000 3039 0000 8e52  .T.D.9??..09...R
	0x0030:  5012 2000 df9e 0000                      P...?...
14:16:46.851866 IP (tos 0x0, ttl 40, id 13623, offset 0, flags [none], proto TCP (6), length 40)
    10.84.13.68.49367 > 192.95.61.160.6969: Flags [.], cksum 0xffc7 (correct), seq 1, ack 1, win 65495, length 0
	0x0000:  0004 0200 0000 0000 0000 0000 0000 0800  ................
	0x0010:  4500 0028 3537 0000 2806 4802 0a54 0d44  E..(57..(.H..T.D
	0x0020:  c05f 3da0 c0d7 1b39 0000 8e52 0000 303a  ?_=???.9...R..0:
	0x0030:  5010 ffd7 ffc7 0000                      P.????..
14:16:46.852061 IP (tos 0x0, ttl 40, id 13624, offset 0, flags [none], proto TCP (6), length 45)
    10.84.13.68.49367 > 192.95.61.160.6969: Flags [P.], cksum 0x1c29 (correct), seq 1:6, ack 1, win 65495, length 5
	0x0000:  0004 0200 0000 0000 0000 0000 0000 0800  ................
	0x0010:  4500 002d 3538 0000 2806 47fc 0a54 0d44  E..-58..(.G?.T.D
	0x0020:  c05f 3da0 c0d7 1b39 0000 8e52 0000 303a  ?_=???.9...R..0:
	0x0030:  5018 ffd7 1c29 0000 4845 4c4c 4f         P.??.)..HELLO
14:16:47.361327 IP (tos 0x0, ttl 52, id 1, offset 0, flags [none], proto TCP (6), length 44)
    192.95.61.160.6969 > 10.84.13.68.49367: Flags [.], cksum 0x20a6 (correct), seq 1:5, ack 6, win 8192, length 4
	0x0000:  0000 0200 0000 0000 0000 0000 0000 0800  ................
	0x0010:  4500 002c 0001 0000 3406 7134 c05f 3da0  E..,....4.q4?_=?
	0x0020:  0a54 0d44 1b39 c0d7 0000 303a 0000 8e57  .T.D.9??..0:...W
	0x0030:  5010 2000 20a6 0000 beef 0001            P....?..??..
14:16:47.362242 IP (tos 0x0, ttl 40, id 13626, offset 0, flags [none], proto TCP (6), length 40)
    10.84.13.68.49367 > 192.95.61.160.6969: Flags [.], cksum 0xffbe (correct), seq 6, ack 5, win 65495, length 0
	0x0000:  0004 0200 0000 0000 0000 0000 0000 0800  ................
	0x0010:  4500 0028 353a 0000 2806 47ff 0a54 0d44  E..(5:..(.G?.T.D
	0x0020:  c05f 3da0 c0d7 1b39 0000 8e57 0000 303e  ?_=???.9...W..0>
	0x0030:  5010 ffd7 ffbe 0000                      P.????..
14:16:47.362350 IP (tos 0x0, ttl 40, id 13627, offset 0, flags [none], proto TCP (6), length 40)
    10.84.13.68.49367 > 192.95.61.160.6969: Flags [F.], cksum 0xffbd (correct), seq 6, ack 5, win 65495, length 0
	0x0000:  0004 0200 0000 0000 0000 0000 0000 0800  ................
	0x0010:  4500 0028 353b 0000 2806 47fe 0a54 0d44  E..(5;..(.G?.T.D
	0x0020:  c05f 3da0 c0d7 1b39 0000 8e57 0000 303e  ?_=???.9...W..0>
	0x0030:  5011 ffd7 ffbd 0000                      P.????..
14:16:47.841381 IP (tos 0x0, ttl 52, id 1, offset 0, flags [none], proto TCP (6), length 40)
    192.95.61.160.6969 > 10.84.13.68.49367: Flags [F.], cksum 0xdf94 (correct), seq 5, ack 7, win 8192, length 0
	0x0000:  0000 0200 0000 0000 0000 0000 0000 0800  ................
	0x0010:  4500 0028 0001 0000 3406 7138 c05f 3da0  E..(....4.q8?_=?
	0x0020:  0a54 0d44 1b39 c0d7 0000 303e 0000 8e58  .T.D.9??..0>...X
	0x0030:  5011 2000 df94 0000                      P...?...
14:16:47.841955 IP (tos 0x0, ttl 40, id 13629, offset 0, flags [none], proto TCP (6), length 40)
    10.84.13.68.49367 > 192.95.61.160.6969: Flags [.], cksum 0xa1a3 (correct), seq 6, ack 24096, win 65495, length 0
	0x0000:  0004 0200 0000 0000 0000 0000 0000 0800  ................
	0x0010:  4500 0028 353d 0000 2806 47fc 0a54 0d44  E..(5=..(.G?.T.D
	0x0020:  c05f 3da0 c0d7 1b39 0000 8e57 0000 8e59  ?_=???.9...W...Y
	0x0030:  5010 ffd7 a1a3 0000                      P.?ס?..
14:16:48.054551 IP (tos 0x0, ttl 40, id 13630, offset 0, flags [none], proto TCP (6), length 40)
    10.84.13.68.62700 > 192.95.61.160.6969: Flags [S], cksum 0x5a6a (correct), seq 29152, win 65495, length 0
	0x0000:  0004 0200 0000 0000 0000 0000 0000 0800  ................
	0x0010:  4500 0028 353e 0000 2806 47fb 0a54 0d44  E..(5>..(.G?.T.D
	0x0020:  c05f 3da0 f4ec 1b39 0000 71e0 0000 0000  ?_=???.9..q?....
	0x0030:  5002 ffd7 5a6a be02                      P.??Zj?.
14:16:48.421201 IP (tos 0x0, ttl 52, id 1, offset 0, flags [none], proto TCP (6), length 40)
    192.95.61.160.6969 > 10.84.13.68.62700: Flags [S.], cksum 0xc7fa (correct), seq 12345, ack 29153, win 8192, length 0
	0x0000:  0000 0200 0000 0000 0000 0000 0000 0800  ................
	0x0010:  4500 0028 0001 0000 3406 7138 c05f 3da0  E..(....4.q8?_=?
	0x0020:  0a54 0d44 1b39 f4ec 0000 3039 0000 71e1  .T.D.9??..09..q?
	0x0030:  5012 2000 c7fa 0000                      P...??..
14:16:48.424680 IP (tos 0x0, ttl 40, id 13632, offset 0, flags [none], proto TCP (6), length 40)
    10.84.13.68.62700 > 192.95.61.160.6969: Flags [.], cksum 0xe823 (correct), seq 1, ack 1, win 65495, length 0
	0x0000:  0004 0200 0000 0000 0000 0000 0000 0800  ................
	0x0010:  4500 0028 3540 0000 2806 47f9 0a54 0d44  E..(5@..(.G?.T.D
	0x0020:  c05f 3da0 f4ec 1b39 0000 71e1 0000 303a  ?_=???.9..q?..0:
	0x0030:  5010 ffd7 e823 0000                      P.???#..
14:16:48.425560 IP (tos 0x0, ttl 40, id 13633, offset 0, flags [none], proto TCP (6), length 45)
    10.84.13.68.62700 > 192.95.61.160.6969: Flags [P.], cksum 0x0485 (correct), seq 1:6, ack 1, win 65495, length 5
	0x0000:  0004 0200 0000 0000 0000 0000 0000 0800  ................
	0x0010:  4500 002d 3541 0000 2806 47f3 0a54 0d44  E..-5A..(.G?.T.D
	0x0020:  c05f 3da0 f4ec 1b39 0000 71e1 0000 303a  ?_=???.9..q?..0:
	0x0030:  5018 ffd7 0485 0000 4845 4c4c 4f         P.??....HELLO
14:16:48.911265 IP (tos 0x0, ttl 52, id 1, offset 0, flags [none], proto TCP (6), length 42)
    192.95.61.160.6969 > 10.84.13.68.62700: Flags [.], cksum 0x09f2 (correct), seq 1:3, ack 6, win 8192, length 2
	0x0000:  0000 0200 0000 0000 0000 0000 0000 0800  ................
	0x0010:  4500 002a 0001 0000 3406 7136 c05f 3da0  E..*....4.q6?_=?
	0x0020:  0a54 0d44 1b39 f4ec 0000 303a 0000 71e6  .T.D.9??..0:..q?
	0x0030:  5010 2000 09f2 0000 be02                 P....?..?.
14:16:48.912925 IP (tos 0x0, ttl 40, id 13635, offset 0, flags [none], proto TCP (6), length 40)
    10.84.13.68.62700 > 192.95.61.160.6969: Flags [.], cksum 0xe81c (correct), seq 6, ack 3, win 65495, length 0
	0x0000:  0004 0200 0000 0000 0000 0000 0000 0800  ................
	0x0010:  4500 0028 3543 0000 2806 47f6 0a54 0d44  E..(5C..(.G?.T.D
	0x0020:  c05f 3da0 f4ec 1b39 0000 71e6 0000 303c  ?_=???.9..q?..0<
	0x0030:  5010 ffd7 e81c 0000                      P.???...
14:16:48.913373 IP (tos 0x0, ttl 40, id 13636, offset 0, flags [none], proto TCP (6), length 40)
    10.84.13.68.62700 > 192.95.61.160.6969: Flags [F.], cksum 0xe81b (correct), seq 6, ack 3, win 65495, length 0
	0x0000:  0004 0200 0000 0000 0000 0000 0000 0800  ................
	0x0010:  4500 0028 3544 0000 2806 47f5 0a54 0d44  E..(5D..(.G?.T.D
	0x0020:  c05f 3da0 f4ec 1b39 0000 71e6 0000 303c  ?_=???.9..q?..0<
	0x0030:  5011 ffd7 e81b 0000                      P.???...
14:16:49.402439 IP (tos 0x0, ttl 52, id 1, offset 0, flags [none], proto TCP (6), length 40)
    192.95.61.160.6969 > 10.84.13.68.62700: Flags [F.], cksum 0xc7f2 (correct), seq 3, ack 7, win 8192, length 0
	0x0000:  0000 0200 0000 0000 0000 0000 0000 0800  ................
	0x0010:  4500 0028 0001 0000 3406 7138 c05f 3da0  E..(....4.q8?_=?
	0x0020:  0a54 0d44 1b39 f4ec 0000 303c 0000 71e7  .T.D.9??..0<..q?
	0x0030:  5011 2000 c7f2 0000                      P...??..
14:16:49.405188 IP (tos 0x0, ttl 40, id 13638, offset 0, flags [none], proto TCP (6), length 40)
    10.84.13.68.62700 > 192.95.61.160.6969: Flags [.], cksum 0xa670 (correct), seq 6, ack 16815, win 65495, length 0
	0x0000:  0004 0200 0000 0000 0000 0000 0000 0800  ................
	0x0010:  4500 0028 3546 0000 2806 47f3 0a54 0d44  E..(5F..(.G?.T.D
	0x0020:  c05f 3da0 f4ec 1b39 0000 71e6 0000 71e8  ?_=???.9..q?..q?
	0x0030:  5010 ffd7 a670 0000                      P.?צp..
14:16:49.633253 IP (tos 0x0, ttl 40, id 13639, offset 0, flags [none], proto TCP (6), length 40)
    10.84.13.68.46293 > 192.95.61.160.6969: Flags [S], cksum 0xc034 (correct), seq 19261, win 65495, length 0
	0x0000:  0004 0200 0000 0000 0000 0000 0000 0800  ................
	0x0010:  4500 0028 3547 0000 2806 47f2 0a54 0d44  E..(5G..(.G?.T.D
	0x0020:  c05f 3da0 b4d5 1b39 0000 4b3d beef 0003  ?_=???.9..K=??..
	0x0030:  5002 ffd7 c034 0000                      P.???4..
14:16:49.981227 IP (tos 0x0, ttl 52, id 1, offset 0, flags [none], proto TCP (6), length 40)
    192.95.61.160.6969 > 10.84.13.68.46293: Flags [S.], cksum 0x70b1 (correct), seq 12345, ack 19262, win 8192, length 0
	0x0000:  0000 0200 0000 0000 0000 0000 0000 0800  ................
	0x0010:  4500 0028 0001 0000 3406 7138 c05f 3da0  E..(....4.q8?_=?
	0x0020:  0a54 0d44 1b39 b4d5 0000 3039 0000 4b3e  .T.D.9??..09..K>
	0x0030:  5012 2000 70b1 be03                      P...p??.
14:16:49.983245 IP (tos 0x0, ttl 40, id 13641, offset 0, flags [none], proto TCP (6), length 40)
    10.84.13.68.46293 > 192.95.61.160.6969: Flags [.], cksum 0x4ede (correct), seq 1, ack 1, win 65495, length 0
	0x0000:  0004 0200 0000 0000 0000 0000 0000 0800  ................
	0x0010:  4500 0028 3549 0000 2806 47f0 0a54 0d44  E..(5I..(.G?.T.D
	0x0020:  c05f 3da0 b4d5 1b39 0000 4b3e 0000 303a  ?_=???.9..K>..0:
	0x0030:  5010 ffd7 4ede 0000                      P.??N?..
14:16:49.984004 IP (tos 0x0, ttl 40, id 13642, offset 0, flags [none], proto TCP (6), length 45)
    10.84.13.68.46293 > 192.95.61.160.6969: Flags [P.], cksum 0x6b3f (correct), seq 1:6, ack 1, win 65495, length 5
	0x0000:  0004 0200 0000 0000 0000 0000 0000 0800  ................
	0x0010:  4500 002d 354a 0000 2806 47ea 0a54 0d44  E..-5J..(.G?.T.D
	0x0020:  c05f 3da0 b4d5 1b39 0000 4b3e 0000 303a  ?_=???.9..K>..0:
	0x0030:  5018 ffd7 6b3f 0000 4845 4c4c 4f         P.??k?..HELLO
14:16:50.461228 IP (tos 0x0, ttl 52, id 1, offset 0, flags [none], proto TCP (6), length 45)
    192.95.61.160.6969 > 10.84.13.68.46293: Flags [.], cksum 0x4b1a (correct), seq 1:6, ack 6, win 8192, length 5
	0x0000:  0000 0200 0000 0000 0000 0000 0000 0800  ................
	0x0010:  4500 002d 0001 0000 3406 7133 c05f 3da0  E..-....4.q3?_=?
	0x0020:  0a54 0d44 1b39 b4d5 0000 303a 0000 4b43  .T.D.9??..0:..KC
	0x0030:  5010 2000 4b1a 0000 4f4c 4c45 48         P...K...OLLEH
14:16:50.463741 IP (tos 0x0, ttl 40, id 13644, offset 0, flags [none], proto TCP (6), length 40)
    10.84.13.68.46293 > 192.95.61.160.6969: Flags [.], cksum 0x4ed4 (correct), seq 6, ack 6, win 65495, length 0
	0x0000:  0004 0200 0000 0000 0000 0000 0000 0800  ................
	0x0010:  4500 0028 354c 0000 2806 47ed 0a54 0d44  E..(5L..(.G?.T.D
	0x0020:  c05f 3da0 b4d5 1b39 0000 4b43 0000 303f  ?_=???.9..KC..0?
	0x0030:  5010 ffd7 4ed4 0000                      P.??N?..
14:16:50.464168 IP (tos 0x0, ttl 40, id 13645, offset 0, flags [none], proto TCP (6), length 40)
    10.84.13.68.46293 > 192.95.61.160.6969: Flags [F.], cksum 0x4ed3 (correct), seq 6, ack 6, win 65495, length 0
	0x0000:  0004 0200 0000 0000 0000 0000 0000 0800  ................
	0x0010:  4500 0028 354d 0000 2806 47ec 0a54 0d44  E..(5M..(.G?.T.D
	0x0020:  c05f 3da0 b4d5 1b39 0000 4b43 0000 303f  ?_=???.9..KC..0?
	0x0030:  5011 ffd7 4ed3 0000                      P.??N?..
14:16:50.951241 IP (tos 0x0, ttl 52, id 1, offset 0, flags [none], proto TCP (6), length 40)
    192.95.61.160.6969 > 10.84.13.68.46293: Flags [F.], cksum 0x2eaa (correct), seq 6, ack 7, win 8192, length 0
	0x0000:  0000 0200 0000 0000 0000 0000 0000 0800  ................
	0x0010:  4500 0028 0001 0000 3406 7138 c05f 3da0  E..(....4.q8?_=?
	0x0020:  0a54 0d44 1b39 b4d5 0000 303f 0000 4b44  .T.D.9??..0?..KD
	0x0030:  5011 2000 2eaa 0000                      P....?..
14:16:50.953648 IP (tos 0x0, ttl 40, id 13647, offset 0, flags [none], proto TCP (6), length 40)
    10.84.13.68.46293 > 192.95.61.160.6969: Flags [.], cksum 0x33ce (correct), seq 6, ack 6924, win 65495, length 0
	0x0000:  0004 0200 0000 0000 0000 0000 0000 0800  ................
	0x0010:  4500 0028 354f 0000 2806 47ea 0a54 0d44  E..(5O..(.G?.T.D
	0x0020:  c05f 3da0 b4d5 1b39 0000 4b43 0000 4b45  ?_=???.9..KC..KE
	0x0030:  5010 ffd7 33ce 0000                      P.??3?..
14:16:51.164422 IP (tos 0x0, ttl 40, id 13648, offset 0, flags [none], proto TCP (6), length 40)
    10.84.13.68.54375 > 192.95.61.160.6969: Flags [S], cksum 0xcc49 (correct), seq 56968, win 65495, length 0
	0x0000:  0004 0200 0000 0000 0000 0000 0000 0800  ................
	0x0010:  4500 0028 3550 0000 2806 47e9 0a54 0d44  E..(5P..(.G?.T.D
	0x0020:  c05f 3da0 d467 1b39 0000 de88 0000 0000  ?_=??g.9..?.....
	0x0030:  5002 ffd7 cc49 0000                      P.???I..
14:16:51.511265 IP (tos 0x0, ttl 52, id 1, offset 0, flags [none], proto TCP (6), length 40)
    192.95.61.160.6969 > 10.84.13.68.54375: Flags [S.], cksum 0xbdd2 (correct), seq 12345, ack 56969, win 8192, length 0
	0x0000:  0000 0200 0000 0000 0000 0000 0000 0800  ................
	0x0010:  4500 0028 0001 0000 3406 7138 c05f 3da0  E..(....4.q8?_=?
	0x0020:  0a54 0d44 1b39 d467 0000 3039 0000 de89  .T.D.9?g..09..?.
	0x0030:  5012 2000 bdd2 be04                      P...?Ҿ.
14:16:51.514755 IP (tos 0x0, ttl 40, id 13650, offset 0, flags [none], proto TCP (6), length 40)
    10.84.13.68.54375 > 192.95.61.160.6969: Flags [.], cksum 0x9c00 (correct), seq 1, ack 1, win 65495, length 0
	0x0000:  0004 0200 0000 0000 0000 0000 0000 0800  ................
	0x0010:  4500 0028 3552 0000 2806 47e7 0a54 0d44  E..(5R..(.G?.T.D
	0x0020:  c05f 3da0 d467 1b39 0000 de89 0000 303a  ?_=??g.9..?...0:
	0x0030:  5010 ffd7 9c00 0000                      P.??....
14:16:51.515568 IP (tos 0x0, ttl 40, id 13651, offset 0, flags [none], proto TCP (6), length 45)
    10.84.13.68.54375 > 192.95.61.160.6969: Flags [P.], cksum 0xb861 (correct), seq 1:6, ack 1, win 65495, length 5
	0x0000:  0004 0200 0000 0000 0000 0000 0000 0800  ................
	0x0010:  4500 002d 3553 0000 2806 47e1 0a54 0d44  E..-5S..(.G?.T.D
	0x0020:  c05f 3da0 d467 1b39 0000 de89 0000 303a  ?_=??g.9..?...0:
	0x0030:  5018 ffd7 b861 0000 4845 4c4c 4f         P.?׸a..HELLO
14:16:52.001318 IP (tos 0x0, ttl 52, id 1, offset 0, flags [none], proto TCP (6), length 45)
    192.95.61.160.6969 > 10.84.13.68.54375: Flags [.], cksum 0x983c (correct), seq 1:6, ack 6, win 8192, length 5
	0x0000:  0000 0200 0000 0000 0000 0000 0000 0800  ................
	0x0010:  4500 002d 0001 0000 3406 7133 c05f 3da0  E..-....4.q3?_=?
	0x0020:  0a54 0d44 1b39 d467 0000 303a 0000 de8e  .T.D.9?g..0:..?.
	0x0030:  5010 2000 983c 0000 4f4c 4c45 48         P....<..OLLEH
14:16:52.003892 IP (tos 0x0, ttl 40, id 13653, offset 0, flags [none], proto TCP (6), length 40)
    10.84.13.68.54375 > 192.95.61.160.6969: Flags [.], cksum 0x9bf6 (correct), seq 6, ack 6, win 65495, length 0
	0x0000:  0004 0200 0000 0000 0000 0000 0000 0800  ................
	0x0010:  4500 0028 3555 0000 2806 47e4 0a54 0d44  E..(5U..(.G?.T.D
	0x0020:  c05f 3da0 d467 1b39 0000 de8e 0000 303f  ?_=??g.9..?...0?
	0x0030:  5010 ffd7 9bf6 0000                      P.??.?..
14:16:52.004347 IP (tos 0x0, ttl 40, id 13654, offset 0, flags [none], proto TCP (6), length 40)
    10.84.13.68.54375 > 192.95.61.160.6969: Flags [F.], cksum 0x9bf5 (correct), seq 6, ack 6, win 65495, length 0
	0x0000:  0004 0200 0000 0000 0000 0000 0000 0800  ................
	0x0010:  4500 0028 3556 0000 2806 47e3 0a54 0d44  E..(5V..(.G?.T.D
	0x0020:  c05f 3da0 d467 1b39 0000 de8e 0000 303f  ?_=??g.9..?...0?
	0x0030:  5011 ffd7 9bf5 0000                      P.??.?..
14:16:52.541342 IP (tos 0x0, ttl 52, id 1, offset 0, flags [none], proto TCP (6), length 40)
    192.95.61.160.6969 > 10.84.13.68.54375: Flags [F.], cksum 0x7bcc (correct), seq 6, ack 7, win 8192, length 0
	0x0000:  0000 0200 0000 0000 0000 0000 0000 0800  ................
	0x0010:  4500 0028 0001 0000 3406 7138 c05f 3da0  E..(....4.q8?_=?
	0x0020:  0a54 0d44 1b39 d467 0000 303f 0000 de8f  .T.D.9?g..0?..?.
	0x0030:  5011 2000 7bcc 0000                      P...{?..
14:16:52.543851 IP (tos 0x0, ttl 40, id 13656, offset 0, flags [none], proto TCP (6), length 40)
    10.84.13.68.54375 > 192.95.61.160.6969: Flags [.], cksum 0xeda4 (correct), seq 6, ack 44631, win 65495, length 0
	0x0000:  0004 0200 0000 0000 0000 0000 0000 0800  ................
	0x0010:  4500 0028 3558 0000 2806 47e1 0a54 0d44  E..(5X..(.G?.T.D
	0x0020:  c05f 3da0 d467 1b39 0000 de8e 0000 de90  ?_=??g.9..?...?.
	0x0030:  5010 ffd7 eda4 0000                      P.????..
14:16:52.759384 IP (tos 0x0, ttl 40, id 13657, offset 0, flags [none], proto TCP (6), length 40)
    10.84.13.68.16116 > 192.95.61.160.6969: Flags [S], cksum 0x6bc9 (correct), seq 5512, win 65495, length 0
	0x0000:  0004 0200 0000 0000 0000 0000 0000 0800  ................
	0x0010:  4500 0028 3559 0000 2806 47e0 0a54 0d44  E..(5Y..(.G?.T.D
	0x0020:  c05f 3da0 3ef4 1b39 0000 1588 beef 0005  ?_=?>?.9....??..
	0x0030:  5002 ffd7 6bc9 0000                      P.??k?..
14:16:53.151281 IP (tos 0x0, ttl 52, id 1, offset 0, flags [none], proto TCP (6), length 40)
    192.95.61.160.6969 > 10.84.13.68.16116: Flags [S.], cksum 0x6863 (incorrect -> 0xda4b), seq 12345, ack 5513, win 8192, length 0
	0x0000:  0000 0200 0000 0000 0000 0000 0000 0800  ................
	0x0010:  4500 0028 0001 0000 3406 7138 c05f 3da0  E..(....4.q8?_=?
	0x0020:  0a54 0d44 1b39 3ef4 0000 3039 0000 1589  .T.D.9>?..09....
	0x0030:  5012 2000 6863 0000                      P...hc..
14:16:53.153706 IP (tos 0x0, ttl 40, id 13658, offset 0, flags [none], proto TCP (6), length 40)
    10.84.13.68.16116 > 192.95.61.160.6969: Flags [.], cksum 0xfa74 (correct), seq 1, ack 1, win 65495, length 0
	0x0000:  0004 0200 0000 0000 0000 0000 0000 0800  ................
	0x0010:  4500 0028 355a 0000 2806 47df 0a54 0d44  E..(5Z..(.G?.T.D
	0x0020:  c05f 3da0 3ef4 1b39 0000 1589 0000 303a  ?_=?>?.9......0:
	0x0030:  5010 ffd7 fa74 0000                      P.???t..
14:16:53.156588 IP (tos 0x0, ttl 40, id 13659, offset 0, flags [none], proto TCP (6), length 45)
    10.84.13.68.16116 > 192.95.61.160.6969: Flags [P.], cksum 0x16d6 (correct), seq 1:6, ack 1, win 65495, length 5
	0x0000:  0004 0200 0000 0000 0000 0000 0000 0800  ................
	0x0010:  4500 002d 355b 0000 2806 47d9 0a54 0d44  E..-5[..(.G?.T.D
	0x0020:  c05f 3da0 3ef4 1b39 0000 1589 0000 303a  ?_=?>?.9......0:
	0x0030:  5018 ffd7 16d6 0000 4845 4c4c 4f         P.??.?..HELLO
14:16:53.791279 IP (tos 0x0, ttl 52, id 1, offset 0, flags [none], proto TCP (6), length 45)
    192.95.61.160.6969 > 10.84.13.68.16116: Flags [.], cksum 0xf6b0 (correct), seq 1:6, ack 6, win 8192, length 5
	0x0000:  0000 0200 0000 0000 0000 0000 0000 0800  ................
	0x0010:  4500 002d 0001 0000 3406 7133 c05f 3da0  E..-....4.q3?_=?
	0x0020:  0a54 0d44 1b39 3ef4 0000 303a 0000 158e  .T.D.9>?..0:....
	0x0030:  5010 2000 f6b0 0000 4f4c 4c45 48         P...??..OLLEH
14:16:53.793819 IP (tos 0x0, ttl 40, id 13661, offset 0, flags [none], proto TCP (6), length 40)
    10.84.13.68.16116 > 192.95.61.160.6969: Flags [.], cksum 0xfa6a (correct), seq 6, ack 6, win 65495, length 0
	0x0000:  0004 0200 0000 0000 0000 0000 0000 0800  ................
	0x0010:  4500 0028 355d 0000 2806 47dc 0a54 0d44  E..(5]..(.G?.T.D
	0x0020:  c05f 3da0 3ef4 1b39 0000 158e 0000 303f  ?_=?>?.9......0?
	0x0030:  5010 ffd7 fa6a 0000                      P.???j..
14:16:53.794264 IP (tos 0x0, ttl 40, id 13662, offset 0, flags [none], proto TCP (6), length 40)
    10.84.13.68.16116 > 192.95.61.160.6969: Flags [F.], cksum 0xfa69 (correct), seq 6, ack 6, win 65495, length 0
	0x0000:  0004 0200 0000 0000 0000 0000 0000 0800  ................
	0x0010:  4500 0028 355e 0000 2806 47db 0a54 0d44  E..(5^..(.G?.T.D
	0x0020:  c05f 3da0 3ef4 1b39 0000 158e 0000 303f  ?_=?>?.9......0?
	0x0030:  5011 ffd7 fa69 0000                      P.???i..
14:16:54.431258 IP (tos 0x0, ttl 52, id 1, offset 0, flags [none], proto TCP (6), length 40)
    192.95.61.160.6969 > 10.84.13.68.16116: Flags [F.], cksum 0xda40 (correct), seq 6, ack 7, win 8192, length 0
	0x0000:  0000 0200 0000 0000 0000 0000 0000 0800  ................
	0x0010:  4500 0028 0001 0000 3406 7138 c05f 3da0  E..(....4.q8?_=?
	0x0020:  0a54 0d44 1b39 3ef4 0000 303f 0000 158f  .T.D.9>?..0?....
	0x0030:  5011 2000 da40 0000                      P...?@..
14:16:54.433740 IP (tos 0x0, ttl 40, id 13664, offset 0, flags [none], proto TCP (6), length 40)
    10.84.13.68.16116 > 192.95.61.160.6969: Flags [.], cksum 0x151a (correct), seq 6, ack 4294960471, win 65495, length 0
	0x0000:  0004 0200 0000 0000 0000 0000 0000 0800  ................
	0x0010:  4500 0028 3560 0000 2806 47d9 0a54 0d44  E..(5`..(.G?.T.D
	0x0020:  c05f 3da0 3ef4 1b39 0000 158e 0000 1590  ?_=?>?.9........
	0x0030:  5010 ffd7 151a 0000                      P.??....
14:16:54.652371 IP (tos 0x0, ttl 40, id 13665, offset 0, flags [none], proto TCP (6), length 40)
    10.84.13.68.38338 > 192.95.61.160.6969: Flags [S], cksum 0x3c66 (correct), seq 60955, win 65495, length 0
	0x0000:  0004 0200 0000 0000 0000 0000 0000 0800  ................
	0x0010:  4500 0028 3561 0000 2806 47d8 0a54 0d44  E..(5a..(.G?.T.D
	0x0020:  c05f 3da0 95c2 1b39 0000 ee1b beef 0006  ?_=?.?.9..?.??..
	0x0030:  5002 ffd7 3c66 0000                      P.??<f..
14:16:55.181350 IP (tos 0x0, ttl 52, id 1, offset 0, flags [none], proto TCP (6), length 42)
    192.95.61.160.6969 > 10.84.13.68.38338: Flags [S.], cksum 0x1195 (correct), seq 12345:12347, ack 60956, win 8192, length 2
	0x0000:  0000 0200 0000 0000 0000 0000 0000 0800  ................
	0x0010:  4500 002a 0001 0000 3406 7136 c05f 3da0  E..*....4.q6?_=?
	0x0020:  0a54 0d44 1b39 95c2 0000 3039 0000 ee1c  .T.D.9.?..09..?.
	0x0030:  5012 2000 1195 0000 9952                 P........R
14:16:55.184042 IP (tos 0x0, ttl 40, id 13667, offset 0, flags [none], proto TCP (6), length 40)
    10.84.13.68.38338 > 192.95.61.160.6969: Flags [.], cksum 0xcb12 (correct), seq 1, ack 1, win 65495, length 0
	0x0000:  0004 0200 0000 0000 0000 0000 0000 0800  ................
	0x0010:  4500 0028 3563 0000 2806 47d6 0a54 0d44  E..(5c..(.G?.T.D
	0x0020:  c05f 3da0 95c2 1b39 0000 ee1c 0000 303a  ?_=?.?.9..?...0:
	0x0030:  5010 ffd7 cb12 0000                      P.???...
14:16:55.184799 IP (tos 0x0, ttl 40, id 13668, offset 0, flags [none], proto TCP (6), length 45)
    10.84.13.68.38338 > 192.95.61.160.6969: Flags [P.], cksum 0xe773 (correct), seq 1:6, ack 1, win 65495, length 5
	0x0000:  0004 0200 0000 0000 0000 0000 0000 0800  ................
	0x0010:  4500 002d 3564 0000 2806 47d0 0a54 0d44  E..-5d..(.G?.T.D
	0x0020:  c05f 3da0 95c2 1b39 0000 ee1c 0000 303a  ?_=?.?.9..?...0:
	0x0030:  5018 ffd7 e773 0000 4845 4c4c 4f         P.???s..HELLO
14:16:55.781552 IP (tos 0x0, ttl 52, id 1, offset 0, flags [none], proto TCP (6), length 45)
    192.95.61.160.6969 > 10.84.13.68.38338: Flags [.], cksum 0xc74e (correct), seq 1:6, ack 6, win 8192, length 5
	0x0000:  0000 0200 0000 0000 0000 0000 0000 0800  ................
	0x0010:  4500 002d 0001 0000 3406 7133 c05f 3da0  E..-....4.q3?_=?
	0x0020:  0a54 0d44 1b39 95c2 0000 303a 0000 ee21  .T.D.9.?..0:..?!
	0x0030:  5010 2000 c74e 0000 4f4c 4c45 48         P...?N..OLLEH
14:16:55.784083 IP (tos 0x0, ttl 40, id 13670, offset 0, flags [none], proto TCP (6), length 40)
    10.84.13.68.38338 > 192.95.61.160.6969: Flags [.], cksum 0xcb08 (correct), seq 6, ack 6, win 65495, length 0
	0x0000:  0004 0200 0000 0000 0000 0000 0000 0800  ................
	0x0010:  4500 0028 3566 0000 2806 47d3 0a54 0d44  E..(5f..(.G?.T.D
	0x0020:  c05f 3da0 95c2 1b39 0000 ee21 0000 303f  ?_=?.?.9..?!..0?
	0x0030:  5010 ffd7 cb08 0000                      P.???...
14:16:55.784517 IP (tos 0x0, ttl 40, id 13671, offset 0, flags [none], proto TCP (6), length 40)
    10.84.13.68.38338 > 192.95.61.160.6969: Flags [F.], cksum 0xcb07 (correct), seq 6, ack 6, win 65495, length 0
	0x0000:  0004 0200 0000 0000 0000 0000 0000 0800  ................
	0x0010:  4500 0028 3567 0000 2806 47d2 0a54 0d44  E..(5g..(.G?.T.D
	0x0020:  c05f 3da0 95c2 1b39 0000 ee21 0000 303f  ?_=?.?.9..?!..0?
	0x0030:  5011 ffd7 cb07 0000                      P.???...
14:16:56.361579 IP (tos 0x0, ttl 52, id 1, offset 0, flags [none], proto TCP (6), length 40)
    192.95.61.160.6969 > 10.84.13.68.38338: Flags [F.], cksum 0xaade (correct), seq 6, ack 7, win 8192, length 0
	0x0000:  0000 0200 0000 0000 0000 0000 0000 0800  ................
	0x0010:  4500 0028 0001 0000 3406 7138 c05f 3da0  E..(....4.q8?_=?
	0x0020:  0a54 0d44 1b39 95c2 0000 303f 0000 ee22  .T.D.9.?..0?..?"
	0x0030:  5011 2000 aade 0000                      P...??..
14:16:56.364013 IP (tos 0x0, ttl 40, id 13673, offset 0, flags [none], proto TCP (6), length 40)
    10.84.13.68.38338 > 192.95.61.160.6969: Flags [.], cksum 0x0d24 (correct), seq 6, ack 48618, win 65495, length 0
	0x0000:  0004 0200 0000 0000 0000 0000 0000 0800  ................
	0x0010:  4500 0028 3569 0000 2806 47d0 0a54 0d44  E..(5i..(.G?.T.D
	0x0020:  c05f 3da0 95c2 1b39 0000 ee21 0000 ee23  ?_=?.?.9..?!..?#
	0x0030:  5010 ffd7 0d24 0000                      P.??.$..
14:16:56.580598 IP (tos 0x0, ttl 40, id 13674, offset 0, flags [none], proto TCP (6), length 40)
    10.84.13.68.58719 > 192.95.61.160.6969: Flags [S], cksum 0x3b6a (correct), seq 41064, win 65495, length 0
	0x0000:  0004 0200 0000 0000 0000 0000 0000 0800  ................
	0x0010:  4500 0028 356a 0000 2806 47cf 0a54 0d44  E..(5j..(.G?.T.D
	0x0020:  c05f 3da0 e55f 1b39 0000 a068 0000 0000  ?_=??_.9..?h....
	0x0030:  5002 ffd7 3b6a be07                      P.??;j?.
14:16:57.201415 IP (tos 0x0, ttl 52, id 1, offset 0, flags [none], proto TCP (6), length 40)
    192.95.61.160.6969 > 10.84.13.68.58719: Flags [S.], cksum 0xeaf7 (correct), seq 12345, ack 41065, win 8192, length 0
	0x0000:  0000 0200 0000 0000 0000 0000 0000 0800  ................
	0x0010:  4500 0028 0001 0000 3406 7138 c05f 3da0  E..(....4.q8?_=?
	0x0020:  0a54 0d44 1b39 e55f 0000 3039 0000 a069  .T.D.9?_..09..?i
	0x0030:  5012 2000 eaf7 be07                      P...???.
14:16:57.204072 IP (tos 0x0, ttl 40, id 13676, offset 0, flags [none], proto TCP (6), length 40)
    10.84.13.68.58719 > 192.95.61.160.6969: Flags [.], cksum 0xc928 (correct), seq 1, ack 1, win 65495, length 0
	0x0000:  0004 0200 0000 0000 0000 0000 0000 0800  ................
	0x0010:  4500 0028 356c 0000 2806 47cd 0a54 0d44  E..(5l..(.G?.T.D
	0x0020:  c05f 3da0 e55f 1b39 0000 a069 0000 303a  ?_=??_.9..?i..0:
	0x0030:  5010 ffd7 c928 0000                      P.???(..
14:16:57.204857 IP (tos 0x0, ttl 40, id 13677, offset 0, flags [none], proto TCP (6), length 45)
    10.84.13.68.58719 > 192.95.61.160.6969: Flags [P.], cksum 0xe589 (correct), seq 1:6, ack 1, win 65495, length 5
	0x0000:  0004 0200 0000 0000 0000 0000 0000 0800  ................
	0x0010:  4500 002d 356d 0000 2806 47c7 0a54 0d44  E..-5m..(.G?.T.D
	0x0020:  c05f 3da0 e55f 1b39 0000 a069 0000 303a  ?_=??_.9..?i..0:
	0x0030:  5018 ffd7 e589 0000 4845 4c4c 4f         P.???...HELLO
14:16:58.081249 IP (tos 0x0, ttl 52, id 1, offset 0, flags [none], proto TCP (6), length 45)
    192.95.61.160.6969 > 10.84.13.68.58719: Flags [.], cksum 0xc564 (correct), seq 1:6, ack 6, win 8192, length 5
	0x0000:  0000 0200 0000 0000 0000 0000 0000 0800  ................
	0x0010:  4500 002d 0001 0000 3406 7133 c05f 3da0  E..-....4.q3?_=?
	0x0020:  0a54 0d44 1b39 e55f 0000 303a 0000 a06e  .T.D.9?_..0:..?n
	0x0030:  5010 2000 c564 0000 4f4c 4c45 48         P...?d..OLLEH
14:16:58.083716 IP (tos 0x0, ttl 40, id 13679, offset 0, flags [none], proto TCP (6), length 40)
    10.84.13.68.58719 > 192.95.61.160.6969: Flags [.], cksum 0xc91e (correct), seq 6, ack 6, win 65495, length 0
	0x0000:  0004 0200 0000 0000 0000 0000 0000 0800  ................
	0x0010:  4500 0028 356f 0000 2806 47ca 0a54 0d44  E..(5o..(.G?.T.D
	0x0020:  c05f 3da0 e55f 1b39 0000 a06e 0000 303f  ?_=??_.9..?n..0?
	0x0030:  5010 ffd7 c91e 0000                      P.???...
14:16:58.087279 IP (tos 0x0, ttl 40, id 13680, offset 0, flags [none], proto TCP (6), length 40)
    10.84.13.68.58719 > 192.95.61.160.6969: Flags [F.], cksum 0xc91d (correct), seq 6, ack 6, win 65495, length 0
	0x0000:  0004 0200 0000 0000 0000 0000 0000 0800  ................
	0x0010:  4500 0028 3570 0000 2806 47c9 0a54 0d44  E..(5p..(.G?.T.D
	0x0020:  c05f 3da0 e55f 1b39 0000 a06e 0000 303f  ?_=??_.9..?n..0?
	0x0030:  5011 ffd7 c91d 0000                      P.???...
14:16:58.691344 IP (tos 0x0, ttl 52, id 1, offset 0, flags [none], proto TCP (6), length 40)
    192.95.61.160.6969 > 10.84.13.68.58719: Flags [F.], cksum 0xa8f4 (correct), seq 6, ack 7, win 8192, length 0
	0x0000:  0000 0200 0000 0000 0000 0000 0000 0800  ................
	0x0010:  4500 0028 0001 0000 3406 7138 c05f 3da0  E..(....4.q8?_=?
	0x0020:  0a54 0d44 1b39 e55f 0000 303f 0000 a06f  .T.D.9?_..0?..?o
	0x0030:  5011 2000 a8f4 0000                      P...??..
14:16:58.693913 IP (tos 0x0, ttl 40, id 13682, offset 0, flags [none], proto TCP (6), length 40)
    10.84.13.68.58719 > 192.95.61.160.6969: Flags [.], cksum 0x58ed (correct), seq 6, ack 28727, win 65495, length 0
	0x0000:  0004 0200 0000 0000 0000 0000 0000 0800  ................
	0x0010:  4500 0028 3572 0000 2806 47c7 0a54 0d44  E..(5r..(.G?.T.D
	0x0020:  c05f 3da0 e55f 1b39 0000 a06e 0000 a070  ?_=??_.9..?n..?p
	0x0030:  5010 ffd7 58ed 0000                      P.??X?..
14:16:58.908413 IP (tos 0x0, ttl 40, id 13683, offset 0, flags [none], proto TCP (6), length 40)
    10.84.13.68.43514 > 192.95.61.160.6969: Flags [S], cksum 0x548e (correct), seq 49832, win 65495, length 0
	0x0000:  0004 0200 0000 0000 0000 0000 0000 0800  ................
	0x0010:  4500 0028 3573 0000 2806 47c6 0a54 0d44  E..(5s..(.G?.T.D
	0x0020:  c05f 3da0 a9fa 1b39 0000 c2a8 0000 0000  ?_=???.9..¨....
	0x0030:  5002 ffd7 548e be08                      P.??T.?.
14:16:59.331331 IP (tos 0x0, ttl 52, id 1, offset 0, flags [none], proto TCP (6), length 40)
    192.95.61.160.6969 > 10.84.13.68.43514: Flags [S.], cksum 0x0420 (correct), seq 12345, ack 49833, win 8192, length 0
	0x0000:  0000 0200 0000 0000 0000 0000 0000 0800  ................
	0x0010:  4500 0028 0001 0000 3406 7138 c05f 3da0  E..(....4.q8?_=?
	0x0020:  0a54 0d44 1b39 a9fa 0000 3039 0000 c2a9  .T.D.9??..09..©
	0x0030:  5012 2000 0420 be04                      P.....?.
14:16:59.545582 IP (tos 0x0, ttl 40, id 13685, offset 0, flags [none], proto TCP (6), length 40)
    10.84.13.68.19798 > 192.95.61.160.6969: Flags [S], cksum 0x2e85 (correct), seq 17749, win 65495, length 0
	0x0000:  0004 0200 0000 0000 0000 0000 0000 0800  ................
	0x0010:  4500 0028 3575 0000 2806 47c4 0a54 0d44  E..(5u..(.G?.T.D
	0x0020:  c05f 3da0 4d56 1b39 0000 4555 0000 0000  ?_=?MV.9..EU....
	0x0030:  5002 ffd7 2e85 be09                      P.??..?.
14:16:59.981382 IP (tos 0x0, ttl 52, id 1, offset 0, flags [none], proto TCP (6), length 40)
    192.95.61.160.6969 > 10.84.13.68.19798: Flags [S.], cksum 0x5a01 (incorrect -> 0x9c1c), seq 12345, ack 17750, win 8192, length 0
	0x0000:  0000 0200 0000 0000 0000 0000 0000 0800  ................
	0x0010:  4500 0028 0001 0000 3406 7138 c05f 3da0  E..(....4.q8?_=?
	0x0020:  0a54 0d44 1b39 4d56 0000 3039 0000 4556  .T.D.9MV..09..EV
	0x0030:  5012 2000 5a01 0000                      P...Z...
14:16:59.983387 IP (tos 0x0, ttl 40, id 13686, offset 0, flags [none], proto TCP (6), length 40)
    10.84.13.68.19798 > 192.95.61.160.6969: Flags [.], cksum 0xbc45 (correct), seq 1, ack 1, win 65495, length 0
	0x0000:  0004 0200 0000 0000 0000 0000 0000 0800  ................
	0x0010:  4500 0028 3576 0000 2806 47c3 0a54 0d44  E..(5v..(.G?.T.D
	0x0020:  c05f 3da0 4d56 1b39 0000 4556 0000 303a  ?_=?MV.9..EV..0:
	0x0030:  5010 ffd7 bc45 0000                      P.?׼E..
14:16:59.984119 IP (tos 0x0, ttl 40, id 13687, offset 0, flags [none], proto TCP (6), length 45)
    10.84.13.68.19798 > 192.95.61.160.6969: Flags [P.], cksum 0xd8a6 (correct), seq 1:6, ack 1, win 65495, length 5
	0x0000:  0004 0200 0000 0000 0000 0000 0000 0800  ................
	0x0010:  4500 002d 3577 0000 2806 47bd 0a54 0d44  E..-5w..(.G?.T.D
	0x0020:  c05f 3da0 4d56 1b39 0000 4556 0000 303a  ?_=?MV.9..EV..0:
	0x0030:  5018 ffd7 d8a6 0000 4845 4c4c 4f         P.??ئ..HELLO
14:17:00.631324 IP (tos 0x0, ttl 52, id 1, offset 0, flags [none], proto TCP (6), length 45)
    192.95.61.160.6969 > 10.84.13.68.19798: Flags [.], cksum 0xb881 (correct), seq 1:6, ack 6, win 8192, length 5
	0x0000:  0000 0200 0000 0000 0000 0000 0000 0800  ................
	0x0010:  4500 002d 0001 0000 3406 7133 c05f 3da0  E..-....4.q3?_=?
	0x0020:  0a54 0d44 1b39 4d56 0000 303a 0000 455b  .T.D.9MV..0:..E[
	0x0030:  5010 2000 b881 0000 4f4c 4c45 48         P...?...OLLEH
14:17:00.633824 IP (tos 0x0, ttl 40, id 13689, offset 0, flags [none], proto TCP (6), length 40)
    10.84.13.68.19798 > 192.95.61.160.6969: Flags [.], cksum 0xbc3b (correct), seq 6, ack 6, win 65495, length 0
	0x0000:  0004 0200 0000 0000 0000 0000 0000 0800  ................
	0x0010:  4500 0028 3579 0000 2806 47c0 0a54 0d44  E..(5y..(.G?.T.D
	0x0020:  c05f 3da0 4d56 1b39 0000 455b 0000 303f  ?_=?MV.9..E[..0?
	0x0030:  5010 ffd7 bc3b 0000                      P.?׼;..
14:17:00.634281 IP (tos 0x0, ttl 40, id 13690, offset 0, flags [none], proto TCP (6), length 40)
    10.84.13.68.19798 > 192.95.61.160.6969: Flags [F.], cksum 0xbc3a (correct), seq 6, ack 6, win 65495, length 0
	0x0000:  0004 0200 0000 0000 0000 0000 0000 0800  ................
	0x0010:  4500 0028 357a 0000 2806 47bf 0a54 0d44  E..(5z..(.G?.T.D
	0x0020:  c05f 3da0 4d56 1b39 0000 455b 0000 303f  ?_=?MV.9..E[..0?
	0x0030:  5011 ffd7 bc3a 0000                      P.?׼:..
14:17:01.401578 IP (tos 0x0, ttl 52, id 1, offset 0, flags [none], proto TCP (6), length 40)
    192.95.61.160.6969 > 10.84.13.68.19798: Flags [F.], cksum 0x9c11 (correct), seq 6, ack 7, win 8192, length 0
	0x0000:  0000 0200 0000 0000 0000 0000 0000 0800  ................
	0x0010:  4500 0028 0001 0000 3406 7138 c05f 3da0  E..(....4.q8?_=?
	0x0020:  0a54 0d44 1b39 4d56 0000 303f 0000 455c  .T.D.9MV..0?..E\
	0x0030:  5011 2000 9c11 0000                      P.......
14:17:01.404000 IP (tos 0x0, ttl 40, id 13692, offset 0, flags [none], proto TCP (6), length 40)
    10.84.13.68.19798 > 192.95.61.160.6969: Flags [.], cksum 0xa71d (correct), seq 6, ack 5412, win 65495, length 0
	0x0000:  0004 0200 0000 0000 0000 0000 0000 0800  ................
	0x0010:  4500 0028 357c 0000 2806 47bd 0a54 0d44  E..(5|..(.G?.T.D
	0x0020:  c05f 3da0 4d56 1b39 0000 455b 0000 455d  ?_=?MV.9..E[..E]
	0x0030:  5010 ffd7 a71d 0000                      P.?ק...
14:17:01.617723 IP (tos 0x0, ttl 40, id 13693, offset 0, flags [none], proto TCP (6), length 40)
    10.84.13.68.13854 > 192.95.61.160.6969: Flags [S], cksum 0x7cf0 (correct), seq 52011, win 65495, length 0
	0x0000:  0004 0200 0000 0000 0000 0000 0000 0800  ................
	0x0010:  4500 0028 357d 0000 2806 47bc 0a54 0d44  E..(5}..(.G?.T.D
	0x0020:  c05f 3da0 361e 1b39 0000 cb2b 0000 0000  ?_=?6..9..?+....
	0x0030:  5102 ffd7 7cf0 0000                      Q.??|?..
14:17:02.081496 IP (tos 0x0, ttl 52, id 1, offset 0, flags [none], proto TCP (6), length 40)
    192.95.61.160.6969 > 10.84.13.68.13854: Flags [S.], cksum 0x2c7e (correct), seq 12345, ack 52012, win 8192, length 0
	0x0000:  0000 0200 0000 0000 0000 0000 0000 0800  ................
	0x0010:  4500 0028 0001 0000 3406 7138 c05f 3da0  E..(....4.q8?_=?
	0x0020:  0a54 0d44 1b39 361e 0000 3039 0000 cb2c  .T.D.96...09..?,
	0x0030:  5112 2000 2c7e 0000                      Q...,~..
14:17:02.085472 IP (tos 0x0, ttl 40, id 13695, offset 0, flags [none], proto TCP (6), length 40)
    10.84.13.68.13854 > 192.95.61.160.6969: Flags [.], cksum 0x4ca7 (correct), seq 1, ack 1, win 65495, length 0
	0x0000:  0004 0200 0000 0000 0000 0000 0000 0800  ................
	0x0010:  4500 0028 357f 0000 2806 47ba 0a54 0d44  E..(5...(.G?.T.D
	0x0020:  c05f 3da0 361e 1b39 0000 cb2c 0000 303a  ?_=?6..9..?,..0:
	0x0030:  5110 ffd7 4ca7 0000                      Q.??L?..
14:17:02.086290 IP (tos 0x0, ttl 40, id 13696, offset 0, flags [none], proto TCP (6), length 45)
    10.84.13.68.13854 > 192.95.61.160.6969: Flags [P.], cksum 0x6a08 (correct), seq 1:6, ack 1, win 65495, length 5
	0x0000:  0004 0200 0000 0000 0000 0000 0000 0800  ................
	0x0010:  4500 002d 3580 0000 2806 47b4 0a54 0d44  E..-5...(.G?.T.D
	0x0020:  c05f 3da0 361e 1b39 0000 cb2c 0000 303a  ?_=?6..9..?,..0:
	0x0030:  5018 ffd7 6a08 0000 4845 4c4c 4f         P.??j...HELLO
14:17:02.651271 IP (tos 0x0, ttl 52, id 1, offset 0, flags [none], proto TCP (6), length 45)
    192.95.61.160.6969 > 10.84.13.68.13854: Flags [.], cksum 0x49e3 (correct), seq 1:6, ack 6, win 8192, length 5
	0x0000:  0000 0200 0000 0000 0000 0000 0000 0800  ................
	0x0010:  4500 002d 0001 0000 3406 7133 c05f 3da0  E..-....4.q3?_=?
	0x0020:  0a54 0d44 1b39 361e 0000 303a 0000 cb31  .T.D.96...0:..?1
	0x0030:  5010 2000 49e3 0000 4f4c 4c45 48         P...I?..OLLEH
14:17:02.653766 IP (tos 0x0, ttl 40, id 13698, offset 0, flags [none], proto TCP (6), length 40)
    10.84.13.68.13854 > 192.95.61.160.6969: Flags [.], cksum 0x4d9d (correct), seq 6, ack 6, win 65495, length 0
	0x0000:  0004 0200 0000 0000 0000 0000 0000 0800  ................
	0x0010:  4500 0028 3582 0000 2806 47b7 0a54 0d44  E..(5...(.G?.T.D
	0x0020:  c05f 3da0 361e 1b39 0000 cb31 0000 303f  ?_=?6..9..?1..0?
	0x0030:  5010 ffd7 4d9d 0000                      P.??M...
14:17:02.657215 IP (tos 0x0, ttl 40, id 13699, offset 0, flags [none], proto TCP (6), length 40)
    10.84.13.68.13854 > 192.95.61.160.6969: Flags [F.], cksum 0x4d9c (correct), seq 6, ack 6, win 65495, length 0
	0x0000:  0004 0200 0000 0000 0000 0000 0000 0800  ................
	0x0010:  4500 0028 3583 0000 2806 47b6 0a54 0d44  E..(5...(.G?.T.D
	0x0020:  c05f 3da0 361e 1b39 0000 cb31 0000 303f  ?_=?6..9..?1..0?
	0x0030:  5011 ffd7 4d9c 0000                      P.??M...
14:17:03.251278 IP (tos 0x0, ttl 52, id 1, offset 0, flags [none], proto TCP (6), length 40)
    192.95.61.160.6969 > 10.84.13.68.13854: Flags [F.], cksum 0x2d73 (correct), seq 6, ack 7, win 8192, length 0
	0x0000:  0000 0200 0000 0000 0000 0000 0000 0800  ................
	0x0010:  4500 0028 0001 0000 3406 7138 c05f 3da0  E..(....4.q8?_=?
	0x0020:  0a54 0d44 1b39 361e 0000 303f 0000 cb32  .T.D.96...0?..?2
	0x0030:  5011 2000 2d73 0000                      P...-s..
14:17:03.252031 IP (tos 0x0, ttl 40, id 13701, offset 0, flags [none], proto TCP (6), length 40)
    10.84.13.68.13854 > 192.95.61.160.6969: Flags [.], cksum 0xb2a8 (correct), seq 6, ack 39674, win 65495, length 0
	0x0000:  0004 0200 0000 0000 0000 0000 0000 0800  ................
	0x0010:  4500 0028 3585 0000 2806 47b4 0a54 0d44  E..(5...(.G?.T.D
	0x0020:  c05f 3da0 361e 1b39 0000 cb31 0000 cb33  ?_=?6..9..?1..?3
	0x0030:  5010 ffd7 b2a8 0000                      P.?ײ?..
14:17:03.479399 IP (tos 0x0, ttl 40, id 13702, offset 0, flags [none], proto TCP (6), length 40)
    10.84.13.68.59566 > 192.95.61.160.6969: Flags [S], cksum 0x6748 (correct), seq 11587, win 65495, length 0
	0x0000:  0004 0200 0000 0000 0000 0000 0000 0800  ................
	0x0010:  4500 0028 3586 0000 2806 47b3 0a54 0d44  E..(5...(.G?.T.D
	0x0020:  c05f 3da0 e8ae 1b39 0000 2d43 0000 0000  ?_=??.9..-C....
	0x0030:  5202 ffd7 6748 0000                      R.??gH..
14:17:03.951304 IP (tos 0x0, ttl 52, id 1, offset 0, flags [none], proto TCP (6), length 40)
    192.95.61.160.6969 > 10.84.13.68.59566: Flags [S.], cksum 0x16d6 (correct), seq 12345, ack 11588, win 8192, length 0
	0x0000:  0000 0200 0000 0000 0000 0000 0000 0800  ................
	0x0010:  4500 0028 0001 0000 3406 7138 c05f 3da0  E..(....4.q8?_=?
	0x0020:  0a54 0d44 1b39 e8ae 0000 3039 0000 2d44  .T.D.9?..09..-D
	0x0030:  5212 2000 16d6 0000                      R....?..
14:17:03.952038 IP (tos 0x0, ttl 40, id 13704, offset 0, flags [none], proto TCP (6), length 40)
    10.84.13.68.59566 > 192.95.61.160.6969: Flags [.], cksum 0x36ff (correct), seq 1, ack 1, win 65495, length 0
	0x0000:  0004 0200 0000 0000 0000 0000 0000 0800  ................
	0x0010:  4500 0028 3588 0000 2806 47b1 0a54 0d44  E..(5...(.G?.T.D
	0x0020:  c05f 3da0 e8ae 1b39 0000 2d44 0000 303a  ?_=??.9..-D..0:
	0x0030:  5210 ffd7 36ff 0000                      R.??6?..
14:17:03.952279 IP (tos 0x0, ttl 40, id 13705, offset 0, flags [none], proto TCP (6), length 45)
    10.84.13.68.59566 > 192.95.61.160.6969: Flags [P.], cksum 0x5560 (correct), seq 1:6, ack 1, win 65495, length 5
	0x0000:  0004 0200 0000 0000 0000 0000 0000 0800  ................
	0x0010:  4500 002d 3589 0000 2806 47ab 0a54 0d44  E..-5...(.G?.T.D
	0x0020:  c05f 3da0 e8ae 1b39 0000 2d44 0000 303a  ?_=??.9..-D..0:
	0x0030:  5018 ffd7 5560 0000 4845 4c4c 4f         P.??U`..HELLO
14:17:04.571154 IP (tos 0x0, ttl 52, id 1, offset 0, flags [none], proto TCP (6), length 45)
    192.95.61.160.6969 > 10.84.13.68.59566: Flags [.], cksum 0x353b (correct), seq 1:6, ack 6, win 8192, length 5
	0x0000:  0000 0200 0000 0000 0000 0000 0000 0800  ................
	0x0010:  4500 002d 0001 0000 3406 7133 c05f 3da0  E..-....4.q3?_=?
	0x0020:  0a54 0d44 1b39 e8ae 0000 303a 0000 2d49  .T.D.9?..0:..-I
	0x0030:  5010 2000 353b 0000 4f4c 4c45 48         P...5;..OLLEH
14:17:04.571869 IP (tos 0x0, ttl 40, id 13707, offset 0, flags [none], proto TCP (6), length 40)
    10.84.13.68.59566 > 192.95.61.160.6969: Flags [.], cksum 0x38f5 (correct), seq 6, ack 6, win 65495, length 0
	0x0000:  0004 0200 0000 0000 0000 0000 0000 0800  ................
	0x0010:  4500 0028 358b 0000 2806 47ae 0a54 0d44  E..(5...(.G?.T.D
	0x0020:  c05f 3da0 e8ae 1b39 0000 2d49 0000 303f  ?_=??.9..-I..0?
	0x0030:  5010 ffd7 38f5 0000                      P.??8?..
14:17:04.571973 IP (tos 0x0, ttl 40, id 13708, offset 0, flags [none], proto TCP (6), length 40)
    10.84.13.68.59566 > 192.95.61.160.6969: Flags [F.], cksum 0x38f4 (correct), seq 6, ack 6, win 65495, length 0
	0x0000:  0004 0200 0000 0000 0000 0000 0000 0800  ................
	0x0010:  4500 0028 358c 0000 2806 47ad 0a54 0d44  E..(5...(.G?.T.D
	0x0020:  c05f 3da0 e8ae 1b39 0000 2d49 0000 303f  ?_=??.9..-I..0?
	0x0030:  5011 ffd7 38f4 0000                      P.??8?..
14:17:05.461310 IP (tos 0x0, ttl 52, id 1, offset 0, flags [none], proto TCP (6), length 40)
    192.95.61.160.6969 > 10.84.13.68.59566: Flags [F.], cksum 0x18cb (correct), seq 6, ack 7, win 8192, length 0
	0x0000:  0000 0200 0000 0000 0000 0000 0000 0800  ................
	0x0010:  4500 0028 0001 0000 3406 7138 c05f 3da0  E..(....4.q8?_=?
	0x0020:  0a54 0d44 1b39 e8ae 0000 303f 0000 2d4a  .T.D.9?..0?..-J
	0x0030:  5011 2000 18cb 0000                      P....?..
14:17:05.462012 IP (tos 0x0, ttl 40, id 13710, offset 0, flags [none], proto TCP (6), length 40)
    10.84.13.68.59566 > 192.95.61.160.6969: Flags [.], cksum 0x3be9 (correct), seq 6, ack 4294966546, win 65495, length 0
	0x0000:  0004 0200 0000 0000 0000 0000 0000 0800  ................
	0x0010:  4500 0028 358e 0000 2806 47ab 0a54 0d44  E..(5...(.G?.T.D
	0x0020:  c05f 3da0 e8ae 1b39 0000 2d49 0000 2d4b  ?_=??.9..-I..-K
	0x0030:  5010 ffd7 3be9 0000                      P.??;?..
14:17:05.673002 IP (tos 0x0, ttl 40, id 13711, offset 0, flags [none], proto TCP (6), length 40)
    10.84.13.68.35192 > 192.95.61.160.6969: Flags [S], cksum 0x39df (correct), seq 47074, win 65495, length 0
	0x0000:  0004 0200 0000 0000 0000 0000 0000 0800  ................
	0x0010:  4500 0028 358f 0000 2806 47aa 0a54 0d44  E..(5...(.G?.T.D
	0x0020:  c05f 3da0 8978 1b39 0000 b7e2 0000 0000  ?_=?.x.9..??....
	0x0030:  5402 ffd7 39df 0000                      T.??9?..
14:17:06.201690 IP (tos 0x0, ttl 52, id 1, offset 0, flags [none], proto TCP (6), length 40)
    192.95.61.160.6969 > 10.84.13.68.35192: Flags [S.], cksum 0xe96c (correct), seq 12345, ack 47075, win 8192, length 0
	0x0000:  0000 0200 0000 0000 0000 0000 0000 0800  ................
	0x0010:  4500 0028 0001 0000 3406 7138 c05f 3da0  E..(....4.q8?_=?
	0x0020:  0a54 0d44 1b39 8978 0000 3039 0000 b7e3  .T.D.9.x..09..??
	0x0030:  5412 2000 e96c 0000                      T...?l..
14:17:06.202428 IP (tos 0x0, ttl 40, id 13713, offset 0, flags [none], proto TCP (6), length 40)
    10.84.13.68.35192 > 192.95.61.160.6969: Flags [.], cksum 0x0996 (correct), seq 1, ack 1, win 65495, length 0
	0x0000:  0004 0200 0000 0000 0000 0000 0000 0800  ................
	0x0010:  4500 0028 3591 0000 2806 47a8 0a54 0d44  E..(5...(.G?.T.D
	0x0020:  c05f 3da0 8978 1b39 0000 b7e3 0000 303a  ?_=?.x.9..??..0:
	0x0030:  5410 ffd7 0996 0000                      T.??....
14:17:06.202619 IP (tos 0x0, ttl 40, id 13714, offset 0, flags [none], proto TCP (6), length 45)
    10.84.13.68.35192 > 192.95.61.160.6969: Flags [P.], cksum 0x29f7 (correct), seq 1:6, ack 1, win 65495, length 5
	0x0000:  0004 0200 0000 0000 0000 0000 0000 0800  ................
	0x0010:  4500 002d 3592 0000 2806 47a2 0a54 0d44  E..-5...(.G?.T.D
	0x0020:  c05f 3da0 8978 1b39 0000 b7e3 0000 303a  ?_=?.x.9..??..0:
	0x0030:  5018 ffd7 29f7 0000 4845 4c4c 4f         P.??)?..HELLO
14:17:06.931299 IP (tos 0x0, ttl 52, id 1, offset 0, flags [none], proto TCP (6), length 45)
    192.95.61.160.6969 > 10.84.13.68.35192: Flags [.], cksum 0x09d2 (correct), seq 1:6, ack 6, win 8192, length 5
	0x0000:  0000 0200 0000 0000 0000 0000 0000 0800  ................
	0x0010:  4500 002d 0001 0000 3406 7133 c05f 3da0  E..-....4.q3?_=?
	0x0020:  0a54 0d44 1b39 8978 0000 303a 0000 b7e8  .T.D.9.x..0:..??
	0x0030:  5010 2000 09d2 0000 4f4c 4c45 48         P....?..OLLEH
14:17:06.932084 IP (tos 0x0, ttl 40, id 13716, offset 0, flags [none], proto TCP (6), length 40)
    10.84.13.68.35192 > 192.95.61.160.6969: Flags [.], cksum 0x0d8c (correct), seq 6, ack 6, win 65495, length 0
	0x0000:  0004 0200 0000 0000 0000 0000 0000 0800  ................
	0x0010:  4500 0028 3594 0000 2806 47a5 0a54 0d44  E..(5...(.G?.T.D
	0x0020:  c05f 3da0 8978 1b39 0000 b7e8 0000 303f  ?_=?.x.9..??..0?
	0x0030:  5010 ffd7 0d8c 0000                      P.??....
14:17:06.932186 IP (tos 0x0, ttl 40, id 13717, offset 0, flags [none], proto TCP (6), length 40)
    10.84.13.68.35192 > 192.95.61.160.6969: Flags [F.], cksum 0x0d8b (correct), seq 6, ack 6, win 65495, length 0
	0x0000:  0004 0200 0000 0000 0000 0000 0000 0800  ................
	0x0010:  4500 0028 3595 0000 2806 47a4 0a54 0d44  E..(5...(.G?.T.D
	0x0020:  c05f 3da0 8978 1b39 0000 b7e8 0000 303f  ?_=?.x.9..??..0?
	0x0030:  5011 ffd7 0d8b 0000                      P.??....
14:17:07.831293 IP (tos 0x0, ttl 52, id 1, offset 0, flags [none], proto TCP (6), length 40)
    192.95.61.160.6969 > 10.84.13.68.35192: Flags [F.], cksum 0xed61 (correct), seq 6, ack 7, win 8192, length 0
	0x0000:  0000 0200 0000 0000 0000 0000 0000 0800  ................
	0x0010:  4500 0028 0001 0000 3406 7138 c05f 3da0  E..(....4.q8?_=?
	0x0020:  0a54 0d44 1b39 8978 0000 303f 0000 b7e9  .T.D.9.x..0?..??
	0x0030:  5011 2000 ed61 0000                      P...?a..
14:17:07.832009 IP (tos 0x0, ttl 40, id 13719, offset 0, flags [none], proto TCP (6), length 40)
    10.84.13.68.35192 > 192.95.61.160.6969: Flags [.], cksum 0x85e0 (correct), seq 6, ack 34737, win 65495, length 0
	0x0000:  0004 0200 0000 0000 0000 0000 0000 0800  ................
	0x0010:  4500 0028 3597 0000 2806 47a2 0a54 0d44  E..(5...(.G?.T.D
	0x0020:  c05f 3da0 8978 1b39 0000 b7e8 0000 b7ea  ?_=?.x.9..??..??
	0x0030:  5010 ffd7 85e0 0000                      P.??.?..
14:17:08.040257 IP (tos 0x0, ttl 40, id 13720, offset 0, flags [none], proto TCP (6), length 40)
    10.84.13.68.61777 > 192.95.61.160.6969: Flags [S], cksum 0xa5b1 (correct), seq 57398, win 65495, length 0
	0x0000:  0004 0200 0000 0000 0000 0000 0000 0800  ................
	0x0010:  4500 0028 3598 0000 2806 47a1 0a54 0d44  E..(5...(.G?.T.D
	0x0020:  c05f 3da0 f151 1b39 0000 e036 0000 0000  ?_=??Q.9..?6....
	0x0030:  5802 ffd7 a5b1 0000                      X.?ץ?..
14:17:08.661705 IP (tos 0x0, ttl 52, id 1, offset 0, flags [none], proto TCP (6), length 40)
    192.95.61.160.6969 > 10.84.13.68.61777: Flags [S.], cksum 0x553f (correct), seq 12345, ack 57399, win 8192, length 0
	0x0000:  0000 0200 0000 0000 0000 0000 0000 0800  ................
	0x0010:  4500 0028 0001 0000 3406 7138 c05f 3da0  E..(....4.q8?_=?
	0x0020:  0a54 0d44 1b39 f151 0000 3039 0000 e037  .T.D.9?Q..09..?7
	0x0030:  5812 2000 553f 0000                      X...U?..
14:17:08.664390 IP (tos 0x0, ttl 40, id 13722, offset 0, flags [none], proto TCP (6), length 40)
    10.84.13.68.61777 > 192.95.61.160.6969: Flags [.], cksum 0x7568 (correct), seq 1, ack 1, win 65495, length 0
	0x0000:  0004 0200 0000 0000 0000 0000 0000 0800  ................
	0x0010:  4500 0028 359a 0000 2806 479f 0a54 0d44  E..(5...(.G..T.D
	0x0020:  c05f 3da0 f151 1b39 0000 e037 0000 303a  ?_=??Q.9..?7..0:
	0x0030:  5810 ffd7 7568 0000                      X.??uh..
14:17:08.665176 IP (tos 0x0, ttl 40, id 13723, offset 0, flags [none], proto TCP (6), length 45)
    10.84.13.68.61777 > 192.95.61.160.6969: Flags [P.], cksum 0x99c9 (correct), seq 1:6, ack 1, win 65495, length 5
	0x0000:  0004 0200 0000 0000 0000 0000 0000 0800  ................
	0x0010:  4500 002d 359b 0000 2806 4799 0a54 0d44  E..-5...(.G..T.D
	0x0020:  c05f 3da0 f151 1b39 0000 e037 0000 303a  ?_=??Q.9..?7..0:
	0x0030:  5018 ffd7 99c9 0000 4845 4c4c 4f         P.??.?..HELLO
14:17:09.291468 IP (tos 0x0, ttl 52, id 1, offset 0, flags [none], proto TCP (6), length 45)
    192.95.61.160.6969 > 10.84.13.68.61777: Flags [.], cksum 0x79a4 (correct), seq 1:6, ack 6, win 8192, length 5
	0x0000:  0000 0200 0000 0000 0000 0000 0000 0800  ................
	0x0010:  4500 002d 0001 0000 3406 7133 c05f 3da0  E..-....4.q3?_=?
	0x0020:  0a54 0d44 1b39 f151 0000 303a 0000 e03c  .T.D.9?Q..0:..?<
	0x0030:  5010 2000 79a4 0000 4f4c 4c45 48         P...y?..OLLEH
14:17:09.293974 IP (tos 0x0, ttl 40, id 13725, offset 0, flags [none], proto TCP (6), length 40)
    10.84.13.68.61777 > 192.95.61.160.6969: Flags [.], cksum 0x7d5e (correct), seq 6, ack 6, win 65495, length 0
	0x0000:  0004 0200 0000 0000 0000 0000 0000 0800  ................
	0x0010:  4500 0028 359d 0000 2806 479c 0a54 0d44  E..(5...(.G..T.D
	0x0020:  c05f 3da0 f151 1b39 0000 e03c 0000 303f  ?_=??Q.9..?<..0?
	0x0030:  5010 ffd7 7d5e 0000                      P.??}^..
14:17:09.294435 IP (tos 0x0, ttl 40, id 13726, offset 0, flags [none], proto TCP (6), length 40)
    10.84.13.68.61777 > 192.95.61.160.6969: Flags [F.], cksum 0x7d5d (correct), seq 6, ack 6, win 65495, length 0
	0x0000:  0004 0200 0000 0000 0000 0000 0000 0800  ................
	0x0010:  4500 0028 359e 0000 2806 479b 0a54 0d44  E..(5...(.G..T.D
	0x0020:  c05f 3da0 f151 1b39 0000 e03c 0000 303f  ?_=??Q.9..?<..0?
	0x0030:  5011 ffd7 7d5d 0000                      P.??}]..
14:17:09.921606 IP (tos 0x0, ttl 52, id 1, offset 0, flags [none], proto TCP (6), length 40)
    192.95.61.160.6969 > 10.84.13.68.61777: Flags [F.], cksum 0x5d34 (correct), seq 6, ack 7, win 8192, length 0
	0x0000:  0000 0200 0000 0000 0000 0000 0000 0800  ................
	0x0010:  4500 0028 0001 0000 3406 7138 c05f 3da0  E..(....4.q8?_=?
	0x0020:  0a54 0d44 1b39 f151 0000 303f 0000 e03d  .T.D.9?Q..0?..?=
	0x0030:  5011 2000 5d34 0000                      P...]4..
14:17:09.924215 IP (tos 0x0, ttl 40, id 13728, offset 0, flags [none], proto TCP (6), length 40)
    10.84.13.68.61777 > 192.95.61.160.6969: Flags [.], cksum 0xcd5e (correct), seq 6, ack 45061, win 65495, length 0
	0x0000:  0004 0200 0000 0000 0000 0000 0000 0800  ................
	0x0010:  4500 0028 35a0 0000 2806 4799 0a54 0d44  E..(5?..(.G..T.D
	0x0020:  c05f 3da0 f151 1b39 0000 e03c 0000 e03e  ?_=??Q.9..?<..?>
	0x0030:  5010 ffd7 cd5e 0000                      P.???^..
14:17:10.137193 IP (tos 0x0, ttl 40, id 13729, offset 0, flags [none], proto TCP (6), length 40)
    10.84.13.68.47424 > 192.95.61.160.6969: Flags [S], cksum 0x9e2c (correct), seq 10189, win 65495, length 0
	0x0000:  0004 0200 0000 0000 0000 0000 0000 0800  ................
	0x0010:  4500 0028 35a1 0000 2806 4798 0a54 0d44  E..(5?..(.G..T.D
	0x0020:  c05f 3da0 b940 1b39 0000 27cd 0000 0000  ?_=??@.9..'?....
	0x0030:  5002 ffd7 9e2c 0000                      P.??.,..
14:17:10.681578 IP (tos 0x0, ttl 52, id 1, offset 0, flags [none], proto TCP (6), length 40)
    192.95.61.160.6969 > 10.84.13.68.47424: Flags [S.], cksum 0x8fb5 (correct), seq 12345, ack 10190, win 8192, length 0
	0x0000:  0000 0200 0000 0000 0000 0000 0000 0800  ................
	0x0010:  4500 0028 0001 0000 3406 7138 c05f 3da0  E..(....4.q8?_=?
	0x0020:  0a54 0d44 1b39 b940 0000 3039 0000 27ce  .T.D.9?@..09..'?
	0x0030:  5012 2000 8fb5 be04                      P....??.
14:17:10.684107 IP (tos 0x0, ttl 40, id 13731, offset 0, flags [none], proto TCP (6), length 40)
    10.84.13.68.47424 > 192.95.61.160.6969: Flags [.], cksum 0x6de3 (correct), seq 1, ack 1, win 65495, length 0
	0x0000:  0004 0200 0000 0000 0000 0000 0000 0800  ................
	0x0010:  4500 0028 35a3 0000 2806 4796 0a54 0d44  E..(5?..(.G..T.D
	0x0020:  c05f 3da0 b940 1b39 0000 27ce 0000 303a  ?_=??@.9..'?..0:
	0x0030:  5010 ffd7 6de3 0000                      P.??m?..
14:17:10.684866 IP (tos 0x0, ttl 40, id 13732, offset 0, flags [none], proto TCP (6), length 45)
    10.84.13.68.47424 > 192.95.61.160.6969: Flags [P.], cksum 0x8944 (correct), seq 1:6, ack 1, win 65495, length 5
	0x0000:  0004 0200 0000 0000 0000 0000 0000 0800  ................
	0x0010:  4500 002d 35a4 0000 2806 4790 0a54 0d44  E..-5?..(.G..T.D
	0x0020:  c05f 3da0 b940 1b39 0000 27ce 0000 303a  ?_=??@.9..'?..0:
	0x0030:  5118 ffd7 8944 0000 4845 4c4c 4f         Q.??.D..HELLO
14:17:11.331436 IP (tos 0x0, ttl 52, id 1, offset 0, flags [none], proto TCP (6), length 45)
    192.95.61.160.6969 > 10.84.13.68.47424: Flags [.], cksum 0x691f (correct), seq 1:6, ack 6, win 8192, length 5
	0x0000:  0000 0200 0000 0000 0000 0000 0000 0800  ................
	0x0010:  4500 002d 0001 0000 3406 7133 c05f 3da0  E..-....4.q3?_=?
	0x0020:  0a54 0d44 1b39 b940 0000 303a 0000 27d3  .T.D.9?@..0:..'?
	0x0030:  5110 2000 691f 0000 4f4c 4c45 48         Q...i...OLLEH
14:17:11.334863 IP (tos 0x0, ttl 40, id 13734, offset 0, flags [none], proto TCP (6), length 40)
    10.84.13.68.47424 > 192.95.61.160.6969: Flags [.], cksum 0x6cd9 (correct), seq 6, ack 6, win 65495, length 0
	0x0000:  0004 0200 0000 0000 0000 0000 0000 0800  ................
	0x0010:  4500 0028 35a6 0000 2806 4793 0a54 0d44  E..(5?..(.G..T.D
	0x0020:  c05f 3da0 b940 1b39 0000 27d3 0000 303f  ?_=??@.9..'?..0?
	0x0030:  5110 ffd7 6cd9 0000                      Q.??l?..
14:17:11.335400 IP (tos 0x0, ttl 40, id 13735, offset 0, flags [none], proto TCP (6), length 40)
    10.84.13.68.47424 > 192.95.61.160.6969: Flags [F.], cksum 0x6cd8 (correct), seq 6, ack 6, win 65495, length 0
	0x0000:  0004 0200 0000 0000 0000 0000 0000 0800  ................
	0x0010:  4500 0028 35a7 0000 2806 4792 0a54 0d44  E..(5?..(.G..T.D
	0x0020:  c05f 3da0 b940 1b39 0000 27d3 0000 303f  ?_=??@.9..'?..0?
	0x0030:  5111 ffd7 6cd8 0000                      Q.??l?..
14:17:11.951531 IP (tos 0x0, ttl 52, id 1, offset 0, flags [none], proto TCP (6), length 40)
    192.95.61.160.6969 > 10.84.13.68.47424: Flags [F.], cksum 0x4daf (correct), seq 6, ack 7, win 8192, length 0
	0x0000:  0000 0200 0000 0000 0000 0000 0000 0800  ................
	0x0010:  4500 0028 0001 0000 3406 7138 c05f 3da0  E..(....4.q8?_=?
	0x0020:  0a54 0d44 1b39 b940 0000 303f 0000 27d4  .T.D.9?@..0?..'?
	0x0030:  5011 2000 4daf 0000                      P...M?..
14:17:11.954028 IP (tos 0x0, ttl 40, id 13737, offset 0, flags [none], proto TCP (6), length 40)
    10.84.13.68.47424 > 192.95.61.160.6969: Flags [.], cksum 0x7643 (correct), seq 6, ack 4294965148, win 65495, length 0
	0x0000:  0004 0200 0000 0000 0000 0000 0000 0800  ................
	0x0010:  4500 0028 35a9 0000 2806 4790 0a54 0d44  E..(5?..(.G..T.D
	0x0020:  c05f 3da0 b940 1b39 0000 27d3 0000 27d5  ?_=??@.9..'?..'?
	0x0030:  5010 ffd7 7643 0000                      P.??vC..
14:17:12.165047 IP (tos 0x0, ttl 40, id 13738, offset 0, flags [none], proto TCP (6), length 40)
    10.84.13.68.53826 > 192.95.61.160.6969: Flags [S], cksum 0x2421 (correct), seq 35030, win 65495, length 0
	0x0000:  0004 0200 0000 0000 0000 0000 0000 0800  ................
	0x0010:  4500 0028 35aa 0000 2806 478f 0a54 0d44  E..(5?..(.G..T.D
	0x0020:  c05f 3da0 d242 1b39 0000 88d6 0000 0000  ?_=??B.9...?....
	0x0030:  5002 ffd7 2421 0000                      P.??$!..
14:17:12.591637 IP (tos 0x0, ttl 52, id 1, offset 0, flags [none], proto TCP (6), length 40)
    192.95.61.160.6969 > 10.84.13.68.53826: Flags [S.], cksum 0x15aa (correct), seq 12345, ack 35031, win 8192, length 0
	0x0000:  0000 0200 0000 0000 0000 0000 0000 0800  ................
	0x0010:  4500 0028 0001 0000 3406 7138 c05f 3da0  E..(....4.q8?_=?
	0x0020:  0a54 0d44 1b39 d242 0000 3039 0000 88d7  .T.D.9?B..09...?
	0x0030:  5012 2000 15aa be04                      P....??.
14:17:12.594377 IP (tos 0x0, ttl 40, id 13740, offset 0, flags [none], proto TCP (6), length 40)
    10.84.13.68.53826 > 192.95.61.160.6969: Flags [.], cksum 0xf3d7 (correct), seq 1, ack 1, win 65495, length 0
	0x0000:  0004 0200 0000 0000 0000 0000 0000 0800  ................
	0x0010:  4500 0028 35ac 0000 2806 478d 0a54 0d44  E..(5?..(.G..T.D
	0x0020:  c05f 3da0 d242 1b39 0000 88d7 0000 303a  ?_=??B.9...?..0:
	0x0030:  5010 ffd7 f3d7 0000                      P.????..
14:17:12.595170 IP (tos 0x0, ttl 40, id 13741, offset 0, flags [none], proto TCP (6), length 45)
    10.84.13.68.53826 > 192.95.61.160.6969: Flags [P.], cksum 0x0e39 (correct), seq 1:6, ack 1, win 65495, length 5
	0x0000:  0004 0200 0000 0000 0000 0000 0000 0800  ................
	0x0010:  4500 002d 35ad 0000 2806 4787 0a54 0d44  E..-5?..(.G..T.D
	0x0020:  c05f 3da0 d242 1b39 0000 88d7 0000 303a  ?_=??B.9...?..0:
	0x0030:  5218 ffd7 0e39 0000 4845 4c4c 4f         R.??.9..HELLO
14:17:13.231469 IP (tos 0x0, ttl 52, id 1, offset 0, flags [none], proto TCP (6), length 45)
    192.95.61.160.6969 > 10.84.13.68.53826: Flags [.], cksum 0xee13 (correct), seq 1:6, ack 6, win 8192, length 5
	0x0000:  0000 0200 0000 0000 0000 0000 0000 0800  ................
	0x0010:  4500 002d 0001 0000 3406 7133 c05f 3da0  E..-....4.q3?_=?
	0x0020:  0a54 0d44 1b39 d242 0000 303a 0000 88dc  .T.D.9?B..0:...?
	0x0030:  5210 2000 ee13 0000 4f4c 4c45 48         R...?...OLLEH
14:17:13.232821 IP (tos 0x0, ttl 40, id 13743, offset 0, flags [none], proto TCP (6), length 40)
    10.84.13.68.53826 > 192.95.61.160.6969: Flags [.], cksum 0xf1cd (correct), seq 6, ack 6, win 65495, length 0
	0x0000:  0004 0200 0000 0000 0000 0000 0000 0800  ................
	0x0010:  4500 0028 35af 0000 2806 478a 0a54 0d44  E..(5?..(.G..T.D
	0x0020:  c05f 3da0 d242 1b39 0000 88dc 0000 303f  ?_=??B.9...?..0?
	0x0030:  5210 ffd7 f1cd 0000                      R.????..
14:17:13.233047 IP (tos 0x0, ttl 40, id 13744, offset 0, flags [none], proto TCP (6), length 40)
    10.84.13.68.53826 > 192.95.61.160.6969: Flags [F.], cksum 0xf1cc (correct), seq 6, ack 6, win 65495, length 0
	0x0000:  0004 0200 0000 0000 0000 0000 0000 0800  ................
	0x0010:  4500 0028 35b0 0000 2806 4789 0a54 0d44  E..(5?..(.G..T.D
	0x0020:  c05f 3da0 d242 1b39 0000 88dc 0000 303f  ?_=??B.9...?..0?
	0x0030:  5211 ffd7 f1cc 0000                      R.????..
14:17:13.891519 IP (tos 0x0, ttl 52, id 1, offset 0, flags [none], proto TCP (6), length 40)
    192.95.61.160.6969 > 10.84.13.68.53826: Flags [F.], cksum 0xd3a3 (correct), seq 6, ack 7, win 8192, length 0
	0x0000:  0000 0200 0000 0000 0000 0000 0000 0800  ................
	0x0010:  4500 0028 0001 0000 3406 7138 c05f 3da0  E..(....4.q8?_=?
	0x0020:  0a54 0d44 1b39 d242 0000 303f 0000 88dd  .T.D.9?B..0?...?
	0x0030:  5011 2000 d3a3 0000                      P...ӣ..
14:17:13.893411 IP (tos 0x0, ttl 40, id 13746, offset 0, flags [none], proto TCP (6), length 40)
    10.84.13.68.53826 > 192.95.61.160.6969: Flags [.], cksum 0x9b2e (correct), seq 6, ack 22693, win 65495, length 0
	0x0000:  0004 0200 0000 0000 0000 0000 0000 0800  ................
	0x0010:  4500 0028 35b2 0000 2806 4787 0a54 0d44  E..(5?..(.G..T.D
	0x0020:  c05f 3da0 d242 1b39 0000 88dc 0000 88de  ?_=??B.9...?...?
	0x0030:  5010 ffd7 9b2e 0000                      P.??....
14:17:14.107001 IP (tos 0x0, ttl 40, id 13747, offset 0, flags [none], proto TCP (6), length 40)
    10.84.13.68.64606 > 192.95.61.160.6969: Flags [S], cksum 0xc7b3 (correct), seq 47911, win 65495, length 0
	0x0000:  0004 0200 0000 0000 0000 0000 0000 0800  ................
	0x0010:  4500 0028 35b3 0000 2806 4786 0a54 0d44  E..(5?..(.G..T.D
	0x0020:  c05f 3da0 fc5e 1b39 0000 bb27 0000 0000  ?_=??^.9..?'....
	0x0030:  5002 ffd7 c7b3 0000                      P.??ǳ..
14:17:14.721799 IP (tos 0x0, ttl 52, id 1, offset 0, flags [none], proto TCP (6), length 40)
    192.95.61.160.6969 > 10.84.13.68.64606: Flags [S.], cksum 0xb93c (correct), seq 12345, ack 47912, win 8192, length 0
	0x0000:  0000 0200 0000 0000 0000 0000 0000 0800  ................
	0x0010:  4500 0028 0001 0000 3406 7138 c05f 3da0  E..(....4.q8?_=?
	0x0020:  0a54 0d44 1b39 fc5e 0000 3039 0000 bb28  .T.D.9?^..09..?(
	0x0030:  5012 2000 b93c be04                      P...?<?.
14:17:14.724453 IP (tos 0x0, ttl 40, id 13749, offset 0, flags [none], proto TCP (6), length 40)
    10.84.13.68.64606 > 192.95.61.160.6969: Flags [.], cksum 0x976a (correct), seq 1, ack 1, win 65495, length 0
	0x0000:  0004 0200 0000 0000 0000 0000 0000 0800  ................
	0x0010:  4500 0028 35b5 0000 2806 4784 0a54 0d44  E..(5?..(.G..T.D
	0x0020:  c05f 3da0 fc5e 1b39 0000 bb28 0000 303a  ?_=??^.9..?(..0:
	0x0030:  5010 ffd7 976a 0000                      P.??.j..
14:17:14.728351 IP (tos 0x0, ttl 40, id 13750, offset 0, flags [none], proto TCP (6), length 45)
    10.84.13.68.64606 > 192.95.61.160.6969: Flags [P.], cksum 0xafcb (correct), seq 1:6, ack 1, win 65495, length 5
	0x0000:  0004 0200 0000 0000 0000 0000 0000 0800  ................
	0x0010:  4500 002d 35b6 0000 2806 477e 0a54 0d44  E..-5?..(.G~.T.D
	0x0020:  c05f 3da0 fc5e 1b39 0000 bb28 0000 303a  ?_=??^.9..?(..0:
	0x0030:  5418 ffd7 afcb 0000 4845 4c4c 4f         T.?ׯ?..HELLO
14:17:15.361518 IP (tos 0x0, ttl 52, id 1, offset 0, flags [none], proto TCP (6), length 45)
    192.95.61.160.6969 > 10.84.13.68.64606: Flags [.], cksum 0x8fa6 (correct), seq 1:6, ack 6, win 8192, length 5
	0x0000:  0000 0200 0000 0000 0000 0000 0000 0800  ................
	0x0010:  4500 002d 0001 0000 3406 7133 c05f 3da0  E..-....4.q3?_=?
	0x0020:  0a54 0d44 1b39 fc5e 0000 303a 0000 bb2d  .T.D.9?^..0:..?-
	0x0030:  5410 2000 8fa6 0000 4f4c 4c45 48         T....?..OLLEH
14:17:15.364125 IP (tos 0x0, ttl 40, id 13752, offset 0, flags [none], proto TCP (6), length 40)
    10.84.13.68.64606 > 192.95.61.160.6969: Flags [.], cksum 0x9360 (correct), seq 6, ack 6, win 65495, length 0
	0x0000:  0004 0200 0000 0000 0000 0000 0000 0800  ................
	0x0010:  4500 0028 35b8 0000 2806 4781 0a54 0d44  E..(5?..(.G..T.D
	0x0020:  c05f 3da0 fc5e 1b39 0000 bb2d 0000 303f  ?_=??^.9..?-..0?
	0x0030:  5410 ffd7 9360 0000                      T.??.`..
14:17:15.364587 IP (tos 0x0, ttl 40, id 13753, offset 0, flags [none], proto TCP (6), length 40)
    10.84.13.68.64606 > 192.95.61.160.6969: Flags [F.], cksum 0x935f (correct), seq 6, ack 6, win 65495, length 0
	0x0000:  0004 0200 0000 0000 0000 0000 0000 0800  ................
	0x0010:  4500 0028 35b9 0000 2806 4780 0a54 0d44  E..(5?..(.G..T.D
	0x0020:  c05f 3da0 fc5e 1b39 0000 bb2d 0000 303f  ?_=??^.9..?-..0?
	0x0030:  5411 ffd7 935f 0000                      T.??._..
14:17:15.991494 IP (tos 0x0, ttl 52, id 1, offset 0, flags [none], proto TCP (6), length 40)
    192.95.61.160.6969 > 10.84.13.68.64606: Flags [F.], cksum 0x7736 (correct), seq 6, ack 7, win 8192, length 0
	0x0000:  0000 0200 0000 0000 0000 0000 0000 0800  ................
	0x0010:  4500 0028 0001 0000 3406 7138 c05f 3da0  E..(....4.q8?_=?
	0x0020:  0a54 0d44 1b39 fc5e 0000 303f 0000 bb2e  .T.D.9?^..0?..?.
	0x0030:  5011 2000 7736 0000                      P...w6..
14:17:15.994364 IP (tos 0x0, ttl 40, id 13755, offset 0, flags [none], proto TCP (6), length 40)
    10.84.13.68.64606 > 192.95.61.160.6969: Flags [.], cksum 0x0c70 (correct), seq 6, ack 35574, win 65495, length 0
	0x0000:  0004 0200 0000 0000 0000 0000 0000 0800  ................
	0x0010:  4500 0028 35bb 0000 2806 477e 0a54 0d44  E..(5?..(.G~.T.D
	0x0020:  c05f 3da0 fc5e 1b39 0000 bb2d 0000 bb2f  ?_=??^.9..?-..?/
	0x0030:  5010 ffd7 0c70 0000                      P.??.p..
14:17:16.205087 IP (tos 0x0, ttl 40, id 13756, offset 0, flags [none], proto TCP (6), length 40)
    10.84.13.68.49799 > 192.95.61.160.6969: Flags [S], cksum 0xd695 (correct), seq 58908, win 65495, length 0
	0x0000:  0004 0200 0000 0000 0000 0000 0000 0800  ................
	0x0010:  4500 0028 35bc 0000 2806 477d 0a54 0d44  E..(5?..(.G}.T.D
	0x0020:  c05f 3da0 c287 1b39 0000 e61c 0000 0000  ?_=??..9..?.....
	0x0030:  5002 ffd7 d695 0000                      P.???...
14:17:16.751595 IP (tos 0x0, ttl 52, id 1, offset 0, flags [none], proto TCP (6), length 40)
    192.95.61.160.6969 > 10.84.13.68.49799: Flags [S.], cksum 0xc81e (correct), seq 12345, ack 58909, win 8192, length 0
	0x0000:  0000 0200 0000 0000 0000 0000 0000 0800  ................
	0x0010:  4500 0028 0001 0000 3406 7138 c05f 3da0  E..(....4.q8?_=?
	0x0020:  0a54 0d44 1b39 c287 0000 3039 0000 e61d  .T.D.9?...09..?.
	0x0030:  5012 2000 c81e be04                      P...?.?.
14:17:16.754240 IP (tos 0x0, ttl 40, id 13758, offset 0, flags [none], proto TCP (6), length 40)
    10.84.13.68.49799 > 192.95.61.160.6969: Flags [.], cksum 0xa64c (correct), seq 1, ack 1, win 65495, length 0
	0x0000:  0004 0200 0000 0000 0000 0000 0000 0800  ................
	0x0010:  4500 0028 35be 0000 2806 477b 0a54 0d44  E..(5?..(.G{.T.D
	0x0020:  c05f 3da0 c287 1b39 0000 e61d 0000 303a  ?_=??..9..?...0:
	0x0030:  5010 ffd7 a64c 0000                      P.?צL..
14:17:16.755034 IP (tos 0x0, ttl 40, id 13759, offset 0, flags [none], proto TCP (6), length 45)
    10.84.13.68.49799 > 192.95.61.160.6969: Flags [P.], cksum 0xbaad (correct), seq 1:6, ack 1, win 65495, length 5
	0x0000:  0004 0200 0000 0000 0000 0000 0000 0800  ................
	0x0010:  4500 002d 35bf 0000 2806 4775 0a54 0d44  E..-5?..(.Gu.T.D
	0x0020:  c05f 3da0 c287 1b39 0000 e61d 0000 303a  ?_=??..9..?...0:
	0x0030:  5818 ffd7 baad 0000 4845 4c4c 4f         X.?׺?..HELLO
14:17:17.511584 IP (tos 0x0, ttl 52, id 1, offset 0, flags [none], proto TCP (6), length 45)
    192.95.61.160.6969 > 10.84.13.68.49799: Flags [.], cksum 0x9a88 (correct), seq 1:6, ack 6, win 8192, length 5
	0x0000:  0000 0200 0000 0000 0000 0000 0000 0800  ................
	0x0010:  4500 002d 0001 0000 3406 7133 c05f 3da0  E..-....4.q3?_=?
	0x0020:  0a54 0d44 1b39 c287 0000 303a 0000 e622  .T.D.9?...0:..?"
	0x0030:  5810 2000 9a88 0000 4f4c 4c45 48         X.......OLLEH
14:17:17.514271 IP (tos 0x0, ttl 40, id 13761, offset 0, flags [none], proto TCP (6), length 40)
    10.84.13.68.49799 > 192.95.61.160.6969: Flags [.], cksum 0x9e42 (correct), seq 6, ack 6, win 65495, length 0
	0x0000:  0004 0200 0000 0000 0000 0000 0000 0800  ................
	0x0010:  4500 0028 35c1 0000 2806 4778 0a54 0d44  E..(5?..(.Gx.T.D
	0x0020:  c05f 3da0 c287 1b39 0000 e622 0000 303f  ?_=??..9..?"..0?
	0x0030:  5810 ffd7 9e42 0000                      X.??.B..
14:17:17.514726 IP (tos 0x0, ttl 40, id 13762, offset 0, flags [none], proto TCP (6), length 40)
    10.84.13.68.49799 > 192.95.61.160.6969: Flags [F.], cksum 0x9e41 (correct), seq 6, ack 6, win 65495, length 0
	0x0000:  0004 0200 0000 0000 0000 0000 0000 0800  ................
	0x0010:  4500 0028 35c2 0000 2806 4777 0a54 0d44  E..(5?..(.Gw.T.D
	0x0020:  c05f 3da0 c287 1b39 0000 e622 0000 303f  ?_=??..9..?"..0?
	0x0030:  5811 ffd7 9e41 0000                      X.??.A..
14:17:18.181688 IP (tos 0x0, ttl 52, id 1, offset 0, flags [none], proto TCP (6), length 40)
    192.95.61.160.6969 > 10.84.13.68.49799: Flags [F.], cksum 0x8618 (correct), seq 6, ack 7, win 8192, length 0
	0x0000:  0000 0200 0000 0000 0000 0000 0000 0800  ................
	0x0010:  4500 0028 0001 0000 3406 7138 c05f 3da0  E..(....4.q8?_=?
	0x0020:  0a54 0d44 1b39 c287 0000 303f 0000 e623  .T.D.9?...0?..?#
	0x0030:  5011 2000 8618 0000                      P.......
14:17:18.184259 IP (tos 0x0, ttl 40, id 13764, offset 0, flags [none], proto TCP (6), length 40)
    10.84.13.68.49799 > 192.95.61.160.6969: Flags [.], cksum 0xf05c (correct), seq 6, ack 46571, win 65495, length 0
	0x0000:  0004 0200 0000 0000 0000 0000 0000 0800  ................
	0x0010:  4500 0028 35c4 0000 2806 4775 0a54 0d44  E..(5?..(.Gu.T.D
	0x0020:  c05f 3da0 c287 1b39 0000 e622 0000 e624  ?_=??..9..?"..?$
	0x0030:  5010 ffd7 f05c 0000                      P.???\..
14:17:18.397123 IP (tos 0x0, ttl 40, id 13765, offset 0, flags [none], proto TCP (6), length 40)
    10.84.13.68.34218 > 192.95.61.160.6969: Flags [S], cksum 0x0e52 (correct), seq 11329, win 65495, length 0
	0x0000:  0004 0200 0000 0000 0000 0000 0000 0800  ................
	0x0010:  4500 0028 35c5 0000 2806 4774 0a54 0d44  E..(5?..(.Gt.T.D
	0x0020:  c05f 3da0 85aa 1b39 0000 2c41 beef 000d  ?_=?.?.9..,A??..
	0x0030:  5002 ffd7 0e52 0000                      P.??.R..
14:17:19.151555 IP (tos 0x0, ttl 52, id 1, offset 0, flags [none], proto TCP (6), length 40)
    192.95.61.160.6969 > 10.84.13.68.34218: Flags [S.], cksum 0xc530 (incorrect -> 0x7cdc), seq 12345, ack 11330, win 8192, length 0
	0x0000:  0000 0200 0000 0000 0000 0000 0000 0800  ................
	0x0010:  4500 0028 0001 0000 3406 7138 c05f 3da0  E..(....4.q8?_=?
	0x0020:  0a54 0d44 1b39 85aa 0000 3039 0000 2c42  .T.D.9.?..09..,B
	0x0030:  5012 2000 c530 0000                      P...?0..
14:17:19.155237 IP (tos 0x0, ttl 40, id 13766, offset 0, flags [none], proto TCP (6), length 40)
    10.84.13.68.34218 > 192.95.61.160.6969: Flags [.], cksum 0x9d05 (correct), seq 1, ack 1, win 65495, length 0
	0x0000:  0004 0200 0000 0000 0000 0000 0000 0800  ................
	0x0010:  4500 0028 35c6 0000 2806 4773 0a54 0d44  E..(5?..(.Gs.T.D
	0x0020:  c05f 3da0 85aa 1b39 0000 2c42 0000 303a  ?_=?.?.9..,B..0:
	0x0030:  5010 ffd7 9d05 0000                      P.??....
14:17:19.156101 IP (tos 0x0, ttl 40, id 13767, offset 0, flags [none], proto TCP (6), length 45)
    10.84.13.68.34218 > 192.95.61.160.6969: Flags [P.], cksum 0xb966 (correct), seq 1:6, ack 1, win 65495, length 5
	0x0000:  0004 0200 0000 0000 0000 0000 0000 0800  ................
	0x0010:  4500 002d 35c7 0000 2806 476d 0a54 0d44  E..-5?..(.Gm.T.D
	0x0020:  c05f 3da0 85aa 1b39 0000 2c42 0000 303a  ?_=?.?.9..,B..0:
	0x0030:  5018 ffd7 b966 0000 4845 4c4c 4f         P.?׹f..HELLO
14:17:19.771668 IP (tos 0x0, ttl 52, id 1, offset 0, flags [none], proto TCP (6), length 45)
    192.95.61.160.6969 > 10.84.13.68.34218: Flags [.], cksum 0x9941 (correct), seq 1:6, ack 6, win 8192, length 5
	0x0000:  0000 0200 0000 0000 0000 0000 0000 0800  ................
	0x0010:  4500 002d 0001 0000 3406 7133 c05f 3da0  E..-....4.q3?_=?
	0x0020:  0a54 0d44 1b39 85aa 0000 303a 0000 2c47  .T.D.9.?..0:..,G
	0x0030:  5010 2000 9941 0000 4f4c 4c45 48         P....A..OLLEH
14:17:19.774234 IP (tos 0x0, ttl 40, id 13769, offset 0, flags [none], proto TCP (6), length 40)
    10.84.13.68.34218 > 192.95.61.160.6969: Flags [.], cksum 0x9cfb (correct), seq 6, ack 6, win 65495, length 0
	0x0000:  0004 0200 0000 0000 0000 0000 0000 0800  ................
	0x0010:  4500 0028 35c9 0000 2806 4770 0a54 0d44  E..(5?..(.Gp.T.D
	0x0020:  c05f 3da0 85aa 1b39 0000 2c47 0000 303f  ?_=?.?.9..,G..0?
	0x0030:  5010 ffd7 9cfb 0000                      P.??.?..
14:17:19.774684 IP (tos 0x0, ttl 40, id 13770, offset 0, flags [none], proto TCP (6), length 40)
    10.84.13.68.34218 > 192.95.61.160.6969: Flags [F.], cksum 0x9cfa (correct), seq 6, ack 6, win 65495, length 0
	0x0000:  0004 0200 0000 0000 0000 0000 0000 0800  ................
	0x0010:  4500 0028 35ca 0000 2806 476f 0a54 0d44  E..(5?..(.Go.T.D
	0x0020:  c05f 3da0 85aa 1b39 0000 2c47 0000 303f  ?_=?.?.9..,G..0?
	0x0030:  5011 ffd7 9cfa 0000                      P.??.?..
14:17:20.471480 IP (tos 0x0, ttl 52, id 1, offset 0, flags [none], proto TCP (6), length 40)
    192.95.61.160.6969 > 10.84.13.68.34218: Flags [F.], cksum 0x7cd1 (correct), seq 6, ack 7, win 8192, length 0
	0x0000:  0000 0200 0000 0000 0000 0000 0000 0800  ................
	0x0010:  4500 0028 0001 0000 3406 7138 c05f 3da0  E..(....4.q8?_=?
	0x0020:  0a54 0d44 1b39 85aa 0000 303f 0000 2c48  .T.D.9.?..0?..,H
	0x0030:  5011 2000 7cd1 0000                      P...|?..
14:17:20.473987 IP (tos 0x0, ttl 40, id 13772, offset 0, flags [none], proto TCP (6), length 40)
    10.84.13.68.34218 > 192.95.61.160.6969: Flags [.], cksum 0xa0f1 (correct), seq 6, ack 4294966288, win 65495, length 0
	0x0000:  0004 0200 0000 0000 0000 0000 0000 0800  ................
	0x0010:  4500 0028 35cc 0000 2806 476d 0a54 0d44  E..(5?..(.Gm.T.D
	0x0020:  c05f 3da0 85aa 1b39 0000 2c47 0000 2c49  ?_=?.?.9..,G..,I
	0x0030:  5010 ffd7 a0f1 0000                      P.?נ?..

