09:16:45.402743 IP (tos 0x0, ttl 25, id 13621, offset 0, flags [none], proto TCP (6), length 40)
    85.255.235.243.2376 > 192.95.61.160.6969: Flags [S], cksum 0xfe54 (correct), seq 36433, win 65495, length 0
	0x0000:  0200 00d2 bf75 6c9c edba ec40 0800 4500  .....ul....@..E.
	0x0010:  0028 3535 0000 1906 2ca9 55ff ebf3 c05f  .(55....,.U...._
	0x0020:  3da0 0948 1b39 0000 8e51 beef 0001 5002  =..H.9...Q....P.
	0x0030:  ffd7 fe54 0000 0000 0000 0000            ...T........
09:16:45.479595 IP (tos 0x0, ttl 64, id 1, offset 0, flags [none], proto TCP (6), length 40)
    192.95.61.160.6969 > 85.255.235.243.2376: Flags [S.], cksum 0x6cd3 (correct), seq 12345, ack 36434, win 8192, length 0
	0x0000:  0007 b400 0102 0200 00d2 bf75 0800 4500  ...........u..E.
	0x0010:  0028 0001 0000 4006 3add c05f 3da0 55ff  .(....@.:.._=.U.
	0x0020:  ebf3 1b39 0948 0000 3039 0000 8e52 5012  ...9.H..09...RP.
	0x0030:  2000 6cd3 0000                           ..l...
09:16:45.892883 IP (tos 0x0, ttl 25, id 13623, offset 0, flags [none], proto TCP (6), length 40)
    85.255.235.243.2376 > 192.95.61.160.6969: Flags [.], cksum 0x8cfc (correct), seq 1, ack 1, win 65495, length 0
	0x0000:  0200 00d2 bf75 6c9c edba ec40 0800 4500  .....ul....@..E.
	0x0010:  0028 3537 0000 1906 2ca7 55ff ebf3 c05f  .(57....,.U...._
	0x0020:  3da0 0948 1b39 0000 8e52 0000 303a 5010  =..H.9...R..0:P.
	0x0030:  ffd7 8cfc 0000 0000 0000 0000            ............
09:16:45.965081 IP (tos 0x0, ttl 25, id 13624, offset 0, flags [none], proto TCP (6), length 45)
    85.255.235.243.2376 > 192.95.61.160.6969: Flags [P.], cksum 0xa95d (correct), seq 1:6, ack 1, win 65495, length 5
	0x0000:  0200 00d2 bf75 6c9c edba ec40 0800 4500  .....ul....@..E.
	0x0010:  002d 3538 0000 1906 2ca1 55ff ebf3 c05f  .-58....,.U...._
	0x0020:  3da0 0948 1b39 0000 8e52 0000 303a 5018  =..H.9...R..0:P.
	0x0030:  ffd7 a95d 0000 4845 4c4c 4f00            ...]..HELLO.
09:16:45.971310 IP (tos 0x0, ttl 64, id 1, offset 0, flags [none], proto TCP (6), length 44)
    192.95.61.160.6969 > 85.255.235.243.2376: Flags [.], cksum 0xadda (correct), seq 1:5, ack 6, win 8192, length 4
	0x0000:  0007 b400 0102 0200 00d2 bf75 0800 4500  ...........u..E.
	0x0010:  002c 0001 0000 4006 3ad9 c05f 3da0 55ff  .,....@.:.._=.U.
	0x0020:  ebf3 1b39 0948 0000 303a 0000 8e57 5010  ...9.H..0:...WP.
	0x0030:  2000 adda 0000 beef 0001                 ..........
09:16:46.402298 IP (tos 0x0, ttl 25, id 13626, offset 0, flags [none], proto TCP (6), length 40)
    85.255.235.243.2376 > 192.95.61.160.6969: Flags [.], cksum 0x8cf3 (correct), seq 6, ack 5, win 65495, length 0
	0x0000:  0200 00d2 bf75 6c9c edba ec40 0800 4500  .....ul....@..E.
	0x0010:  0028 353a 0000 1906 2ca4 55ff ebf3 c05f  .(5:....,.U...._
	0x0020:  3da0 0948 1b39 0000 8e57 0000 303e 5010  =..H.9...W..0>P.
	0x0030:  ffd7 8cf3 0000 0000 0000 0000            ............
09:16:46.472635 IP (tos 0x0, ttl 25, id 13627, offset 0, flags [none], proto TCP (6), length 40)
    85.255.235.243.2376 > 192.95.61.160.6969: Flags [F.], cksum 0x8cf2 (correct), seq 6, ack 5, win 65495, length 0
	0x0000:  0200 00d2 bf75 6c9c edba ec40 0800 4500  .....ul....@..E.
	0x0010:  0028 353b 0000 1906 2ca3 55ff ebf3 c05f  .(5;....,.U...._
	0x0020:  3da0 0948 1b39 0000 8e57 0000 303e 5011  =..H.9...W..0>P.
	0x0030:  ffd7 8cf2 0000 0000 0000 0000            ............
09:16:46.477398 IP (tos 0x0, ttl 64, id 1, offset 0, flags [none], proto TCP (6), length 40)
    192.95.61.160.6969 > 85.255.235.243.2376: Flags [F.], cksum 0x6cc9 (correct), seq 5, ack 7, win 8192, length 0
	0x0000:  0007 b400 0102 0200 00d2 bf75 0800 4500  ...........u..E.
	0x0010:  0028 0001 0000 4006 3add c05f 3da0 55ff  .(....@.:.._=.U.
	0x0020:  ebf3 1b39 0948 0000 303e 0000 8e58 5011  ...9.H..0>...XP.
	0x0030:  2000 6cc9 0000                           ..l...
09:16:46.893135 IP (tos 0x0, ttl 25, id 13629, offset 0, flags [none], proto TCP (6), length 40)
    85.255.235.243.2376 > 192.95.61.160.6969: Flags [.], cksum 0x2ed8 (correct), seq 6, ack 24096, win 65495, length 0
	0x0000:  0200 00d2 bf75 6c9c edba ec40 0800 4500  .....ul....@..E.
	0x0010:  0028 353d 0000 1906 2ca1 55ff ebf3 c05f  .(5=....,.U...._
	0x0020:  3da0 0948 1b39 0000 8e57 0000 8e59 5010  =..H.9...W...YP.
	0x0030:  ffd7 2ed8 0000 0000 0000 0000            ............
09:16:47.035567 IP (tos 0x0, ttl 25, id 13630, offset 0, flags [none], proto TCP (6), length 40)
    85.255.235.243.61806 > 192.95.61.160.6969: Flags [S], cksum 0x338d (correct), seq 29152, win 65495, length 0
	0x0000:  0200 00d2 bf75 6c9c edba ec40 0800 4500  .....ul....@..E.
	0x0010:  0028 353e 0000 1906 2ca0 55ff ebf3 c05f  .(5>....,.U...._
	0x0020:  3da0 f16e 1b39 0000 71e0 0000 0000 5002  =..n.9..q.....P.
	0x0030:  ffd7 338d be02 0000 0000 0000            ..3.........
09:16:47.040448 IP (tos 0x0, ttl 64, id 1, offset 0, flags [none], proto TCP (6), length 40)
    192.95.61.160.6969 > 85.255.235.243.61806: Flags [S.], cksum 0xa11d (correct), seq 12345, ack 29153, win 8192, length 0
	0x0000:  0007 b400 0102 0200 00d2 bf75 0800 4500  ...........u..E.
	0x0010:  0028 0001 0000 4006 3add c05f 3da0 55ff  .(....@.:.._=.U.
	0x0020:  ebf3 1b39 f16e 0000 3039 0000 71e1 5012  ...9.n..09..q.P.
	0x0030:  2000 a11d 0000                           ......
09:16:47.466502 IP (tos 0x0, ttl 25, id 13632, offset 0, flags [none], proto TCP (6), length 40)
    85.255.235.243.61806 > 192.95.61.160.6969: Flags [.], cksum 0xc146 (correct), seq 1, ack 1, win 65495, length 0
	0x0000:  0200 00d2 bf75 6c9c edba ec40 0800 4500  .....ul....@..E.
	0x0010:  0028 3540 0000 1906 2c9e 55ff ebf3 c05f  .(5@....,.U...._
	0x0020:  3da0 f16e 1b39 0000 71e1 0000 303a 5010  =..n.9..q...0:P.
	0x0030:  ffd7 c146 0000 0000 0000 0000            ...F........
09:16:47.544971 IP (tos 0x0, ttl 25, id 13633, offset 0, flags [none], proto TCP (6), length 45)
    85.255.235.243.61806 > 192.95.61.160.6969: Flags [P.], cksum 0xdda7 (correct), seq 1:6, ack 1, win 65495, length 5
	0x0000:  0200 00d2 bf75 6c9c edba ec40 0800 4500  .....ul....@..E.
	0x0010:  002d 3541 0000 1906 2c98 55ff ebf3 c05f  .-5A....,.U...._
	0x0020:  3da0 f16e 1b39 0000 71e1 0000 303a 5018  =..n.9..q...0:P.
	0x0030:  ffd7 dda7 0000 4845 4c4c 4f00            ......HELLO.
09:16:47.551180 IP (tos 0x0, ttl 64, id 1, offset 0, flags [none], proto TCP (6), length 42)
    192.95.61.160.6969 > 85.255.235.243.61806: Flags [.], cksum 0xe314 (correct), seq 1:3, ack 6, win 8192, length 2
	0x0000:  0007 b400 0102 0200 00d2 bf75 0800 4500  ...........u..E.
	0x0010:  002a 0001 0000 4006 3adb c05f 3da0 55ff  .*....@.:.._=.U.
	0x0020:  ebf3 1b39 f16e 0000 303a 0000 71e6 5010  ...9.n..0:..q.P.
	0x0030:  2000 e314 0000 be02                      ........
09:16:47.963520 IP (tos 0x0, ttl 25, id 13635, offset 0, flags [none], proto TCP (6), length 40)
    85.255.235.243.61806 > 192.95.61.160.6969: Flags [.], cksum 0xc13f (correct), seq 6, ack 3, win 65495, length 0
	0x0000:  0200 00d2 bf75 6c9c edba ec40 0800 4500  .....ul....@..E.
	0x0010:  0028 3543 0000 1906 2c9b 55ff ebf3 c05f  .(5C....,.U...._
	0x0020:  3da0 f16e 1b39 0000 71e6 0000 303c 5010  =..n.9..q...0<P.
	0x0030:  ffd7 c13f 0000 0000 0000 0000            ...?........
09:16:48.033037 IP (tos 0x0, ttl 25, id 13636, offset 0, flags [none], proto TCP (6), length 40)
    85.255.235.243.61806 > 192.95.61.160.6969: Flags [F.], cksum 0xc13e (correct), seq 6, ack 3, win 65495, length 0
	0x0000:  0200 00d2 bf75 6c9c edba ec40 0800 4500  .....ul....@..E.
	0x0010:  0028 3544 0000 1906 2c9a 55ff ebf3 c05f  .(5D....,.U...._
	0x0020:  3da0 f16e 1b39 0000 71e6 0000 303c 5011  =..n.9..q...0<P.
	0x0030:  ffd7 c13e 0000 0000 0000 0000            ...>........
09:16:48.037785 IP (tos 0x0, ttl 64, id 1, offset 0, flags [none], proto TCP (6), length 40)
    192.95.61.160.6969 > 85.255.235.243.61806: Flags [F.], cksum 0xa115 (correct), seq 3, ack 7, win 8192, length 0
	0x0000:  0007 b400 0102 0200 00d2 bf75 0800 4500  ...........u..E.
	0x0010:  0028 0001 0000 4006 3add c05f 3da0 55ff  .(....@.:.._=.U.
	0x0020:  ebf3 1b39 f16e 0000 303c 0000 71e7 5011  ...9.n..0<..q.P.
	0x0030:  2000 a115 0000                           ......
09:16:48.436822 IP (tos 0x0, ttl 25, id 13638, offset 0, flags [none], proto TCP (6), length 40)
    85.255.235.243.61806 > 192.95.61.160.6969: Flags [.], cksum 0x7f93 (correct), seq 6, ack 16815, win 65495, length 0
	0x0000:  0200 00d2 bf75 6c9c edba ec40 0800 4500  .....ul....@..E.
	0x0010:  0028 3546 0000 1906 2c98 55ff ebf3 c05f  .(5F....,.U...._
	0x0020:  3da0 f16e 1b39 0000 71e6 0000 71e8 5010  =..n.9..q...q.P.
	0x0030:  ffd7 7f93 0000 0000 0000 0000            ............
09:16:48.613594 IP (tos 0x0, ttl 25, id 13639, offset 0, flags [none], proto TCP (6), length 40)
    85.255.235.243.44450 > 192.95.61.160.6969: Flags [S], cksum 0x9d0c (correct), seq 19261, win 65495, length 0
	0x0000:  0200 00d2 bf75 6c9c edba ec40 0800 4500  .....ul....@..E.
	0x0010:  0028 3547 0000 1906 2c97 55ff ebf3 c05f  .(5G....,.U...._
	0x0020:  3da0 ada2 1b39 0000 4b3d beef 0003 5002  =....9..K=....P.
	0x0030:  ffd7 9d0c 0000 0000 0000 0000            ............
09:16:48.618497 IP (tos 0x0, ttl 64, id 1, offset 0, flags [none], proto TCP (6), length 40)
    192.95.61.160.6969 > 85.255.235.243.44450: Flags [S.], cksum 0x4d89 (correct), seq 12345, ack 19262, win 8192, length 0
	0x0000:  0007 b400 0102 0200 00d2 bf75 0800 4500  ...........u..E.
	0x0010:  0028 0001 0000 4006 3add c05f 3da0 55ff  .(....@.:.._=.U.
	0x0020:  ebf3 1b39 ada2 0000 3039 0000 4b3e 5012  ...9....09..K>P.
	0x0030:  2000 4d89 be03                           ..M...
09:16:49.015693 IP (tos 0x0, ttl 25, id 13641, offset 0, flags [none], proto TCP (6), length 40)
    85.255.235.243.44450 > 192.95.61.160.6969: Flags [.], cksum 0x2bb6 (correct), seq 1, ack 1, win 65495, length 0
	0x0000:  0200 00d2 bf75 6c9c edba ec40 0800 4500  .....ul....@..E.
	0x0010:  0028 3549 0000 1906 2c95 55ff ebf3 c05f  .(5I....,.U...._
	0x0020:  3da0 ada2 1b39 0000 4b3e 0000 303a 5010  =....9..K>..0:P.
	0x0030:  ffd7 2bb6 0000 0000 0000 0000            ..+.........
09:16:49.092228 IP (tos 0x0, ttl 25, id 13642, offset 0, flags [none], proto TCP (6), length 45)
    85.255.235.243.44450 > 192.95.61.160.6969: Flags [P.], cksum 0x4817 (correct), seq 1:6, ack 1, win 65495, length 5
	0x0000:  0200 00d2 bf75 6c9c edba ec40 0800 4500  .....ul....@..E.
	0x0010:  002d 354a 0000 1906 2c8f 55ff ebf3 c05f  .-5J....,.U...._
	0x0020:  3da0 ada2 1b39 0000 4b3e 0000 303a 5018  =....9..K>..0:P.
	0x0030:  ffd7 4817 0000 4845 4c4c 4f00            ..H...HELLO.
09:16:49.098062 IP (tos 0x0, ttl 64, id 1, offset 0, flags [none], proto TCP (6), length 45)
    192.95.61.160.6969 > 85.255.235.243.44450: Flags [.], cksum 0x27f2 (correct), seq 1:6, ack 6, win 8192, length 5
	0x0000:  0007 b400 0102 0200 00d2 bf75 0800 4500  ...........u..E.
	0x0010:  002d 0001 0000 4006 3ad8 c05f 3da0 55ff  .-....@.:.._=.U.
	0x0020:  ebf3 1b39 ada2 0000 303a 0000 4b43 5010  ...9....0:..KCP.
	0x0030:  2000 27f2 0000 4f4c 4c45 48              ..'...OLLEH
09:16:49.507337 IP (tos 0x0, ttl 25, id 13644, offset 0, flags [none], proto TCP (6), length 40)
    85.255.235.243.44450 > 192.95.61.160.6969: Flags [.], cksum 0x2bac (correct), seq 6, ack 6, win 65495, length 0
	0x0000:  0200 00d2 bf75 6c9c edba ec40 0800 4500  .....ul....@..E.
	0x0010:  0028 354c 0000 1906 2c92 55ff ebf3 c05f  .(5L....,.U...._
	0x0020:  3da0 ada2 1b39 0000 4b43 0000 303f 5010  =....9..KC..0?P.
	0x0030:  ffd7 2bac 0000 0000 0000 0000            ..+.........
09:16:49.585265 IP (tos 0x0, ttl 25, id 13645, offset 0, flags [none], proto TCP (6), length 40)
    85.255.235.243.44450 > 192.95.61.160.6969: Flags [F.], cksum 0x2bab (correct), seq 6, ack 6, win 65495, length 0
	0x0000:  0200 00d2 bf75 6c9c edba ec40 0800 4500  .....ul....@..E.
	0x0010:  0028 354d 0000 1906 2c91 55ff ebf3 c05f  .(5M....,.U...._
	0x0020:  3da0 ada2 1b39 0000 4b43 0000 303f 5011  =....9..KC..0?P.
	0x0030:  ffd7 2bab 0000 0000 0000 0000            ..+.........
09:16:49.590459 IP (tos 0x0, ttl 64, id 1, offset 0, flags [none], proto TCP (6), length 40)
    192.95.61.160.6969 > 85.255.235.243.44450: Flags [F.], cksum 0x0b82 (correct), seq 6, ack 7, win 8192, length 0
	0x0000:  0007 b400 0102 0200 00d2 bf75 0800 4500  ...........u..E.
	0x0010:  0028 0001 0000 4006 3add c05f 3da0 55ff  .(....@.:.._=.U.
	0x0020:  ebf3 1b39 ada2 0000 303f 0000 4b44 5011  ...9....0?..KDP.
	0x0030:  2000 0b82 0000                           ......
09:16:49.992563 IP (tos 0x0, ttl 25, id 13647, offset 0, flags [none], proto TCP (6), length 40)
    85.255.235.243.44450 > 192.95.61.160.6969: Flags [.], cksum 0x10a6 (correct), seq 6, ack 6924, win 65495, length 0
	0x0000:  0200 00d2 bf75 6c9c edba ec40 0800 4500  .....ul....@..E.
	0x0010:  0028 354f 0000 1906 2c8f 55ff ebf3 c05f  .(5O....,.U...._
	0x0020:  3da0 ada2 1b39 0000 4b43 0000 4b45 5010  =....9..KC..KEP.
	0x0030:  ffd7 10a6 0000 0000 0000 0000            ............
09:16:50.144781 IP (tos 0x0, ttl 25, id 13648, offset 0, flags [none], proto TCP (6), length 40)
    85.255.235.243.29243 > 192.95.61.160.6969: Flags [S], cksum 0x041b (correct), seq 56968, win 65495, length 0
	0x0000:  0200 00d2 bf75 6c9c edba ec40 0800 4500  .....ul....@..E.
	0x0010:  0028 3550 0000 1906 2c8e 55ff ebf3 c05f  .(5P....,.U...._
	0x0020:  3da0 723b 1b39 0000 de88 0000 0000 5002  =.r;.9........P.
	0x0030:  ffd7 041b 0000 0000 0000 0000            ............
09:16:50.150040 IP (tos 0x0, ttl 64, id 1, offset 0, flags [none], proto TCP (6), length 40)
    192.95.61.160.6969 > 85.255.235.243.29243: Flags [S.], cksum 0xf5a3 (correct), seq 12345, ack 56969, win 8192, length 0
	0x0000:  0007 b400 0102 0200 00d2 bf75 0800 4500  ...........u..E.
	0x0010:  0028 0001 0000 4006 3add c05f 3da0 55ff  .(....@.:.._=.U.
	0x0020:  ebf3 1b39 723b 0000 3039 0000 de89 5012  ...9r;..09....P.
	0x0030:  2000 f5a3 be04                           ......
09:16:50.561924 IP (tos 0x0, ttl 25, id 13650, offset 0, flags [none], proto TCP (6), length 40)
    85.255.235.243.29243 > 192.95.61.160.6969: Flags [.], cksum 0xd3d1 (correct), seq 1, ack 1, win 65495, length 0
	0x0000:  0200 00d2 bf75 6c9c edba ec40 0800 4500  .....ul....@..E.
	0x0010:  0028 3552 0000 1906 2c8c 55ff ebf3 c05f  .(5R....,.U...._
	0x0020:  3da0 723b 1b39 0000 de89 0000 303a 5010  =.r;.9......0:P.
	0x0030:  ffd7 d3d1 0000 0000 0000 0000            ............
09:16:50.630414 IP (tos 0x0, ttl 25, id 13651, offset 0, flags [none], proto TCP (6), length 45)
    85.255.235.243.29243 > 192.95.61.160.6969: Flags [P.], cksum 0xf032 (correct), seq 1:6, ack 1, win 65495, length 5
	0x0000:  0200 00d2 bf75 6c9c edba ec40 0800 4500  .....ul....@..E.
	0x0010:  002d 3553 0000 1906 2c86 55ff ebf3 c05f  .-5S....,.U...._
	0x0020:  3da0 723b 1b39 0000 de89 0000 303a 5018  =.r;.9......0:P.
	0x0030:  ffd7 f032 0000 4845 4c4c 4f00            ...2..HELLO.
09:16:50.636147 IP (tos 0x0, ttl 64, id 1, offset 0, flags [none], proto TCP (6), length 45)
    192.95.61.160.6969 > 85.255.235.243.29243: Flags [.], cksum 0xd00d (correct), seq 1:6, ack 6, win 8192, length 5
	0x0000:  0007 b400 0102 0200 00d2 bf75 0800 4500  ...........u..E.
	0x0010:  002d 0001 0000 4006 3ad8 c05f 3da0 55ff  .-....@.:.._=.U.
	0x0020:  ebf3 1b39 723b 0000 303a 0000 de8e 5010  ...9r;..0:....P.
	0x0030:  2000 d00d 0000 4f4c 4c45 48              ......OLLEH
09:16:51.043897 IP (tos 0x0, ttl 25, id 13653, offset 0, flags [none], proto TCP (6), length 40)
    85.255.235.243.29243 > 192.95.61.160.6969: Flags [.], cksum 0xd3c7 (correct), seq 6, ack 6, win 65495, length 0
	0x0000:  0200 00d2 bf75 6c9c edba ec40 0800 4500  .....ul....@..E.
	0x0010:  0028 3555 0000 1906 2c89 55ff ebf3 c05f  .(5U....,.U...._
	0x0020:  3da0 723b 1b39 0000 de8e 0000 303f 5010  =.r;.9......0?P.
	0x0030:  ffd7 d3c7 0000 0000 0000 0000            ............
09:16:51.116907 IP (tos 0x0, ttl 25, id 13654, offset 0, flags [none], proto TCP (6), length 40)
    85.255.235.243.29243 > 192.95.61.160.6969: Flags [F.], cksum 0xd3c6 (correct), seq 6, ack 6, win 65495, length 0
	0x0000:  0200 00d2 bf75 6c9c edba ec40 0800 4500  .....ul....@..E.
	0x0010:  0028 3556 0000 1906 2c88 55ff ebf3 c05f  .(5V....,.U...._
	0x0020:  3da0 723b 1b39 0000 de8e 0000 303f 5011  =.r;.9......0?P.
	0x0030:  ffd7 d3c6 0000 0000 0000 0000            ............
09:16:51.121628 IP (tos 0x0, ttl 64, id 1, offset 0, flags [none], proto TCP (6), length 40)
    192.95.61.160.6969 > 85.255.235.243.29243: Flags [F.], cksum 0xb39d (correct), seq 6, ack 7, win 8192, length 0
	0x0000:  0007 b400 0102 0200 00d2 bf75 0800 4500  ...........u..E.
	0x0010:  0028 0001 0000 4006 3add c05f 3da0 55ff  .(....@.:.._=.U.
	0x0020:  ebf3 1b39 723b 0000 303f 0000 de8f 5011  ...9r;..0?....P.
	0x0030:  2000 b39d 0000                           ......
09:16:51.577982 IP (tos 0x0, ttl 25, id 13656, offset 0, flags [none], proto TCP (6), length 40)
    85.255.235.243.29243 > 192.95.61.160.6969: Flags [.], cksum 0x2576 (correct), seq 6, ack 44631, win 65495, length 0
	0x0000:  0200 00d2 bf75 6c9c edba ec40 0800 4500  .....ul....@..E.
	0x0010:  0028 3558 0000 1906 2c86 55ff ebf3 c05f  .(5X....,.U...._
	0x0020:  3da0 723b 1b39 0000 de8e 0000 de90 5010  =.r;.9........P.
	0x0030:  ffd7 2576 0000 0000 0000 0000            ..%v........
09:16:51.763238 IP (tos 0x0, ttl 25, id 13657, offset 0, flags [none], proto TCP (6), length 40)
    85.255.235.243.50028 > 192.95.61.160.6969: Flags [S], cksum 0xbcf5 (correct), seq 5512, win 65495, length 0
	0x0000:  0200 00d2 bf75 6c9c edba ec40 0800 4500  .....ul....@..E.
	0x0010:  0028 3559 0000 1906 2c85 55ff ebf3 c05f  .(5Y....,.U...._
	0x0020:  3da0 c36c 1b39 0000 1588 beef 0005 5002  =..l.9........P.
	0x0030:  ffd7 bcf5 0000 0000 0000 0000            ............
09:16:51.768717 IP (tos 0x0, ttl 64, id 1, offset 0, flags [none], proto TCP (6), length 40)
    192.95.61.160.6969 > 85.255.235.243.50028: Flags [S.], cksum 0xb98f (incorrect -> 0x2b78), seq 12345, ack 5513, win 8192, length 0
	0x0000:  0007 b400 0102 0200 00d2 bf75 0800 4500  ...........u..E.
	0x0010:  0028 0001 0000 4006 3add c05f 3da0 55ff  .(....@.:.._=.U.
	0x0020:  ebf3 1b39 c36c 0000 3039 0000 1589 5012  ...9.l..09....P.
	0x0030:  2000 b98f 0000                           ......
09:16:52.279591 IP (tos 0x0, ttl 25, id 13658, offset 0, flags [none], proto TCP (6), length 40)
    85.255.235.243.50028 > 192.95.61.160.6969: Flags [.], cksum 0x4ba1 (correct), seq 1, ack 1, win 65495, length 0
	0x0000:  0200 00d2 bf75 6c9c edba ec40 0800 4500  .....ul....@..E.
	0x0010:  0028 355a 0000 1906 2c84 55ff ebf3 c05f  .(5Z....,.U...._
	0x0020:  3da0 c36c 1b39 0000 1589 0000 303a 5010  =..l.9......0:P.
	0x0030:  ffd7 4ba1 0000 0000 0000 0000            ..K.........
09:16:52.386572 IP (tos 0x0, ttl 25, id 13659, offset 0, flags [none], proto TCP (6), length 45)
    85.255.235.243.50028 > 192.95.61.160.6969: Flags [P.], cksum 0x6802 (correct), seq 1:6, ack 1, win 65495, length 5
	0x0000:  0200 00d2 bf75 6c9c edba ec40 0800 4500  .....ul....@..E.
	0x0010:  002d 355b 0000 1906 2c7e 55ff ebf3 c05f  .-5[....,~U...._
	0x0020:  3da0 c36c 1b39 0000 1589 0000 303a 5018  =..l.9......0:P.
	0x0030:  ffd7 6802 0000 4845 4c4c 4f00            ..h...HELLO.
09:16:52.392177 IP (tos 0x0, ttl 64, id 1, offset 0, flags [none], proto TCP (6), length 45)
    192.95.61.160.6969 > 85.255.235.243.50028: Flags [.], cksum 0x47dd (correct), seq 1:6, ack 6, win 8192, length 5
	0x0000:  0007 b400 0102 0200 00d2 bf75 0800 4500  ...........u..E.
	0x0010:  002d 0001 0000 4006 3ad8 c05f 3da0 55ff  .-....@.:.._=.U.
	0x0020:  ebf3 1b39 c36c 0000 303a 0000 158e 5010  ...9.l..0:....P.
	0x0030:  2000 47dd 0000 4f4c 4c45 48              ..G...OLLEH
09:16:52.946332 IP (tos 0x0, ttl 25, id 13661, offset 0, flags [none], proto TCP (6), length 40)
    85.255.235.243.50028 > 192.95.61.160.6969: Flags [.], cksum 0x4b97 (correct), seq 6, ack 6, win 65495, length 0
	0x0000:  0200 00d2 bf75 6c9c edba ec40 0800 4500  .....ul....@..E.
	0x0010:  0028 355d 0000 1906 2c81 55ff ebf3 c05f  .(5]....,.U...._
	0x0020:  3da0 c36c 1b39 0000 158e 0000 303f 5010  =..l.9......0?P.
	0x0030:  ffd7 4b97 0000 0000 0000 0000            ..K.........
09:16:53.063762 IP (tos 0x0, ttl 25, id 13662, offset 0, flags [none], proto TCP (6), length 40)
    85.255.235.243.50028 > 192.95.61.160.6969: Flags [F.], cksum 0x4b96 (correct), seq 6, ack 6, win 65495, length 0
	0x0000:  0200 00d2 bf75 6c9c edba ec40 0800 4500  .....ul....@..E.
	0x0010:  0028 355e 0000 1906 2c80 55ff ebf3 c05f  .(5^....,.U...._
	0x0020:  3da0 c36c 1b39 0000 158e 0000 303f 5011  =..l.9......0?P.
	0x0030:  ffd7 4b96 0000 0000 0000 0000            ..K.........
09:16:53.068521 IP (tos 0x0, ttl 64, id 1, offset 0, flags [none], proto TCP (6), length 40)
    192.95.61.160.6969 > 85.255.235.243.50028: Flags [F.], cksum 0x2b6d (correct), seq 6, ack 7, win 8192, length 0
	0x0000:  0007 b400 0102 0200 00d2 bf75 0800 4500  ...........u..E.
	0x0010:  0028 0001 0000 4006 3add c05f 3da0 55ff  .(....@.:.._=.U.
	0x0020:  ebf3 1b39 c36c 0000 303f 0000 158f 5011  ...9.l..0?....P.
	0x0030:  2000 2b6d 0000                           ..+m..
09:16:53.564133 IP (tos 0x0, ttl 25, id 13664, offset 0, flags [none], proto TCP (6), length 40)
    85.255.235.243.50028 > 192.95.61.160.6969: Flags [.], cksum 0x6646 (correct), seq 6, ack 4294960471, win 65495, length 0
	0x0000:  0200 00d2 bf75 6c9c edba ec40 0800 4500  .....ul....@..E.
	0x0010:  0028 3560 0000 1906 2c7e 55ff ebf3 c05f  .(5`....,~U...._
	0x0020:  3da0 c36c 1b39 0000 158e 0000 1590 5010  =..l.9........P.
	0x0030:  ffd7 6646 0000 0000 0000 0000            ..fF........
09:16:53.745147 IP (tos 0x0, ttl 25, id 13665, offset 0, flags [none], proto TCP (6), length 40)
    85.255.235.243.56522 > 192.95.61.160.6969: Flags [S], cksum 0xcb02 (correct), seq 60955, win 65495, length 0
	0x0000:  0200 00d2 bf75 6c9c edba ec40 0800 4500  .....ul....@..E.
	0x0010:  0028 3561 0000 1906 2c7d 55ff ebf3 c05f  .(5a....,}U...._
	0x0020:  3da0 dcca 1b39 0000 ee1b beef 0006 5002  =....9........P.
	0x0030:  ffd7 cb02 0000 0000 0000 0000            ............
09:16:53.752241 IP (tos 0x0, ttl 64, id 1, offset 0, flags [none], proto TCP (6), length 42)
    192.95.61.160.6969 > 85.255.235.243.56522: Flags [S.], cksum 0xa031 (correct), seq 12345:12347, ack 60956, win 8192, length 2
	0x0000:  0007 b400 0102 0200 00d2 bf75 0800 4500  ...........u..E.
	0x0010:  002a 0001 0000 4006 3adb c05f 3da0 55ff  .*....@.:.._=.U.
	0x0020:  ebf3 1b39 dcca 0000 3039 0000 ee1c 5012  ...9....09....P.
	0x0030:  2000 a031 0000 9952                      ...1...R
09:16:54.324804 IP (tos 0x0, ttl 25, id 13667, offset 0, flags [none], proto TCP (6), length 40)
    85.255.235.243.56522 > 192.95.61.160.6969: Flags [.], cksum 0x59af (correct), seq 1, ack 1, win 65495, length 0
	0x0000:  0200 00d2 bf75 6c9c edba ec40 0800 4500  .....ul....@..E.
	0x0010:  0028 3563 0000 1906 2c7b 55ff ebf3 c05f  .(5c....,{U...._
	0x0020:  3da0 dcca 1b39 0000 ee1c 0000 303a 5010  =....9......0:P.
	0x0030:  ffd7 59af 0000 0000 0000 0000            ..Y.........
09:16:54.414135 IP (tos 0x0, ttl 25, id 13668, offset 0, flags [none], proto TCP (6), length 45)
    85.255.235.243.56522 > 192.95.61.160.6969: Flags [P.], cksum 0x7610 (correct), seq 1:6, ack 1, win 65495, length 5
	0x0000:  0200 00d2 bf75 6c9c edba ec40 0800 4500  .....ul....@..E.
	0x0010:  002d 3564 0000 1906 2c75 55ff ebf3 c05f  .-5d....,uU...._
	0x0020:  3da0 dcca 1b39 0000 ee1c 0000 303a 5018  =....9......0:P.
	0x0030:  ffd7 7610 0000 4845 4c4c 4f00            ..v...HELLO.
09:16:54.420363 IP (tos 0x0, ttl 64, id 1, offset 0, flags [none], proto TCP (6), length 45)
    192.95.61.160.6969 > 85.255.235.243.56522: Flags [.], cksum 0x55eb (correct), seq 1:6, ack 6, win 8192, length 5
	0x0000:  0007 b400 0102 0200 00d2 bf75 0800 4500  ...........u..E.
	0x0010:  002d 0001 0000 4006 3ad8 c05f 3da0 55ff  .-....@.:.._=.U.
	0x0020:  ebf3 1b39 dcca 0000 303a 0000 ee21 5010  ...9....0:...!P.
	0x0030:  2000 55eb 0000 4f4c 4c45 48              ..U...OLLEH
09:16:54.906726 IP (tos 0x0, ttl 25, id 13670, offset 0, flags [none], proto TCP (6), length 40)
    85.255.235.243.56522 > 192.95.61.160.6969: Flags [.], cksum 0x59a5 (correct), seq 6, ack 6, win 65495, length 0
	0x0000:  0200 00d2 bf75 6c9c edba ec40 0800 4500  .....ul....@..E.
	0x0010:  0028 3566 0000 1906 2c78 55ff ebf3 c05f  .(5f....,xU...._
	0x0020:  3da0 dcca 1b39 0000 ee21 0000 303f 5010  =....9...!..0?P.
	0x0030:  ffd7 59a5 0000 0000 0000 0000            ..Y.........
09:16:54.988361 IP (tos 0x0, ttl 25, id 13671, offset 0, flags [none], proto TCP (6), length 40)
    85.255.235.243.56522 > 192.95.61.160.6969: Flags [F.], cksum 0x59a4 (correct), seq 6, ack 6, win 65495, length 0
	0x0000:  0200 00d2 bf75 6c9c edba ec40 0800 4500  .....ul....@..E.
	0x0010:  0028 3567 0000 1906 2c77 55ff ebf3 c05f  .(5g....,wU...._
	0x0020:  3da0 dcca 1b39 0000 ee21 0000 303f 5011  =....9...!..0?P.
	0x0030:  ffd7 59a4 0000 0000 0000 0000            ..Y.........
09:16:54.993114 IP (tos 0x0, ttl 64, id 1, offset 0, flags [none], proto TCP (6), length 40)
    192.95.61.160.6969 > 85.255.235.243.56522: Flags [F.], cksum 0x397b (correct), seq 6, ack 7, win 8192, length 0
	0x0000:  0007 b400 0102 0200 00d2 bf75 0800 4500  ...........u..E.
	0x0010:  0028 0001 0000 4006 3add c05f 3da0 55ff  .(....@.:.._=.U.
	0x0020:  ebf3 1b39 dcca 0000 303f 0000 ee22 5011  ...9....0?..."P.
	0x0030:  2000 397b 0000                           ..9{..
09:16:55.419300 IP (tos 0x0, ttl 25, id 13673, offset 0, flags [none], proto TCP (6), length 40)
    85.255.235.243.56522 > 192.95.61.160.6969: Flags [.], cksum 0x9bc0 (correct), seq 6, ack 48618, win 65495, length 0
	0x0000:  0200 00d2 bf75 6c9c edba ec40 0800 4500  .....ul....@..E.
	0x0010:  0028 3569 0000 1906 2c75 55ff ebf3 c05f  .(5i....,uU...._
	0x0020:  3da0 dcca 1b39 0000 ee21 0000 ee23 5010  =....9...!...#P.
	0x0030:  ffd7 9bc0 0000 0000 0000 0000            ............
09:16:55.603626 IP (tos 0x0, ttl 25, id 13674, offset 0, flags [none], proto TCP (6), length 40)
    85.255.235.243.49224 > 192.95.61.160.6969: Flags [S], cksum 0x3626 (correct), seq 41064, win 65495, length 0
	0x0000:  0200 00d2 bf75 6c9c edba ec40 0800 4500  .....ul....@..E.
	0x0010:  0028 356a 0000 1906 2c74 55ff ebf3 c05f  .(5j....,tU...._
	0x0020:  3da0 c048 1b39 0000 a068 0000 0000 5002  =..H.9...h....P.
	0x0030:  ffd7 3626 be07 0000 0000 0000            ..6&........
09:16:55.608729 IP (tos 0x0, ttl 64, id 1, offset 0, flags [none], proto TCP (6), length 40)
    192.95.61.160.6969 > 85.255.235.243.49224: Flags [S.], cksum 0xe5b3 (correct), seq 12345, ack 41065, win 8192, length 0
	0x0000:  0007 b400 0102 0200 00d2 bf75 0800 4500  ...........u..E.
	0x0010:  0028 0001 0000 4006 3add c05f 3da0 55ff  .(....@.:.._=.U.
	0x0020:  ebf3 1b39 c048 0000 3039 0000 a069 5012  ...9.H..09...iP.
	0x0030:  2000 e5b3 be07                           ......
09:16:56.460887 IP (tos 0x0, ttl 25, id 13676, offset 0, flags [none], proto TCP (6), length 40)
    85.255.235.243.49224 > 192.95.61.160.6969: Flags [.], cksum 0xc3e4 (correct), seq 1, ack 1, win 65495, length 0
	0x0000:  0200 00d2 bf75 6c9c edba ec40 0800 4500  .....ul....@..E.
	0x0010:  0028 356c 0000 1906 2c72 55ff ebf3 c05f  .(5l....,rU...._
	0x0020:  3da0 c048 1b39 0000 a069 0000 303a 5010  =..H.9...i..0:P.
	0x0030:  ffd7 c3e4 0000 0000 0000 0000            ............
09:16:56.683427 IP (tos 0x0, ttl 25, id 13677, offset 0, flags [none], proto TCP (6), length 45)
    85.255.235.243.49224 > 192.95.61.160.6969: Flags [P.], cksum 0xe045 (correct), seq 1:6, ack 1, win 65495, length 5
	0x0000:  0200 00d2 bf75 6c9c edba ec40 0800 4500  .....ul....@..E.
	0x0010:  002d 356d 0000 1906 2c6c 55ff ebf3 c05f  .-5m....,lU...._
	0x0020:  3da0 c048 1b39 0000 a069 0000 303a 5018  =..H.9...i..0:P.
	0x0030:  ffd7 e045 0000 4845 4c4c 4f00            ...E..HELLO.
09:16:56.689193 IP (tos 0x0, ttl 64, id 1, offset 0, flags [none], proto TCP (6), length 45)
    192.95.61.160.6969 > 85.255.235.243.49224: Flags [.], cksum 0xc020 (correct), seq 1:6, ack 6, win 8192, length 5
	0x0000:  0007 b400 0102 0200 00d2 bf75 0800 4500  ...........u..E.
	0x0010:  002d 0001 0000 4006 3ad8 c05f 3da0 55ff  .-....@.:.._=.U.
	0x0020:  ebf3 1b39 c048 0000 303a 0000 a06e 5010  ...9.H..0:...nP.
	0x0030:  2000 c020 0000 4f4c 4c45 48              ......OLLEH
09:16:57.220782 IP (tos 0x0, ttl 25, id 13679, offset 0, flags [none], proto TCP (6), length 40)
    85.255.235.243.49224 > 192.95.61.160.6969: Flags [.], cksum 0xc3da (correct), seq 6, ack 6, win 65495, length 0
	0x0000:  0200 00d2 bf75 6c9c edba ec40 0800 4500  .....ul....@..E.
	0x0010:  0028 356f 0000 1906 2c6f 55ff ebf3 c05f  .(5o....,oU...._
	0x0020:  3da0 c048 1b39 0000 a06e 0000 303f 5010  =..H.9...n..0?P.
	0x0030:  ffd7 c3da 0000 0000 0000 0000            ............
09:16:57.322313 IP (tos 0x0, ttl 25, id 13680, offset 0, flags [none], proto TCP (6), length 40)
    85.255.235.243.49224 > 192.95.61.160.6969: Flags [F.], cksum 0xc3d9 (correct), seq 6, ack 6, win 65495, length 0
	0x0000:  0200 00d2 bf75 6c9c edba ec40 0800 4500  .....ul....@..E.
	0x0010:  0028 3570 0000 1906 2c6e 55ff ebf3 c05f  .(5p....,nU...._
	0x0020:  3da0 c048 1b39 0000 a06e 0000 303f 5011  =..H.9...n..0?P.
	0x0030:  ffd7 c3d9 0000 0000 0000 0000            ............
09:16:57.326466 IP (tos 0x0, ttl 64, id 1, offset 0, flags [none], proto TCP (6), length 40)
    192.95.61.160.6969 > 85.255.235.243.49224: Flags [F.], cksum 0xa3b0 (correct), seq 6, ack 7, win 8192, length 0
	0x0000:  0007 b400 0102 0200 00d2 bf75 0800 4500  ...........u..E.
	0x0010:  0028 0001 0000 4006 3add c05f 3da0 55ff  .(....@.:.._=.U.
	0x0020:  ebf3 1b39 c048 0000 303f 0000 a06f 5011  ...9.H..0?...oP.
	0x0030:  2000 a3b0 0000                           ......
09:16:57.850046 IP (tos 0x0, ttl 25, id 13682, offset 0, flags [none], proto TCP (6), length 40)
    85.255.235.243.49224 > 192.95.61.160.6969: Flags [.], cksum 0x53a9 (correct), seq 6, ack 28727, win 65495, length 0
	0x0000:  0200 00d2 bf75 6c9c edba ec40 0800 4500  .....ul....@..E.
	0x0010:  0028 3572 0000 1906 2c6c 55ff ebf3 c05f  .(5r....,lU...._
	0x0020:  3da0 c048 1b39 0000 a06e 0000 a070 5010  =..H.9...n...pP.
	0x0030:  ffd7 53a9 0000 0000 0000 0000            ..S.........
09:16:57.959785 IP (tos 0x0, ttl 25, id 13683, offset 0, flags [none], proto TCP (6), length 40)
    85.255.235.243.25116 > 192.95.61.160.6969: Flags [S], cksum 0x7211 (correct), seq 49832, win 65495, length 0
	0x0000:  0200 00d2 bf75 6c9c edba ec40 0800 4500  .....ul....@..E.
	0x0010:  0028 3573 0000 1906 2c6b 55ff ebf3 c05f  .(5s....,kU...._
	0x0020:  3da0 621c 1b39 0000 c2a8 0000 0000 5002  =.b..9........P.
	0x0030:  ffd7 7211 be08 0000 0000 0000            ..r.........
09:16:57.965037 IP (tos 0x0, ttl 64, id 1, offset 0, flags [none], proto TCP (6), length 40)
    192.95.61.160.6969 > 85.255.235.243.25116: Flags [S.], cksum 0x21a3 (correct), seq 12345, ack 49833, win 8192, length 0
	0x0000:  0007 b400 0102 0200 00d2 bf75 0800 4500  ...........u..E.
	0x0010:  0028 0001 0000 4006 3add c05f 3da0 55ff  .(....@.:.._=.U.
	0x0020:  ebf3 1b39 621c 0000 3039 0000 c2a9 5012  ...9b...09....P.
	0x0030:  2000 21a3 be04                           ..!...
09:16:58.612987 IP (tos 0x0, ttl 25, id 13685, offset 0, flags [none], proto TCP (6), length 40)
    85.255.235.243.23824 > 192.95.61.160.6969: Flags [S], cksum 0xf46f (correct), seq 17749, win 65495, length 0
	0x0000:  0200 00d2 bf75 6c9c edba ec40 0800 4500  .....ul....@..E.
	0x0010:  0028 3575 0000 1906 2c69 55ff ebf3 c05f  .(5u....,iU...._
	0x0020:  3da0 5d10 1b39 0000 4555 0000 0000 5002  =.]..9..EU....P.
	0x0030:  ffd7 f46f be09 0000 0000 0000            ...o........
09:16:58.618197 IP (tos 0x0, ttl 64, id 1, offset 0, flags [none], proto TCP (6), length 40)
    192.95.61.160.6969 > 85.255.235.243.23824: Flags [S.], cksum 0x1fec (incorrect -> 0x6207), seq 12345, ack 17750, win 8192, length 0
	0x0000:  0007 b400 0102 0200 00d2 bf75 0800 4500  ...........u..E.
	0x0010:  0028 0001 0000 4006 3add c05f 3da0 55ff  .(....@.:.._=.U.
	0x0020:  ebf3 1b39 5d10 0000 3039 0000 4556 5012  ...9]...09..EVP.
	0x0030:  2000 1fec 0000                           ......
09:16:59.137374 IP (tos 0x0, ttl 25, id 13686, offset 0, flags [none], proto TCP (6), length 40)
    85.255.235.243.23824 > 192.95.61.160.6969: Flags [.], cksum 0x8230 (correct), seq 1, ack 1, win 65495, length 0
	0x0000:  0200 00d2 bf75 6c9c edba ec40 0800 4500  .....ul....@..E.
	0x0010:  0028 3576 0000 1906 2c68 55ff ebf3 c05f  .(5v....,hU...._
	0x0020:  3da0 5d10 1b39 0000 4556 0000 303a 5010  =.]..9..EV..0:P.
	0x0030:  ffd7 8230 0000 0000 0000 0000            ...0........
09:16:59.244278 IP (tos 0x0, ttl 25, id 13687, offset 0, flags [none], proto TCP (6), length 45)
    85.255.235.243.23824 > 192.95.61.160.6969: Flags [P.], cksum 0x9e91 (correct), seq 1:6, ack 1, win 65495, length 5
	0x0000:  0200 00d2 bf75 6c9c edba ec40 0800 4500  .....ul....@..E.
	0x0010:  002d 3577 0000 1906 2c62 55ff ebf3 c05f  .-5w....,bU...._
	0x0020:  3da0 5d10 1b39 0000 4556 0000 303a 5018  =.]..9..EV..0:P.
	0x0030:  ffd7 9e91 0000 4845 4c4c 4f00            ......HELLO.
09:16:59.250077 IP (tos 0x0, ttl 64, id 1, offset 0, flags [none], proto TCP (6), length 45)
    192.95.61.160.6969 > 85.255.235.243.23824: Flags [.], cksum 0x7e6c (correct), seq 1:6, ack 6, win 8192, length 5
	0x0000:  0007 b400 0102 0200 00d2 bf75 0800 4500  ...........u..E.
	0x0010:  002d 0001 0000 4006 3ad8 c05f 3da0 55ff  .-....@.:.._=.U.
	0x0020:  ebf3 1b39 5d10 0000 303a 0000 455b 5010  ...9]...0:..E[P.
	0x0030:  2000 7e6c 0000 4f4c 4c45 48              ..~l..OLLEH
09:16:59.804075 IP (tos 0x0, ttl 25, id 13689, offset 0, flags [none], proto TCP (6), length 40)
    85.255.235.243.23824 > 192.95.61.160.6969: Flags [.], cksum 0x8226 (correct), seq 6, ack 6, win 65495, length 0
	0x0000:  0200 00d2 bf75 6c9c edba ec40 0800 4500  .....ul....@..E.
	0x0010:  0028 3579 0000 1906 2c65 55ff ebf3 c05f  .(5y....,eU...._
	0x0020:  3da0 5d10 1b39 0000 455b 0000 303f 5010  =.]..9..E[..0?P.
	0x0030:  ffd7 8226 0000 0000 0000 0000            ...&........
09:16:59.903522 IP (tos 0x0, ttl 25, id 13690, offset 0, flags [none], proto TCP (6), length 40)
    85.255.235.243.23824 > 192.95.61.160.6969: Flags [F.], cksum 0x8225 (correct), seq 6, ack 6, win 65495, length 0
	0x0000:  0200 00d2 bf75 6c9c edba ec40 0800 4500  .....ul....@..E.
	0x0010:  0028 357a 0000 1906 2c64 55ff ebf3 c05f  .(5z....,dU...._
	0x0020:  3da0 5d10 1b39 0000 455b 0000 303f 5011  =.]..9..E[..0?P.
	0x0030:  ffd7 8225 0000 0000 0000 0000            ...%........
09:16:59.908845 IP (tos 0x0, ttl 64, id 1, offset 0, flags [none], proto TCP (6), length 40)
    192.95.61.160.6969 > 85.255.235.243.23824: Flags [F.], cksum 0x61fc (correct), seq 6, ack 7, win 8192, length 0
	0x0000:  0007 b400 0102 0200 00d2 bf75 0800 4500  ...........u..E.
	0x0010:  0028 0001 0000 4006 3add c05f 3da0 55ff  .(....@.:.._=.U.
	0x0020:  ebf3 1b39 5d10 0000 303f 0000 455c 5011  ...9]...0?..E\P.
	0x0030:  2000 61fc 0000                           ..a...
09:17:00.626581 IP (tos 0x0, ttl 25, id 13692, offset 0, flags [none], proto TCP (6), length 40)
    85.255.235.243.23824 > 192.95.61.160.6969: Flags [.], cksum 0x6d08 (correct), seq 6, ack 5412, win 65495, length 0
	0x0000:  0200 00d2 bf75 6c9c edba ec40 0800 4500  .....ul....@..E.
	0x0010:  0028 357c 0000 1906 2c62 55ff ebf3 c05f  .(5|....,bU...._
	0x0020:  3da0 5d10 1b39 0000 455b 0000 455d 5010  =.]..9..E[..E]P.
	0x0030:  ffd7 6d08 0000 0000 0000 0000            ..m.........
09:17:00.713757 IP (tos 0x0, ttl 25, id 13693, offset 0, flags [none], proto TCP (6), length 40)
    85.255.235.243.60499 > 192.95.61.160.6969: Flags [S], cksum 0x9c5f (correct), seq 52011, win 65495, length 0
	0x0000:  0200 00d2 bf75 6c9c edba ec40 0800 4500  .....ul....@..E.
	0x0010:  0028 357d 0000 1906 2c61 55ff ebf3 c05f  .(5}....,aU...._
	0x0020:  3da0 ec53 1b39 0000 cb2b 0000 0000 5102  =..S.9...+....Q.
	0x0030:  ffd7 9c5f 0000 0000 0000 0000            ..._........
09:17:00.718931 IP (tos 0x0, ttl 64, id 1, offset 0, flags [none], proto TCP (6), length 40)
    192.95.61.160.6969 > 85.255.235.243.60499: Flags [S.], cksum 0x4bed (correct), seq 12345, ack 52012, win 8192, length 0
	0x0000:  0007 b400 0102 0200 00d2 bf75 0800 4500  ...........u..E.
	0x0010:  0028 0001 0000 4006 3add c05f 3da0 55ff  .(....@.:.._=.U.
	0x0020:  ebf3 1b39 ec53 0000 3039 0000 cb2c 5112  ...9.S..09...,Q.
	0x0030:  2000 4bed 0000                           ..K...
09:17:01.171153 IP (tos 0x0, ttl 25, id 13695, offset 0, flags [none], proto TCP (6), length 40)
    85.255.235.243.60499 > 192.95.61.160.6969: Flags [.], cksum 0x6c16 (correct), seq 1, ack 1, win 65495, length 0
	0x0000:  0200 00d2 bf75 6c9c edba ec40 0800 4500  .....ul....@..E.
	0x0010:  0028 357f 0000 1906 2c5f 55ff ebf3 c05f  .(5.....,_U...._
	0x0020:  3da0 ec53 1b39 0000 cb2c 0000 303a 5110  =..S.9...,..0:Q.
	0x0030:  ffd7 6c16 0000 0000 0000 0000            ..l.........
09:17:01.270381 IP (tos 0x0, ttl 25, id 13696, offset 0, flags [none], proto TCP (6), length 45)
    85.255.235.243.60499 > 192.95.61.160.6969: Flags [P.], cksum 0x8977 (correct), seq 1:6, ack 1, win 65495, length 5
	0x0000:  0200 00d2 bf75 6c9c edba ec40 0800 4500  .....ul....@..E.
	0x0010:  002d 3580 0000 1906 2c59 55ff ebf3 c05f  .-5.....,YU...._
	0x0020:  3da0 ec53 1b39 0000 cb2c 0000 303a 5018  =..S.9...,..0:P.
	0x0030:  ffd7 8977 0000 4845 4c4c 4f00            ...w..HELLO.
09:17:01.276139 IP (tos 0x0, ttl 64, id 1, offset 0, flags [none], proto TCP (6), length 45)
    192.95.61.160.6969 > 85.255.235.243.60499: Flags [.], cksum 0x6952 (correct), seq 1:6, ack 6, win 8192, length 5
	0x0000:  0007 b400 0102 0200 00d2 bf75 0800 4500  ...........u..E.
	0x0010:  002d 0001 0000 4006 3ad8 c05f 3da0 55ff  .-....@.:.._=.U.
	0x0020:  ebf3 1b39 ec53 0000 303a 0000 cb31 5010  ...9.S..0:...1P.
	0x0030:  2000 6952 0000 4f4c 4c45 48              ..iR..OLLEH
09:17:01.777013 IP (tos 0x0, ttl 25, id 13698, offset 0, flags [none], proto TCP (6), length 40)
    85.255.235.243.60499 > 192.95.61.160.6969: Flags [.], cksum 0x6d0c (correct), seq 6, ack 6, win 65495, length 0
	0x0000:  0200 00d2 bf75 6c9c edba ec40 0800 4500  .....ul....@..E.
	0x0010:  0028 3582 0000 1906 2c5c 55ff ebf3 c05f  .(5.....,\U...._
	0x0020:  3da0 ec53 1b39 0000 cb31 0000 303f 5010  =..S.9...1..0?P.
	0x0030:  ffd7 6d0c 0000 0000 0000 0000            ..m.........
09:17:01.866124 IP (tos 0x0, ttl 25, id 13699, offset 0, flags [none], proto TCP (6), length 40)
    85.255.235.243.60499 > 192.95.61.160.6969: Flags [F.], cksum 0x6d0b (correct), seq 6, ack 6, win 65495, length 0
	0x0000:  0200 00d2 bf75 6c9c edba ec40 0800 4500  .....ul....@..E.
	0x0010:  0028 3583 0000 1906 2c5b 55ff ebf3 c05f  .(5.....,[U...._
	0x0020:  3da0 ec53 1b39 0000 cb31 0000 303f 5011  =..S.9...1..0?P.
	0x0030:  ffd7 6d0b 0000 0000 0000 0000            ..m.........
09:17:01.870880 IP (tos 0x0, ttl 64, id 1, offset 0, flags [none], proto TCP (6), length 40)
    192.95.61.160.6969 > 85.255.235.243.60499: Flags [F.], cksum 0x4ce2 (correct), seq 6, ack 7, win 8192, length 0
	0x0000:  0007 b400 0102 0200 00d2 bf75 0800 4500  ...........u..E.
	0x0010:  0028 0001 0000 4006 3add c05f 3da0 55ff  .(....@.:.._=.U.
	0x0020:  ebf3 1b39 ec53 0000 303f 0000 cb32 5011  ...9.S..0?...2P.
	0x0030:  2000 4ce2 0000                           ..L...
09:17:02.373850 IP (tos 0x0, ttl 25, id 13701, offset 0, flags [none], proto TCP (6), length 40)
    85.255.235.243.60499 > 192.95.61.160.6969: Flags [.], cksum 0xd217 (correct), seq 6, ack 39674, win 65495, length 0
	0x0000:  0200 00d2 bf75 6c9c edba ec40 0800 4500  .....ul....@..E.
	0x0010:  0028 3585 0000 1906 2c59 55ff ebf3 c05f  .(5.....,YU...._
	0x0020:  3da0 ec53 1b39 0000 cb31 0000 cb33 5010  =..S.9...1...3P.
	0x0030:  ffd7 d217 0000 0000 0000 0000            ............
09:17:02.579943 IP (tos 0x0, ttl 25, id 13702, offset 0, flags [none], proto TCP (6), length 40)
    85.255.235.243.15824 > 192.95.61.160.6969: Flags [S], cksum 0xe7cb (correct), seq 11587, win 65495, length 0
	0x0000:  0200 00d2 bf75 6c9c edba ec40 0800 4500  .....ul....@..E.
	0x0010:  0028 3586 0000 1906 2c58 55ff ebf3 c05f  .(5.....,XU...._
	0x0020:  3da0 3dd0 1b39 0000 2d43 0000 0000 5202  =.=..9..-C....R.
	0x0030:  ffd7 e7cb 0000 0000 0000 0000            ............
09:17:02.585616 IP (tos 0x0, ttl 64, id 1, offset 0, flags [none], proto TCP (6), length 40)
    192.95.61.160.6969 > 85.255.235.243.15824: Flags [S.], cksum 0x9759 (correct), seq 12345, ack 11588, win 8192, length 0
	0x0000:  0007 b400 0102 0200 00d2 bf75 0800 4500  ...........u..E.
	0x0010:  0028 0001 0000 4006 3add c05f 3da0 55ff  .(....@.:.._=.U.
	0x0020:  ebf3 1b39 3dd0 0000 3039 0000 2d44 5212  ...9=...09..-DR.
	0x0030:  2000 9759 0000                           ...Y..
09:17:03.095464 IP (tos 0x0, ttl 25, id 13704, offset 0, flags [none], proto TCP (6), length 40)
    85.255.235.243.15824 > 192.95.61.160.6969: Flags [.], cksum 0xb782 (correct), seq 1, ack 1, win 65495, length 0
	0x0000:  0200 00d2 bf75 6c9c edba ec40 0800 4500  .....ul....@..E.
	0x0010:  0028 3588 0000 1906 2c56 55ff ebf3 c05f  .(5.....,VU...._
	0x0020:  3da0 3dd0 1b39 0000 2d44 0000 303a 5210  =.=..9..-D..0:R.
	0x0030:  ffd7 b782 0000 0000 0000 0000            ............
09:17:03.205413 IP (tos 0x0, ttl 25, id 13705, offset 0, flags [none], proto TCP (6), length 45)
    85.255.235.243.15824 > 192.95.61.160.6969: Flags [P.], cksum 0xd5e3 (correct), seq 1:6, ack 1, win 65495, length 5
	0x0000:  0200 00d2 bf75 6c9c edba ec40 0800 4500  .....ul....@..E.
	0x0010:  002d 3589 0000 1906 2c50 55ff ebf3 c05f  .-5.....,PU...._
	0x0020:  3da0 3dd0 1b39 0000 2d44 0000 303a 5018  =.=..9..-D..0:P.
	0x0030:  ffd7 d5e3 0000 4845 4c4c 4f00            ......HELLO.
09:17:03.211175 IP (tos 0x0, ttl 64, id 1, offset 0, flags [none], proto TCP (6), length 45)
    192.95.61.160.6969 > 85.255.235.243.15824: Flags [.], cksum 0xb5be (correct), seq 1:6, ack 6, win 8192, length 5
	0x0000:  0007 b400 0102 0200 00d2 bf75 0800 4500  ...........u..E.
	0x0010:  002d 0001 0000 4006 3ad8 c05f 3da0 55ff  .-....@.:.._=.U.
	0x0020:  ebf3 1b39 3dd0 0000 303a 0000 2d49 5010  ...9=...0:..-IP.
	0x0030:  2000 b5be 0000 4f4c 4c45 48              ......OLLEH
09:17:04.059717 IP (tos 0x0, ttl 25, id 13707, offset 0, flags [none], proto TCP (6), length 40)
    85.255.235.243.15824 > 192.95.61.160.6969: Flags [.], cksum 0xb978 (correct), seq 6, ack 6, win 65495, length 0
	0x0000:  0200 00d2 bf75 6c9c edba ec40 0800 4500  .....ul....@..E.
	0x0010:  0028 358b 0000 1906 2c53 55ff ebf3 c05f  .(5.....,SU...._
	0x0020:  3da0 3dd0 1b39 0000 2d49 0000 303f 5010  =.=..9..-I..0?P.
	0x0030:  ffd7 b978 0000 0000 0000 0000            ...x........
09:17:04.059766 IP (tos 0x0, ttl 25, id 13708, offset 0, flags [none], proto TCP (6), length 40)
    85.255.235.243.15824 > 192.95.61.160.6969: Flags [F.], cksum 0xb977 (correct), seq 6, ack 6, win 65495, length 0
	0x0000:  0200 00d2 bf75 6c9c edba ec40 0800 4500  .....ul....@..E.
	0x0010:  0028 358c 0000 1906 2c52 55ff ebf3 c05f  .(5.....,RU...._
	0x0020:  3da0 3dd0 1b39 0000 2d49 0000 303f 5011  =.=..9..-I..0?P.
	0x0030:  ffd7 b977 0000 0000 0000 0000            ...w........
09:17:04.066245 IP (tos 0x0, ttl 64, id 1, offset 0, flags [none], proto TCP (6), length 40)
    192.95.61.160.6969 > 85.255.235.243.15824: Flags [F.], cksum 0x994e (correct), seq 6, ack 7, win 8192, length 0
	0x0000:  0007 b400 0102 0200 00d2 bf75 0800 4500  ...........u..E.
	0x0010:  0028 0001 0000 4006 3add c05f 3da0 55ff  .(....@.:.._=.U.
	0x0020:  ebf3 1b39 3dd0 0000 303f 0000 2d4a 5011  ...9=...0?..-JP.
	0x0030:  2000 994e 0000                           ...N..
09:17:04.607747 IP (tos 0x0, ttl 25, id 13710, offset 0, flags [none], proto TCP (6), length 40)
    85.255.235.243.15824 > 192.95.61.160.6969: Flags [.], cksum 0xbc6c (correct), seq 6, ack 4294966546, win 65495, length 0
	0x0000:  0200 00d2 bf75 6c9c edba ec40 0800 4500  .....ul....@..E.
	0x0010:  0028 358e 0000 1906 2c50 55ff ebf3 c05f  .(5.....,PU...._
	0x0020:  3da0 3dd0 1b39 0000 2d49 0000 2d4b 5010  =.=..9..-I..-KP.
	0x0030:  ffd7 bc6c 0000 0000 0000 0000            ...l........
09:17:04.834341 IP (tos 0x0, ttl 25, id 13711, offset 0, flags [none], proto TCP (6), length 40)
    85.255.235.243.28177 > 192.95.61.160.6969: Flags [S], cksum 0x2aeb (correct), seq 47074, win 65495, length 0
	0x0000:  0200 00d2 bf75 6c9c edba ec40 0800 4500  .....ul....@..E.
	0x0010:  0028 358f 0000 1906 2c4f 55ff ebf3 c05f  .(5.....,OU...._
	0x0020:  3da0 6e11 1b39 0000 b7e2 0000 0000 5402  =.n..9........T.
	0x0030:  ffd7 2aeb 0000 0000 0000 0000            ..*.........
09:17:04.839367 IP (tos 0x0, ttl 64, id 1, offset 0, flags [none], proto TCP (6), length 40)
    192.95.61.160.6969 > 85.255.235.243.28177: Flags [S.], cksum 0xda78 (correct), seq 12345, ack 47075, win 8192, length 0
	0x0000:  0007 b400 0102 0200 00d2 bf75 0800 4500  ...........u..E.
	0x0010:  0028 0001 0000 4006 3add c05f 3da0 55ff  .(....@.:.._=.U.
	0x0020:  ebf3 1b39 6e11 0000 3039 0000 b7e3 5412  ...9n...09....T.
	0x0030:  2000 da78 0000                           ...x..
09:17:05.326152 IP (tos 0x0, ttl 25, id 13713, offset 0, flags [none], proto TCP (6), length 40)
    85.255.235.243.28177 > 192.95.61.160.6969: Flags [.], cksum 0xfaa1 (correct), seq 1, ack 1, win 65495, length 0
	0x0000:  0200 00d2 bf75 6c9c edba ec40 0800 4500  .....ul....@..E.
	0x0010:  0028 3591 0000 1906 2c4d 55ff ebf3 c05f  .(5.....,MU...._
	0x0020:  3da0 6e11 1b39 0000 b7e3 0000 303a 5410  =.n..9......0:T.
	0x0030:  ffd7 faa1 0000 0000 0000 0000            ............
09:17:05.482903 IP (tos 0x0, ttl 25, id 13714, offset 0, flags [none], proto TCP (6), length 45)
    85.255.235.243.28177 > 192.95.61.160.6969: Flags [P.], cksum 0x1b03 (correct), seq 1:6, ack 1, win 65495, length 5
	0x0000:  0200 00d2 bf75 6c9c edba ec40 0800 4500  .....ul....@..E.
	0x0010:  002d 3592 0000 1906 2c47 55ff ebf3 c05f  .-5.....,GU...._
	0x0020:  3da0 6e11 1b39 0000 b7e3 0000 303a 5018  =.n..9......0:P.
	0x0030:  ffd7 1b03 0000 4845 4c4c 4f00            ......HELLO.
09:17:05.489642 IP (tos 0x0, ttl 64, id 1, offset 0, flags [none], proto TCP (6), length 45)
    192.95.61.160.6969 > 85.255.235.243.28177: Flags [.], cksum 0xfadd (correct), seq 1:6, ack 6, win 8192, length 5
	0x0000:  0007 b400 0102 0200 00d2 bf75 0800 4500  ...........u..E.
	0x0010:  002d 0001 0000 4006 3ad8 c05f 3da0 55ff  .-....@.:.._=.U.
	0x0020:  ebf3 1b39 6e11 0000 303a 0000 b7e8 5010  ...9n...0:....P.
	0x0030:  2000 fadd 0000 4f4c 4c45 48              ......OLLEH
09:17:06.192443 IP (tos 0x0, ttl 25, id 13716, offset 0, flags [none], proto TCP (6), length 40)
    85.255.235.243.28177 > 192.95.61.160.6969: Flags [.], cksum 0xfe97 (correct), seq 6, ack 6, win 65495, length 0
	0x0000:  0200 00d2 bf75 6c9c edba ec40 0800 4500  .....ul....@..E.
	0x0010:  0028 3594 0000 1906 2c4a 55ff ebf3 c05f  .(5.....,JU...._
	0x0020:  3da0 6e11 1b39 0000 b7e8 0000 303f 5010  =.n..9......0?P.
	0x0030:  ffd7 fe97 0000 0000 0000 0000            ............
09:17:06.290275 IP (tos 0x0, ttl 25, id 13717, offset 0, flags [none], proto TCP (6), length 40)
    85.255.235.243.28177 > 192.95.61.160.6969: Flags [F.], cksum 0xfe96 (correct), seq 6, ack 6, win 65495, length 0
	0x0000:  0200 00d2 bf75 6c9c edba ec40 0800 4500  .....ul....@..E.
	0x0010:  0028 3595 0000 1906 2c49 55ff ebf3 c05f  .(5.....,IU...._
	0x0020:  3da0 6e11 1b39 0000 b7e8 0000 303f 5011  =.n..9......0?P.
	0x0030:  ffd7 fe96 0000 0000 0000 0000            ............
09:17:06.294949 IP (tos 0x0, ttl 64, id 1, offset 0, flags [none], proto TCP (6), length 40)
    192.95.61.160.6969 > 85.255.235.243.28177: Flags [F.], cksum 0xde6d (correct), seq 6, ack 7, win 8192, length 0
	0x0000:  0007 b400 0102 0200 00d2 bf75 0800 4500  ...........u..E.
	0x0010:  0028 0001 0000 4006 3add c05f 3da0 55ff  .(....@.:.._=.U.
	0x0020:  ebf3 1b39 6e11 0000 303f 0000 b7e9 5011  ...9n...0?....P.
	0x0030:  2000 de6d 0000                           ...m..
09:17:06.980341 IP (tos 0x0, ttl 25, id 13719, offset 0, flags [none], proto TCP (6), length 40)
    85.255.235.243.28177 > 192.95.61.160.6969: Flags [.], cksum 0x76ec (correct), seq 6, ack 34737, win 65495, length 0
	0x0000:  0200 00d2 bf75 6c9c edba ec40 0800 4500  .....ul....@..E.
	0x0010:  0028 3597 0000 1906 2c47 55ff ebf3 c05f  .(5.....,GU...._
	0x0020:  3da0 6e11 1b39 0000 b7e8 0000 b7ea 5010  =.n..9........P.
	0x0030:  ffd7 76ec 0000 0000 0000 0000            ..v.........
09:17:07.288075 IP (tos 0x0, ttl 25, id 13720, offset 0, flags [none], proto TCP (6), length 40)
    85.255.235.243.36478 > 192.95.61.160.6969: Flags [S], cksum 0xde29 (correct), seq 57398, win 65495, length 0
	0x0000:  0200 00d2 bf75 6c9c edba ec40 0800 4500  .....ul....@..E.
	0x0010:  0028 3598 0000 1906 2c46 55ff ebf3 c05f  .(5.....,FU...._
	0x0020:  3da0 8e7e 1b39 0000 e036 0000 0000 5802  =..~.9...6....X.
	0x0030:  ffd7 de29 0000 0000 0000 0000            ...)........
09:17:07.293300 IP (tos 0x0, ttl 64, id 1, offset 0, flags [none], proto TCP (6), length 40)
    192.95.61.160.6969 > 85.255.235.243.36478: Flags [S.], cksum 0x8db7 (correct), seq 12345, ack 57399, win 8192, length 0
	0x0000:  0007 b400 0102 0200 00d2 bf75 0800 4500  ...........u..E.
	0x0010:  0028 0001 0000 4006 3add c05f 3da0 55ff  .(....@.:.._=.U.
	0x0020:  ebf3 1b39 8e7e 0000 3039 0000 e037 5812  ...9.~..09...7X.
	0x0030:  2000 8db7 0000                           ......
09:17:07.810633 IP (tos 0x0, ttl 25, id 13722, offset 0, flags [none], proto TCP (6), length 40)
    85.255.235.243.36478 > 192.95.61.160.6969: Flags [.], cksum 0xade0 (correct), seq 1, ack 1, win 65495, length 0
	0x0000:  0200 00d2 bf75 6c9c edba ec40 0800 4500  .....ul....@..E.
	0x0010:  0028 359a 0000 1906 2c44 55ff ebf3 c05f  .(5.....,DU...._
	0x0020:  3da0 8e7e 1b39 0000 e037 0000 303a 5810  =..~.9...7..0:X.
	0x0030:  ffd7 ade0 0000 0000 0000 0000            ............
09:17:07.918642 IP (tos 0x0, ttl 25, id 13723, offset 0, flags [none], proto TCP (6), length 45)
    85.255.235.243.36478 > 192.95.61.160.6969: Flags [P.], cksum 0xd241 (correct), seq 1:6, ack 1, win 65495, length 5
	0x0000:  0200 00d2 bf75 6c9c edba ec40 0800 4500  .....ul....@..E.
	0x0010:  002d 359b 0000 1906 2c3e 55ff ebf3 c05f  .-5.....,>U...._
	0x0020:  3da0 8e7e 1b39 0000 e037 0000 303a 5018  =..~.9...7..0:P.
	0x0030:  ffd7 d241 0000 4845 4c4c 4f00            ...A..HELLO.
09:17:07.924379 IP (tos 0x0, ttl 64, id 1, offset 0, flags [none], proto TCP (6), length 45)
    192.95.61.160.6969 > 85.255.235.243.36478: Flags [.], cksum 0xb21c (correct), seq 1:6, ack 6, win 8192, length 5
	0x0000:  0007 b400 0102 0200 00d2 bf75 0800 4500  ...........u..E.
	0x0010:  002d 0001 0000 4006 3ad8 c05f 3da0 55ff  .-....@.:.._=.U.
	0x0020:  ebf3 1b39 8e7e 0000 303a 0000 e03c 5010  ...9.~..0:...<P.
	0x0030:  2000 b21c 0000 4f4c 4c45 48              ......OLLEH
09:17:08.437639 IP (tos 0x0, ttl 25, id 13725, offset 0, flags [none], proto TCP (6), length 40)
    85.255.235.243.36478 > 192.95.61.160.6969: Flags [.], cksum 0xb5d6 (correct), seq 6, ack 6, win 65495, length 0
	0x0000:  0200 00d2 bf75 6c9c edba ec40 0800 4500  .....ul....@..E.
	0x0010:  0028 359d 0000 1906 2c41 55ff ebf3 c05f  .(5.....,AU...._
	0x0020:  3da0 8e7e 1b39 0000 e03c 0000 303f 5010  =..~.9...<..0?P.
	0x0030:  ffd7 b5d6 0000 0000 0000 0000            ............
09:17:08.551850 IP (tos 0x0, ttl 25, id 13726, offset 0, flags [none], proto TCP (6), length 40)
    85.255.235.243.36478 > 192.95.61.160.6969: Flags [F.], cksum 0xb5d5 (correct), seq 6, ack 6, win 65495, length 0
	0x0000:  0200 00d2 bf75 6c9c edba ec40 0800 4500  .....ul....@..E.
	0x0010:  0028 359e 0000 1906 2c40 55ff ebf3 c05f  .(5.....,@U...._
	0x0020:  3da0 8e7e 1b39 0000 e03c 0000 303f 5011  =..~.9...<..0?P.
	0x0030:  ffd7 b5d5 0000 0000 0000 0000            ............
09:17:08.557170 IP (tos 0x0, ttl 64, id 1, offset 0, flags [none], proto TCP (6), length 40)
    192.95.61.160.6969 > 85.255.235.243.36478: Flags [F.], cksum 0x95ac (correct), seq 6, ack 7, win 8192, length 0
	0x0000:  0007 b400 0102 0200 00d2 bf75 0800 4500  ...........u..E.
	0x0010:  0028 0001 0000 4006 3add c05f 3da0 55ff  .(....@.:.._=.U.
	0x0020:  ebf3 1b39 8e7e 0000 303f 0000 e03d 5011  ...9.~..0?...=P.
	0x0030:  2000 95ac 0000                           ......
09:17:09.069163 IP (tos 0x0, ttl 25, id 13728, offset 0, flags [none], proto TCP (6), length 40)
    85.255.235.243.36478 > 192.95.61.160.6969: Flags [.], cksum 0x05d7 (correct), seq 6, ack 45061, win 65495, length 0
	0x0000:  0200 00d2 bf75 6c9c edba ec40 0800 4500  .....ul....@..E.
	0x0010:  0028 35a0 0000 1906 2c3e 55ff ebf3 c05f  .(5.....,>U...._
	0x0020:  3da0 8e7e 1b39 0000 e03c 0000 e03e 5010  =..~.9...<...>P.
	0x0030:  ffd7 05d7 0000 0000 0000 0000            ............
09:17:09.287886 IP (tos 0x0, ttl 25, id 13729, offset 0, flags [none], proto TCP (6), length 40)
    85.255.235.243.37498 > 192.95.61.160.6969: Flags [S], cksum 0x9a97 (correct), seq 10189, win 65495, length 0
	0x0000:  0200 00d2 bf75 6c9c edba ec40 0800 4500  .....ul....@..E.
	0x0010:  0028 35a1 0000 1906 2c3d 55ff ebf3 c05f  .(5.....,=U...._
	0x0020:  3da0 927a 1b39 0000 27cd 0000 0000 5002  =..z.9..'.....P.
	0x0030:  ffd7 9a97 0000 0000 0000 0000            ............
09:17:09.293322 IP (tos 0x0, ttl 64, id 1, offset 0, flags [none], proto TCP (6), length 40)
    192.95.61.160.6969 > 85.255.235.243.37498: Flags [S.], cksum 0x8c20 (correct), seq 12345, ack 10190, win 8192, length 0
	0x0000:  0007 b400 0102 0200 00d2 bf75 0800 4500  ...........u..E.
	0x0010:  0028 0001 0000 4006 3add c05f 3da0 55ff  .(....@.:.._=.U.
	0x0020:  ebf3 1b39 927a 0000 3039 0000 27ce 5012  ...9.z..09..'.P.
	0x0030:  2000 8c20 be04                           ......
09:17:09.844984 IP (tos 0x0, ttl 25, id 13731, offset 0, flags [none], proto TCP (6), length 40)
    85.255.235.243.37498 > 192.95.61.160.6969: Flags [.], cksum 0x6a4e (correct), seq 1, ack 1, win 65495, length 0
	0x0000:  0200 00d2 bf75 6c9c edba ec40 0800 4500  .....ul....@..E.
	0x0010:  0028 35a3 0000 1906 2c3b 55ff ebf3 c05f  .(5.....,;U...._
	0x0020:  3da0 927a 1b39 0000 27ce 0000 303a 5010  =..z.9..'...0:P.
	0x0030:  ffd7 6a4e 0000 0000 0000 0000            ..jN........
09:17:09.946822 IP (tos 0x0, ttl 25, id 13732, offset 0, flags [none], proto TCP (6), length 45)
    85.255.235.243.37498 > 192.95.61.160.6969: Flags [P.], cksum 0x85af (correct), seq 1:6, ack 1, win 65495, length 5
	0x0000:  0200 00d2 bf75 6c9c edba ec40 0800 4500  .....ul....@..E.
	0x0010:  002d 35a4 0000 1906 2c35 55ff ebf3 c05f  .-5.....,5U...._
	0x0020:  3da0 927a 1b39 0000 27ce 0000 303a 5118  =..z.9..'...0:Q.
	0x0030:  ffd7 85af 0000 4845 4c4c 4f00            ......HELLO.
09:17:09.952714 IP (tos 0x0, ttl 64, id 1, offset 0, flags [none], proto TCP (6), length 45)
    192.95.61.160.6969 > 85.255.235.243.37498: Flags [.], cksum 0x658a (correct), seq 1:6, ack 6, win 8192, length 5
	0x0000:  0007 b400 0102 0200 00d2 bf75 0800 4500  ...........u..E.
	0x0010:  002d 0001 0000 4006 3ad8 c05f 3da0 55ff  .-....@.:.._=.U.
	0x0020:  ebf3 1b39 927a 0000 303a 0000 27d3 5110  ...9.z..0:..'.Q.
	0x0030:  2000 658a 0000 4f4c 4c45 48              ..e...OLLEH
09:17:10.474628 IP (tos 0x0, ttl 25, id 13734, offset 0, flags [none], proto TCP (6), length 40)
    85.255.235.243.37498 > 192.95.61.160.6969: Flags [.], cksum 0x6944 (correct), seq 6, ack 6, win 65495, length 0
	0x0000:  0200 00d2 bf75 6c9c edba ec40 0800 4500  .....ul....@..E.
	0x0010:  0028 35a6 0000 1906 2c38 55ff ebf3 c05f  .(5.....,8U...._
	0x0020:  3da0 927a 1b39 0000 27d3 0000 303f 5110  =..z.9..'...0?Q.
	0x0030:  ffd7 6944 0000 0000 0000 0000            ..iD........
09:17:10.580797 IP (tos 0x0, ttl 25, id 13735, offset 0, flags [none], proto TCP (6), length 40)
    85.255.235.243.37498 > 192.95.61.160.6969: Flags [F.], cksum 0x6943 (correct), seq 6, ack 6, win 65495, length 0
	0x0000:  0200 00d2 bf75 6c9c edba ec40 0800 4500  .....ul....@..E.
	0x0010:  0028 35a7 0000 1906 2c37 55ff ebf3 c05f  .(5.....,7U...._
	0x0020:  3da0 927a 1b39 0000 27d3 0000 303f 5111  =..z.9..'...0?Q.
	0x0030:  ffd7 6943 0000 0000 0000 0000            ..iC........
09:17:10.585665 IP (tos 0x0, ttl 64, id 1, offset 0, flags [none], proto TCP (6), length 40)
    192.95.61.160.6969 > 85.255.235.243.37498: Flags [F.], cksum 0x4a1a (correct), seq 6, ack 7, win 8192, length 0
	0x0000:  0007 b400 0102 0200 00d2 bf75 0800 4500  ...........u..E.
	0x0010:  0028 0001 0000 4006 3add c05f 3da0 55ff  .(....@.:.._=.U.
	0x0020:  ebf3 1b39 927a 0000 303f 0000 27d4 5011  ...9.z..0?..'.P.
	0x0030:  2000 4a1a 0000                           ..J...
09:17:11.118079 IP (tos 0x0, ttl 25, id 13737, offset 0, flags [none], proto TCP (6), length 40)
    85.255.235.243.37498 > 192.95.61.160.6969: Flags [.], cksum 0x72ae (correct), seq 6, ack 4294965148, win 65495, length 0
	0x0000:  0200 00d2 bf75 6c9c edba ec40 0800 4500  .....ul....@..E.
	0x0010:  0028 35a9 0000 1906 2c35 55ff ebf3 c05f  .(5.....,5U...._
	0x0020:  3da0 927a 1b39 0000 27d3 0000 27d5 5010  =..z.9..'...'.P.
	0x0030:  ffd7 72ae 0000 0000 0000 0000            ..r.........
09:17:11.224125 IP (tos 0x0, ttl 25, id 13738, offset 0, flags [none], proto TCP (6), length 40)
    85.255.235.243.49090 > 192.95.61.160.6969: Flags [S], cksum 0x0c46 (correct), seq 35030, win 65495, length 0
	0x0000:  0200 00d2 bf75 6c9c edba ec40 0800 4500  .....ul....@..E.
	0x0010:  0028 35aa 0000 1906 2c34 55ff ebf3 c05f  .(5.....,4U...._
	0x0020:  3da0 bfc2 1b39 0000 88d6 0000 0000 5002  =....9........P.
	0x0030:  ffd7 0c46 0000 0000 0000 0000            ...F........
09:17:11.229746 IP (tos 0x0, ttl 64, id 1, offset 0, flags [none], proto TCP (6), length 40)
    192.95.61.160.6969 > 85.255.235.243.49090: Flags [S.], cksum 0xfdce (correct), seq 12345, ack 35031, win 8192, length 0
	0x0000:  0007 b400 0102 0200 00d2 bf75 0800 4500  ...........u..E.
	0x0010:  0028 0001 0000 4006 3add c05f 3da0 55ff  .(....@.:.._=.U.
	0x0020:  ebf3 1b39 bfc2 0000 3039 0000 88d7 5012  ...9....09....P.
	0x0030:  2000 fdce be04                           ......
09:17:11.727602 IP (tos 0x0, ttl 25, id 13740, offset 0, flags [none], proto TCP (6), length 40)
    85.255.235.243.49090 > 192.95.61.160.6969: Flags [.], cksum 0xdbfc (correct), seq 1, ack 1, win 65495, length 0
	0x0000:  0200 00d2 bf75 6c9c edba ec40 0800 4500  .....ul....@..E.
	0x0010:  0028 35ac 0000 1906 2c32 55ff ebf3 c05f  .(5.....,2U...._
	0x0020:  3da0 bfc2 1b39 0000 88d7 0000 303a 5010  =....9......0:P.
	0x0030:  ffd7 dbfc 0000 0000 0000 0000            ............
09:17:11.837140 IP (tos 0x0, ttl 25, id 13741, offset 0, flags [none], proto TCP (6), length 45)
    85.255.235.243.49090 > 192.95.61.160.6969: Flags [P.], cksum 0xf65d (correct), seq 1:6, ack 1, win 65495, length 5
	0x0000:  0200 00d2 bf75 6c9c edba ec40 0800 4500  .....ul....@..E.
	0x0010:  002d 35ad 0000 1906 2c2c 55ff ebf3 c05f  .-5.....,,U...._
	0x0020:  3da0 bfc2 1b39 0000 88d7 0000 303a 5218  =....9......0:R.
	0x0030:  ffd7 f65d 0000 4845 4c4c 4f00            ...]..HELLO.
09:17:11.843041 IP (tos 0x0, ttl 64, id 1, offset 0, flags [none], proto TCP (6), length 45)
    192.95.61.160.6969 > 85.255.235.243.49090: Flags [.], cksum 0xd638 (correct), seq 1:6, ack 6, win 8192, length 5
	0x0000:  0007 b400 0102 0200 00d2 bf75 0800 4500  ...........u..E.
	0x0010:  002d 0001 0000 4006 3ad8 c05f 3da0 55ff  .-....@.:.._=.U.
	0x0020:  ebf3 1b39 bfc2 0000 303a 0000 88dc 5210  ...9....0:....R.
	0x0030:  2000 d638 0000 4f4c 4c45 48              ...8..OLLEH
09:17:12.403313 IP (tos 0x0, ttl 25, id 13743, offset 0, flags [none], proto TCP (6), length 40)
    85.255.235.243.49090 > 192.95.61.160.6969: Flags [.], cksum 0xd9f2 (correct), seq 6, ack 6, win 65495, length 0
	0x0000:  0200 00d2 bf75 6c9c edba ec40 0800 4500  .....ul....@..E.
	0x0010:  0028 35af 0000 1906 2c2f 55ff ebf3 c05f  .(5.....,/U...._
	0x0020:  3da0 bfc2 1b39 0000 88dc 0000 303f 5210  =....9......0?R.
	0x0030:  ffd7 d9f2 0000 0000 0000 0000            ............
09:17:12.508409 IP (tos 0x0, ttl 25, id 13744, offset 0, flags [none], proto TCP (6), length 40)
    85.255.235.243.49090 > 192.95.61.160.6969: Flags [F.], cksum 0xd9f1 (correct), seq 6, ack 6, win 65495, length 0
	0x0000:  0200 00d2 bf75 6c9c edba ec40 0800 4500  .....ul....@..E.
	0x0010:  0028 35b0 0000 1906 2c2e 55ff ebf3 c05f  .(5.....,.U...._
	0x0020:  3da0 bfc2 1b39 0000 88dc 0000 303f 5211  =....9......0?R.
	0x0030:  ffd7 d9f1 0000 0000 0000 0000            ............
09:17:12.513160 IP (tos 0x0, ttl 64, id 1, offset 0, flags [none], proto TCP (6), length 40)
    192.95.61.160.6969 > 85.255.235.243.49090: Flags [F.], cksum 0xbbc8 (correct), seq 6, ack 7, win 8192, length 0
	0x0000:  0007 b400 0102 0200 00d2 bf75 0800 4500  ...........u..E.
	0x0010:  0028 0001 0000 4006 3add c05f 3da0 55ff  .(....@.:.._=.U.
	0x0020:  ebf3 1b39 bfc2 0000 303f 0000 88dd 5011  ...9....0?....P.
	0x0030:  2000 bbc8 0000                           ......
09:17:13.343030 IP (tos 0x0, ttl 25, id 13746, offset 0, flags [none], proto TCP (6), length 40)
    85.255.235.243.49090 > 192.95.61.160.6969: Flags [.], cksum 0x8353 (correct), seq 6, ack 22693, win 65495, length 0
	0x0000:  0200 00d2 bf75 6c9c edba ec40 0800 4500  .....ul....@..E.
	0x0010:  0028 35b2 0000 1906 2c2c 55ff ebf3 c05f  .(5.....,,U...._
	0x0020:  3da0 bfc2 1b39 0000 88dc 0000 88de 5010  =....9........P.
	0x0030:  ffd7 8353 0000 0000 0000 0000            ...S........
09:17:13.343448 IP (tos 0x0, ttl 25, id 13747, offset 0, flags [none], proto TCP (6), length 40)
    85.255.235.243.48467 > 192.95.61.160.6969: Flags [S], cksum 0xdc63 (correct), seq 47911, win 65495, length 0
	0x0000:  0200 00d2 bf75 6c9c edba ec40 0800 4500  .....ul....@..E.
	0x0010:  0028 35b3 0000 1906 2c2b 55ff ebf3 c05f  .(5.....,+U...._
	0x0020:  3da0 bd53 1b39 0000 bb27 0000 0000 5002  =..S.9...'....P.
	0x0030:  ffd7 dc63 0000 0000 0000 0000            ...c........
09:17:13.350169 IP (tos 0x0, ttl 64, id 1, offset 0, flags [none], proto TCP (6), length 40)
    192.95.61.160.6969 > 85.255.235.243.48467: Flags [S.], cksum 0xcdec (correct), seq 12345, ack 47912, win 8192, length 0
	0x0000:  0007 b400 0102 0200 00d2 bf75 0800 4500  ...........u..E.
	0x0010:  0028 0001 0000 4006 3add c05f 3da0 55ff  .(....@.:.._=.U.
	0x0020:  ebf3 1b39 bd53 0000 3039 0000 bb28 5012  ...9.S..09...(P.
	0x0030:  2000 cdec be04                           ......
09:17:13.849824 IP (tos 0x0, ttl 25, id 13749, offset 0, flags [none], proto TCP (6), length 40)
    85.255.235.243.48467 > 192.95.61.160.6969: Flags [.], cksum 0xac1a (correct), seq 1, ack 1, win 65495, length 0
	0x0000:  0200 00d2 bf75 6c9c edba ec40 0800 4500  .....ul....@..E.
	0x0010:  0028 35b5 0000 1906 2c29 55ff ebf3 c05f  .(5.....,)U...._
	0x0020:  3da0 bd53 1b39 0000 bb28 0000 303a 5010  =..S.9...(..0:P.
	0x0030:  ffd7 ac1a 0000 0000 0000 0000            ............
09:17:13.965114 IP (tos 0x0, ttl 25, id 13750, offset 0, flags [none], proto TCP (6), length 45)
    85.255.235.243.48467 > 192.95.61.160.6969: Flags [P.], cksum 0xc47b (correct), seq 1:6, ack 1, win 65495, length 5
	0x0000:  0200 00d2 bf75 6c9c edba ec40 0800 4500  .....ul....@..E.
	0x0010:  002d 35b6 0000 1906 2c23 55ff ebf3 c05f  .-5.....,#U...._
	0x0020:  3da0 bd53 1b39 0000 bb28 0000 303a 5418  =..S.9...(..0:T.
	0x0030:  ffd7 c47b 0000 4845 4c4c 4f00            ...{..HELLO.
09:17:13.971425 IP (tos 0x0, ttl 64, id 1, offset 0, flags [none], proto TCP (6), length 45)
    192.95.61.160.6969 > 85.255.235.243.48467: Flags [.], cksum 0xa456 (correct), seq 1:6, ack 6, win 8192, length 5
	0x0000:  0007 b400 0102 0200 00d2 bf75 0800 4500  ...........u..E.
	0x0010:  002d 0001 0000 4006 3ad8 c05f 3da0 55ff  .-....@.:.._=.U.
	0x0020:  ebf3 1b39 bd53 0000 303a 0000 bb2d 5410  ...9.S..0:...-T.
	0x0030:  2000 a456 0000 4f4c 4c45 48              ...V..OLLEH
09:17:14.505692 IP (tos 0x0, ttl 25, id 13752, offset 0, flags [none], proto TCP (6), length 40)
    85.255.235.243.48467 > 192.95.61.160.6969: Flags [.], cksum 0xa810 (correct), seq 6, ack 6, win 65495, length 0
	0x0000:  0200 00d2 bf75 6c9c edba ec40 0800 4500  .....ul....@..E.
	0x0010:  0028 35b8 0000 1906 2c26 55ff ebf3 c05f  .(5.....,&U...._
	0x0020:  3da0 bd53 1b39 0000 bb2d 0000 303f 5410  =..S.9...-..0?T.
	0x0030:  ffd7 a810 0000 0000 0000 0000            ............
09:17:14.620091 IP (tos 0x0, ttl 25, id 13753, offset 0, flags [none], proto TCP (6), length 40)
    85.255.235.243.48467 > 192.95.61.160.6969: Flags [F.], cksum 0xa80f (correct), seq 6, ack 6, win 65495, length 0
	0x0000:  0200 00d2 bf75 6c9c edba ec40 0800 4500  .....ul....@..E.
	0x0010:  0028 35b9 0000 1906 2c25 55ff ebf3 c05f  .(5.....,%U...._
	0x0020:  3da0 bd53 1b39 0000 bb2d 0000 303f 5411  =..S.9...-..0?T.
	0x0030:  ffd7 a80f 0000 0000 0000 0000            ............
09:17:14.624889 IP (tos 0x0, ttl 64, id 1, offset 0, flags [none], proto TCP (6), length 40)
    192.95.61.160.6969 > 85.255.235.243.48467: Flags [F.], cksum 0x8be6 (correct), seq 6, ack 7, win 8192, length 0
	0x0000:  0007 b400 0102 0200 00d2 bf75 0800 4500  ...........u..E.
	0x0010:  0028 0001 0000 4006 3add c05f 3da0 55ff  .(....@.:.._=.U.
	0x0020:  ebf3 1b39 bd53 0000 303f 0000 bb2e 5011  ...9.S..0?....P.
	0x0030:  2000 8be6 0000                           ......
09:17:15.170247 IP (tos 0x0, ttl 25, id 13755, offset 0, flags [none], proto TCP (6), length 40)
    85.255.235.243.48467 > 192.95.61.160.6969: Flags [.], cksum 0x2120 (correct), seq 6, ack 35574, win 65495, length 0
	0x0000:  0200 00d2 bf75 6c9c edba ec40 0800 4500  .....ul....@..E.
	0x0010:  0028 35bb 0000 1906 2c23 55ff ebf3 c05f  .(5.....,#U...._
	0x0020:  3da0 bd53 1b39 0000 bb2d 0000 bb2f 5010  =..S.9...-.../P.
	0x0030:  ffd7 2120 0000 0000 0000 0000            ..!.........
09:17:15.286920 IP (tos 0x0, ttl 25, id 13756, offset 0, flags [none], proto TCP (6), length 40)
    85.255.235.243.24797 > 192.95.61.160.6969: Flags [S], cksum 0x0de5 (correct), seq 58908, win 65495, length 0
	0x0000:  0200 00d2 bf75 6c9c edba ec40 0800 4500  .....ul....@..E.
	0x0010:  0028 35bc 0000 1906 2c22 55ff ebf3 c05f  .(5.....,"U...._
	0x0020:  3da0 60dd 1b39 0000 e61c 0000 0000 5002  =.`..9........P.
	0x0030:  ffd7 0de5 0000 0000 0000 0000            ............
09:17:15.292174 IP (tos 0x0, ttl 64, id 1, offset 0, flags [none], proto TCP (6), length 40)
    192.95.61.160.6969 > 85.255.235.243.24797: Flags [S.], cksum 0xff6d (correct), seq 12345, ack 58909, win 8192, length 0
	0x0000:  0007 b400 0102 0200 00d2 bf75 0800 4500  ...........u..E.
	0x0010:  0028 0001 0000 4006 3add c05f 3da0 55ff  .(....@.:.._=.U.
	0x0020:  ebf3 1b39 60dd 0000 3039 0000 e61d 5012  ...9`...09....P.
	0x0030:  2000 ff6d be04                           ...m..
09:17:16.022728 IP (tos 0x0, ttl 25, id 13758, offset 0, flags [none], proto TCP (6), length 40)
    85.255.235.243.24797 > 192.95.61.160.6969: Flags [.], cksum 0xdd9b (correct), seq 1, ack 1, win 65495, length 0
	0x0000:  0200 00d2 bf75 6c9c edba ec40 0800 4500  .....ul....@..E.
	0x0010:  0028 35be 0000 1906 2c20 55ff ebf3 c05f  .(5.....,.U...._
	0x0020:  3da0 60dd 1b39 0000 e61d 0000 303a 5010  =.`..9......0:P.
	0x0030:  ffd7 dd9b 0000 0000 0000 0000            ............
09:17:16.129275 IP (tos 0x0, ttl 25, id 13759, offset 0, flags [none], proto TCP (6), length 45)
    85.255.235.243.24797 > 192.95.61.160.6969: Flags [P.], cksum 0xf1fc (correct), seq 1:6, ack 1, win 65495, length 5
	0x0000:  0200 00d2 bf75 6c9c edba ec40 0800 4500  .....ul....@..E.
	0x0010:  002d 35bf 0000 1906 2c1a 55ff ebf3 c05f  .-5.....,.U...._
	0x0020:  3da0 60dd 1b39 0000 e61d 0000 303a 5818  =.`..9......0:X.
	0x0030:  ffd7 f1fc 0000 4845 4c4c 4f00            ......HELLO.
09:17:16.135275 IP (tos 0x0, ttl 64, id 1, offset 0, flags [none], proto TCP (6), length 45)
    192.95.61.160.6969 > 85.255.235.243.24797: Flags [.], cksum 0xd1d7 (correct), seq 1:6, ack 6, win 8192, length 5
	0x0000:  0007 b400 0102 0200 00d2 bf75 0800 4500  ...........u..E.
	0x0010:  002d 0001 0000 4006 3ad8 c05f 3da0 55ff  .-....@.:.._=.U.
	0x0020:  ebf3 1b39 60dd 0000 303a 0000 e622 5810  ...9`...0:..."X.
	0x0030:  2000 d1d7 0000 4f4c 4c45 48              ......OLLEH
09:17:16.665982 IP (tos 0x0, ttl 25, id 13761, offset 0, flags [none], proto TCP (6), length 40)
    85.255.235.243.24797 > 192.95.61.160.6969: Flags [.], cksum 0xd591 (correct), seq 6, ack 6, win 65495, length 0
	0x0000:  0200 00d2 bf75 6c9c edba ec40 0800 4500  .....ul....@..E.
	0x0010:  0028 35c1 0000 1906 2c1d 55ff ebf3 c05f  .(5.....,.U...._
	0x0020:  3da0 60dd 1b39 0000 e622 0000 303f 5810  =.`..9..."..0?X.
	0x0030:  ffd7 d591 0000 0000 0000 0000            ............
09:17:16.780676 IP (tos 0x0, ttl 25, id 13762, offset 0, flags [none], proto TCP (6), length 40)
    85.255.235.243.24797 > 192.95.61.160.6969: Flags [F.], cksum 0xd590 (correct), seq 6, ack 6, win 65495, length 0
	0x0000:  0200 00d2 bf75 6c9c edba ec40 0800 4500  .....ul....@..E.
	0x0010:  0028 35c2 0000 1906 2c1c 55ff ebf3 c05f  .(5.....,.U...._
	0x0020:  3da0 60dd 1b39 0000 e622 0000 303f 5811  =.`..9..."..0?X.
	0x0030:  ffd7 d590 0000 0000 0000 0000            ............
09:17:16.785797 IP (tos 0x0, ttl 64, id 1, offset 0, flags [none], proto TCP (6), length 40)
    192.95.61.160.6969 > 85.255.235.243.24797: Flags [F.], cksum 0xbd67 (correct), seq 6, ack 7, win 8192, length 0
	0x0000:  0007 b400 0102 0200 00d2 bf75 0800 4500  ...........u..E.
	0x0010:  0028 0001 0000 4006 3add c05f 3da0 55ff  .(....@.:.._=.U.
	0x0020:  ebf3 1b39 60dd 0000 303f 0000 e623 5011  ...9`...0?...#P.
	0x0030:  2000 bd67 0000                           ...g..
09:17:17.757993 IP (tos 0x0, ttl 25, id 13764, offset 0, flags [none], proto TCP (6), length 40)
    85.255.235.243.24797 > 192.95.61.160.6969: Flags [.], cksum 0x27ac (correct), seq 6, ack 46571, win 65495, length 0
	0x0000:  0200 00d2 bf75 6c9c edba ec40 0800 4500  .....ul....@..E.
	0x0010:  0028 35c4 0000 1906 2c1a 55ff ebf3 c05f  .(5.....,.U...._
	0x0020:  3da0 60dd 1b39 0000 e622 0000 e624 5010  =.`..9..."...$P.
	0x0030:  ffd7 27ac 0000 0000 0000 0000            ..'.........
09:17:17.758411 IP (tos 0x0, ttl 25, id 13765, offset 0, flags [none], proto TCP (6), length 40)
    85.255.235.243.59266 > 192.95.61.160.6969: Flags [S], cksum 0x821e (correct), seq 11329, win 65495, length 0
	0x0000:  0200 00d2 bf75 6c9c edba ec40 0800 4500  .....ul....@..E.
	0x0010:  0028 35c5 0000 1906 2c19 55ff ebf3 c05f  .(5.....,.U...._
	0x0020:  3da0 e782 1b39 0000 2c41 beef 000d 5002  =....9..,A....P.
	0x0030:  ffd7 821e 0000 0000 0000 0000            ............
09:17:17.764583 IP (tos 0x0, ttl 64, id 1, offset 0, flags [none], proto TCP (6), length 40)
    192.95.61.160.6969 > 85.255.235.243.59266: Flags [S.], cksum 0x38fd (incorrect -> 0xf0a8), seq 12345, ack 11330, win 8192, length 0
	0x0000:  0007 b400 0102 0200 00d2 bf75 0800 4500  ...........u..E.
	0x0010:  0028 0001 0000 4006 3add c05f 3da0 55ff  .(....@.:.._=.U.
	0x0020:  ebf3 1b39 e782 0000 3039 0000 2c42 5012  ...9....09..,BP.
	0x0030:  2000 38fd 0000                           ..8...
09:17:18.281968 IP (tos 0x0, ttl 25, id 13766, offset 0, flags [none], proto TCP (6), length 40)
    85.255.235.243.59266 > 192.95.61.160.6969: Flags [.], cksum 0x10d2 (correct), seq 1, ack 1, win 65495, length 0
	0x0000:  0200 00d2 bf75 6c9c edba ec40 0800 4500  .....ul....@..E.
	0x0010:  0028 35c6 0000 1906 2c18 55ff ebf3 c05f  .(5.....,.U...._
	0x0020:  3da0 e782 1b39 0000 2c42 0000 303a 5010  =....9..,B..0:P.
	0x0030:  ffd7 10d2 0000 0000 0000 0000            ............
09:17:18.391462 IP (tos 0x0, ttl 25, id 13767, offset 0, flags [none], proto TCP (6), length 45)
    85.255.235.243.59266 > 192.95.61.160.6969: Flags [P.], cksum 0x2d33 (correct), seq 1:6, ack 1, win 65495, length 5
	0x0000:  0200 00d2 bf75 6c9c edba ec40 0800 4500  .....ul....@..E.
	0x0010:  002d 35c7 0000 1906 2c12 55ff ebf3 c05f  .-5.....,.U...._
	0x0020:  3da0 e782 1b39 0000 2c42 0000 303a 5018  =....9..,B..0:P.
	0x0030:  ffd7 2d33 0000 4845 4c4c 4f00            ..-3..HELLO.
09:17:18.397107 IP (tos 0x0, ttl 64, id 1, offset 0, flags [none], proto TCP (6), length 45)
    192.95.61.160.6969 > 85.255.235.243.59266: Flags [.], cksum 0x0d0e (correct), seq 1:6, ack 6, win 8192, length 5
	0x0000:  0007 b400 0102 0200 00d2 bf75 0800 4500  ...........u..E.
	0x0010:  002d 0001 0000 4006 3ad8 c05f 3da0 55ff  .-....@.:.._=.U.
	0x0020:  ebf3 1b39 e782 0000 303a 0000 2c47 5010  ...9....0:..,GP.
	0x0030:  2000 0d0e 0000 4f4c 4c45 48              ......OLLEH
09:17:18.919270 IP (tos 0x0, ttl 25, id 13769, offset 0, flags [none], proto TCP (6), length 40)
    85.255.235.243.59266 > 192.95.61.160.6969: Flags [.], cksum 0x10c8 (correct), seq 6, ack 6, win 65495, length 0
	0x0000:  0200 00d2 bf75 6c9c edba ec40 0800 4500  .....ul....@..E.
	0x0010:  0028 35c9 0000 1906 2c15 55ff ebf3 c05f  .(5.....,.U...._
	0x0020:  3da0 e782 1b39 0000 2c47 0000 303f 5010  =....9..,G..0?P.
	0x0030:  ffd7 10c8 0000 0000 0000 0000            ............
09:17:19.030899 IP (tos 0x0, ttl 25, id 13770, offset 0, flags [none], proto TCP (6), length 40)
    85.255.235.243.59266 > 192.95.61.160.6969: Flags [F.], cksum 0x10c7 (correct), seq 6, ack 6, win 65495, length 0
	0x0000:  0200 00d2 bf75 6c9c edba ec40 0800 4500  .....ul....@..E.
	0x0010:  0028 35ca 0000 1906 2c14 55ff ebf3 c05f  .(5.....,.U...._
	0x0020:  3da0 e782 1b39 0000 2c47 0000 303f 5011  =....9..,G..0?P.
	0x0030:  ffd7 10c7 0000 0000 0000 0000            ............
09:17:19.035715 IP (tos 0x0, ttl 64, id 1, offset 0, flags [none], proto TCP (6), length 40)
    192.95.61.160.6969 > 85.255.235.243.59266: Flags [F.], cksum 0xf09d (correct), seq 6, ack 7, win 8192, length 0
	0x0000:  0007 b400 0102 0200 00d2 bf75 0800 4500  ...........u..E.
	0x0010:  0028 0001 0000 4006 3add c05f 3da0 55ff  .(....@.:.._=.U.
	0x0020:  ebf3 1b39 e782 0000 303f 0000 2c48 5011  ...9....0?..,HP.
	0x0030:  2000 f09d 0000                           ......
09:17:19.599868 IP (tos 0x0, ttl 25, id 13772, offset 0, flags [none], proto TCP (6), length 40)
    85.255.235.243.59266 > 192.95.61.160.6969: Flags [.], cksum 0x14be (correct), seq 6, ack 4294966288, win 65495, length 0
	0x0000:  0200 00d2 bf75 6c9c edba ec40 0800 4500  .....ul....@..E.
	0x0010:  0028 35cc 0000 1906 2c12 55ff ebf3 c05f  .(5.....,.U...._
	0x0020:  3da0 e782 1b39 0000 2c47 0000 2c49 5010  =....9..,G..,IP.
	0x0030:  ffd7 14be 0000 0000 0000 0000            ............

