15:30:17.667214 IP (tos 0x0, ttl 40, id 46804, offset 0, flags [none], proto TCP (6), length 40)
    10.66.187.126.7406 > 192.95.61.160.6969: Flags [S], cksum 0x66e1 (correct), seq 36433, win 65495, length 0
	0x0000:  0004 0200 0000 0000 0000 0000 0000 0800  ................
	0x0010:  4500 0028 b6d4 0000 2806 183c 0a42 bb7e  E..(??..(..<.B?~
	0x0020:  c05f 3da0 1cee 1b39 0000 8e51 beef 0001  ?_=?.?.9...Q??..
	0x0030:  5002 ffd7 66e1 0000                      P.??f?..
15:30:22.631025 IP (tos 0x0, ttl 60, id 5823, offset 0, flags [DF], proto TCP (6), length 44)
    192.95.61.160.6969 > 10.66.187.126.7406: Flags [S.], cksum 0xd2e7 (correct), seq 3129246091, ack 36434, win 65392, options [mss 1320], length 0
	0x0000:  0000 0200 0000 0000 0000 0000 0000 0800  ................
	0x0010:  4500 002c 16bf 4000 3c06 644d c05f 3da0  E..,.?@.<.dM?_=?
	0x0020:  0a42 bb7e 1b39 1cee ba84 818b 0000 8e52  .B?~.9.?......R
	0x0030:  6012 ff70 d2e7 0000 0204 0528            `.?p??.....(
15:30:22.636303 IP (tos 0x0, ttl 40, id 46806, offset 0, flags [none], proto TCP (6), length 40)
    10.66.187.126.7406 > 192.95.61.160.6969: Flags [.], cksum 0xe9b1 (correct), seq 1, ack 1, win 65495, length 0
	0x0000:  0004 0200 0000 0000 0000 0000 0000 0800  ................
	0x0010:  4500 0028 b6d6 0000 2806 183a 0a42 bb7e  E..(??..(..:.B?~
	0x0020:  c05f 3da0 1cee 1b39 0000 8e52 ba84 818c  ?_=?.?.9...R?...
	0x0030:  5010 ffd7 e9b1 0000                      P.???..
15:30:22.637167 IP (tos 0x0, ttl 40, id 46807, offset 0, flags [none], proto TCP (6), length 45)
    10.66.187.126.7406 > 192.95.61.160.6969: Flags [P.], cksum 0x0613 (correct), seq 1:6, ack 1, win 65495, length 5
	0x0000:  0004 0200 0000 0000 0000 0000 0000 0800  ................
	0x0010:  4500 002d b6d7 0000 2806 1834 0a42 bb7e  E..-??..(..4.B?~
	0x0020:  c05f 3da0 1cee 1b39 0000 8e52 ba84 818c  ?_=?.?.9...R?...
	0x0030:  5018 ffd7 0613 0000 4845 4c4c 4f         P.??....HELLO
15:30:23.061045 IP (tos 0x0, ttl 60, id 5824, offset 0, flags [DF], proto TCP (6), length 40)
    192.95.61.160.6969 > 10.66.187.126.7406: Flags [.], cksum 0xea13 (correct), seq 1, ack 6, win 65392, length 0
	0x0000:  0000 0200 0000 0000 0000 0000 0000 0800  ................
	0x0010:  4500 0028 16c0 4000 3c06 6450 c05f 3da0  E..(.?@.<.dP?_=?
	0x0020:  0a42 bb7e 1b39 1cee ba84 818c 0000 8e57  .B?~.9.?......W
	0x0030:  5010 ff70 ea13 0000                      P.?p?...
15:30:23.064713 IP (tos 0x0, ttl 40, id 46809, offset 0, flags [none], proto TCP (6), length 40)
    10.66.187.126.7406 > 192.95.61.160.6969: Flags [F.], cksum 0xe9ab (correct), seq 6, ack 1, win 65495, length 0
	0x0000:  0004 0200 0000 0000 0000 0000 0000 0800  ................
	0x0010:  4500 0028 b6d9 0000 2806 1837 0a42 bb7e  E..(??..(..7.B?~
	0x0020:  c05f 3da0 1cee 1b39 0000 8e57 ba84 818c  ?_=?.?.9...W?...
	0x0030:  5011 ffd7 e9ab 0000                      P.???..
15:30:23.310917 IP (tos 0x0, ttl 60, id 5825, offset 0, flags [DF], proto TCP (6), length 45)
    192.95.61.160.6969 > 10.66.187.126.7406: Flags [P.], cksum 0x0675 (correct), seq 1:6, ack 6, win 65392, length 5
	0x0000:  0000 0200 0000 0000 0000 0000 0000 0800  ................
	0x0010:  4500 002d 16c1 4000 3c06 644a c05f 3da0  E..-.?@.<.dJ?_=?
	0x0020:  0a42 bb7e 1b39 1cee ba84 818c 0000 8e57  .B?~.9.?......W
	0x0030:  5018 ff70 0675 0000 4f4c 4c45 48         P.?p.u..OLLEH
15:30:23.430893 IP (tos 0x0, ttl 60, id 5826, offset 0, flags [DF], proto TCP (6), length 40)
    192.95.61.160.6969 > 10.66.187.126.7406: Flags [.], cksum 0xea0d (correct), seq 6, ack 7, win 65392, length 0
	0x0000:  0000 0200 0000 0000 0000 0000 0000 0800  ................
	0x0010:  4500 0028 16c2 4000 3c06 644e c05f 3da0  E..(.?@.<.dN?_=?
	0x0020:  0a42 bb7e 1b39 1cee ba84 8191 0000 8e58  .B?~.9.?......X
	0x0030:  5010 ff70 ea0d 0000                      P.?p?...
15:30:23.431100 IP (tos 0x0, ttl 64, id 46811, offset 0, flags [DF], proto TCP (6), length 40)
    10.66.187.126.7406 > 192.95.61.160.6969: Flags [R], cksum 0x25a1 (correct), seq 36440, win 0, length 0
	0x0000:  0004 0200 0000 0000 0000 0000 0000 0800  ................
	0x0010:  4500 0028 b6db 4000 4006 c034 0a42 bb7e  E..(??@.@.?4.B?~
	0x0020:  c05f 3da0 1cee 1b39 0000 8e58 0000 0000  ?_=?.?.9...X....
	0x0030:  5004 0000 25a1 0000                      P...%?..
15:30:23.519232 IP (tos 0x0, ttl 40, id 46812, offset 0, flags [none], proto TCP (6), length 40)
    10.66.187.126.21473 > 192.95.61.160.6969: Flags [S], cksum 0x4d4d (correct), seq 29152, win 65495, length 0
	0x0000:  0004 0200 0000 0000 0000 0000 0000 0800  ................
	0x0010:  4500 0028 b6dc 0000 2806 1834 0a42 bb7e  E..(??..(..4.B?~
	0x0020:  c05f 3da0 53e1 1b39 0000 71e0 0000 0000  ?_=?S?.9..q?....
	0x0030:  5002 ffd7 4d4d be02                      P.??MM?.
15:30:23.521338 IP (tos 0x0, ttl 60, id 5827, offset 0, flags [DF], proto TCP (6), length 40)
    192.95.61.160.6969 > 10.66.187.126.7406: Flags [F.], cksum 0xea0c (correct), seq 6, ack 7, win 65392, length 0
	0x0000:  0000 0200 0000 0000 0000 0000 0000 0800  ................
	0x0010:  4500 0028 16c3 4000 3c06 644d c05f 3da0  E..(.?@.<.dM?_=?
	0x0020:  0a42 bb7e 1b39 1cee ba84 8191 0000 8e58  .B?~.9.?......X
	0x0030:  5011 ff70 ea0c 0000                      P.?p?...
15:30:23.521497 IP (tos 0x0, ttl 64, id 46813, offset 0, flags [DF], proto TCP (6), length 40)
    10.66.187.126.7406 > 192.95.61.160.6969: Flags [R], cksum 0x25a1 (correct), seq 36440, win 0, length 0
	0x0000:  0004 0200 0000 0000 0000 0000 0000 0800  ................
	0x0010:  4500 0028 b6dd 4000 4006 c032 0a42 bb7e  E..(??@.@.?2.B?~
	0x0020:  c05f 3da0 1cee 1b39 0000 8e58 0000 0000  ?_=?.?.9...X....
	0x0030:  5004 0000 25a1 0000                      P...%?..
15:30:23.941025 IP (tos 0x0, ttl 60, id 5828, offset 0, flags [DF], proto TCP (6), length 44)
    192.95.61.160.6969 > 10.66.187.126.21473: Flags [S.], cksum 0x7677 (correct), seq 2441538679, ack 29153, win 65392, options [mss 1320], length 0
	0x0000:  0000 0200 0000 0000 0000 0000 0000 0800  ................
	0x0010:  4500 002c 16c4 4000 3c06 6448 c05f 3da0  E..,.?@.<.dH?_=?
	0x0020:  0a42 bb7e 1b39 53e1 9186 ec77 0000 71e1  .B?~.9S?..?w..q?
	0x0030:  6012 ff70 7677 0000 0204 0528            `.?pvw.....(
15:30:23.943025 IP (tos 0x0, ttl 40, id 46815, offset 0, flags [none], proto TCP (6), length 40)
    10.66.187.126.21473 > 192.95.61.160.6969: Flags [.], cksum 0x8d41 (correct), seq 1, ack 1, win 65495, length 0
	0x0000:  0004 0200 0000 0000 0000 0000 0000 0800  ................
	0x0010:  4500 0028 b6df 0000 2806 1831 0a42 bb7e  E..(??..(..1.B?~
	0x0020:  c05f 3da0 53e1 1b39 0000 71e1 9186 ec78  ?_=?S?.9..q?..?x
	0x0030:  5010 ffd7 8d41 0000                      P.??.A..
15:30:23.943792 IP (tos 0x0, ttl 40, id 46816, offset 0, flags [none], proto TCP (6), length 45)
    10.66.187.126.21473 > 192.95.61.160.6969: Flags [P.], cksum 0xa9a2 (correct), seq 1:6, ack 1, win 65495, length 5
	0x0000:  0004 0200 0000 0000 0000 0000 0000 0800  ................
	0x0010:  4500 002d b6e0 0000 2806 182b 0a42 bb7e  E..-??..(..+.B?~
	0x0020:  c05f 3da0 53e1 1b39 0000 71e1 9186 ec78  ?_=?S?.9..q?..?x
	0x0030:  5018 ffd7 a9a2 0000 4845 4c4c 4f         P.?ש?..HELLO
15:30:24.421013 IP (tos 0x0, ttl 60, id 5829, offset 0, flags [DF], proto TCP (6), length 40)
    192.95.61.160.6969 > 10.66.187.126.21473: Flags [.], cksum 0x8da3 (correct), seq 1, ack 6, win 65392, length 0
	0x0000:  0000 0200 0000 0000 0000 0000 0000 0800  ................
	0x0010:  4500 0028 16c5 4000 3c06 644b c05f 3da0  E..(.?@.<.dK?_=?
	0x0020:  0a42 bb7e 1b39 53e1 9186 ec78 0000 71e6  .B?~.9S?..?x..q?
	0x0030:  5010 ff70 8da3 0000                      P.?p.?..
15:30:24.423621 IP (tos 0x0, ttl 40, id 46818, offset 0, flags [none], proto TCP (6), length 40)
    10.66.187.126.21473 > 192.95.61.160.6969: Flags [F.], cksum 0x8d3b (correct), seq 6, ack 1, win 65495, length 0
	0x0000:  0004 0200 0000 0000 0000 0000 0000 0800  ................
	0x0010:  4500 0028 b6e2 0000 2806 182e 0a42 bb7e  E..(??..(....B?~
	0x0020:  c05f 3da0 53e1 1b39 0000 71e6 9186 ec78  ?_=?S?.9..q?..?x
	0x0030:  5011 ffd7 8d3b 0000                      P.??.;..
15:30:24.651161 IP (tos 0x0, ttl 60, id 5830, offset 0, flags [DF], proto TCP (6), length 45)
    192.95.61.160.6969 > 10.66.187.126.21473: Flags [P.], cksum 0xaa04 (correct), seq 1:6, ack 6, win 65392, length 5
	0x0000:  0000 0200 0000 0000 0000 0000 0000 0800  ................
	0x0010:  4500 002d 16c6 4000 3c06 6445 c05f 3da0  E..-.?@.<.dE?_=?
	0x0020:  0a42 bb7e 1b39 53e1 9186 ec78 0000 71e6  .B?~.9S?..?x..q?
	0x0030:  5018 ff70 aa04 0000 4f4c 4c45 48         P.?p?...OLLEH
15:30:24.790936 IP (tos 0x0, ttl 60, id 5831, offset 0, flags [DF], proto TCP (6), length 40)
    192.95.61.160.6969 > 10.66.187.126.21473: Flags [.], cksum 0x8d9d (correct), seq 6, ack 7, win 65392, length 0
	0x0000:  0000 0200 0000 0000 0000 0000 0000 0800  ................
	0x0010:  4500 0028 16c7 4000 3c06 6449 c05f 3da0  E..(.?@.<.dI?_=?
	0x0020:  0a42 bb7e 1b39 53e1 9186 ec7d 0000 71e7  .B?~.9S?..?}..q?
	0x0030:  5010 ff70 8d9d 0000                      P.?p....
15:30:24.791126 IP (tos 0x0, ttl 64, id 46820, offset 0, flags [DF], proto TCP (6), length 40)
    10.66.187.126.21473 > 192.95.61.160.6969: Flags [R], cksum 0x0b1f (correct), seq 29159, win 0, length 0
	0x0000:  0004 0200 0000 0000 0000 0000 0000 0800  ................
	0x0010:  4500 0028 b6e4 4000 4006 c02b 0a42 bb7e  E..(??@.@.?+.B?~
	0x0020:  c05f 3da0 53e1 1b39 0000 71e7 0000 0000  ?_=?S?.9..q?....
	0x0030:  5004 0000 0b1f 0000                      P.......
15:30:24.879909 IP (tos 0x0, ttl 40, id 46821, offset 0, flags [none], proto TCP (6), length 40)
    10.66.187.126.42867 > 192.95.61.160.6969: Flags [S], cksum 0x1f6e (correct), seq 19261, win 65495, length 0
	0x0000:  0004 0200 0000 0000 0000 0000 0000 0800  ................
	0x0010:  4500 0028 b6e5 0000 2806 182b 0a42 bb7e  E..(??..(..+.B?~
	0x0020:  c05f 3da0 a773 1b39 0000 4b3d beef 0003  ?_=??s.9..K=??..
	0x0030:  5002 ffd7 1f6e 0000                      P.??.n..
15:30:24.881855 IP (tos 0x0, ttl 60, id 5832, offset 0, flags [DF], proto TCP (6), length 40)
    192.95.61.160.6969 > 10.66.187.126.21473: Flags [F.], cksum 0x8d9c (correct), seq 6, ack 7, win 65392, length 0
	0x0000:  0000 0200 0000 0000 0000 0000 0000 0800  ................
	0x0010:  4500 0028 16c8 4000 3c06 6448 c05f 3da0  E..(.?@.<.dH?_=?
	0x0020:  0a42 bb7e 1b39 53e1 9186 ec7d 0000 71e7  .B?~.9S?..?}..q?
	0x0030:  5011 ff70 8d9c 0000                      P.?p....
15:30:24.882024 IP (tos 0x0, ttl 64, id 46822, offset 0, flags [DF], proto TCP (6), length 40)
    10.66.187.126.21473 > 192.95.61.160.6969: Flags [R], cksum 0x0b1f (correct), seq 29159, win 0, length 0
	0x0000:  0004 0200 0000 0000 0000 0000 0000 0800  ................
	0x0010:  4500 0028 b6e6 4000 4006 c029 0a42 bb7e  E..(??@.@.?).B?~
	0x0020:  c05f 3da0 53e1 1b39 0000 71e7 0000 0000  ?_=?S?.9..q?....
	0x0030:  5004 0000 0b1f 0000                      P.......
15:30:25.311117 IP (tos 0x0, ttl 60, id 5833, offset 0, flags [DF], proto TCP (6), length 44)
    192.95.61.160.6969 > 10.66.187.126.42867: Flags [S.], cksum 0xf84e (correct), seq 2206813102, ack 19262, win 65392, options [mss 1320], length 0
	0x0000:  0000 0200 0000 0000 0000 0000 0000 0800  ................
	0x0010:  4500 002c 16c9 4000 3c06 6443 c05f 3da0  E..,.?@.<.dC?_=?
	0x0020:  0a42 bb7e 1b39 a773 8389 4bae 0000 4b3e  .B?~.9?s..K?..K>
	0x0030:  6012 ff70 f84e 0000 0204 0528            `.?p?N.....(
15:30:25.541421 IP (tos 0x0, ttl 40, id 46824, offset 0, flags [none], proto TCP (6), length 40)
    10.66.187.126.6076 > 192.95.61.160.6969: Flags [S], cksum 0xdacc (correct), seq 56968, win 65495, length 0
	0x0000:  0004 0200 0000 0000 0000 0000 0000 0800  ................
	0x0010:  4500 0028 b6e8 0000 2806 1828 0a42 bb7e  E..(??..(..(.B?~
	0x0020:  c05f 3da0 17bc 1b39 0000 de88 0000 0000  ?_=?.?.9..?.....
	0x0030:  5002 ffd7 dacc 0000                      P.????..
15:30:25.841246 IP (tos 0x0, ttl 60, id 5834, offset 0, flags [DF], proto TCP (6), length 44)
    192.95.61.160.6969 > 10.66.187.126.6076: Flags [S.], cksum 0x44de (correct), seq 2420698827, ack 56969, win 65392, options [mss 1320], length 0
	0x0000:  0000 0200 0000 0000 0000 0000 0000 0800  ................
	0x0010:  4500 002c 16ca 4000 3c06 6442 c05f 3da0  E..,.?@.<.dB?_=?
	0x0020:  0a42 bb7e 1b39 17bc 9048 eecb 0000 de89  .B?~.9.?.H??..?.
	0x0030:  6012 ff70 44de 0000 0204 0528            `.?pD?.....(
15:30:26.068310 IP (tos 0x0, ttl 40, id 46826, offset 0, flags [none], proto TCP (6), length 40)
    10.66.187.126.8232 > 192.95.61.160.6969: Flags [S], cksum 0xdc6c (correct), seq 5512, win 65495, length 0
	0x0000:  0004 0200 0000 0000 0000 0000 0000 0800  ................
	0x0010:  4500 0028 b6ea 0000 2806 1826 0a42 bb7e  E..(??..(..&.B?~
	0x0020:  c05f 3da0 2028 1b39 0000 1588 beef 0005  ?_=?.(.9....??..
	0x0030:  5002 ffd7 dc6c 0000                      P.???l..
15:30:26.360985 IP (tos 0x0, ttl 60, id 5835, offset 0, flags [DF], proto TCP (6), length 44)
    192.95.61.160.6969 > 10.66.187.126.8232: Flags [S.], cksum 0xf8c9 (correct), seq 3416506393, ack 5513, win 65392, options [mss 1320], length 0
	0x0000:  0000 0200 0000 0000 0000 0000 0000 0800  ................
	0x0010:  4500 002c 16cb 4000 3c06 6441 c05f 3da0  E..,.?@.<.dA?_=?
	0x0020:  0a42 bb7e 1b39 2028 cba3 c019 0000 1589  .B?~.9.(ˣ?.....
	0x0030:  6012 ff70 f8c9 0000 0204 0528            `.?p??.....(
15:30:26.430960 IP (tos 0x0, ttl 60, id 5836, offset 0, flags [DF], proto TCP (6), length 44)
    192.95.61.160.6969 > 10.66.187.126.42867: Flags [S.], cksum 0xf84e (correct), seq 2206813102, ack 19262, win 65392, options [mss 1320], length 0
	0x0000:  0000 0200 0000 0000 0000 0000 0000 0800  ................
	0x0010:  4500 002c 16cc 4000 3c06 6440 c05f 3da0  E..,.?@.<.d@?_=?
	0x0020:  0a42 bb7e 1b39 a773 8389 4bae 0000 4b3e  .B?~.9?s..K?..K>
	0x0030:  6012 ff70 f84e 0000 0204 0528            `.?p?N.....(
15:30:26.431251 IP (tos 0x0, ttl 64, id 46828, offset 0, flags [DF], proto TCP (6), length 40)
    10.66.187.126.42867 > 192.95.61.160.6969: Flags [R], cksum 0xde35 (correct), seq 19262, win 0, length 0
	0x0000:  0004 0200 0000 0000 0000 0000 0000 0800  ................
	0x0010:  4500 0028 b6ec 4000 4006 c023 0a42 bb7e  E..(??@.@.?#.B?~
	0x0020:  c05f 3da0 a773 1b39 0000 4b3e 0000 0000  ?_=??s.9..K>....
	0x0030:  5004 0000 de35 0000                      P...?5..
15:30:26.623789 IP (tos 0x0, ttl 40, id 46829, offset 0, flags [none], proto TCP (6), length 40)
    10.66.187.126.47138 > 192.95.61.160.6969: Flags [S], cksum 0x6bdd (correct), seq 60955, win 65495, length 0
	0x0000:  0004 0200 0000 0000 0000 0000 0000 0800  ................
	0x0010:  4500 0028 b6ed 0000 2806 1823 0a42 bb7e  E..(??..(..#.B?~
	0x0020:  c05f 3da0 b822 1b39 0000 ee1b beef 0006  ?_=??".9..?.??..
	0x0030:  5002 ffd7 6bdd 0000                      P.??k?..
15:30:26.961020 IP (tos 0x0, ttl 60, id 5837, offset 0, flags [DF], proto TCP (6), length 44)
    192.95.61.160.6969 > 10.66.187.126.47138: Flags [S.], cksum 0x1cad (correct), seq 1191817282, ack 60956, win 65392, options [mss 1320], length 0
	0x0000:  0000 0200 0000 0000 0000 0000 0000 0800  ................
	0x0010:  4500 002c 16cd 4000 3c06 643f c05f 3da0  E..,.?@.<.d??_=?
	0x0020:  0a42 bb7e 1b39 b822 4709 b042 0000 ee1c  .B?~.9?"G.?B..?.
	0x0030:  6012 ff70 1cad 0000 0204 0528            `.?p.?.....(
15:30:26.981254 IP (tos 0x0, ttl 60, id 5838, offset 0, flags [DF], proto TCP (6), length 44)
    192.95.61.160.6969 > 10.66.187.126.6076: Flags [S.], cksum 0x44de (correct), seq 2420698827, ack 56969, win 65392, options [mss 1320], length 0
	0x0000:  0000 0200 0000 0000 0000 0000 0000 0800  ................
	0x0010:  4500 002c 16ce 4000 3c06 643e c05f 3da0  E..,.?@.<.d>?_=?
	0x0020:  0a42 bb7e 1b39 17bc 9048 eecb 0000 de89  .B?~.9.?.H??..?.
	0x0030:  6012 ff70 44de 0000 0204 0528            `.?pD?.....(
15:30:26.981703 IP (tos 0x0, ttl 64, id 46831, offset 0, flags [DF], proto TCP (6), length 40)
    10.66.187.126.6076 > 192.95.61.160.6969: Flags [R], cksum 0xdaa1 (correct), seq 56969, win 0, length 0
	0x0000:  0004 0200 0000 0000 0000 0000 0000 0800  ................
	0x0010:  4500 0028 b6ef 4000 4006 c020 0a42 bb7e  E..(??@.@.?..B?~
	0x0020:  c05f 3da0 17bc 1b39 0000 de89 0000 0000  ?_=?.?.9..?.....
	0x0030:  5004 0000 daa1 0000                      P...ڡ..
15:30:27.195079 IP (tos 0x0, ttl 40, id 46832, offset 0, flags [none], proto TCP (6), length 40)
    10.66.187.126.6977 > 192.95.61.160.6969: Flags [S], cksum 0x5760 (correct), seq 41064, win 65495, length 0
	0x0000:  0004 0200 0000 0000 0000 0000 0000 0800  ................
	0x0010:  4500 0028 b6f0 0000 2806 1820 0a42 bb7e  E..(??..(....B?~
	0x0020:  c05f 3da0 1b41 1b39 0000 a068 0000 0000  ?_=?.A.9..?h....
	0x0030:  5002 ffd7 5760 be07                      P.??W`?.
15:30:27.511092 IP (tos 0x0, ttl 60, id 5839, offset 0, flags [DF], proto TCP (6), length 44)
    192.95.61.160.6969 > 10.66.187.126.8232: Flags [S.], cksum 0xf8c9 (correct), seq 3416506393, ack 5513, win 65392, options [mss 1320], length 0
	0x0000:  0000 0200 0000 0000 0000 0000 0000 0800  ................
	0x0010:  4500 002c 16cf 4000 3c06 643d c05f 3da0  E..,.?@.<.d=?_=?
	0x0020:  0a42 bb7e 1b39 2028 cba3 c019 0000 1589  .B?~.9.(ˣ?.....
	0x0030:  6012 ff70 f8c9 0000 0204 0528            `.?p??.....(
15:30:27.511635 IP (tos 0x0, ttl 64, id 46833, offset 0, flags [DF], proto TCP (6), length 40)
    10.66.187.126.8232 > 192.95.61.160.6969: Flags [R], cksum 0x9b36 (correct), seq 5513, win 0, length 0
	0x0000:  0004 0200 0000 0000 0000 0000 0000 0800  ................
	0x0010:  4500 0028 b6f1 4000 4006 c01e 0a42 bb7e  E..(??@.@.?..B?~
	0x0020:  c05f 3da0 2028 1b39 0000 1589 0000 0000  ?_=?.(.9........
	0x0030:  5004 0000 9b36 0000                      P....6..
15:30:27.531160 IP (tos 0x0, ttl 60, id 5840, offset 0, flags [DF], proto TCP (6), length 44)
    192.95.61.160.6969 > 10.66.187.126.6977: Flags [S.], cksum 0x4053 (correct), seq 2238265553, ack 41065, win 65392, options [mss 1320], length 0
	0x0000:  0000 0200 0000 0000 0000 0000 0000 0800  ................
	0x0010:  4500 002c 16d0 4000 3c06 643c c05f 3da0  E..,.?@.<.d<?_=?
	0x0020:  0a42 bb7e 1b39 1b41 8569 38d1 0000 a069  .B?~.9.A.i8?..?i
	0x0030:  6012 ff70 4053 0000 0204 0528            `.?p@S.....(
15:30:27.767750 IP (tos 0x0, ttl 40, id 46835, offset 0, flags [none], proto TCP (6), length 40)
    10.66.187.126.13507 > 192.95.61.160.6969: Flags [S], cksum 0x1b9d (correct), seq 49832, win 65495, length 0
	0x0000:  0004 0200 0000 0000 0000 0000 0000 0800  ................
	0x0010:  4500 0028 b6f3 0000 2806 181d 0a42 bb7e  E..(??..(....B?~
	0x0020:  c05f 3da0 34c3 1b39 0000 c2a8 0000 0000  ?_=?4?.9..¨....
	0x0030:  5002 ffd7 1b9d be08                      P.??..?.
15:30:28.100962 IP (tos 0x0, ttl 60, id 5841, offset 0, flags [DF], proto TCP (6), length 44)
    192.95.61.160.6969 > 10.66.187.126.47138: Flags [S.], cksum 0x1cad (correct), seq 1191817282, ack 60956, win 65392, options [mss 1320], length 0
	0x0000:  0000 0200 0000 0000 0000 0000 0000 0800  ................
	0x0010:  4500 002c 16d1 4000 3c06 643b c05f 3da0  E..,.?@.<.d;?_=?
	0x0020:  0a42 bb7e 1b39 b822 4709 b042 0000 ee1c  .B?~.9?"G.?B..?.
	0x0030:  6012 ff70 1cad 0000 0204 0528            `.?p.?.....(
15:30:28.101482 IP (tos 0x0, ttl 64, id 46836, offset 0, flags [DF], proto TCP (6), length 40)
    10.66.187.126.47138 > 192.95.61.160.6969: Flags [R], cksum 0x2aa8 (correct), seq 60956, win 0, length 0
	0x0000:  0004 0200 0000 0000 0000 0000 0000 0800  ................
	0x0010:  4500 0028 b6f4 4000 4006 c01b 0a42 bb7e  E..(??@.@.?..B?~
	0x0020:  c05f 3da0 b822 1b39 0000 ee1c 0000 0000  ?_=??".9..?.....
	0x0030:  5004 0000 2aa8 0000                      P...*?..
15:30:28.121260 IP (tos 0x0, ttl 60, id 5842, offset 0, flags [DF], proto TCP (6), length 44)
    192.95.61.160.6969 > 10.66.187.126.13507: Flags [S.], cksum 0x333b (correct), seq 2588407112, ack 49833, win 65392, options [mss 1320], length 0
	0x0000:  0000 0200 0000 0000 0000 0000 0000 0800  ................
	0x0010:  4500 002c 16d2 4000 3c06 643a c05f 3da0  E..,.?@.<.d:?_=?
	0x0020:  0a42 bb7e 1b39 34c3 9a47 f548 0000 c2a9  .B?~.94?.G?H..©
	0x0030:  6012 ff70 333b 0000 0204 0528            `.?p3;.....(
15:30:28.352673 IP (tos 0x0, ttl 40, id 46838, offset 0, flags [none], proto TCP (6), length 40)
    10.66.187.126.64028 > 192.95.61.160.6969: Flags [S], cksum 0xd395 (correct), seq 17749, win 65495, length 0
	0x0000:  0004 0200 0000 0000 0000 0000 0000 0800  ................
	0x0010:  4500 0028 b6f6 0000 2806 181a 0a42 bb7e  E..(??..(....B?~
	0x0020:  c05f 3da0 fa1c 1b39 0000 4555 0000 0000  ?_=??..9..EU....
	0x0030:  5002 ffd7 d395 be09                      P.???.?.
15:30:28.741087 IP (tos 0x0, ttl 60, id 5843, offset 0, flags [DF], proto TCP (6), length 44)
    192.95.61.160.6969 > 10.66.187.126.6977: Flags [S.], cksum 0x4053 (correct), seq 2238265553, ack 41065, win 65392, options [mss 1320], length 0
	0x0000:  0000 0200 0000 0000 0000 0000 0000 0800  ................
	0x0010:  4500 002c 16d3 4000 3c06 6439 c05f 3da0  E..,.?@.<.d9?_=?
	0x0020:  0a42 bb7e 1b39 1b41 8569 38d1 0000 a069  .B?~.9.A.i8?..?i
	0x0030:  6012 ff70 4053 0000 0204 0528            `.?p@S.....(
15:30:28.741619 IP (tos 0x0, ttl 64, id 46839, offset 0, flags [DF], proto TCP (6), length 40)
    10.66.187.126.6977 > 192.95.61.160.6969: Flags [R], cksum 0x153d (correct), seq 41065, win 0, length 0
	0x0000:  0004 0200 0000 0000 0000 0000 0000 0800  ................
	0x0010:  4500 0028 b6f7 4000 4006 c018 0a42 bb7e  E..(??@.@.?..B?~
	0x0020:  c05f 3da0 1b41 1b39 0000 a069 0000 0000  ?_=?.A.9..?i....
	0x0030:  5004 0000 153d 0000                      P....=..
15:30:28.761028 IP (tos 0x0, ttl 60, id 5844, offset 0, flags [DF], proto TCP (6), length 44)
    192.95.61.160.6969 > 10.66.187.126.64028: Flags [S.], cksum 0x0989 (correct), seq 1913650988, ack 17750, win 65392, options [mss 1320], length 0
	0x0000:  0000 0200 0000 0000 0000 0000 0000 0800  ................
	0x0010:  4500 002c 16d4 4000 3c06 6438 c05f 3da0  E..,.?@.<.d8?_=?
	0x0020:  0a42 bb7e 1b39 fa1c 720f ff2c 0000 4556  .B?~.9?.r.?,..EV
	0x0030:  6012 ff70 0989 0000 0204 0528            `.?p.......(
15:30:28.991404 IP (tos 0x0, ttl 40, id 46841, offset 0, flags [none], proto TCP (6), length 40)
    10.66.187.126.40337 > 192.95.61.160.6969: Flags [S], cksum 0x6754 (correct), seq 52011, win 65495, length 0
	0x0000:  0004 0200 0000 0000 0000 0000 0000 0800  ................
	0x0010:  4500 0028 b6f9 0000 2806 1817 0a42 bb7e  E..(??..(....B?~
	0x0020:  c05f 3da0 9d91 1b39 0000 cb2b 0000 0000  ?_=?...9..?+....
	0x0030:  5102 ffd7 6754 0000                      Q.??gT..
15:30:29.240982 IP (tos 0x0, ttl 60, id 5845, offset 0, flags [DF], proto TCP (6), length 44)
    192.95.61.160.6969 > 10.66.187.126.13507: Flags [S.], cksum 0x333b (correct), seq 2588407112, ack 49833, win 65392, options [mss 1320], length 0
	0x0000:  0000 0200 0000 0000 0000 0000 0000 0800  ................
	0x0010:  4500 002c 16d5 4000 3c06 6437 c05f 3da0  E..,.?@.<.d7?_=?
	0x0020:  0a42 bb7e 1b39 34c3 9a47 f548 0000 c2a9  .B?~.94?.G?H..©
	0x0030:  6012 ff70 333b 0000 0204 0528            `.?p3;.....(
15:30:29.241514 IP (tos 0x0, ttl 64, id 46842, offset 0, flags [DF], proto TCP (6), length 40)
    10.66.187.126.13507 > 192.95.61.160.6969: Flags [R], cksum 0xd97a (correct), seq 49833, win 0, length 0
	0x0000:  0004 0200 0000 0000 0000 0000 0000 0800  ................
	0x0010:  4500 0028 b6fa 4000 4006 c015 0a42 bb7e  E..(??@.@.?..B?~
	0x0020:  c05f 3da0 34c3 1b39 0000 c2a9 0000 0000  ?_=?4?.9..©....
	0x0030:  5004 0000 d97a 0000                      P...?z..
15:30:29.360980 IP (tos 0x0, ttl 60, id 5846, offset 0, flags [DF], proto TCP (6), length 44)
    192.95.61.160.6969 > 10.66.187.126.40337: Flags [S.], cksum 0xea62 (correct), seq 2326649961, ack 52012, win 65392, options [mss 1320], length 0
	0x0000:  0000 0200 0000 0000 0000 0000 0000 0800  ................
	0x0010:  4500 002c 16d6 4000 3c06 6436 c05f 3da0  E..,.?@.<.d6?_=?
	0x0020:  0a42 bb7e 1b39 9d91 8aad dc69 0000 cb2c  .B?~.9...??i..?,
	0x0030:  6012 ff70 ea62 0000 0204 0528            `.?p?b.....(
15:30:29.591209 IP (tos 0x0, ttl 40, id 46844, offset 0, flags [none], proto TCP (6), length 40)
    10.66.187.126.15357 > 192.95.61.160.6969: Flags [S], cksum 0x65d1 (correct), seq 11587, win 65495, length 0
	0x0000:  0004 0200 0000 0000 0000 0000 0000 0800  ................
	0x0010:  4500 0028 b6fc 0000 2806 1814 0a42 bb7e  E..(??..(....B?~
	0x0020:  c05f 3da0 3bfd 1b39 0000 2d43 0000 0000  ?_=?;?.9..-C....
	0x0030:  5202 ffd7 65d1 0000                      R.??e?..
15:30:29.871185 IP (tos 0x0, ttl 60, id 5847, offset 0, flags [DF], proto TCP (6), length 44)
    192.95.61.160.6969 > 10.66.187.126.64028: Flags [S.], cksum 0x0989 (correct), seq 1913650988, ack 17750, win 65392, options [mss 1320], length 0
	0x0000:  0000 0200 0000 0000 0000 0000 0000 0800  ................
	0x0010:  4500 002c 16d7 4000 3c06 6435 c05f 3da0  E..,.?@.<.d5?_=?
	0x0020:  0a42 bb7e 1b39 fa1c 720f ff2c 0000 4556  .B?~.9?.r.?,..EV
	0x0030:  6012 ff70 0989 0000 0204 0528            `.?p.......(
15:30:29.871830 IP (tos 0x0, ttl 64, id 46845, offset 0, flags [DF], proto TCP (6), length 40)
    10.66.187.126.64028 > 192.95.61.160.6969: Flags [R], cksum 0x9174 (correct), seq 17750, win 0, length 0
	0x0000:  0004 0200 0000 0000 0000 0000 0000 0800  ................
	0x0010:  4500 0028 b6fd 4000 4006 c012 0a42 bb7e  E..(??@.@.?..B?~
	0x0020:  c05f 3da0 fa1c 1b39 0000 4556 0000 0000  ?_=??..9..EV....
	0x0030:  5004 0000 9174 0000                      P....t..
15:30:29.900973 IP (tos 0x0, ttl 60, id 5848, offset 0, flags [DF], proto TCP (6), length 44)
    192.95.61.160.6969 > 10.66.187.126.15357: Flags [S.], cksum 0x9191 (correct), seq 1712478547, ack 11588, win 65392, options [mss 1320], length 0
	0x0000:  0000 0200 0000 0000 0000 0000 0000 0800  ................
	0x0010:  4500 002c 16d8 4000 3c06 6434 c05f 3da0  E..,.?@.<.d4?_=?
	0x0020:  0a42 bb7e 1b39 3bfd 6612 5953 0000 2d44  .B?~.9;?f.YS..-D
	0x0030:  6012 ff70 9191 0000 0204 0528            `.?p.......(
15:30:30.138587 IP (tos 0x0, ttl 40, id 46847, offset 0, flags [none], proto TCP (6), length 40)
    10.66.187.126.8813 > 192.95.61.160.6969: Flags [S], cksum 0xf2c1 (correct), seq 47074, win 65495, length 0
	0x0000:  0004 0200 0000 0000 0000 0000 0000 0800  ................
	0x0010:  4500 0028 b6ff 0000 2806 1811 0a42 bb7e  E..(??..(....B?~
	0x0020:  c05f 3da0 226d 1b39 0000 b7e2 0000 0000  ?_=?"m.9..??....
	0x0030:  5402 ffd7 f2c1 0000                      T.????..
15:30:30.451067 IP (tos 0x0, ttl 60, id 5849, offset 0, flags [DF], proto TCP (6), length 44)
    192.95.61.160.6969 > 10.66.187.126.8813: Flags [S.], cksum 0xf0a9 (correct), seq 3787918710, ack 47075, win 65392, options [mss 1320], length 0
	0x0000:  0000 0200 0000 0000 0000 0000 0000 0800  ................
	0x0010:  4500 002c 16d9 4000 3c06 6433 c05f 3da0  E..,.?@.<.d3?_=?
	0x0020:  0a42 bb7e 1b39 226d e1c7 0d76 0000 b7e3  .B?~.9"m??.v..??
	0x0030:  6012 ff70 f0a9 0000 0204 0528            `.?p?.....(
15:30:30.500912 IP (tos 0x0, ttl 60, id 5850, offset 0, flags [DF], proto TCP (6), length 44)
    192.95.61.160.6969 > 10.66.187.126.40337: Flags [S.], cksum 0xea62 (correct), seq 2326649961, ack 52012, win 65392, options [mss 1320], length 0
	0x0000:  0000 0200 0000 0000 0000 0000 0000 0800  ................
	0x0010:  4500 002c 16da 4000 3c06 6432 c05f 3da0  E..,.?@.<.d2?_=?
	0x0020:  0a42 bb7e 1b39 9d91 8aad dc69 0000 cb2c  .B?~.9...??i..?,
	0x0030:  6012 ff70 ea62 0000 0204 0528            `.?p?b.....(
15:30:30.501217 IP (tos 0x0, ttl 64, id 46849, offset 0, flags [DF], proto TCP (6), length 40)
    10.66.187.126.40337 > 192.95.61.160.6969: Flags [R], cksum 0x6829 (correct), seq 52012, win 0, length 0
	0x0000:  0004 0200 0000 0000 0000 0000 0000 0800  ................
	0x0010:  4500 0028 b701 4000 4006 c00e 0a42 bb7e  E..(?.@.@.?..B?~
	0x0020:  c05f 3da0 9d91 1b39 0000 cb2c 0000 0000  ?_=?...9..?,....
	0x0030:  5004 0000 6829 0000                      P...h)..
15:30:30.685087 IP (tos 0x0, ttl 40, id 46850, offset 0, flags [none], proto TCP (6), length 40)
    10.66.187.126.22287 > 192.95.61.160.6969: Flags [S], cksum 0x91cb (correct), seq 57398, win 65495, length 0
	0x0000:  0004 0200 0000 0000 0000 0000 0000 0800  ................
	0x0010:  4500 0028 b702 0000 2806 180e 0a42 bb7e  E..(?...(....B?~
	0x0020:  c05f 3da0 570f 1b39 0000 e036 0000 0000  ?_=?W..9..?6....
	0x0030:  5802 ffd7 91cb 0000                      X.??.?..
15:30:30.981165 IP (tos 0x0, ttl 60, id 5851, offset 0, flags [DF], proto TCP (6), length 44)
    192.95.61.160.6969 > 10.66.187.126.22287: Flags [S.], cksum 0x406a (correct), seq 1765595466, ack 57399, win 65392, options [mss 1320], length 0
	0x0000:  0000 0200 0000 0000 0000 0000 0000 0800  ................
	0x0010:  4500 002c 16db 4000 3c06 6431 c05f 3da0  E..,.?@.<.d1?_=?
	0x0020:  0a42 bb7e 1b39 570f 693c d94a 0000 e037  .B?~.9W.i<?J..?7
	0x0030:  6012 ff70 406a 0000 0204 0528            `.?p@j.....(
15:30:31.030948 IP (tos 0x0, ttl 60, id 5852, offset 0, flags [DF], proto TCP (6), length 44)
    192.95.61.160.6969 > 10.66.187.126.15357: Flags [S.], cksum 0x9191 (correct), seq 1712478547, ack 11588, win 65392, options [mss 1320], length 0
	0x0000:  0000 0200 0000 0000 0000 0000 0000 0800  ................
	0x0010:  4500 002c 16dc 4000 3c06 6430 c05f 3da0  E..,.?@.<.d0?_=?
	0x0020:  0a42 bb7e 1b39 3bfd 6612 5953 0000 2d44  .B?~.9;?f.YS..-D
	0x0030:  6012 ff70 9191 0000 0204 0528            `.?p.......(
15:30:31.031269 IP (tos 0x0, ttl 64, id 46852, offset 0, flags [DF], proto TCP (6), length 40)
    10.66.187.126.15357 > 192.95.61.160.6969: Flags [R], cksum 0x67a6 (correct), seq 11588, win 0, length 0
	0x0000:  0004 0200 0000 0000 0000 0000 0000 0800  ................
	0x0010:  4500 0028 b704 4000 4006 c00b 0a42 bb7e  E..(?.@.@.?..B?~
	0x0020:  c05f 3da0 3bfd 1b39 0000 2d44 0000 0000  ?_=?;?.9..-D....
	0x0030:  5004 0000 67a6 0000                      P...g?..
15:30:31.212398 IP (tos 0x0, ttl 40, id 46853, offset 0, flags [none], proto TCP (6), length 40)
    10.66.187.126.45666 > 192.95.61.160.6969: Flags [S], cksum 0xf6e1 (correct), seq 10189, win 65495, length 0
	0x0000:  0004 0200 0000 0000 0000 0000 0000 0800  ................
	0x0010:  4500 0028 b705 0000 2806 180b 0a42 bb7e  E..(?...(....B?~
	0x0020:  c05f 3da0 b262 1b39 0000 27cd 0000 0000  ?_=??b.9..'?....
	0x0030:  5002 ffd7 f6e1 0000                      P.????..
15:30:31.581118 IP (tos 0x0, ttl 60, id 5853, offset 0, flags [DF], proto TCP (6), length 44)
    192.95.61.160.6969 > 10.66.187.126.8813: Flags [S.], cksum 0xf0a9 (correct), seq 3787918710, ack 47075, win 65392, options [mss 1320], length 0
	0x0000:  0000 0200 0000 0000 0000 0000 0000 0800  ................
	0x0010:  4500 002c 16dd 4000 3c06 642f c05f 3da0  E..,.?@.<.d/?_=?
	0x0020:  0a42 bb7e 1b39 226d e1c7 0d76 0000 b7e3  .B?~.9"m??.v..??
	0x0030:  6012 ff70 f0a9 0000 0204 0528            `.?p?.....(
15:30:31.581690 IP (tos 0x0, ttl 64, id 46854, offset 0, flags [DF], proto TCP (6), length 40)
    10.66.187.126.8813 > 192.95.61.160.6969: Flags [R], cksum 0xf696 (correct), seq 47075, win 0, length 0
	0x0000:  0004 0200 0000 0000 0000 0000 0000 0800  ................
	0x0010:  4500 0028 b706 4000 4006 c009 0a42 bb7e  E..(?.@.@.?..B?~
	0x0020:  c05f 3da0 226d 1b39 0000 b7e3 0000 0000  ?_=?"m.9..??....
	0x0030:  5004 0000 f696 0000                      P...?...
15:30:31.601339 IP (tos 0x0, ttl 60, id 5854, offset 0, flags [DF], proto TCP (6), length 44)
    192.95.61.160.6969 > 10.66.187.126.45666: Flags [S.], cksum 0xa364 (correct), seq 3269818813, ack 10190, win 65392, options [mss 1320], length 0
	0x0000:  0000 0200 0000 0000 0000 0000 0000 0800  ................
	0x0010:  4500 002c 16de 4000 3c06 642e c05f 3da0  E..,.?@.<.d.?_=?
	0x0020:  0a42 bb7e 1b39 b262 c2e5 79bd 0000 27ce  .B?~.9?b??y?..'?
	0x0030:  6012 ff70 a364 0000 0204 0528            `.?p?d.....(
15:30:31.603218 IP (tos 0x0, ttl 40, id 46856, offset 0, flags [none], proto TCP (6), length 40)
    10.66.187.126.45666 > 192.95.61.160.6969: Flags [.], cksum 0xba2e (correct), seq 1, ack 1, win 65495, length 0
	0x0000:  0004 0200 0000 0000 0000 0000 0000 0800  ................
	0x0010:  4500 0028 b708 0000 2806 1808 0a42 bb7e  E..(?...(....B?~
	0x0020:  c05f 3da0 b262 1b39 0000 27ce c2e5 79be  ?_=??b.9..'???y?
	0x0030:  5010 ffd7 ba2e 0000                      P.?׺...
15:30:31.604013 IP (tos 0x0, ttl 40, id 46857, offset 0, flags [none], proto TCP (6), length 45)
    10.66.187.126.45666 > 192.95.61.160.6969: Flags [P.], cksum 0xd58f (correct), seq 1:6, ack 1, win 65495, length 5
	0x0000:  0004 0200 0000 0000 0000 0000 0000 0800  ................
	0x0010:  4500 002d b709 0000 2806 1802 0a42 bb7e  E..-?...(....B?~
	0x0020:  c05f 3da0 b262 1b39 0000 27ce c2e5 79be  ?_=??b.9..'???y?
	0x0030:  5118 ffd7 d58f 0000 4845 4c4c 4f         Q.???...HELLO
15:30:32.111094 IP (tos 0x0, ttl 60, id 5855, offset 0, flags [DF], proto TCP (6), length 44)
    192.95.61.160.6969 > 10.66.187.126.22287: Flags [S.], cksum 0x406a (correct), seq 1765595466, ack 57399, win 65392, options [mss 1320], length 0
	0x0000:  0000 0200 0000 0000 0000 0000 0000 0800  ................
	0x0010:  4500 002c 16df 4000 3c06 642d c05f 3da0  E..,.?@.<.d-?_=?
	0x0020:  0a42 bb7e 1b39 570f 693c d94a 0000 e037  .B?~.9W.i<?J..?7
	0x0030:  6012 ff70 406a 0000 0204 0528            `.?p@j.....(
15:30:32.111662 IP (tos 0x0, ttl 64, id 46858, offset 0, flags [DF], proto TCP (6), length 40)
    10.66.187.126.22287 > 192.95.61.160.6969: Flags [R], cksum 0x99a0 (correct), seq 57399, win 0, length 0
	0x0000:  0004 0200 0000 0000 0000 0000 0000 0800  ................
	0x0010:  4500 0028 b70a 4000 4006 c005 0a42 bb7e  E..(?.@.@.?..B?~
	0x0020:  c05f 3da0 570f 1b39 0000 e037 0000 0000  ?_=?W..9..?7....
	0x0030:  5004 0000 99a0 0000                      P....?..
15:30:32.191176 IP (tos 0x0, ttl 60, id 5856, offset 0, flags [DF], proto TCP (6), length 40)
    192.95.61.160.6969 > 10.66.187.126.45666: Flags [.], cksum 0xba90 (correct), seq 1, ack 6, win 65392, length 0
	0x0000:  0000 0200 0000 0000 0000 0000 0000 0800  ................
	0x0010:  4500 0028 16e0 4000 3c06 6430 c05f 3da0  E..(.?@.<.d0?_=?
	0x0020:  0a42 bb7e 1b39 b262 c2e5 79be 0000 27d3  .B?~.9?b??y?..'?
	0x0030:  5010 ff70 ba90 0000                      P.?p?...
15:30:32.193184 IP (tos 0x0, ttl 40, id 46860, offset 0, flags [none], proto TCP (6), length 40)
    10.66.187.126.45666 > 192.95.61.160.6969: Flags [F.], cksum 0xba28 (correct), seq 6, ack 1, win 65495, length 0
	0x0000:  0004 0200 0000 0000 0000 0000 0000 0800  ................
	0x0010:  4500 0028 b70c 0000 2806 1804 0a42 bb7e  E..(?...(....B?~
	0x0020:  c05f 3da0 b262 1b39 0000 27d3 c2e5 79be  ?_=??b.9..'???y?
	0x0030:  5011 ffd7 ba28 0000                      P.?׺(..
15:30:32.441275 IP (tos 0x0, ttl 60, id 5857, offset 0, flags [DF], proto TCP (6), length 45)
    192.95.61.160.6969 > 10.66.187.126.45666: Flags [P.], cksum 0xd6f1 (correct), seq 1:6, ack 6, win 65392, length 5
	0x0000:  0000 0200 0000 0000 0000 0000 0000 0800  ................
	0x0010:  4500 002d 16e1 4000 3c06 642a c05f 3da0  E..-.?@.<.d*?_=?
	0x0020:  0a42 bb7e 1b39 b262 c2e5 79be 0000 27d3  .B?~.9?b??y?..'?
	0x0030:  5018 ff70 d6f1 0000 4f4c 4c45 48         P.?p??..OLLEH
15:30:32.651103 IP (tos 0x0, ttl 60, id 5858, offset 0, flags [DF], proto TCP (6), length 40)
    192.95.61.160.6969 > 10.66.187.126.45666: Flags [.], cksum 0xba8a (correct), seq 6, ack 7, win 65392, length 0
	0x0000:  0000 0200 0000 0000 0000 0000 0000 0800  ................
	0x0010:  4500 0028 16e2 4000 3c06 642e c05f 3da0  E..(.?@.<.d.?_=?
	0x0020:  0a42 bb7e 1b39 b262 c2e5 79c3 0000 27d4  .B?~.9?b??y?..'?
	0x0030:  5010 ff70 ba8a 0000                      P.?p?...
15:30:32.651295 IP (tos 0x0, ttl 64, id 46862, offset 0, flags [DF], proto TCP (6), length 40)
    10.66.187.126.45666 > 192.95.61.160.6969: Flags [R], cksum 0xf6b0 (correct), seq 10196, win 0, length 0
	0x0000:  0004 0200 0000 0000 0000 0000 0000 0800  ................
	0x0010:  4500 0028 b70e 4000 4006 c001 0a42 bb7e  E..(?.@.@.?..B?~
	0x0020:  c05f 3da0 b262 1b39 0000 27d4 0000 0000  ?_=??b.9..'?....
	0x0030:  5004 0000 f6b0 0000                      P...??..
15:30:32.667256 IP (tos 0x0, ttl 40, id 46863, offset 0, flags [none], proto TCP (6), length 40)
    10.66.187.126.36638 > 192.95.61.160.6969: Flags [S], cksum 0xb91c (correct), seq 35030, win 65495, length 0
	0x0000:  0004 0200 0000 0000 0000 0000 0000 0800  ................
	0x0010:  4500 0028 b70f 0000 2806 1801 0a42 bb7e  E..(?...(....B?~
	0x0020:  c05f 3da0 8f1e 1b39 0000 88d6 0000 0000  ?_=?...9...?....
	0x0030:  5002 ffd7 b91c 0000                      P.?׹...
15:30:32.741334 IP (tos 0x0, ttl 60, id 5859, offset 0, flags [DF], proto TCP (6), length 40)
    192.95.61.160.6969 > 10.66.187.126.45666: Flags [F.], cksum 0xba89 (correct), seq 6, ack 7, win 65392, length 0
	0x0000:  0000 0200 0000 0000 0000 0000 0000 0800  ................
	0x0010:  4500 0028 16e3 4000 3c06 642d c05f 3da0  E..(.?@.<.d-?_=?
	0x0020:  0a42 bb7e 1b39 b262 c2e5 79c3 0000 27d4  .B?~.9?b??y?..'?
	0x0030:  5011 ff70 ba89 0000                      P.?p?...
15:30:32.741667 IP (tos 0x0, ttl 64, id 46864, offset 0, flags [DF], proto TCP (6), length 40)
    10.66.187.126.45666 > 192.95.61.160.6969: Flags [R], cksum 0xf6b0 (correct), seq 10196, win 0, length 0
	0x0000:  0004 0200 0000 0000 0000 0000 0000 0800  ................
	0x0010:  4500 0028 b710 4000 4006 bfff 0a42 bb7e  E..(?.@.@.??.B?~
	0x0020:  c05f 3da0 b262 1b39 0000 27d4 0000 0000  ?_=??b.9..'?....
	0x0030:  5004 0000 f6b0 0000                      P...??..
15:30:33.181170 IP (tos 0x0, ttl 60, id 5860, offset 0, flags [DF], proto TCP (6), length 44)
    192.95.61.160.6969 > 10.66.187.126.36638: Flags [S.], cksum 0xc92d (correct), seq 2604416472, ack 35031, win 65392, options [mss 1320], length 0
	0x0000:  0000 0200 0000 0000 0000 0000 0000 0800  ................
	0x0010:  4500 002c 16e4 4000 3c06 6428 c05f 3da0  E..,.?@.<.d(?_=?
	0x0020:  0a42 bb7e 1b39 8f1e 9b3c 3dd8 0000 88d7  .B?~.9...<=?...?
	0x0030:  6012 ff70 c92d 0000 0204 0528            `.?p?-.....(
15:30:33.182817 IP (tos 0x0, ttl 40, id 46866, offset 0, flags [none], proto TCP (6), length 40)
    10.66.187.126.36638 > 192.95.61.160.6969: Flags [.], cksum 0xdff7 (correct), seq 1, ack 1, win 65495, length 0
	0x0000:  0004 0200 0000 0000 0000 0000 0000 0800  ................
	0x0010:  4500 0028 b712 0000 2806 17fe 0a42 bb7e  E..(?...(..?.B?~
	0x0020:  c05f 3da0 8f1e 1b39 0000 88d7 9b3c 3dd9  ?_=?...9...?.<=?
	0x0030:  5010 ffd7 dff7 0000                      P.????..
15:30:33.183614 IP (tos 0x0, ttl 40, id 46867, offset 0, flags [none], proto TCP (6), length 45)
    10.66.187.126.36638 > 192.95.61.160.6969: Flags [P.], cksum 0xfa58 (correct), seq 1:6, ack 1, win 65495, length 5
	0x0000:  0004 0200 0000 0000 0000 0000 0000 0800  ................
	0x0010:  4500 002d b713 0000 2806 17f8 0a42 bb7e  E..-?...(..?.B?~
	0x0020:  c05f 3da0 8f1e 1b39 0000 88d7 9b3c 3dd9  ?_=?...9...?.<=?
	0x0030:  5218 ffd7 fa58 0000 4845 4c4c 4f         R.???X..HELLO
15:30:33.641342 IP (tos 0x0, ttl 60, id 5861, offset 0, flags [DF], proto TCP (6), length 40)
    192.95.61.160.6969 > 10.66.187.126.36638: Flags [.], cksum 0xe059 (correct), seq 1, ack 6, win 65392, length 0
	0x0000:  0000 0200 0000 0000 0000 0000 0000 0800  ................
	0x0010:  4500 0028 16e5 4000 3c06 642b c05f 3da0  E..(.?@.<.d+?_=?
	0x0020:  0a42 bb7e 1b39 8f1e 9b3c 3dd9 0000 88dc  .B?~.9...<=?...?
	0x0030:  5010 ff70 e059 0000                      P.?p?Y..
15:30:33.644128 IP (tos 0x0, ttl 40, id 46869, offset 0, flags [none], proto TCP (6), length 40)
    10.66.187.126.36638 > 192.95.61.160.6969: Flags [F.], cksum 0xdff1 (correct), seq 6, ack 1, win 65495, length 0
	0x0000:  0004 0200 0000 0000 0000 0000 0000 0800  ................
	0x0010:  4500 0028 b715 0000 2806 17fb 0a42 bb7e  E..(?...(..?.B?~
	0x0020:  c05f 3da0 8f1e 1b39 0000 88dc 9b3c 3dd9  ?_=?...9...?.<=?
	0x0030:  5011 ffd7 dff1 0000                      P.????..
15:30:33.871180 IP (tos 0x0, ttl 60, id 5862, offset 0, flags [DF], proto TCP (6), length 45)
    192.95.61.160.6969 > 10.66.187.126.36638: Flags [P.], cksum 0xfcba (correct), seq 1:6, ack 6, win 65392, length 5
	0x0000:  0000 0200 0000 0000 0000 0000 0000 0800  ................
	0x0010:  4500 002d 16e6 4000 3c06 6425 c05f 3da0  E..-.?@.<.d%?_=?
	0x0020:  0a42 bb7e 1b39 8f1e 9b3c 3dd9 0000 88dc  .B?~.9...<=?...?
	0x0030:  5018 ff70 fcba 0000 4f4c 4c45 48         P.?p??..OLLEH
15:30:34.031051 IP (tos 0x0, ttl 60, id 5863, offset 0, flags [DF], proto TCP (6), length 40)
    192.95.61.160.6969 > 10.66.187.126.36638: Flags [.], cksum 0xe053 (correct), seq 6, ack 7, win 65392, length 0
	0x0000:  0000 0200 0000 0000 0000 0000 0000 0800  ................
	0x0010:  4500 0028 16e7 4000 3c06 6429 c05f 3da0  E..(.?@.<.d)?_=?
	0x0020:  0a42 bb7e 1b39 8f1e 9b3c 3dde 0000 88dd  .B?~.9...<=?...?
	0x0030:  5010 ff70 e053 0000                      P.?p?S..
15:30:34.031244 IP (tos 0x0, ttl 64, id 46871, offset 0, flags [DF], proto TCP (6), length 40)
    10.66.187.126.36638 > 192.95.61.160.6969: Flags [R], cksum 0xb8eb (correct), seq 35037, win 0, length 0
	0x0000:  0004 0200 0000 0000 0000 0000 0000 0800  ................
	0x0010:  4500 0028 b717 4000 4006 bff8 0a42 bb7e  E..(?.@.@.??.B?~
	0x0020:  c05f 3da0 8f1e 1b39 0000 88dd 0000 0000  ?_=?...9...?....
	0x0030:  5004 0000 b8eb 0000                      P...??..
15:30:34.097809 IP (tos 0x0, ttl 40, id 46872, offset 0, flags [none], proto TCP (6), length 40)
    10.66.187.126.59166 > 192.95.61.160.6969: Flags [S], cksum 0x2ecb (correct), seq 47911, win 65495, length 0
	0x0000:  0004 0200 0000 0000 0000 0000 0000 0800  ................
	0x0010:  4500 0028 b718 0000 2806 17f8 0a42 bb7e  E..(?...(..?.B?~
	0x0020:  c05f 3da0 e71e 1b39 0000 bb27 0000 0000  ?_=??..9..?'....
	0x0030:  5002 ffd7 2ecb 0000                      P.??.?..
15:30:34.122056 IP (tos 0x0, ttl 60, id 5864, offset 0, flags [DF], proto TCP (6), length 40)
    192.95.61.160.6969 > 10.66.187.126.36638: Flags [F.], cksum 0xe052 (correct), seq 6, ack 7, win 65392, length 0
	0x0000:  0000 0200 0000 0000 0000 0000 0000 0800  ................
	0x0010:  4500 0028 16e8 4000 3c06 6428 c05f 3da0  E..(.?@.<.d(?_=?
	0x0020:  0a42 bb7e 1b39 8f1e 9b3c 3dde 0000 88dd  .B?~.9...<=?...?
	0x0030:  5011 ff70 e052 0000                      P.?p?R..
15:30:34.122377 IP (tos 0x0, ttl 64, id 46873, offset 0, flags [DF], proto TCP (6), length 40)
    10.66.187.126.36638 > 192.95.61.160.6969: Flags [R], cksum 0xb8eb (correct), seq 35037, win 0, length 0
	0x0000:  0004 0200 0000 0000 0000 0000 0000 0800  ................
	0x0010:  4500 0028 b719 4000 4006 bff6 0a42 bb7e  E..(?.@.@.??.B?~
	0x0020:  c05f 3da0 8f1e 1b39 0000 88dd 0000 0000  ?_=?...9...?....
	0x0030:  5004 0000 b8eb 0000                      P...??..
15:30:34.581159 IP (tos 0x0, ttl 60, id 5865, offset 0, flags [DF], proto TCP (6), length 44)
    192.95.61.160.6969 > 10.66.187.126.59166: Flags [S.], cksum 0x57ba (correct), seq 4018786476, ack 47912, win 65392, options [mss 1320], length 0
	0x0000:  0000 0200 0000 0000 0000 0000 0000 0800  ................
	0x0010:  4500 002c 16e9 4000 3c06 6423 c05f 3da0  E..,.?@.<.d#?_=?
	0x0020:  0a42 bb7e 1b39 e71e ef89 d0ac 0000 bb28  .B?~.9?.?.Ь..?(
	0x0030:  6012 ff70 57ba 0000 0204 0528            `.?pW?.....(
15:30:34.583742 IP (tos 0x0, ttl 40, id 46875, offset 0, flags [none], proto TCP (6), length 40)
    10.66.187.126.59166 > 192.95.61.160.6969: Flags [.], cksum 0x6e84 (correct), seq 1, ack 1, win 65495, length 0
	0x0000:  0004 0200 0000 0000 0000 0000 0000 0800  ................
	0x0010:  4500 0028 b71b 0000 2806 17f5 0a42 bb7e  E..(?...(..?.B?~
	0x0020:  c05f 3da0 e71e 1b39 0000 bb28 ef89 d0ad  ?_=??..9..?(?.Э
	0x0030:  5010 ffd7 6e84 0000                      P.??n...
15:30:34.584585 IP (tos 0x0, ttl 40, id 46876, offset 0, flags [none], proto TCP (6), length 45)
    10.66.187.126.59166 > 192.95.61.160.6969: Flags [P.], cksum 0x86e5 (correct), seq 1:6, ack 1, win 65495, length 5
	0x0000:  0004 0200 0000 0000 0000 0000 0000 0800  ................
	0x0010:  4500 002d b71c 0000 2806 17ef 0a42 bb7e  E..-?...(..?.B?~
	0x0020:  c05f 3da0 e71e 1b39 0000 bb28 ef89 d0ad  ?_=??..9..?(?.Э
	0x0030:  5418 ffd7 86e5 0000 4845 4c4c 4f         T.??.?..HELLO
15:30:35.011046 IP (tos 0x0, ttl 60, id 5866, offset 0, flags [DF], proto TCP (6), length 40)
    192.95.61.160.6969 > 10.66.187.126.59166: Flags [.], cksum 0x6ee6 (correct), seq 1, ack 6, win 65392, length 0
	0x0000:  0000 0200 0000 0000 0000 0000 0000 0800  ................
	0x0010:  4500 0028 16ea 4000 3c06 6426 c05f 3da0  E..(.?@.<.d&?_=?
	0x0020:  0a42 bb7e 1b39 e71e ef89 d0ad 0000 bb2d  .B?~.9?.?.Э..?-
	0x0030:  5010 ff70 6ee6 0000                      P.?pn?..
15:30:35.013430 IP (tos 0x0, ttl 40, id 46878, offset 0, flags [none], proto TCP (6), length 40)
    10.66.187.126.59166 > 192.95.61.160.6969: Flags [F.], cksum 0x6e7e (correct), seq 6, ack 1, win 65495, length 0
	0x0000:  0004 0200 0000 0000 0000 0000 0000 0800  ................
	0x0010:  4500 0028 b71e 0000 2806 17f2 0a42 bb7e  E..(?...(..?.B?~
	0x0020:  c05f 3da0 e71e 1b39 0000 bb2d ef89 d0ad  ?_=??..9..?-?.Э
	0x0030:  5011 ffd7 6e7e 0000                      P.??n~..
15:30:35.261399 IP (tos 0x0, ttl 60, id 5867, offset 0, flags [DF], proto TCP (6), length 45)
    192.95.61.160.6969 > 10.66.187.126.59166: Flags [P.], cksum 0x8b47 (correct), seq 1:6, ack 6, win 65392, length 5
	0x0000:  0000 0200 0000 0000 0000 0000 0000 0800  ................
	0x0010:  4500 002d 16eb 4000 3c06 6420 c05f 3da0  E..-.?@.<.d.?_=?
	0x0020:  0a42 bb7e 1b39 e71e ef89 d0ad 0000 bb2d  .B?~.9?.?.Э..?-
	0x0030:  5018 ff70 8b47 0000 4f4c 4c45 48         P.?p.G..OLLEH
15:30:35.361119 IP (tos 0x0, ttl 60, id 5868, offset 0, flags [DF], proto TCP (6), length 40)
    192.95.61.160.6969 > 10.66.187.126.59166: Flags [.], cksum 0x6ee0 (correct), seq 6, ack 7, win 65392, length 0
	0x0000:  0000 0200 0000 0000 0000 0000 0000 0800  ................
	0x0010:  4500 0028 16ec 4000 3c06 6424 c05f 3da0  E..(.?@.<.d$?_=?
	0x0020:  0a42 bb7e 1b39 e71e ef89 d0b2 0000 bb2e  .B?~.9?.?.в..?.
	0x0030:  5010 ff70 6ee0 0000                      P.?pn?..
15:30:35.361333 IP (tos 0x0, ttl 64, id 46880, offset 0, flags [DF], proto TCP (6), length 40)
    10.66.187.126.59166 > 192.95.61.160.6969: Flags [R], cksum 0x2e9a (correct), seq 47918, win 0, length 0
	0x0000:  0004 0200 0000 0000 0000 0000 0000 0800  ................
	0x0010:  4500 0028 b720 4000 4006 bfef 0a42 bb7e  E..(?.@.@.??.B?~
	0x0020:  c05f 3da0 e71e 1b39 0000 bb2e 0000 0000  ?_=??..9..?.....
	0x0030:  5004 0000 2e9a 0000                      P.......
15:30:35.451181 IP (tos 0x0, ttl 60, id 5869, offset 0, flags [DF], proto TCP (6), length 40)
    192.95.61.160.6969 > 10.66.187.126.59166: Flags [F.], cksum 0x6edf (correct), seq 6, ack 7, win 65392, length 0
	0x0000:  0000 0200 0000 0000 0000 0000 0000 0800  ................
	0x0010:  4500 0028 16ed 4000 3c06 6423 c05f 3da0  E..(.?@.<.d#?_=?
	0x0020:  0a42 bb7e 1b39 e71e ef89 d0b2 0000 bb2e  .B?~.9?.?.в..?.
	0x0030:  5011 ff70 6edf 0000                      P.?pn?..
15:30:35.451387 IP (tos 0x0, ttl 64, id 46881, offset 0, flags [DF], proto TCP (6), length 40)
    10.66.187.126.59166 > 192.95.61.160.6969: Flags [R], cksum 0x2e9a (correct), seq 47918, win 0, length 0
	0x0000:  0004 0200 0000 0000 0000 0000 0000 0800  ................
	0x0010:  4500 0028 b721 4000 4006 bfee 0a42 bb7e  E..(?!@.@.??.B?~
	0x0020:  c05f 3da0 e71e 1b39 0000 bb2e 0000 0000  ?_=??..9..?.....
	0x0030:  5004 0000 2e9a 0000                      P.......
15:30:35.486076 IP (tos 0x0, ttl 40, id 46882, offset 0, flags [none], proto TCP (6), length 40)
    10.66.187.126.37551 > 192.95.61.160.6969: Flags [S], cksum 0x5845 (correct), seq 58908, win 65495, length 0
	0x0000:  0004 0200 0000 0000 0000 0000 0000 0800  ................
	0x0010:  4500 0028 b722 0000 2806 17ee 0a42 bb7e  E..(?"..(..?.B?~
	0x0020:  c05f 3da0 92af 1b39 0000 e61c 0000 0000  ?_=?.?.9..?.....
	0x0030:  5002 ffd7 5845 0000                      P.??XE..
15:30:35.931247 IP (tos 0x0, ttl 60, id 5870, offset 0, flags [DF], proto TCP (6), length 44)
    192.95.61.160.6969 > 10.66.187.126.37551: Flags [S.], cksum 0x3303 (correct), seq 923916118, ack 58909, win 65392, options [mss 1320], length 0
	0x0000:  0000 0200 0000 0000 0000 0000 0000 0800  ................
	0x0010:  4500 002c 16ee 4000 3c06 641e c05f 3da0  E..,.?@.<.d.?_=?
	0x0020:  0a42 bb7e 1b39 92af 3711 d756 0000 e61d  .B?~.9.?7.?V..?.
	0x0030:  6012 ff70 3303 0000 0204 0528            `.?p3......(
15:30:35.934074 IP (tos 0x0, ttl 40, id 46884, offset 0, flags [none], proto TCP (6), length 40)
    10.66.187.126.37551 > 192.95.61.160.6969: Flags [.], cksum 0x49cd (correct), seq 1, ack 1, win 65495, length 0
	0x0000:  0004 0200 0000 0000 0000 0000 0000 0800  ................
	0x0010:  4500 0028 b724 0000 2806 17ec 0a42 bb7e  E..(?$..(..?.B?~
	0x0020:  c05f 3da0 92af 1b39 0000 e61d 3711 d757  ?_=?.?.9..?.7.?W
	0x0030:  5010 ffd7 49cd 0000                      P.??I?..
15:30:35.938958 IP (tos 0x0, ttl 40, id 46885, offset 0, flags [none], proto TCP (6), length 45)
    10.66.187.126.37551 > 192.95.61.160.6969: Flags [P.], cksum 0x5e2e (correct), seq 1:6, ack 1, win 65495, length 5
	0x0000:  0004 0200 0000 0000 0000 0000 0000 0800  ................
	0x0010:  4500 002d b725 0000 2806 17e6 0a42 bb7e  E..-?%..(..?.B?~
	0x0020:  c05f 3da0 92af 1b39 0000 e61d 3711 d757  ?_=?.?.9..?.7.?W
	0x0030:  5818 ffd7 5e2e 0000 4845 4c4c 4f         X.??^...HELLO
15:30:36.361224 IP (tos 0x0, ttl 60, id 5871, offset 0, flags [DF], proto TCP (6), length 40)
    192.95.61.160.6969 > 10.66.187.126.37551: Flags [.], cksum 0x4a2f (correct), seq 1, ack 6, win 65392, length 0
	0x0000:  0000 0200 0000 0000 0000 0000 0000 0800  ................
	0x0010:  4500 0028 16ef 4000 3c06 6421 c05f 3da0  E..(.?@.<.d!?_=?
	0x0020:  0a42 bb7e 1b39 92af 3711 d757 0000 e622  .B?~.9.?7.?W..?"
	0x0030:  5010 ff70 4a2f 0000                      P.?pJ/..
15:30:36.367366 IP (tos 0x0, ttl 40, id 46887, offset 0, flags [none], proto TCP (6), length 40)
    10.66.187.126.37551 > 192.95.61.160.6969: Flags [F.], cksum 0x49c7 (correct), seq 6, ack 1, win 65495, length 0
	0x0000:  0004 0200 0000 0000 0000 0000 0000 0800  ................
	0x0010:  4500 0028 b727 0000 2806 17e9 0a42 bb7e  E..(?'..(..?.B?~
	0x0020:  c05f 3da0 92af 1b39 0000 e622 3711 d757  ?_=?.?.9..?"7.?W
	0x0030:  5011 ffd7 49c7 0000                      P.??I?..
15:30:36.591288 IP (tos 0x0, ttl 60, id 5872, offset 0, flags [DF], proto TCP (6), length 45)
    192.95.61.160.6969 > 10.66.187.126.37551: Flags [P.], cksum 0x6690 (correct), seq 1:6, ack 6, win 65392, length 5
	0x0000:  0000 0200 0000 0000 0000 0000 0000 0800  ................
	0x0010:  4500 002d 16f0 4000 3c06 641b c05f 3da0  E..-.?@.<.d.?_=?
	0x0020:  0a42 bb7e 1b39 92af 3711 d757 0000 e622  .B?~.9.?7.?W..?"
	0x0030:  5018 ff70 6690 0000 4f4c 4c45 48         P.?pf...OLLEH
15:30:36.731120 IP (tos 0x0, ttl 60, id 5873, offset 0, flags [DF], proto TCP (6), length 40)
    192.95.61.160.6969 > 10.66.187.126.37551: Flags [.], cksum 0x4a29 (correct), seq 6, ack 7, win 65392, length 0
	0x0000:  0000 0200 0000 0000 0000 0000 0000 0800  ................
	0x0010:  4500 0028 16f1 4000 3c06 641f c05f 3da0  E..(.?@.<.d.?_=?
	0x0020:  0a42 bb7e 1b39 92af 3711 d75c 0000 e623  .B?~.9.?7.?\..?#
	0x0030:  5010 ff70 4a29 0000                      P.?pJ)..
15:30:36.731346 IP (tos 0x0, ttl 64, id 46889, offset 0, flags [DF], proto TCP (6), length 40)
    10.66.187.126.37551 > 192.95.61.160.6969: Flags [R], cksum 0x5814 (correct), seq 58915, win 0, length 0
	0x0000:  0004 0200 0000 0000 0000 0000 0000 0800  ................
	0x0010:  4500 0028 b729 4000 4006 bfe6 0a42 bb7e  E..(?)@.@.??.B?~
	0x0020:  c05f 3da0 92af 1b39 0000 e623 0000 0000  ?_=?.?.9..?#....
	0x0030:  5004 0000 5814 0000                      P...X...
15:30:36.817841 IP (tos 0x0, ttl 40, id 46890, offset 0, flags [none], proto TCP (6), length 40)
    10.66.187.126.34950 > 192.95.61.160.6969: Flags [S], cksum 0x5d4d (correct), seq 11329, win 65495, length 0
	0x0000:  0004 0200 0000 0000 0000 0000 0000 0800  ................
	0x0010:  4500 0028 b72a 0000 2806 17e6 0a42 bb7e  E..(?*..(..?.B?~
	0x0020:  c05f 3da0 8886 1b39 0000 2c41 beef 000d  ?_=?...9..,A??..
	0x0030:  5002 ffd7 5d4d 0000                      P.??]M..
15:30:36.821368 IP (tos 0x0, ttl 60, id 5874, offset 0, flags [DF], proto TCP (6), length 40)
    192.95.61.160.6969 > 10.66.187.126.37551: Flags [F.], cksum 0x4a28 (correct), seq 6, ack 7, win 65392, length 0
	0x0000:  0000 0200 0000 0000 0000 0000 0000 0800  ................
	0x0010:  4500 0028 16f2 4000 3c06 641e c05f 3da0  E..(.?@.<.d.?_=?
	0x0020:  0a42 bb7e 1b39 92af 3711 d75c 0000 e623  .B?~.9.?7.?\..?#
	0x0030:  5011 ff70 4a28 0000                      P.?pJ(..
15:30:36.821621 IP (tos 0x0, ttl 64, id 46891, offset 0, flags [DF], proto TCP (6), length 40)
    10.66.187.126.37551 > 192.95.61.160.6969: Flags [R], cksum 0x5814 (correct), seq 58915, win 0, length 0
	0x0000:  0004 0200 0000 0000 0000 0000 0000 0800  ................
	0x0010:  4500 0028 b72b 4000 4006 bfe4 0a42 bb7e  E..(?+@.@.??.B?~
	0x0020:  c05f 3da0 92af 1b39 0000 e623 0000 0000  ?_=?.?.9..?#....
	0x0030:  5004 0000 5814 0000                      P...X...
15:30:37.261115 IP (tos 0x0, ttl 60, id 5875, offset 0, flags [DF], proto TCP (6), length 44)
    192.95.61.160.6969 > 10.66.187.126.34950: Flags [S.], cksum 0x472a (correct), seq 939296329, ack 11330, win 65392, options [mss 1320], length 0
	0x0000:  0000 0200 0000 0000 0000 0000 0000 0800  ................
	0x0010:  4500 002c 16f3 4000 3c06 6419 c05f 3da0  E..,.?@.<.d.?_=?
	0x0020:  0a42 bb7e 1b39 8886 37fc 8649 0000 2c42  .B?~.9..7?.I..,B
	0x0030:  6012 ff70 472a 0000 0204 0528            `.?pG*.....(
15:30:38.381449 IP (tos 0x0, ttl 60, id 5876, offset 0, flags [DF], proto TCP (6), length 44)
    192.95.61.160.6969 > 10.66.187.126.34950: Flags [S.], cksum 0x472a (correct), seq 939296329, ack 11330, win 65392, options [mss 1320], length 0
	0x0000:  0000 0200 0000 0000 0000 0000 0000 0800  ................
	0x0010:  4500 002c 16f4 4000 3c06 6418 c05f 3da0  E..,.?@.<.d.?_=?
	0x0020:  0a42 bb7e 1b39 8886 37fc 8649 0000 2c42  .B?~.9..7?.I..,B
	0x0030:  6012 ff70 472a 0000 0204 0528            `.?pG*.....(
15:30:38.381879 IP (tos 0x0, ttl 64, id 46893, offset 0, flags [DF], proto TCP (6), length 40)
    10.66.187.126.34950 > 192.95.61.160.6969: Flags [R], cksum 0x1c1f (correct), seq 11330, win 0, length 0
	0x0000:  0004 0200 0000 0000 0000 0000 0000 0800  ................
	0x0010:  4500 0028 b72d 4000 4006 bfe2 0a42 bb7e  E..(?-@.@.??.B?~
	0x0020:  c05f 3da0 8886 1b39 0000 2c42 0000 0000  ?_=?...9..,B....
	0x0030:  5004 0000 1c1f 0000                      P.......
tcpdump: pcap_loop: The interface went down
227 packets captured
228 packets received by filter
0 packets dropped by kernel
ThinkAir:tcpdump-android andrius$ 
