10:30:21.824806 IP (tos 0x0, ttl 51, id 12421, offset 0, flags [DF], proto TCP (6), length 64)
    82.132.231.209.17361 > 192.95.61.160.6969: Flags [S], cksum 0x89ba (correct), seq 577072477, win 32850, options [mss 1460,nop,nop,TS val 898682687 ecr 0,nop,wscale 2,nop,nop,sackOK], length 0
	0x0000:  0200 00d2 bf75 6c9c edba ec40 0800 4500  .....ul....@..E.
	0x0010:  0040 3085 4000 3306 dedd 5284 e7d1 c05f  .@0.@.3...R...._
	0x0020:  3da0 43d1 1b39 2265 6d5d 0000 0000 b002  =.C..9"em]......
	0x0030:  8052 89ba 0000 0204 05b4 0101 080a 3590  .R............5.
	0x0040:  cf3f 0000 0000 0103 0302 0101 0402       .?............
10:30:21.848234 IP (tos 0x0, ttl 64, id 1, offset 0, flags [none], proto TCP (6), length 40)
    192.95.61.160.6969 > 82.132.231.209.17361: Flags [S.], cksum 0x7a71 (correct), seq 12345, ack 577072478, win 8192, length 0
	0x0000:  0007 b400 0101 0200 00d2 bf75 0800 4500  ...........u..E.
	0x0010:  0028 0001 0000 4006 427a c05f 3da0 5284  .(....@.Bz._=.R.
	0x0020:  e7d1 1b39 43d1 0000 3039 2265 6d5e 5012  ...9C...09"em^P.
	0x0030:  2000 7a71 be04                           ..zq..
10:30:21.934119 IP (tos 0x0, ttl 51, id 12422, offset 0, flags [DF], proto TCP (6), length 40)
    82.132.231.209.17361 > 192.95.61.160.6969: Flags [.], cksum 0x5906 (correct), seq 1, ack 1, win 65392, length 0
	0x0000:  0200 00d2 bf75 6c9c edba ec40 0800 4500  .....ul....@..E.
	0x0010:  0028 3086 4000 3306 def4 5284 e7d1 c05f  .(0.@.3...R...._
	0x0020:  3da0 43d1 1b39 2265 6d5e 0000 303a 5010  =.C..9"em^..0:P.
	0x0030:  ff70 5906 0000 0000 0000 0000            .pY.........
10:30:21.934164 IP (tos 0x0, ttl 51, id 12423, offset 0, flags [DF], proto TCP (6), length 45)
    82.132.231.209.17361 > 192.95.61.160.6969: Flags [P.], cksum 0x7567 (correct), seq 1:6, ack 1, win 65392, length 5
	0x0000:  0200 00d2 bf75 6c9c edba ec40 0800 4500  .....ul....@..E.
	0x0010:  002d 3087 4000 3306 deee 5284 e7d1 c05f  .-0.@.3...R...._
	0x0020:  3da0 43d1 1b39 2265 6d5e 0000 303a 5018  =.C..9"em^..0:P.
	0x0030:  ff70 7567 0000 4845 4c4c 4f00            .pug..HELLO.
10:30:21.942455 IP (tos 0x0, ttl 64, id 1, offset 0, flags [none], proto TCP (6), length 45)
    192.95.61.160.6969 > 82.132.231.209.17361: Flags [.], cksum 0x54db (correct), seq 1:6, ack 6, win 8192, length 5
	0x0000:  0007 b400 0101 0200 00d2 bf75 0800 4500  ...........u..E.
	0x0010:  002d 0001 0000 4006 4275 c05f 3da0 5284  .-....@.Bu._=.R.
	0x0020:  e7d1 1b39 43d1 0000 303a 2265 6d63 5010  ...9C...0:"emcP.
	0x0030:  2000 54db 0000 4f4c 4c45 48              ..T...OLLEH
10:30:22.028666 IP (tos 0x0, ttl 51, id 12424, offset 0, flags [DF], proto TCP (6), length 40)
    82.132.231.209.17361 > 192.95.61.160.6969: Flags [.], cksum 0x5901 (correct), seq 6, ack 6, win 65387, length 0
	0x0000:  0200 00d2 bf75 6c9c edba ec40 0800 4500  .....ul....@..E.
	0x0010:  0028 3088 4000 3306 def2 5284 e7d1 c05f  .(0.@.3...R...._
	0x0020:  3da0 43d1 1b39 2265 6d63 0000 303f 5010  =.C..9"emc..0?P.
	0x0030:  ff6b 5901 0000 0000 0000 0000            .kY.........
10:30:22.199762 IP (tos 0x0, ttl 51, id 12425, offset 0, flags [DF], proto TCP (6), length 40)
    82.132.231.209.17361 > 192.95.61.160.6969: Flags [F.], cksum 0x5900 (correct), seq 6, ack 6, win 65387, length 0
	0x0000:  0200 00d2 bf75 6c9c edba ec40 0800 4500  .....ul....@..E.
	0x0010:  0028 3089 4000 3306 def1 5284 e7d1 c05f  .(0.@.3...R...._
	0x0020:  3da0 43d1 1b39 2265 6d63 0000 303f 5011  =.C..9"emc..0?P.
	0x0030:  ff6b 5900 0000 0000 0000 0000            .kY.........
10:30:22.204461 IP (tos 0x0, ttl 64, id 1, offset 0, flags [none], proto TCP (6), length 40)
    192.95.61.160.6969 > 82.132.231.209.17361: Flags [F.], cksum 0x386b (correct), seq 6, ack 7, win 8192, length 0
	0x0000:  0007 b400 0101 0200 00d2 bf75 0800 4500  ...........u..E.
	0x0010:  0028 0001 0000 4006 427a c05f 3da0 5284  .(....@.Bz._=.R.
	0x0020:  e7d1 1b39 43d1 0000 303f 2265 6d64 5011  ...9C...0?"emdP.
	0x0030:  2000 386b 0000                           ..8k..
10:30:22.290266 IP (tos 0x0, ttl 51, id 12426, offset 0, flags [DF], proto TCP (6), length 40)
    82.132.231.209.17361 > 192.95.61.160.6969: Flags [.], cksum 0x58ff (correct), seq 7, ack 7, win 65387, length 0
	0x0000:  0200 00d2 bf75 6c9c edba ec40 0800 4500  .....ul....@..E.
	0x0010:  0028 308a 4000 3306 def0 5284 e7d1 c05f  .(0.@.3...R...._
	0x0020:  3da0 43d1 1b39 2265 6d64 0000 3040 5010  =.C..9"emd..0@P.
	0x0030:  ff6b 58ff 0000 0000 0000 0000            .kX.........
10:30:23.174223 IP (tos 0x0, ttl 51, id 12427, offset 0, flags [DF], proto TCP (6), length 64)
    82.132.231.209.17365 > 192.95.61.160.6969: Flags [S], cksum 0xb7a6 (correct), seq 1901260792, win 32850, options [mss 1460,nop,nop,TS val 898682822 ecr 0,nop,wscale 2,nop,nop,sackOK], length 0
	0x0000:  0200 00d2 bf75 6c9c edba ec40 0800 4500  .....ul....@..E.
	0x0010:  0040 308b 4000 3306 ded7 5284 e7d1 c05f  .@0.@.3...R...._
	0x0020:  3da0 43d5 1b39 7152 eff8 0000 0000 b002  =.C..9qR........
	0x0030:  8052 b7a6 0000 0204 05b4 0101 080a 3590  .R............5.
	0x0040:  cfc6 0000 0000 0103 0302 0101 0402       ..............
10:30:23.179657 IP (tos 0x0, ttl 64, id 1, offset 0, flags [none], proto TCP (6), length 40)
    192.95.61.160.6969 > 82.132.231.209.17365: Flags [S.], cksum 0xa8e4 (correct), seq 12345, ack 1901260793, win 8192, length 0
	0x0000:  0007 b400 0101 0200 00d2 bf75 0800 4500  ...........u..E.
	0x0010:  0028 0001 0000 4006 427a c05f 3da0 5284  .(....@.Bz._=.R.
	0x0020:  e7d1 1b39 43d5 0000 3039 7152 eff9 5012  ...9C...09qR..P.
	0x0030:  2000 a8e4 be04                           ......
10:30:23.265505 IP (tos 0x0, ttl 51, id 12428, offset 0, flags [DF], proto TCP (6), length 40)
    82.132.231.209.17365 > 192.95.61.160.6969: Flags [.], cksum 0x8779 (correct), seq 1, ack 1, win 65392, length 0
	0x0000:  0200 00d2 bf75 6c9c edba ec40 0800 4500  .....ul....@..E.
	0x0010:  0028 308c 4000 3306 deee 5284 e7d1 c05f  .(0.@.3...R...._
	0x0020:  3da0 43d5 1b39 7152 eff9 0000 303a 5010  =.C..9qR....0:P.
	0x0030:  ff70 8779 0000 0000 0000 0000            .p.y........
10:30:23.265541 IP (tos 0x0, ttl 51, id 12429, offset 0, flags [DF], proto TCP (6), length 45)
    82.132.231.209.17365 > 192.95.61.160.6969: Flags [P.], cksum 0xa3da (correct), seq 1:6, ack 1, win 65392, length 5
	0x0000:  0200 00d2 bf75 6c9c edba ec40 0800 4500  .....ul....@..E.
	0x0010:  002d 308d 4000 3306 dee8 5284 e7d1 c05f  .-0.@.3...R...._
	0x0020:  3da0 43d5 1b39 7152 eff9 0000 303a 5018  =.C..9qR....0:P.
	0x0030:  ff70 a3da 0000 4845 4c4c 4f00            .p....HELLO.
10:30:23.273264 IP (tos 0x0, ttl 64, id 1, offset 0, flags [none], proto TCP (6), length 45)
    192.95.61.160.6969 > 82.132.231.209.17365: Flags [.], cksum 0x834e (correct), seq 1:6, ack 6, win 8192, length 5
	0x0000:  0007 b400 0101 0200 00d2 bf75 0800 4500  ...........u..E.
	0x0010:  002d 0001 0000 4006 4275 c05f 3da0 5284  .-....@.Bu._=.R.
	0x0020:  e7d1 1b39 43d5 0000 303a 7152 effe 5010  ...9C...0:qR..P.
	0x0030:  2000 834e 0000 4f4c 4c45 48              ...N..OLLEH
10:30:23.358914 IP (tos 0x0, ttl 51, id 12430, offset 0, flags [DF], proto TCP (6), length 40)
    82.132.231.209.17365 > 192.95.61.160.6969: Flags [.], cksum 0x8774 (correct), seq 6, ack 6, win 65387, length 0
	0x0000:  0200 00d2 bf75 6c9c edba ec40 0800 4500  .....ul....@..E.
	0x0010:  0028 308e 4000 3306 deec 5284 e7d1 c05f  .(0.@.3...R...._
	0x0020:  3da0 43d5 1b39 7152 effe 0000 303f 5010  =.C..9qR....0?P.
	0x0030:  ff6b 8774 0000 0000 0000 0000            .k.t........
10:30:23.561294 IP (tos 0x0, ttl 51, id 12431, offset 0, flags [DF], proto TCP (6), length 40)
    82.132.231.209.17365 > 192.95.61.160.6969: Flags [F.], cksum 0x8773 (correct), seq 6, ack 6, win 65387, length 0
	0x0000:  0200 00d2 bf75 6c9c edba ec40 0800 4500  .....ul....@..E.
	0x0010:  0028 308f 4000 3306 deeb 5284 e7d1 c05f  .(0.@.3...R...._
	0x0020:  3da0 43d5 1b39 7152 effe 0000 303f 5011  =.C..9qR....0?P.
	0x0030:  ff6b 8773 0000 0000 0000 0000            .k.s........
10:30:23.566004 IP (tos 0x0, ttl 64, id 1, offset 0, flags [none], proto TCP (6), length 40)
    192.95.61.160.6969 > 82.132.231.209.17365: Flags [F.], cksum 0x66de (correct), seq 6, ack 7, win 8192, length 0
	0x0000:  0007 b400 0101 0200 00d2 bf75 0800 4500  ...........u..E.
	0x0010:  0028 0001 0000 4006 427a c05f 3da0 5284  .(....@.Bz._=.R.
	0x0020:  e7d1 1b39 43d5 0000 303f 7152 efff 5011  ...9C...0?qR..P.
	0x0030:  2000 66de 0000                           ..f...
10:30:23.651504 IP (tos 0x0, ttl 51, id 12432, offset 0, flags [DF], proto TCP (6), length 40)
    82.132.231.209.17365 > 192.95.61.160.6969: Flags [.], cksum 0x8772 (correct), seq 7, ack 7, win 65387, length 0
	0x0000:  0200 00d2 bf75 6c9c edba ec40 0800 4500  .....ul....@..E.
	0x0010:  0028 3090 4000 3306 deea 5284 e7d1 c05f  .(0.@.3...R...._
	0x0020:  3da0 43d5 1b39 7152 efff 0000 3040 5010  =.C..9qR....0@P.
	0x0030:  ff6b 8772 0000 0000 0000 0000            .k.r........
10:30:30.961205 IP (tos 0x0, ttl 52, id 12433, offset 0, flags [DF], proto TCP (6), length 64)
    82.132.231.209.17393 > 192.95.61.160.6969: Flags [S], cksum 0x2370 (correct), seq 605146697, win 32850, options [mss 1460,nop,nop,TS val 898683601 ecr 0,nop,wscale 2,nop,nop,sackOK], length 0
	0x0000:  0200 00d2 bf75 6c9c edba ec40 0800 4500  .....ul....@..E.
	0x0010:  0040 3091 4000 3406 ddd1 5284 e7d1 c05f  .@0.@.4...R...._
	0x0020:  3da0 43f1 1b39 2411 ce49 0000 0000 b002  =.C..9$..I......
	0x0030:  8052 2370 0000 0204 05b4 0101 080a 3590  .R#p..........5.
	0x0040:  d2d1 0000 0000 0103 0302 0101 0402       ..............
10:30:30.966759 IP (tos 0x0, ttl 64, id 1, offset 0, flags [none], proto TCP (6), length 40)
    192.95.61.160.6969 > 82.132.231.209.17393: Flags [S.], cksum 0x17b9 (correct), seq 12345, ack 605146698, win 8192, length 0
	0x0000:  0007 b400 0101 0200 00d2 bf75 0800 4500  ...........u..E.
	0x0010:  0028 0001 0000 4006 427a c05f 3da0 5284  .(....@.Bz._=.R.
	0x0020:  e7d1 1b39 43f1 0000 3039 2411 ce4a 5012  ...9C...09$..JP.
	0x0030:  2000 17b9 be04                           ......
10:30:31.052077 IP (tos 0x0, ttl 52, id 12434, offset 0, flags [DF], proto TCP (6), length 40)
    82.132.231.209.17393 > 192.95.61.160.6969: Flags [.], cksum 0xf64d (correct), seq 1, ack 1, win 65392, length 0
	0x0000:  0200 00d2 bf75 6c9c edba ec40 0800 4500  .....ul....@..E.
	0x0010:  0028 3092 4000 3406 dde8 5284 e7d1 c05f  .(0.@.4...R...._
	0x0020:  3da0 43f1 1b39 2411 ce4a 0000 303a 5010  =.C..9$..J..0:P.
	0x0030:  ff70 f64d 0000 0000 0000 0000            .p.M........
10:30:31.052141 IP (tos 0x0, ttl 52, id 12435, offset 0, flags [DF], proto TCP (6), length 45)
    82.132.231.209.17393 > 192.95.61.160.6969: Flags [P.], cksum 0x12af (correct), seq 1:6, ack 1, win 65392, length 5
	0x0000:  0200 00d2 bf75 6c9c edba ec40 0800 4500  .....ul....@..E.
	0x0010:  002d 3093 4000 3406 dde2 5284 e7d1 c05f  .-0.@.4...R...._
	0x0020:  3da0 43f1 1b39 2411 ce4a 0000 303a 5018  =.C..9$..J..0:P.
	0x0030:  ff70 12af 0000 4845 4c4c 4f00            .p....HELLO.
10:30:31.056420 IP (tos 0x0, ttl 64, id 1, offset 0, flags [none], proto TCP (6), length 45)
    192.95.61.160.6969 > 82.132.231.209.17393: Flags [.], cksum 0xf222 (correct), seq 1:6, ack 6, win 8192, length 5
	0x0000:  0007 b400 0101 0200 00d2 bf75 0800 4500  ...........u..E.
	0x0010:  002d 0001 0000 4006 4275 c05f 3da0 5284  .-....@.Bu._=.R.
	0x0020:  e7d1 1b39 43f1 0000 303a 2411 ce4f 5010  ...9C...0:$..OP.
	0x0030:  2000 f222 0000 4f4c 4c45 48              ..."..OLLEH
10:30:31.140227 IP (tos 0x0, ttl 52, id 12436, offset 0, flags [DF], proto TCP (6), length 40)
    82.132.231.209.17393 > 192.95.61.160.6969: Flags [.], cksum 0xf648 (correct), seq 6, ack 6, win 65387, length 0
	0x0000:  0200 00d2 bf75 6c9c edba ec40 0800 4500  .....ul....@..E.
	0x0010:  0028 3094 4000 3406 dde6 5284 e7d1 c05f  .(0.@.4...R...._
	0x0020:  3da0 43f1 1b39 2411 ce4f 0000 303f 5010  =.C..9$..O..0?P.
	0x0030:  ff6b f648 0000 0000 0000 0000            .k.H........
10:30:31.403955 IP (tos 0x0, ttl 52, id 12437, offset 0, flags [DF], proto TCP (6), length 40)
    82.132.231.209.17393 > 192.95.61.160.6969: Flags [F.], cksum 0xf647 (correct), seq 6, ack 6, win 65387, length 0
	0x0000:  0200 00d2 bf75 6c9c edba ec40 0800 4500  .....ul....@..E.
	0x0010:  0028 3095 4000 3406 dde5 5284 e7d1 c05f  .(0.@.4...R...._
	0x0020:  3da0 43f1 1b39 2411 ce4f 0000 303f 5011  =.C..9$..O..0?P.
	0x0030:  ff6b f647 0000 0000 0000 0000            .k.G........
10:30:31.409480 IP (tos 0x0, ttl 64, id 1, offset 0, flags [none], proto TCP (6), length 40)
    192.95.61.160.6969 > 82.132.231.209.17393: Flags [F.], cksum 0xd5b2 (correct), seq 6, ack 7, win 8192, length 0
	0x0000:  0007 b400 0101 0200 00d2 bf75 0800 4500  ...........u..E.
	0x0010:  0028 0001 0000 4006 427a c05f 3da0 5284  .(....@.Bz._=.R.
	0x0020:  e7d1 1b39 43f1 0000 303f 2411 ce50 5011  ...9C...0?$..PP.
	0x0030:  2000 d5b2 0000                           ......
10:30:31.493258 IP (tos 0x0, ttl 52, id 12438, offset 0, flags [DF], proto TCP (6), length 40)
    82.132.231.209.17393 > 192.95.61.160.6969: Flags [.], cksum 0xf646 (correct), seq 7, ack 7, win 65387, length 0
	0x0000:  0200 00d2 bf75 6c9c edba ec40 0800 4500  .....ul....@..E.
	0x0010:  0028 3096 4000 3406 dde4 5284 e7d1 c05f  .(0.@.4...R...._
	0x0020:  3da0 43f1 1b39 2411 ce50 0000 3040 5010  =.C..9$..P..0@P.
	0x0030:  ff6b f646 0000 0000 0000 0000            .k.F........
10:30:32.405801 IP (tos 0x0, ttl 51, id 12439, offset 0, flags [DF], proto TCP (6), length 64)
    82.132.231.209.17395 > 192.95.61.160.6969: Flags [S], cksum 0x72b3 (correct), seq 2610431725, win 32850, options [mss 1460,nop,nop,TS val 898683745 ecr 0,nop,wscale 2,nop,nop,sackOK], length 0
	0x0000:  0200 00d2 bf75 6c9c edba ec40 0800 4500  .....ul....@..E.
	0x0010:  0040 3097 4000 3306 decb 5284 e7d1 c05f  .@0.@.3...R...._
	0x0020:  3da0 43f3 1b39 9b98 06ed 0000 0000 b002  =.C..9..........
	0x0030:  8052 72b3 0000 0204 05b4 0101 080a 3590  .Rr...........5.
	0x0040:  d361 0000 0000 0103 0302 0101 0402       .a............
10:30:32.411327 IP (tos 0x0, ttl 64, id 1, offset 0, flags [none], proto TCP (6), length 40)
    192.95.61.160.6969 > 82.132.231.209.17395: Flags [S.], cksum 0x678c (correct), seq 12345, ack 2610431726, win 8192, length 0
	0x0000:  0007 b400 0101 0200 00d2 bf75 0800 4500  ...........u..E.
	0x0010:  0028 0001 0000 4006 427a c05f 3da0 5284  .(....@.Bz._=.R.
	0x0020:  e7d1 1b39 43f3 0000 3039 9b98 06ee 5012  ...9C...09....P.
	0x0030:  2000 678c be04                           ..g...
10:30:32.497055 IP (tos 0x0, ttl 51, id 12440, offset 0, flags [DF], proto TCP (6), length 40)
    82.132.231.209.17395 > 192.95.61.160.6969: Flags [.], cksum 0x4621 (correct), seq 1, ack 1, win 65392, length 0
	0x0000:  0200 00d2 bf75 6c9c edba ec40 0800 4500  .....ul....@..E.
	0x0010:  0028 3098 4000 3306 dee2 5284 e7d1 c05f  .(0.@.3...R...._
	0x0020:  3da0 43f3 1b39 9b98 06ee 0000 303a 5010  =.C..9......0:P.
	0x0030:  ff70 4621 0000 0000 0000 0000            .pF!........
10:30:32.497092 IP (tos 0x0, ttl 51, id 12441, offset 0, flags [DF], proto TCP (6), length 45)
    82.132.231.209.17395 > 192.95.61.160.6969: Flags [P.], cksum 0x6282 (correct), seq 1:6, ack 1, win 65392, length 5
	0x0000:  0200 00d2 bf75 6c9c edba ec40 0800 4500  .....ul....@..E.
	0x0010:  002d 3099 4000 3306 dedc 5284 e7d1 c05f  .-0.@.3...R...._
	0x0020:  3da0 43f3 1b39 9b98 06ee 0000 303a 5018  =.C..9......0:P.
	0x0030:  ff70 6282 0000 4845 4c4c 4f00            .pb...HELLO.
10:30:32.504273 IP (tos 0x0, ttl 64, id 1, offset 0, flags [none], proto TCP (6), length 45)
    192.95.61.160.6969 > 82.132.231.209.17395: Flags [.], cksum 0x41f6 (correct), seq 1:6, ack 6, win 8192, length 5
	0x0000:  0007 b400 0101 0200 00d2 bf75 0800 4500  ...........u..E.
	0x0010:  002d 0001 0000 4006 4275 c05f 3da0 5284  .-....@.Bu._=.R.
	0x0020:  e7d1 1b39 43f3 0000 303a 9b98 06f3 5010  ...9C...0:....P.
	0x0030:  2000 41f6 0000 4f4c 4c45 48              ..A...OLLEH
10:30:32.589815 IP (tos 0x0, ttl 51, id 12442, offset 0, flags [DF], proto TCP (6), length 40)
    82.132.231.209.17395 > 192.95.61.160.6969: Flags [.], cksum 0x461c (correct), seq 6, ack 6, win 65387, length 0
	0x0000:  0200 00d2 bf75 6c9c edba ec40 0800 4500  .....ul....@..E.
	0x0010:  0028 309a 4000 3306 dee0 5284 e7d1 c05f  .(0.@.3...R...._
	0x0020:  3da0 43f3 1b39 9b98 06f3 0000 303f 5010  =.C..9......0?P.
	0x0030:  ff6b 461c 0000 0000 0000 0000            .kF.........
10:30:32.792151 IP (tos 0x0, ttl 51, id 12443, offset 0, flags [DF], proto TCP (6), length 40)
    82.132.231.209.17395 > 192.95.61.160.6969: Flags [F.], cksum 0x461b (correct), seq 6, ack 6, win 65387, length 0
	0x0000:  0200 00d2 bf75 6c9c edba ec40 0800 4500  .....ul....@..E.
	0x0010:  0028 309b 4000 3306 dedf 5284 e7d1 c05f  .(0.@.3...R...._
	0x0020:  3da0 43f3 1b39 9b98 06f3 0000 303f 5011  =.C..9......0?P.
	0x0030:  ff6b 461b 0000 0000 0000 0000            .kF.........
10:30:32.797293 IP (tos 0x0, ttl 64, id 1, offset 0, flags [none], proto TCP (6), length 40)
    192.95.61.160.6969 > 82.132.231.209.17395: Flags [F.], cksum 0x2586 (correct), seq 6, ack 7, win 8192, length 0
	0x0000:  0007 b400 0101 0200 00d2 bf75 0800 4500  ...........u..E.
	0x0010:  0028 0001 0000 4006 427a c05f 3da0 5284  .(....@.Bz._=.R.
	0x0020:  e7d1 1b39 43f3 0000 303f 9b98 06f4 5011  ...9C...0?....P.
	0x0030:  2000 2586 0000                           ..%...
10:30:32.882846 IP (tos 0x0, ttl 51, id 12444, offset 0, flags [DF], proto TCP (6), length 40)
    82.132.231.209.17395 > 192.95.61.160.6969: Flags [.], cksum 0x461a (correct), seq 7, ack 7, win 65387, length 0
	0x0000:  0200 00d2 bf75 6c9c edba ec40 0800 4500  .....ul....@..E.
	0x0010:  0028 309c 4000 3306 dede 5284 e7d1 c05f  .(0.@.3...R...._
	0x0020:  3da0 43f3 1b39 9b98 06f4 0000 3040 5010  =.C..9......0@P.
	0x0030:  ff6b 461a 0000 0000 0000 0000            .kF.........
10:30:33.783081 IP (tos 0x0, ttl 51, id 12445, offset 0, flags [DF], proto TCP (6), length 64)
    82.132.231.209.17402 > 192.95.61.160.6969: Flags [S], cksum 0x0f3b (correct), seq 1563732024, win 32850, options [mss 1460,nop,nop,TS val 898683883 ecr 0,nop,wscale 2,nop,nop,sackOK], length 0
	0x0000:  0200 00d2 bf75 6c9c edba ec40 0800 4500  .....ul....@..E.
	0x0010:  0040 309d 4000 3306 dec5 5284 e7d1 c05f  .@0.@.3...R...._
	0x0020:  3da0 43fa 1b39 5d34 a838 0000 0000 b002  =.C..9]4.8......
	0x0030:  8052 0f3b 0000 0204 05b4 0101 080a 3590  .R.;..........5.
	0x0040:  d3eb 0000 0000 0103 0302 0101 0402       ..............
10:30:33.789654 IP (tos 0x0, ttl 64, id 1, offset 0, flags [none], proto TCP (6), length 40)
    192.95.61.160.6969 > 82.132.231.209.17402: Flags [S.], cksum 0x049e (correct), seq 12345, ack 1563732025, win 8192, length 0
	0x0000:  0007 b400 0101 0200 00d2 bf75 0800 4500  ...........u..E.
	0x0010:  0028 0001 0000 4006 427a c05f 3da0 5284  .(....@.Bz._=.R.
	0x0020:  e7d1 1b39 43fa 0000 3039 5d34 a839 5012  ...9C...09]4.9P.
	0x0030:  2000 049e be04                           ......
10:30:33.875414 IP (tos 0x0, ttl 51, id 12446, offset 0, flags [DF], proto TCP (6), length 40)
    82.132.231.209.17402 > 192.95.61.160.6969: Flags [.], cksum 0xe332 (correct), seq 1, ack 1, win 65392, length 0
	0x0000:  0200 00d2 bf75 6c9c edba ec40 0800 4500  .....ul....@..E.
	0x0010:  0028 309e 4000 3306 dedc 5284 e7d1 c05f  .(0.@.3...R...._
	0x0020:  3da0 43fa 1b39 5d34 a839 0000 303a 5010  =.C..9]4.9..0:P.
	0x0030:  ff70 e332 0000 0000 0000 0000            .p.2........
10:30:33.875451 IP (tos 0x0, ttl 51, id 12447, offset 0, flags [DF], proto TCP (6), length 45)
    82.132.231.209.17402 > 192.95.61.160.6969: Flags [P.], cksum 0xff93 (correct), seq 1:6, ack 1, win 65392, length 5
	0x0000:  0200 00d2 bf75 6c9c edba ec40 0800 4500  .....ul....@..E.
	0x0010:  002d 309f 4000 3306 ded6 5284 e7d1 c05f  .-0.@.3...R...._
	0x0020:  3da0 43fa 1b39 5d34 a839 0000 303a 5018  =.C..9]4.9..0:P.
	0x0030:  ff70 ff93 0000 4845 4c4c 4f00            .p....HELLO.
10:30:33.882542 IP (tos 0x0, ttl 64, id 1, offset 0, flags [none], proto TCP (6), length 45)
    192.95.61.160.6969 > 82.132.231.209.17402: Flags [.], cksum 0xdf07 (correct), seq 1:6, ack 6, win 8192, length 5
	0x0000:  0007 b400 0101 0200 00d2 bf75 0800 4500  ...........u..E.
	0x0010:  002d 0001 0000 4006 4275 c05f 3da0 5284  .-....@.Bu._=.R.
	0x0020:  e7d1 1b39 43fa 0000 303a 5d34 a83e 5010  ...9C...0:]4.>P.
	0x0030:  2000 df07 0000 4f4c 4c45 48              ......OLLEH
10:30:33.968506 IP (tos 0x0, ttl 51, id 12448, offset 0, flags [DF], proto TCP (6), length 40)
    82.132.231.209.17402 > 192.95.61.160.6969: Flags [.], cksum 0xe32d (correct), seq 6, ack 6, win 65387, length 0
	0x0000:  0200 00d2 bf75 6c9c edba ec40 0800 4500  .....ul....@..E.
	0x0010:  0028 30a0 4000 3306 deda 5284 e7d1 c05f  .(0.@.3...R...._
	0x0020:  3da0 43fa 1b39 5d34 a83e 0000 303f 5010  =.C..9]4.>..0?P.
	0x0030:  ff6b e32d 0000 0000 0000 0000            .k.-........
10:30:34.129815 IP (tos 0x0, ttl 51, id 12449, offset 0, flags [DF], proto TCP (6), length 40)
    82.132.231.209.17402 > 192.95.61.160.6969: Flags [F.], cksum 0xe32c (correct), seq 6, ack 6, win 65387, length 0
	0x0000:  0200 00d2 bf75 6c9c edba ec40 0800 4500  .....ul....@..E.
	0x0010:  0028 30a1 4000 3306 ded9 5284 e7d1 c05f  .(0.@.3...R...._
	0x0020:  3da0 43fa 1b39 5d34 a83e 0000 303f 5011  =.C..9]4.>..0?P.
	0x0030:  ff6b e32c 0000 0000 0000 0000            .k.,........
10:30:34.135014 IP (tos 0x0, ttl 64, id 1, offset 0, flags [none], proto TCP (6), length 40)
    192.95.61.160.6969 > 82.132.231.209.17402: Flags [F.], cksum 0xc297 (correct), seq 6, ack 7, win 8192, length 0
	0x0000:  0007 b400 0101 0200 00d2 bf75 0800 4500  ...........u..E.
	0x0010:  0028 0001 0000 4006 427a c05f 3da0 5284  .(....@.Bz._=.R.
	0x0020:  e7d1 1b39 43fa 0000 303f 5d34 a83f 5011  ...9C...0?]4.?P.
	0x0030:  2000 c297 0000                           ......
10:30:34.220542 IP (tos 0x0, ttl 51, id 12450, offset 0, flags [DF], proto TCP (6), length 40)
    82.132.231.209.17402 > 192.95.61.160.6969: Flags [.], cksum 0xe32b (correct), seq 7, ack 7, win 65387, length 0
	0x0000:  0200 00d2 bf75 6c9c edba ec40 0800 4500  .....ul....@..E.
	0x0010:  0028 30a2 4000 3306 ded8 5284 e7d1 c05f  .(0.@.3...R...._
	0x0020:  3da0 43fa 1b39 5d34 a83f 0000 3040 5010  =.C..9]4.?..0@P.
	0x0030:  ff6b e32b 0000 0000 0000 0000            .k.+........
10:30:35.116026 IP (tos 0x0, ttl 52, id 12451, offset 0, flags [DF], proto TCP (6), length 64)
    82.132.231.209.17409 > 192.95.61.160.6969: Flags [S], cksum 0xd0c5 (correct), seq 3677251623, win 32850, options [mss 1460,nop,nop,TS val 898684016 ecr 0,nop,wscale 2,nop,nop,sackOK], length 0
	0x0000:  0200 00d2 bf75 6c9c edba ec40 0800 4500  .....ul....@..E.
	0x0010:  0040 30a3 4000 3406 ddbf 5284 e7d1 c05f  .@0.@.4...R...._
	0x0020:  3da0 4401 1b39 db2e 6827 0000 0000 b002  =.D..9..h'......
	0x0030:  8052 d0c5 0000 0204 05b4 0101 080a 3590  .R............5.
	0x0040:  d470 0000 0000 0103 0302 0101 0402       .p............
10:30:35.121357 IP (tos 0x0, ttl 64, id 1, offset 0, flags [none], proto TCP (6), length 40)
    192.95.61.160.6969 > 82.132.231.209.17409: Flags [S.], cksum 0xc6ad (correct), seq 12345, ack 3677251624, win 8192, length 0
	0x0000:  0007 b400 0101 0200 00d2 bf75 0800 4500  ...........u..E.
	0x0010:  0028 0001 0000 4006 427a c05f 3da0 5284  .(....@.Bz._=.R.
	0x0020:  e7d1 1b39 4401 0000 3039 db2e 6828 5012  ...9D...09..h(P.
	0x0030:  2000 c6ad be04                           ......
10:30:35.206105 IP (tos 0x0, ttl 52, id 12452, offset 0, flags [DF], proto TCP (6), length 40)
    82.132.231.209.17409 > 192.95.61.160.6969: Flags [.], cksum 0xa542 (correct), seq 1, ack 1, win 65392, length 0
	0x0000:  0200 00d2 bf75 6c9c edba ec40 0800 4500  .....ul....@..E.
	0x0010:  0028 30a4 4000 3406 ddd6 5284 e7d1 c05f  .(0.@.4...R...._
	0x0020:  3da0 4401 1b39 db2e 6828 0000 303a 5010  =.D..9..h(..0:P.
	0x0030:  ff70 a542 0000 0000 0000 0000            .p.B........
10:30:35.206142 IP (tos 0x0, ttl 52, id 12453, offset 0, flags [DF], proto TCP (6), length 45)
    82.132.231.209.17409 > 192.95.61.160.6969: Flags [P.], cksum 0xc1a3 (correct), seq 1:6, ack 1, win 65392, length 5
	0x0000:  0200 00d2 bf75 6c9c edba ec40 0800 4500  .....ul....@..E.
	0x0010:  002d 30a5 4000 3406 ddd0 5284 e7d1 c05f  .-0.@.4...R...._
	0x0020:  3da0 4401 1b39 db2e 6828 0000 303a 5018  =.D..9..h(..0:P.
	0x0030:  ff70 c1a3 0000 4845 4c4c 4f00            .p....HELLO.
10:30:35.213477 IP (tos 0x0, ttl 64, id 1, offset 0, flags [none], proto TCP (6), length 45)
    192.95.61.160.6969 > 82.132.231.209.17409: Flags [.], cksum 0xa117 (correct), seq 1:6, ack 6, win 8192, length 5
	0x0000:  0007 b400 0101 0200 00d2 bf75 0800 4500  ...........u..E.
	0x0010:  002d 0001 0000 4006 4275 c05f 3da0 5284  .-....@.Bu._=.R.
	0x0020:  e7d1 1b39 4401 0000 303a db2e 682d 5010  ...9D...0:..h-P.
	0x0030:  2000 a117 0000 4f4c 4c45 48              ......OLLEH
10:30:35.297151 IP (tos 0x0, ttl 52, id 12454, offset 0, flags [DF], proto TCP (6), length 40)
    82.132.231.209.17409 > 192.95.61.160.6969: Flags [.], cksum 0xa53d (correct), seq 6, ack 6, win 65387, length 0
	0x0000:  0200 00d2 bf75 6c9c edba ec40 0800 4500  .....ul....@..E.
	0x0010:  0028 30a6 4000 3406 ddd4 5284 e7d1 c05f  .(0.@.4...R...._
	0x0020:  3da0 4401 1b39 db2e 682d 0000 303f 5010  =.D..9..h-..0?P.
	0x0030:  ff6b a53d 0000 0000 0000 0000            .k.=........
10:30:35.486675 IP (tos 0x0, ttl 52, id 12455, offset 0, flags [DF], proto TCP (6), length 40)
    82.132.231.209.17409 > 192.95.61.160.6969: Flags [F.], cksum 0xa53c (correct), seq 6, ack 6, win 65387, length 0
	0x0000:  0200 00d2 bf75 6c9c edba ec40 0800 4500  .....ul....@..E.
	0x0010:  0028 30a7 4000 3406 ddd3 5284 e7d1 c05f  .(0.@.4...R...._
	0x0020:  3da0 4401 1b39 db2e 682d 0000 303f 5011  =.D..9..h-..0?P.
	0x0030:  ff6b a53c 0000 0000 0000 0000            .k.<........
10:30:35.491323 IP (tos 0x0, ttl 64, id 1, offset 0, flags [none], proto TCP (6), length 40)
    192.95.61.160.6969 > 82.132.231.209.17409: Flags [F.], cksum 0x84a7 (correct), seq 6, ack 7, win 8192, length 0
	0x0000:  0007 b400 0101 0200 00d2 bf75 0800 4500  ...........u..E.
	0x0010:  0028 0001 0000 4006 427a c05f 3da0 5284  .(....@.Bz._=.R.
	0x0020:  e7d1 1b39 4401 0000 303f db2e 682e 5011  ...9D...0?..h.P.
	0x0030:  2000 84a7 0000                           ......
10:30:35.574545 IP (tos 0x0, ttl 52, id 12456, offset 0, flags [DF], proto TCP (6), length 40)
    82.132.231.209.17409 > 192.95.61.160.6969: Flags [.], cksum 0xa53b (correct), seq 7, ack 7, win 65387, length 0
	0x0000:  0200 00d2 bf75 6c9c edba ec40 0800 4500  .....ul....@..E.
	0x0010:  0028 30a8 4000 3406 ddd2 5284 e7d1 c05f  .(0.@.4...R...._
	0x0020:  3da0 4401 1b39 db2e 682e 0000 3040 5010  =.D..9..h...0@P.
	0x0030:  ff6b a53b 0000 0000 0000 0000            .k.;........

