09:51:19.246809 IP (tos 0x0, ttl 29, id 51545, offset 0, flags [none], proto TCP (6), length 40)
    188.29.164.103.47039 > 192.95.61.160.6969: Flags [S], cksum 0x314b (correct), seq 36433, win 65495, length 0
	0x0000:  0200 00d2 bf75 6c9c edba ec40 0800 4500  .....ul....@..E.
	0x0010:  0028 c959 0000 1d06 75f2 bc1d a467 c05f  .(.Y....u....g._
	0x0020:  3da0 b7bf 1b39 0000 8e51 beef 0001 5002  =....9...Q....P.
	0x0030:  ffd7 314b 0000 0000 0000 0000            ..1K........
09:51:19.271980 IP (tos 0x0, ttl 64, id 1, offset 0, flags [none], proto TCP (6), length 40)
    192.95.61.160.6969 > 188.29.164.103.47039: Flags [S.], cksum 0x9fc9 (correct), seq 12345, ack 36434, win 8192, length 0
	0x0000:  0007 b400 0101 0200 00d2 bf75 0800 4500  ...........u..E.
	0x0010:  0028 0001 0000 4006 1c4b c05f 3da0 bc1d  .(....@..K._=...
	0x0020:  a467 1b39 b7bf 0000 3039 0000 8e52 5012  .g.9....09...RP.
	0x0030:  2000 9fc9 0000                           ......
09:51:20.011732 IP (tos 0x0, ttl 29, id 51547, offset 0, flags [none], proto TCP (6), length 40)
    188.29.164.103.47039 > 192.95.61.160.6969: Flags [.], cksum 0xbff2 (correct), seq 1, ack 1, win 65495, length 0
	0x0000:  0200 00d2 bf75 6c9c edba ec40 0800 4500  .....ul....@..E.
	0x0010:  0028 c95b 0000 1d06 75f0 bc1d a467 c05f  .(.[....u....g._
	0x0020:  3da0 b7bf 1b39 0000 8e52 0000 303a 5010  =....9...R..0:P.
	0x0030:  ffd7 bff2 0000 0000 0000 0000            ............
09:51:20.011896 IP (tos 0x0, ttl 30, id 51548, offset 0, flags [none], proto TCP (6), length 45)
    188.29.164.103.47039 > 192.95.61.160.6969: Flags [P.], cksum 0xdc53 (correct), seq 1:6, ack 1, win 65495, length 5
	0x0000:  0200 00d2 bf75 6c9c edba ec40 0800 4500  .....ul....@..E.
	0x0010:  002d c95c 0000 1e06 74ea bc1d a467 c05f  .-.\....t....g._
	0x0020:  3da0 b7bf 1b39 0000 8e52 0000 303a 5018  =....9...R..0:P.
	0x0030:  ffd7 dc53 0000 4845 4c4c 4f00            ...S..HELLO.
09:51:20.020557 IP (tos 0x0, ttl 64, id 1, offset 0, flags [none], proto TCP (6), length 44)
    192.95.61.160.6969 > 188.29.164.103.47039: Flags [.], cksum 0xe0d0 (correct), seq 1:5, ack 6, win 8192, length 4
	0x0000:  0007 b400 0101 0200 00d2 bf75 0800 4500  ...........u..E.
	0x0010:  002c 0001 0000 4006 1c47 c05f 3da0 bc1d  .,....@..G._=...
	0x0020:  a467 1b39 b7bf 0000 303a 0000 8e57 5010  .g.9....0:...WP.
	0x0030:  2000 e0d0 0000 beef 0001                 ..........
09:51:20.514204 IP (tos 0x0, ttl 29, id 51550, offset 0, flags [none], proto TCP (6), length 40)
    188.29.164.103.47039 > 192.95.61.160.6969: Flags [.], cksum 0xbfe9 (correct), seq 6, ack 5, win 65495, length 0
	0x0000:  0200 00d2 bf75 6c9c edba ec40 0800 4500  .....ul....@..E.
	0x0010:  0028 c95e 0000 1d06 75ed bc1d a467 c05f  .(.^....u....g._
	0x0020:  3da0 b7bf 1b39 0000 8e57 0000 303e 5010  =....9...W..0>P.
	0x0030:  ffd7 bfe9 0000 0000 0000 0000            ............
09:51:20.605248 IP (tos 0x0, ttl 30, id 51551, offset 0, flags [none], proto TCP (6), length 40)
    188.29.164.103.47039 > 192.95.61.160.6969: Flags [F.], cksum 0xbfe8 (correct), seq 6, ack 5, win 65495, length 0
	0x0000:  0200 00d2 bf75 6c9c edba ec40 0800 4500  .....ul....@..E.
	0x0010:  0028 c95f 0000 1e06 74ec bc1d a467 c05f  .(._....t....g._
	0x0020:  3da0 b7bf 1b39 0000 8e57 0000 303e 5011  =....9...W..0>P.
	0x0030:  ffd7 bfe8 0000 0000 0000 0000            ............
09:51:20.610065 IP (tos 0x0, ttl 64, id 1, offset 0, flags [none], proto TCP (6), length 40)
    192.95.61.160.6969 > 188.29.164.103.47039: Flags [F.], cksum 0x9fbf (correct), seq 5, ack 7, win 8192, length 0
	0x0000:  0007 b400 0101 0200 00d2 bf75 0800 4500  ...........u..E.
	0x0010:  0028 0001 0000 4006 1c4b c05f 3da0 bc1d  .(....@..K._=...
	0x0020:  a467 1b39 b7bf 0000 303e 0000 8e58 5011  .g.9....0>...XP.
	0x0030:  2000 9fbf 0000                           ......
09:51:21.162306 IP (tos 0x0, ttl 30, id 51553, offset 0, flags [none], proto TCP (6), length 40)
    188.29.164.103.47039 > 192.95.61.160.6969: Flags [.], cksum 0x61ce (correct), seq 6, ack 24096, win 65495, length 0
	0x0000:  0200 00d2 bf75 6c9c edba ec40 0800 4500  .....ul....@..E.
	0x0010:  0028 c961 0000 1e06 74ea bc1d a467 c05f  .(.a....t....g._
	0x0020:  3da0 b7bf 1b39 0000 8e57 0000 8e59 5010  =....9...W...YP.
	0x0030:  ffd7 61ce 0000 0000 0000 0000            ..a.........
09:51:21.344080 IP (tos 0x0, ttl 29, id 51554, offset 0, flags [none], proto TCP (6), length 40)
    188.29.164.103.18192 > 192.95.61.160.6969: Flags [S], cksum 0xbf59 (correct), seq 29152, win 65495, length 0
	0x0000:  0200 00d2 bf75 6c9c edba ec40 0800 4500  .....ul....@..E.
	0x0010:  0028 c962 0000 1d06 75e9 bc1d a467 c05f  .(.b....u....g._
	0x0020:  3da0 4710 1b39 0000 71e0 0000 0000 5002  =.G..9..q.....P.
	0x0030:  ffd7 bf59 be02 0000 0000 0000            ...Y........
09:51:21.349090 IP (tos 0x0, ttl 64, id 1, offset 0, flags [none], proto TCP (6), length 40)
    192.95.61.160.6969 > 188.29.164.103.18192: Flags [S.], cksum 0x2cea (correct), seq 12345, ack 29153, win 8192, length 0
	0x0000:  0007 b400 0101 0200 00d2 bf75 0800 4500  ...........u..E.
	0x0010:  0028 0001 0000 4006 1c4b c05f 3da0 bc1d  .(....@..K._=...
	0x0020:  a467 1b39 4710 0000 3039 0000 71e1 5012  .g.9G...09..q.P.
	0x0030:  2000 2cea 0000                           ..,...
09:51:21.834436 IP (tos 0x0, ttl 29, id 51556, offset 0, flags [none], proto TCP (6), length 40)
    188.29.164.103.18192 > 192.95.61.160.6969: Flags [.], cksum 0x4d13 (correct), seq 1, ack 1, win 65495, length 0
	0x0000:  0200 00d2 bf75 6c9c edba ec40 0800 4500  .....ul....@..E.
	0x0010:  0028 c964 0000 1d06 75e7 bc1d a467 c05f  .(.d....u....g._
	0x0020:  3da0 4710 1b39 0000 71e1 0000 303a 5010  =.G..9..q...0:P.
	0x0030:  ffd7 4d13 0000 0000 0000 0000            ..M.........
09:51:21.909010 IP (tos 0x0, ttl 30, id 51557, offset 0, flags [none], proto TCP (6), length 45)
    188.29.164.103.18192 > 192.95.61.160.6969: Flags [P.], cksum 0x6974 (correct), seq 1:6, ack 1, win 65495, length 5
	0x0000:  0200 00d2 bf75 6c9c edba ec40 0800 4500  .....ul....@..E.
	0x0010:  002d c965 0000 1e06 74e1 bc1d a467 c05f  .-.e....t....g._
	0x0020:  3da0 4710 1b39 0000 71e1 0000 303a 5018  =.G..9..q...0:P.
	0x0030:  ffd7 6974 0000 4845 4c4c 4f00            ..it..HELLO.
09:51:21.915288 IP (tos 0x0, ttl 64, id 1, offset 0, flags [none], proto TCP (6), length 42)
    192.95.61.160.6969 > 188.29.164.103.18192: Flags [.], cksum 0x6ee1 (correct), seq 1:3, ack 6, win 8192, length 2
	0x0000:  0007 b400 0101 0200 00d2 bf75 0800 4500  ...........u..E.
	0x0010:  002a 0001 0000 4006 1c49 c05f 3da0 bc1d  .*....@..I._=...
	0x0020:  a467 1b39 4710 0000 303a 0000 71e6 5010  .g.9G...0:..q.P.
	0x0030:  2000 6ee1 0000 be02                      ..n.....
09:51:22.388651 IP (tos 0x0, ttl 29, id 51559, offset 0, flags [none], proto TCP (6), length 40)
    188.29.164.103.18192 > 192.95.61.160.6969: Flags [.], cksum 0x4d0c (correct), seq 6, ack 3, win 65495, length 0
	0x0000:  0200 00d2 bf75 6c9c edba ec40 0800 4500  .....ul....@..E.
	0x0010:  0028 c967 0000 1d06 75e4 bc1d a467 c05f  .(.g....u....g._
	0x0020:  3da0 4710 1b39 0000 71e6 0000 303c 5010  =.G..9..q...0<P.
	0x0030:  ffd7 4d0c 0000 0000 0000 0000            ..M.........
09:51:22.462249 IP (tos 0x0, ttl 30, id 51560, offset 0, flags [none], proto TCP (6), length 40)
    188.29.164.103.18192 > 192.95.61.160.6969: Flags [F.], cksum 0x4d0b (correct), seq 6, ack 3, win 65495, length 0
	0x0000:  0200 00d2 bf75 6c9c edba ec40 0800 4500  .....ul....@..E.
	0x0010:  0028 c968 0000 1e06 74e3 bc1d a467 c05f  .(.h....t....g._
	0x0020:  3da0 4710 1b39 0000 71e6 0000 303c 5011  =.G..9..q...0<P.
	0x0030:  ffd7 4d0b 0000 0000 0000 0000            ..M.........
09:51:22.466932 IP (tos 0x0, ttl 64, id 1, offset 0, flags [none], proto TCP (6), length 40)
    192.95.61.160.6969 > 188.29.164.103.18192: Flags [F.], cksum 0x2ce2 (correct), seq 3, ack 7, win 8192, length 0
	0x0000:  0007 b400 0101 0200 00d2 bf75 0800 4500  ...........u..E.
	0x0010:  0028 0001 0000 4006 1c4b c05f 3da0 bc1d  .(....@..K._=...
	0x0020:  a467 1b39 4710 0000 303c 0000 71e7 5011  .g.9G...0<..q.P.
	0x0030:  2000 2ce2 0000                           ..,...
09:51:22.935821 IP (tos 0x0, ttl 30, id 51562, offset 0, flags [none], proto TCP (6), length 40)
    188.29.164.103.18192 > 192.95.61.160.6969: Flags [.], cksum 0x0b60 (correct), seq 6, ack 16815, win 65495, length 0
	0x0000:  0200 00d2 bf75 6c9c edba ec40 0800 4500  .....ul....@..E.
	0x0010:  0028 c96a 0000 1e06 74e1 bc1d a467 c05f  .(.j....t....g._
	0x0020:  3da0 4710 1b39 0000 71e6 0000 71e8 5010  =.G..9..q...q.P.
	0x0030:  ffd7 0b60 0000 0000 0000 0000            ...`........
09:51:23.121256 IP (tos 0x0, ttl 29, id 51563, offset 0, flags [none], proto TCP (6), length 40)
    188.29.164.103.53162 > 192.95.61.160.6969: Flags [S], cksum 0x5c72 (correct), seq 19261, win 65495, length 0
	0x0000:  0200 00d2 bf75 6c9c edba ec40 0800 4500  .....ul....@..E.
	0x0010:  0028 c96b 0000 1d06 75e0 bc1d a467 c05f  .(.k....u....g._
	0x0020:  3da0 cfaa 1b39 0000 4b3d beef 0003 5002  =....9..K=....P.
	0x0030:  ffd7 5c72 0000 0000 0000 0000            ..\r........
09:51:23.126085 IP (tos 0x0, ttl 64, id 1, offset 0, flags [none], proto TCP (6), length 40)
    192.95.61.160.6969 > 188.29.164.103.53162: Flags [S.], cksum 0x0cef (correct), seq 12345, ack 19262, win 8192, length 0
	0x0000:  0007 b400 0101 0200 00d2 bf75 0800 4500  ...........u..E.
	0x0010:  0028 0001 0000 4006 1c4b c05f 3da0 bc1d  .(....@..K._=...
	0x0020:  a467 1b39 cfaa 0000 3039 0000 4b3e 5012  .g.9....09..K>P.
	0x0030:  2000 0cef be03                           ......
09:51:23.803885 IP (tos 0x0, ttl 29, id 51565, offset 0, flags [none], proto TCP (6), length 40)
    188.29.164.103.53162 > 192.95.61.160.6969: Flags [.], cksum 0xeb1b (correct), seq 1, ack 1, win 65495, length 0
	0x0000:  0200 00d2 bf75 6c9c edba ec40 0800 4500  .....ul....@..E.
	0x0010:  0028 c96d 0000 1d06 75de bc1d a467 c05f  .(.m....u....g._
	0x0020:  3da0 cfaa 1b39 0000 4b3e 0000 303a 5010  =....9..K>..0:P.
	0x0030:  ffd7 eb1b 0000 0000 0000 0000            ............
09:51:23.803925 IP (tos 0x0, ttl 30, id 51566, offset 0, flags [none], proto TCP (6), length 45)
    188.29.164.103.53162 > 192.95.61.160.6969: Flags [P.], cksum 0x077d (correct), seq 1:6, ack 1, win 65495, length 5
	0x0000:  0200 00d2 bf75 6c9c edba ec40 0800 4500  .....ul....@..E.
	0x0010:  002d c96e 0000 1e06 74d8 bc1d a467 c05f  .-.n....t....g._
	0x0020:  3da0 cfaa 1b39 0000 4b3e 0000 303a 5018  =....9..K>..0:P.
	0x0030:  ffd7 077d 0000 4845 4c4c 4f00            ...}..HELLO.
09:51:23.811258 IP (tos 0x0, ttl 64, id 1, offset 0, flags [none], proto TCP (6), length 45)
    192.95.61.160.6969 > 188.29.164.103.53162: Flags [.], cksum 0xe757 (correct), seq 1:6, ack 6, win 8192, length 5
	0x0000:  0007 b400 0101 0200 00d2 bf75 0800 4500  ...........u..E.
	0x0010:  002d 0001 0000 4006 1c46 c05f 3da0 bc1d  .-....@..F._=...
	0x0020:  a467 1b39 cfaa 0000 303a 0000 4b43 5010  .g.9....0:..KCP.
	0x0030:  2000 e757 0000 4f4c 4c45 48              ...W..OLLEH
09:51:24.322733 IP (tos 0x0, ttl 29, id 51568, offset 0, flags [none], proto TCP (6), length 40)
    188.29.164.103.53162 > 192.95.61.160.6969: Flags [.], cksum 0xeb11 (correct), seq 6, ack 6, win 65495, length 0
	0x0000:  0200 00d2 bf75 6c9c edba ec40 0800 4500  .....ul....@..E.
	0x0010:  0028 c970 0000 1d06 75db bc1d a467 c05f  .(.p....u....g._
	0x0020:  3da0 cfaa 1b39 0000 4b43 0000 303f 5010  =....9..KC..0?P.
	0x0030:  ffd7 eb11 0000 0000 0000 0000            ............
09:51:24.426858 IP (tos 0x0, ttl 30, id 51569, offset 0, flags [none], proto TCP (6), length 40)
    188.29.164.103.53162 > 192.95.61.160.6969: Flags [F.], cksum 0xeb10 (correct), seq 6, ack 6, win 65495, length 0
	0x0000:  0200 00d2 bf75 6c9c edba ec40 0800 4500  .....ul....@..E.
	0x0010:  0028 c971 0000 1e06 74da bc1d a467 c05f  .(.q....t....g._
	0x0020:  3da0 cfaa 1b39 0000 4b43 0000 303f 5011  =....9..KC..0?P.
	0x0030:  ffd7 eb10 0000 0000 0000 0000            ............
09:51:24.432057 IP (tos 0x0, ttl 64, id 1, offset 0, flags [none], proto TCP (6), length 40)
    192.95.61.160.6969 > 188.29.164.103.53162: Flags [F.], cksum 0xcae7 (correct), seq 6, ack 7, win 8192, length 0
	0x0000:  0007 b400 0101 0200 00d2 bf75 0800 4500  ...........u..E.
	0x0010:  0028 0001 0000 4006 1c4b c05f 3da0 bc1d  .(....@..K._=...
	0x0020:  a467 1b39 cfaa 0000 303f 0000 4b44 5011  .g.9....0?..KDP.
	0x0030:  2000 cae7 0000                           ......
09:51:24.895523 IP (tos 0x0, ttl 30, id 51571, offset 0, flags [none], proto TCP (6), length 40)
    188.29.164.103.53162 > 192.95.61.160.6969: Flags [.], cksum 0xd00b (correct), seq 6, ack 6924, win 65495, length 0
	0x0000:  0200 00d2 bf75 6c9c edba ec40 0800 4500  .....ul....@..E.
	0x0010:  0028 c973 0000 1e06 74d8 bc1d a467 c05f  .(.s....t....g._
	0x0020:  3da0 cfaa 1b39 0000 4b43 0000 4b45 5010  =....9..KC..KEP.
	0x0030:  ffd7 d00b 0000 0000 0000 0000            ............
09:51:25.073340 IP (tos 0x0, ttl 29, id 51572, offset 0, flags [none], proto TCP (6), length 40)
    188.29.164.103.22321 > 192.95.61.160.6969: Flags [S], cksum 0x0093 (correct), seq 56968, win 65495, length 0
	0x0000:  0200 00d2 bf75 6c9c edba ec40 0800 4500  .....ul....@..E.
	0x0010:  0028 c974 0000 1d06 75d7 bc1d a467 c05f  .(.t....u....g._
	0x0020:  3da0 5731 1b39 0000 de88 0000 0000 5002  =.W1.9........P.
	0x0030:  ffd7 0093 0000 0000 0000 0000            ............
09:51:25.078466 IP (tos 0x0, ttl 64, id 1, offset 0, flags [none], proto TCP (6), length 40)
    192.95.61.160.6969 > 188.29.164.103.22321: Flags [S.], cksum 0xf21b (correct), seq 12345, ack 56969, win 8192, length 0
	0x0000:  0007 b400 0101 0200 00d2 bf75 0800 4500  ...........u..E.
	0x0010:  0028 0001 0000 4006 1c4b c05f 3da0 bc1d  .(....@..K._=...
	0x0020:  a467 1b39 5731 0000 3039 0000 de89 5012  .g.9W1..09....P.
	0x0030:  2000 f21b be04                           ......
09:51:25.603906 IP (tos 0x0, ttl 29, id 51574, offset 0, flags [none], proto TCP (6), length 40)
    188.29.164.103.22321 > 192.95.61.160.6969: Flags [.], cksum 0xd049 (correct), seq 1, ack 1, win 65495, length 0
	0x0000:  0200 00d2 bf75 6c9c edba ec40 0800 4500  .....ul....@..E.
	0x0010:  0028 c976 0000 1d06 75d5 bc1d a467 c05f  .(.v....u....g._
	0x0020:  3da0 5731 1b39 0000 de89 0000 303a 5010  =.W1.9......0:P.
	0x0030:  ffd7 d049 0000 0000 0000 0000            ...I........
09:51:25.696060 IP (tos 0x0, ttl 30, id 51575, offset 0, flags [none], proto TCP (6), length 45)
    188.29.164.103.22321 > 192.95.61.160.6969: Flags [P.], cksum 0xecaa (correct), seq 1:6, ack 1, win 65495, length 5
	0x0000:  0200 00d2 bf75 6c9c edba ec40 0800 4500  .....ul....@..E.
	0x0010:  002d c977 0000 1e06 74cf bc1d a467 c05f  .-.w....t....g._
	0x0020:  3da0 5731 1b39 0000 de89 0000 303a 5018  =.W1.9......0:P.
	0x0030:  ffd7 ecaa 0000 4845 4c4c 4f00            ......HELLO.
09:51:25.701695 IP (tos 0x0, ttl 64, id 1, offset 0, flags [none], proto TCP (6), length 45)
    192.95.61.160.6969 > 188.29.164.103.22321: Flags [.], cksum 0xcc85 (correct), seq 1:6, ack 6, win 8192, length 5
	0x0000:  0007 b400 0101 0200 00d2 bf75 0800 4500  ...........u..E.
	0x0010:  002d 0001 0000 4006 1c46 c05f 3da0 bc1d  .-....@..F._=...
	0x0020:  a467 1b39 5731 0000 303a 0000 de8e 5010  .g.9W1..0:....P.
	0x0030:  2000 cc85 0000 4f4c 4c45 48              ......OLLEH
09:51:26.182150 IP (tos 0x0, ttl 30, id 51577, offset 0, flags [none], proto TCP (6), length 40)
    188.29.164.103.22321 > 192.95.61.160.6969: Flags [.], cksum 0xd03f (correct), seq 6, ack 6, win 65495, length 0
	0x0000:  0200 00d2 bf75 6c9c edba ec40 0800 4500  .....ul....@..E.
	0x0010:  0028 c979 0000 1e06 74d2 bc1d a467 c05f  .(.y....t....g._
	0x0020:  3da0 5731 1b39 0000 de8e 0000 303f 5010  =.W1.9......0?P.
	0x0030:  ffd7 d03f 0000 0000 0000 0000            ...?........
09:51:26.272686 IP (tos 0x0, ttl 30, id 51578, offset 0, flags [none], proto TCP (6), length 40)
    188.29.164.103.22321 > 192.95.61.160.6969: Flags [F.], cksum 0xd03e (correct), seq 6, ack 6, win 65495, length 0
	0x0000:  0200 00d2 bf75 6c9c edba ec40 0800 4500  .....ul....@..E.
	0x0010:  0028 c97a 0000 1e06 74d1 bc1d a467 c05f  .(.z....t....g._
	0x0020:  3da0 5731 1b39 0000 de8e 0000 303f 5011  =.W1.9......0?P.
	0x0030:  ffd7 d03e 0000 0000 0000 0000            ...>........
09:51:26.277429 IP (tos 0x0, ttl 64, id 1, offset 0, flags [none], proto TCP (6), length 40)
    192.95.61.160.6969 > 188.29.164.103.22321: Flags [F.], cksum 0xb015 (correct), seq 6, ack 7, win 8192, length 0
	0x0000:  0007 b400 0101 0200 00d2 bf75 0800 4500  ...........u..E.
	0x0010:  0028 0001 0000 4006 1c4b c05f 3da0 bc1d  .(....@..K._=...
	0x0020:  a467 1b39 5731 0000 303f 0000 de8f 5011  .g.9W1..0?....P.
	0x0030:  2000 b015 0000                           ......
09:51:26.746216 IP (tos 0x0, ttl 30, id 51580, offset 0, flags [none], proto TCP (6), length 40)
    188.29.164.103.22321 > 192.95.61.160.6969: Flags [.], cksum 0x21ee (correct), seq 6, ack 44631, win 65495, length 0
	0x0000:  0200 00d2 bf75 6c9c edba ec40 0800 4500  .....ul....@..E.
	0x0010:  0028 c97c 0000 1e06 74cf bc1d a467 c05f  .(.|....t....g._
	0x0020:  3da0 5731 1b39 0000 de8e 0000 de90 5010  =.W1.9........P.
	0x0030:  ffd7 21ee 0000 0000 0000 0000            ..!.........
09:51:26.933153 IP (tos 0x0, ttl 29, id 51581, offset 0, flags [none], proto TCP (6), length 40)
    188.29.164.103.11702 > 192.95.61.160.6969: Flags [S], cksum 0x341a (correct), seq 5512, win 65495, length 0
	0x0000:  0200 00d2 bf75 6c9c edba ec40 0800 4500  .....ul....@..E.
	0x0010:  0028 c97d 0000 1d06 75ce bc1d a467 c05f  .(.}....u....g._
	0x0020:  3da0 2db6 1b39 0000 1588 beef 0005 5002  =.-..9........P.
	0x0030:  ffd7 341a 0000 0000 0000 0000            ..4.........
09:51:26.938766 IP (tos 0x0, ttl 64, id 1, offset 0, flags [none], proto TCP (6), length 40)
    192.95.61.160.6969 > 188.29.164.103.11702: Flags [S.], cksum 0x30b4 (incorrect -> 0xa29c), seq 12345, ack 5513, win 8192, length 0
	0x0000:  0007 b400 0101 0200 00d2 bf75 0800 4500  ...........u..E.
	0x0010:  0028 0001 0000 4006 1c4b c05f 3da0 bc1d  .(....@..K._=...
	0x0020:  a467 1b39 2db6 0000 3039 0000 1589 5012  .g.9-...09....P.
	0x0030:  2000 30b4 0000                           ..0...
09:51:39.151839 IP (tos 0x0, ttl 29, id 51582, offset 0, flags [none], proto TCP (6), length 40)
    188.29.164.103.48404 > 192.95.61.160.6969: Flags [S], cksum 0xcc26 (correct), seq 60955, win 65495, length 0
	0x0000:  0200 00d2 bf75 6c9c edba ec40 0800 4500  .....ul....@..E.
	0x0010:  0028 c97e 0000 1d06 75cd bc1d a467 c05f  .(.~....u....g._
	0x0020:  3da0 bd14 1b39 0000 ee1b beef 0006 5002  =....9........P.
	0x0030:  ffd7 cc26 0000 0000 0000 0000            ...&........
09:51:39.159377 IP (tos 0x0, ttl 64, id 1, offset 0, flags [none], proto TCP (6), length 42)
    192.95.61.160.6969 > 188.29.164.103.48404: Flags [S.], cksum 0xa155 (correct), seq 12345:12347, ack 60956, win 8192, length 2
	0x0000:  0007 b400 0101 0200 00d2 bf75 0800 4500  ...........u..E.
	0x0010:  002a 0001 0000 4006 1c49 c05f 3da0 bc1d  .*....@..I._=...
	0x0020:  a467 1b39 bd14 0000 3039 0000 ee1c 5012  .g.9....09....P.
	0x0030:  2000 a155 0000 9952                      ...U...R
09:51:39.635498 IP (tos 0x0, ttl 29, id 51584, offset 0, flags [none], proto TCP (6), length 40)
    188.29.164.103.48404 > 192.95.61.160.6969: Flags [.], cksum 0x5ad3 (correct), seq 1, ack 1, win 65495, length 0
	0x0000:  0200 00d2 bf75 6c9c edba ec40 0800 4500  .....ul....@..E.
	0x0010:  0028 c980 0000 1d06 75cb bc1d a467 c05f  .(......u....g._
	0x0020:  3da0 bd14 1b39 0000 ee1c 0000 303a 5010  =....9......0:P.
	0x0030:  ffd7 5ad3 0000 0000 0000 0000            ..Z.........
09:51:39.710664 IP (tos 0x0, ttl 30, id 51585, offset 0, flags [none], proto TCP (6), length 45)
    188.29.164.103.48404 > 192.95.61.160.6969: Flags [P.], cksum 0x7734 (correct), seq 1:6, ack 1, win 65495, length 5
	0x0000:  0200 00d2 bf75 6c9c edba ec40 0800 4500  .....ul....@..E.
	0x0010:  002d c981 0000 1e06 74c5 bc1d a467 c05f  .-......t....g._
	0x0020:  3da0 bd14 1b39 0000 ee1c 0000 303a 5018  =....9......0:P.
	0x0030:  ffd7 7734 0000 4845 4c4c 4f00            ..w4..HELLO.
09:51:39.716500 IP (tos 0x0, ttl 64, id 1, offset 0, flags [none], proto TCP (6), length 45)
    192.95.61.160.6969 > 188.29.164.103.48404: Flags [.], cksum 0x570f (correct), seq 1:6, ack 6, win 8192, length 5
	0x0000:  0007 b400 0101 0200 00d2 bf75 0800 4500  ...........u..E.
	0x0010:  002d 0001 0000 4006 1c46 c05f 3da0 bc1d  .-....@..F._=...
	0x0020:  a467 1b39 bd14 0000 303a 0000 ee21 5010  .g.9....0:...!P.
	0x0030:  2000 570f 0000 4f4c 4c45 48              ..W...OLLEH
09:51:40.183505 IP (tos 0x0, ttl 30, id 51587, offset 0, flags [none], proto TCP (6), length 40)
    188.29.164.103.48404 > 192.95.61.160.6969: Flags [.], cksum 0x5ac9 (correct), seq 6, ack 6, win 65495, length 0
	0x0000:  0200 00d2 bf75 6c9c edba ec40 0800 4500  .....ul....@..E.
	0x0010:  0028 c983 0000 1e06 74c8 bc1d a467 c05f  .(......t....g._
	0x0020:  3da0 bd14 1b39 0000 ee21 0000 303f 5010  =....9...!..0?P.
	0x0030:  ffd7 5ac9 0000 0000 0000 0000            ..Z.........
09:51:40.261802 IP (tos 0x0, ttl 30, id 51588, offset 0, flags [none], proto TCP (6), length 40)
    188.29.164.103.48404 > 192.95.61.160.6969: Flags [F.], cksum 0x5ac8 (correct), seq 6, ack 6, win 65495, length 0
	0x0000:  0200 00d2 bf75 6c9c edba ec40 0800 4500  .....ul....@..E.
	0x0010:  0028 c984 0000 1e06 74c7 bc1d a467 c05f  .(......t....g._
	0x0020:  3da0 bd14 1b39 0000 ee21 0000 303f 5011  =....9...!..0?P.
	0x0030:  ffd7 5ac8 0000 0000 0000 0000            ..Z.........
09:51:40.266687 IP (tos 0x0, ttl 64, id 1, offset 0, flags [none], proto TCP (6), length 40)
    192.95.61.160.6969 > 188.29.164.103.48404: Flags [F.], cksum 0x3a9f (correct), seq 6, ack 7, win 8192, length 0
	0x0000:  0007 b400 0101 0200 00d2 bf75 0800 4500  ...........u..E.
	0x0010:  0028 0001 0000 4006 1c4b c05f 3da0 bc1d  .(....@..K._=...
	0x0020:  a467 1b39 bd14 0000 303f 0000 ee22 5011  .g.9....0?..."P.
	0x0030:  2000 3a9f 0000                           ..:...
09:51:40.748520 IP (tos 0x0, ttl 29, id 51590, offset 0, flags [none], proto TCP (6), length 40)
    188.29.164.103.48404 > 192.95.61.160.6969: Flags [.], cksum 0x9ce4 (correct), seq 6, ack 48618, win 65495, length 0
	0x0000:  0200 00d2 bf75 6c9c edba ec40 0800 4500  .....ul....@..E.
	0x0010:  0028 c986 0000 1d06 75c5 bc1d a467 c05f  .(......u....g._
	0x0020:  3da0 bd14 1b39 0000 ee21 0000 ee23 5010  =....9...!...#P.
	0x0030:  ffd7 9ce4 0000 0000 0000 0000            ............
09:51:40.897452 IP (tos 0x0, ttl 29, id 51591, offset 0, flags [none], proto TCP (6), length 40)
    188.29.164.103.19305 > 192.95.61.160.6969: Flags [S], cksum 0x8c73 (correct), seq 41064, win 65495, length 0
	0x0000:  0200 00d2 bf75 6c9c edba ec40 0800 4500  .....ul....@..E.
	0x0010:  0028 c987 0000 1d06 75c4 bc1d a467 c05f  .(......u....g._
	0x0020:  3da0 4b69 1b39 0000 a068 0000 0000 5002  =.Ki.9...h....P.
	0x0030:  ffd7 8c73 be07 0000 0000 0000            ...s........
09:51:40.902944 IP (tos 0x0, ttl 64, id 1, offset 0, flags [none], proto TCP (6), length 40)
    192.95.61.160.6969 > 188.29.164.103.19305: Flags [S.], cksum 0x3c01 (correct), seq 12345, ack 41065, win 8192, length 0
	0x0000:  0007 b400 0101 0200 00d2 bf75 0800 4500  ...........u..E.
	0x0010:  0028 0001 0000 4006 1c4b c05f 3da0 bc1d  .(....@..K._=...
	0x0020:  a467 1b39 4b69 0000 3039 0000 a069 5012  .g.9Ki..09...iP.
	0x0030:  2000 3c01 be07                           ..<...
09:51:41.355526 IP (tos 0x0, ttl 29, id 51593, offset 0, flags [none], proto TCP (6), length 40)
    188.29.164.103.19305 > 192.95.61.160.6969: Flags [.], cksum 0x1a32 (correct), seq 1, ack 1, win 65495, length 0
	0x0000:  0200 00d2 bf75 6c9c edba ec40 0800 4500  .....ul....@..E.
	0x0010:  0028 c989 0000 1d06 75c2 bc1d a467 c05f  .(......u....g._
	0x0020:  3da0 4b69 1b39 0000 a069 0000 303a 5010  =.Ki.9...i..0:P.
	0x0030:  ffd7 1a32 0000 0000 0000 0000            ...2........
09:51:41.428078 IP (tos 0x0, ttl 30, id 51594, offset 0, flags [none], proto TCP (6), length 45)
    188.29.164.103.19305 > 192.95.61.160.6969: Flags [P.], cksum 0x3693 (correct), seq 1:6, ack 1, win 65495, length 5
	0x0000:  0200 00d2 bf75 6c9c edba ec40 0800 4500  .....ul....@..E.
	0x0010:  002d c98a 0000 1e06 74bc bc1d a467 c05f  .-......t....g._
	0x0020:  3da0 4b69 1b39 0000 a069 0000 303a 5018  =.Ki.9...i..0:P.
	0x0030:  ffd7 3693 0000 4845 4c4c 4f00            ..6...HELLO.
09:51:41.433850 IP (tos 0x0, ttl 64, id 1, offset 0, flags [none], proto TCP (6), length 45)
    192.95.61.160.6969 > 188.29.164.103.19305: Flags [.], cksum 0x166e (correct), seq 1:6, ack 6, win 8192, length 5
	0x0000:  0007 b400 0101 0200 00d2 bf75 0800 4500  ...........u..E.
	0x0010:  002d 0001 0000 4006 1c46 c05f 3da0 bc1d  .-....@..F._=...
	0x0020:  a467 1b39 4b69 0000 303a 0000 a06e 5010  .g.9Ki..0:...nP.
	0x0030:  2000 166e 0000 4f4c 4c45 48              ...n..OLLEH
09:51:41.887496 IP (tos 0x0, ttl 29, id 51596, offset 0, flags [none], proto TCP (6), length 40)
    188.29.164.103.19305 > 192.95.61.160.6969: Flags [.], cksum 0x1a28 (correct), seq 6, ack 6, win 65495, length 0
	0x0000:  0200 00d2 bf75 6c9c edba ec40 0800 4500  .....ul....@..E.
	0x0010:  0028 c98c 0000 1d06 75bf bc1d a467 c05f  .(......u....g._
	0x0020:  3da0 4b69 1b39 0000 a06e 0000 303f 5010  =.Ki.9...n..0?P.
	0x0030:  ffd7 1a28 0000 0000 0000 0000            ...(........
09:51:41.956815 IP (tos 0x0, ttl 30, id 51597, offset 0, flags [none], proto TCP (6), length 40)
    188.29.164.103.19305 > 192.95.61.160.6969: Flags [F.], cksum 0x1a27 (correct), seq 6, ack 6, win 65495, length 0
	0x0000:  0200 00d2 bf75 6c9c edba ec40 0800 4500  .....ul....@..E.
	0x0010:  0028 c98d 0000 1e06 74be bc1d a467 c05f  .(......t....g._
	0x0020:  3da0 4b69 1b39 0000 a06e 0000 303f 5011  =.Ki.9...n..0?P.
	0x0030:  ffd7 1a27 0000 0000 0000 0000            ...'........
09:51:41.961545 IP (tos 0x0, ttl 64, id 1, offset 0, flags [none], proto TCP (6), length 40)
    192.95.61.160.6969 > 188.29.164.103.19305: Flags [F.], cksum 0xf9fd (correct), seq 6, ack 7, win 8192, length 0
	0x0000:  0007 b400 0101 0200 00d2 bf75 0800 4500  ...........u..E.
	0x0010:  0028 0001 0000 4006 1c4b c05f 3da0 bc1d  .(....@..K._=...
	0x0020:  a467 1b39 4b69 0000 303f 0000 a06f 5011  .g.9Ki..0?...oP.
	0x0030:  2000 f9fd 0000                           ......
09:51:42.441724 IP (tos 0x0, ttl 30, id 51599, offset 0, flags [none], proto TCP (6), length 40)
    188.29.164.103.19305 > 192.95.61.160.6969: Flags [.], cksum 0xa9f6 (correct), seq 6, ack 28727, win 65495, length 0
	0x0000:  0200 00d2 bf75 6c9c edba ec40 0800 4500  .....ul....@..E.
	0x0010:  0028 c98f 0000 1e06 74bc bc1d a467 c05f  .(......t....g._
	0x0020:  3da0 4b69 1b39 0000 a06e 0000 a070 5010  =.Ki.9...n...pP.
	0x0030:  ffd7 a9f6 0000 0000 0000 0000            ............
09:51:42.648756 IP (tos 0x0, ttl 29, id 51600, offset 0, flags [none], proto TCP (6), length 40)
    188.29.164.103.15095 > 192.95.61.160.6969: Flags [S], cksum 0x7aa4 (correct), seq 49832, win 65495, length 0
	0x0000:  0200 00d2 bf75 6c9c edba ec40 0800 4500  .....ul....@..E.
	0x0010:  0028 c990 0000 1d06 75bb bc1d a467 c05f  .(......u....g._
	0x0020:  3da0 3af7 1b39 0000 c2a8 0000 0000 5002  =.:..9........P.
	0x0030:  ffd7 7aa4 be08 0000 0000 0000            ..z.........
09:51:42.653982 IP (tos 0x0, ttl 64, id 1, offset 0, flags [none], proto TCP (6), length 40)
    192.95.61.160.6969 > 188.29.164.103.15095: Flags [S.], cksum 0x2a36 (correct), seq 12345, ack 49833, win 8192, length 0
	0x0000:  0007 b400 0101 0200 00d2 bf75 0800 4500  ...........u..E.
	0x0010:  0028 0001 0000 4006 1c4b c05f 3da0 bc1d  .(....@..K._=...
	0x0020:  a467 1b39 3af7 0000 3039 0000 c2a9 5012  .g.9:...09....P.
	0x0030:  2000 2a36 be04                           ..*6..
09:51:43.336377 IP (tos 0x0, ttl 29, id 51602, offset 0, flags [none], proto TCP (6), length 40)
    188.29.164.103.42286 > 192.95.61.160.6969: Flags [S], cksum 0x8dbf (correct), seq 17749, win 65495, length 0
	0x0000:  0200 00d2 bf75 6c9c edba ec40 0800 4500  .....ul....@..E.
	0x0010:  0028 c992 0000 1d06 75b9 bc1d a467 c05f  .(......u....g._
	0x0020:  3da0 a52e 1b39 0000 4555 0000 0000 5002  =....9..EU....P.
	0x0030:  ffd7 8dbf be09 0000 0000 0000            ............
09:51:43.342215 IP (tos 0x0, ttl 64, id 1, offset 0, flags [none], proto TCP (6), length 40)
    192.95.61.160.6969 > 188.29.164.103.42286: Flags [S.], cksum 0xb93b (incorrect -> 0xfb56), seq 12345, ack 17750, win 8192, length 0
	0x0000:  0007 b400 0101 0200 00d2 bf75 0800 4500  ...........u..E.
	0x0010:  0028 0001 0000 4006 1c4b c05f 3da0 bc1d  .(....@..K._=...
	0x0020:  a467 1b39 a52e 0000 3039 0000 4556 5012  .g.9....09..EVP.
	0x0030:  2000 b93b 0000                           ...;..
09:51:54.259648 IP (tos 0x0, ttl 29, id 51603, offset 0, flags [none], proto TCP (6), length 40)
    188.29.164.103.22455 > 192.95.61.160.6969: Flags [S], cksum 0x126a (correct), seq 52011, win 65495, length 0
	0x0000:  0200 00d2 bf75 6c9c edba ec40 0800 4500  .....ul....@..E.
	0x0010:  0028 c993 0000 1d06 75b8 bc1d a467 c05f  .(......u....g._
	0x0020:  3da0 57b7 1b39 0000 cb2b 0000 0000 5102  =.W..9...+....Q.
	0x0030:  ffd7 126a 0000 0000 0000 0000            ...j........
09:51:54.265284 IP (tos 0x0, ttl 64, id 1, offset 0, flags [none], proto TCP (6), length 40)
    192.95.61.160.6969 > 188.29.164.103.22455: Flags [S.], cksum 0xc1f7 (correct), seq 12345, ack 52012, win 8192, length 0
	0x0000:  0007 b400 0101 0200 00d2 bf75 0800 4500  ...........u..E.
	0x0010:  0028 0001 0000 4006 1c4b c05f 3da0 bc1d  .(....@..K._=...
	0x0020:  a467 1b39 57b7 0000 3039 0000 cb2c 5112  .g.9W...09...,Q.
	0x0030:  2000 c1f7 0000                           ......
09:51:54.730677 IP (tos 0x0, ttl 29, id 51605, offset 0, flags [none], proto TCP (6), length 40)
    188.29.164.103.22455 > 192.95.61.160.6969: Flags [.], cksum 0xe220 (correct), seq 1, ack 1, win 65495, length 0
	0x0000:  0200 00d2 bf75 6c9c edba ec40 0800 4500  .....ul....@..E.
	0x0010:  0028 c995 0000 1d06 75b6 bc1d a467 c05f  .(......u....g._
	0x0020:  3da0 57b7 1b39 0000 cb2c 0000 303a 5110  =.W..9...,..0:Q.
	0x0030:  ffd7 e220 0000 0000 0000 0000            ............
09:51:54.799248 IP (tos 0x0, ttl 30, id 51606, offset 0, flags [none], proto TCP (6), length 45)
    188.29.164.103.22455 > 192.95.61.160.6969: Flags [P.], cksum 0xff81 (correct), seq 1:6, ack 1, win 65495, length 5
	0x0000:  0200 00d2 bf75 6c9c edba ec40 0800 4500  .....ul....@..E.
	0x0010:  002d c996 0000 1e06 74b0 bc1d a467 c05f  .-......t....g._
	0x0020:  3da0 57b7 1b39 0000 cb2c 0000 303a 5018  =.W..9...,..0:P.
	0x0030:  ffd7 ff81 0000 4845 4c4c 4f00            ......HELLO.
09:51:54.805000 IP (tos 0x0, ttl 64, id 1, offset 0, flags [none], proto TCP (6), length 45)
    192.95.61.160.6969 > 188.29.164.103.22455: Flags [.], cksum 0xdf5c (correct), seq 1:6, ack 6, win 8192, length 5
	0x0000:  0007 b400 0101 0200 00d2 bf75 0800 4500  ...........u..E.
	0x0010:  002d 0001 0000 4006 1c46 c05f 3da0 bc1d  .-....@..F._=...
	0x0020:  a467 1b39 57b7 0000 303a 0000 cb31 5010  .g.9W...0:...1P.
	0x0030:  2000 df5c 0000 4f4c 4c45 48              ...\..OLLEH
09:51:55.235592 IP (tos 0x0, ttl 29, id 51608, offset 0, flags [none], proto TCP (6), length 40)
    188.29.164.103.22455 > 192.95.61.160.6969: Flags [.], cksum 0xe316 (correct), seq 6, ack 6, win 65495, length 0
	0x0000:  0200 00d2 bf75 6c9c edba ec40 0800 4500  .....ul....@..E.
	0x0010:  0028 c998 0000 1d06 75b3 bc1d a467 c05f  .(......u....g._
	0x0020:  3da0 57b7 1b39 0000 cb31 0000 303f 5010  =.W..9...1..0?P.
	0x0030:  ffd7 e316 0000 0000 0000 0000            ............
09:51:55.312546 IP (tos 0x0, ttl 30, id 51609, offset 0, flags [none], proto TCP (6), length 40)
    188.29.164.103.22455 > 192.95.61.160.6969: Flags [F.], cksum 0xe315 (correct), seq 6, ack 6, win 65495, length 0
	0x0000:  0200 00d2 bf75 6c9c edba ec40 0800 4500  .....ul....@..E.
	0x0010:  0028 c999 0000 1e06 74b2 bc1d a467 c05f  .(......t....g._
	0x0020:  3da0 57b7 1b39 0000 cb31 0000 303f 5011  =.W..9...1..0?P.
	0x0030:  ffd7 e315 0000 0000 0000 0000            ............
09:51:55.317452 IP (tos 0x0, ttl 64, id 1, offset 0, flags [none], proto TCP (6), length 40)
    192.95.61.160.6969 > 188.29.164.103.22455: Flags [F.], cksum 0xc2ec (correct), seq 6, ack 7, win 8192, length 0
	0x0000:  0007 b400 0101 0200 00d2 bf75 0800 4500  ...........u..E.
	0x0010:  0028 0001 0000 4006 1c4b c05f 3da0 bc1d  .(....@..K._=...
	0x0020:  a467 1b39 57b7 0000 303f 0000 cb32 5011  .g.9W...0?...2P.
	0x0030:  2000 c2ec 0000                           ......
09:51:55.791641 IP (tos 0x0, ttl 30, id 51611, offset 0, flags [none], proto TCP (6), length 40)
    188.29.164.103.22455 > 192.95.61.160.6969: Flags [.], cksum 0x4822 (correct), seq 6, ack 39674, win 65495, length 0
	0x0000:  0200 00d2 bf75 6c9c edba ec40 0800 4500  .....ul....@..E.
	0x0010:  0028 c99b 0000 1e06 74b0 bc1d a467 c05f  .(......t....g._
	0x0020:  3da0 57b7 1b39 0000 cb31 0000 cb33 5010  =.W..9...1...3P.
	0x0030:  ffd7 4822 0000 0000 0000 0000            ..H"........
09:51:55.961312 IP (tos 0x0, ttl 29, id 51612, offset 0, flags [none], proto TCP (6), length 40)
    188.29.164.103.44479 > 192.95.61.160.6969: Flags [S], cksum 0x594a (correct), seq 11587, win 65495, length 0
	0x0000:  0200 00d2 bf75 6c9c edba ec40 0800 4500  .....ul....@..E.
	0x0010:  0028 c99c 0000 1d06 75af bc1d a467 c05f  .(......u....g._
	0x0020:  3da0 adbf 1b39 0000 2d43 0000 0000 5202  =....9..-C....R.
	0x0030:  ffd7 594a 0000 0000 0000 0000            ..YJ........
09:51:55.966603 IP (tos 0x0, ttl 64, id 1, offset 0, flags [none], proto TCP (6), length 40)
    192.95.61.160.6969 > 188.29.164.103.44479: Flags [S.], cksum 0x08d8 (correct), seq 12345, ack 11588, win 8192, length 0
	0x0000:  0007 b400 0101 0200 00d2 bf75 0800 4500  ...........u..E.
	0x0010:  0028 0001 0000 4006 1c4b c05f 3da0 bc1d  .(....@..K._=...
	0x0020:  a467 1b39 adbf 0000 3039 0000 2d44 5212  .g.9....09..-DR.
	0x0030:  2000 08d8 0000                           ......
09:51:56.702504 IP (tos 0x0, ttl 29, id 51614, offset 0, flags [none], proto TCP (6), length 40)
    188.29.164.103.44479 > 192.95.61.160.6969: Flags [.], cksum 0x2901 (correct), seq 1, ack 1, win 65495, length 0
	0x0000:  0200 00d2 bf75 6c9c edba ec40 0800 4500  .....ul....@..E.
	0x0010:  0028 c99e 0000 1d06 75ad bc1d a467 c05f  .(......u....g._
	0x0020:  3da0 adbf 1b39 0000 2d44 0000 303a 5210  =....9..-D..0:R.
	0x0030:  ffd7 2901 0000 0000 0000 0000            ..).........
09:51:56.702549 IP (tos 0x0, ttl 30, id 51615, offset 0, flags [none], proto TCP (6), length 45)
    188.29.164.103.44479 > 192.95.61.160.6969: Flags [P.], cksum 0x4762 (correct), seq 1:6, ack 1, win 65495, length 5
	0x0000:  0200 00d2 bf75 6c9c edba ec40 0800 4500  .....ul....@..E.
	0x0010:  002d c99f 0000 1e06 74a7 bc1d a467 c05f  .-......t....g._
	0x0020:  3da0 adbf 1b39 0000 2d44 0000 303a 5018  =....9..-D..0:P.
	0x0030:  ffd7 4762 0000 4845 4c4c 4f00            ..Gb..HELLO.
09:51:56.710433 IP (tos 0x0, ttl 64, id 1, offset 0, flags [none], proto TCP (6), length 45)
    192.95.61.160.6969 > 188.29.164.103.44479: Flags [.], cksum 0x273d (correct), seq 1:6, ack 6, win 8192, length 5
	0x0000:  0007 b400 0101 0200 00d2 bf75 0800 4500  ...........u..E.
	0x0010:  002d 0001 0000 4006 1c46 c05f 3da0 bc1d  .-....@..F._=...
	0x0020:  a467 1b39 adbf 0000 303a 0000 2d49 5010  .g.9....0:..-IP.
	0x0030:  2000 273d 0000 4f4c 4c45 48              ..'=..OLLEH
09:51:57.175372 IP (tos 0x0, ttl 29, id 51617, offset 0, flags [none], proto TCP (6), length 40)
    188.29.164.103.44479 > 192.95.61.160.6969: Flags [.], cksum 0x2af7 (correct), seq 6, ack 6, win 65495, length 0
	0x0000:  0200 00d2 bf75 6c9c edba ec40 0800 4500  .....ul....@..E.
	0x0010:  0028 c9a1 0000 1d06 75aa bc1d a467 c05f  .(......u....g._
	0x0020:  3da0 adbf 1b39 0000 2d49 0000 303f 5010  =....9..-I..0?P.
	0x0030:  ffd7 2af7 0000 0000 0000 0000            ..*.........
09:51:57.253683 IP (tos 0x0, ttl 30, id 51618, offset 0, flags [none], proto TCP (6), length 40)
    188.29.164.103.44479 > 192.95.61.160.6969: Flags [F.], cksum 0x2af6 (correct), seq 6, ack 6, win 65495, length 0
	0x0000:  0200 00d2 bf75 6c9c edba ec40 0800 4500  .....ul....@..E.
	0x0010:  0028 c9a2 0000 1e06 74a9 bc1d a467 c05f  .(......t....g._
	0x0020:  3da0 adbf 1b39 0000 2d49 0000 303f 5011  =....9..-I..0?P.
	0x0030:  ffd7 2af6 0000 0000 0000 0000            ..*.........
09:51:57.258419 IP (tos 0x0, ttl 64, id 1, offset 0, flags [none], proto TCP (6), length 40)
    192.95.61.160.6969 > 188.29.164.103.44479: Flags [F.], cksum 0x0acd (correct), seq 6, ack 7, win 8192, length 0
	0x0000:  0007 b400 0101 0200 00d2 bf75 0800 4500  ...........u..E.
	0x0010:  0028 0001 0000 4006 1c4b c05f 3da0 bc1d  .(....@..K._=...
	0x0020:  a467 1b39 adbf 0000 303f 0000 2d4a 5011  .g.9....0?..-JP.
	0x0030:  2000 0acd 0000                           ......
09:51:57.727884 IP (tos 0x0, ttl 30, id 51620, offset 0, flags [none], proto TCP (6), length 40)
    188.29.164.103.44479 > 192.95.61.160.6969: Flags [.], cksum 0x2deb (correct), seq 6, ack 4294966546, win 65495, length 0
	0x0000:  0200 00d2 bf75 6c9c edba ec40 0800 4500  .....ul....@..E.
	0x0010:  0028 c9a4 0000 1e06 74a7 bc1d a467 c05f  .(......t....g._
	0x0020:  3da0 adbf 1b39 0000 2d49 0000 2d4b 5010  =....9..-I..-KP.
	0x0030:  ffd7 2deb 0000 0000 0000 0000            ..-.........
09:51:57.901062 IP (tos 0x0, ttl 29, id 51621, offset 0, flags [none], proto TCP (6), length 40)
    188.29.164.103.16809 > 192.95.61.160.6969: Flags [S], cksum 0x38c1 (correct), seq 47074, win 65495, length 0
	0x0000:  0200 00d2 bf75 6c9c edba ec40 0800 4500  .....ul....@..E.
	0x0010:  0028 c9a5 0000 1d06 75a6 bc1d a467 c05f  .(......u....g._
	0x0020:  3da0 41a9 1b39 0000 b7e2 0000 0000 5402  =.A..9........T.
	0x0030:  ffd7 38c1 0000 0000 0000 0000            ..8.........
09:51:57.906169 IP (tos 0x0, ttl 64, id 1, offset 0, flags [none], proto TCP (6), length 40)
    192.95.61.160.6969 > 188.29.164.103.16809: Flags [S.], cksum 0xe84e (correct), seq 12345, ack 47075, win 8192, length 0
	0x0000:  0007 b400 0101 0200 00d2 bf75 0800 4500  ...........u..E.
	0x0010:  0028 0001 0000 4006 1c4b c05f 3da0 bc1d  .(....@..K._=...
	0x0020:  a467 1b39 41a9 0000 3039 0000 b7e3 5412  .g.9A...09....T.
	0x0030:  2000 e84e 0000                           ...N..
09:51:58.368339 IP (tos 0x0, ttl 29, id 51623, offset 0, flags [none], proto TCP (6), length 40)
    188.29.164.103.16809 > 192.95.61.160.6969: Flags [.], cksum 0x0878 (correct), seq 1, ack 1, win 65495, length 0
	0x0000:  0200 00d2 bf75 6c9c edba ec40 0800 4500  .....ul....@..E.
	0x0010:  0028 c9a7 0000 1d06 75a4 bc1d a467 c05f  .(......u....g._
	0x0020:  3da0 41a9 1b39 0000 b7e3 0000 303a 5410  =.A..9......0:T.
	0x0030:  ffd7 0878 0000 0000 0000 0000            ...x........
09:51:58.450281 IP (tos 0x0, ttl 30, id 51624, offset 0, flags [none], proto TCP (6), length 45)
    188.29.164.103.16809 > 192.95.61.160.6969: Flags [P.], cksum 0x28d9 (correct), seq 1:6, ack 1, win 65495, length 5
	0x0000:  0200 00d2 bf75 6c9c edba ec40 0800 4500  .....ul....@..E.
	0x0010:  002d c9a8 0000 1e06 749e bc1d a467 c05f  .-......t....g._
	0x0020:  3da0 41a9 1b39 0000 b7e3 0000 303a 5018  =.A..9......0:P.
	0x0030:  ffd7 28d9 0000 4845 4c4c 4f00            ..(...HELLO.
09:51:58.457132 IP (tos 0x0, ttl 64, id 1, offset 0, flags [none], proto TCP (6), length 45)
    192.95.61.160.6969 > 188.29.164.103.16809: Flags [.], cksum 0x08b4 (correct), seq 1:6, ack 6, win 8192, length 5
	0x0000:  0007 b400 0101 0200 00d2 bf75 0800 4500  ...........u..E.
	0x0010:  002d 0001 0000 4006 1c46 c05f 3da0 bc1d  .-....@..F._=...
	0x0020:  a467 1b39 41a9 0000 303a 0000 b7e8 5010  .g.9A...0:....P.
	0x0030:  2000 08b4 0000 4f4c 4c45 48              ......OLLEH
09:51:58.945695 IP (tos 0x0, ttl 30, id 51626, offset 0, flags [none], proto TCP (6), length 40)
    188.29.164.103.16809 > 192.95.61.160.6969: Flags [.], cksum 0x0c6e (correct), seq 6, ack 6, win 65495, length 0
	0x0000:  0200 00d2 bf75 6c9c edba ec40 0800 4500  .....ul....@..E.
	0x0010:  0028 c9aa 0000 1e06 74a1 bc1d a467 c05f  .(......t....g._
	0x0020:  3da0 41a9 1b39 0000 b7e8 0000 303f 5010  =.A..9......0?P.
	0x0030:  ffd7 0c6e 0000 0000 0000 0000            ...n........
09:51:59.036942 IP (tos 0x0, ttl 30, id 51627, offset 0, flags [none], proto TCP (6), length 40)
    188.29.164.103.16809 > 192.95.61.160.6969: Flags [F.], cksum 0x0c6d (correct), seq 6, ack 6, win 65495, length 0
	0x0000:  0200 00d2 bf75 6c9c edba ec40 0800 4500  .....ul....@..E.
	0x0010:  0028 c9ab 0000 1e06 74a0 bc1d a467 c05f  .(......t....g._
	0x0020:  3da0 41a9 1b39 0000 b7e8 0000 303f 5011  =.A..9......0?P.
	0x0030:  ffd7 0c6d 0000 0000 0000 0000            ...m........
09:51:59.041975 IP (tos 0x0, ttl 64, id 1, offset 0, flags [none], proto TCP (6), length 40)
    192.95.61.160.6969 > 188.29.164.103.16809: Flags [F.], cksum 0xec43 (correct), seq 6, ack 7, win 8192, length 0
	0x0000:  0007 b400 0101 0200 00d2 bf75 0800 4500  ...........u..E.
	0x0010:  0028 0001 0000 4006 1c4b c05f 3da0 bc1d  .(....@..K._=...
	0x0020:  a467 1b39 41a9 0000 303f 0000 b7e9 5011  .g.9A...0?....P.
	0x0030:  2000 ec43 0000                           ...C..
09:51:59.519439 IP (tos 0x0, ttl 30, id 51629, offset 0, flags [none], proto TCP (6), length 40)
    188.29.164.103.16809 > 192.95.61.160.6969: Flags [.], cksum 0x84c2 (correct), seq 6, ack 34737, win 65495, length 0
	0x0000:  0200 00d2 bf75 6c9c edba ec40 0800 4500  .....ul....@..E.
	0x0010:  0028 c9ad 0000 1e06 749e bc1d a467 c05f  .(......t....g._
	0x0020:  3da0 41a9 1b39 0000 b7e8 0000 b7ea 5010  =.A..9........P.
	0x0030:  ffd7 84c2 0000 0000 0000 0000            ............
09:51:59.686251 IP (tos 0x0, ttl 29, id 51630, offset 0, flags [none], proto TCP (6), length 40)
    188.29.164.103.30931 > 192.95.61.160.6969: Flags [S], cksum 0xd542 (correct), seq 57398, win 65495, length 0
	0x0000:  0200 00d2 bf75 6c9c edba ec40 0800 4500  .....ul....@..E.
	0x0010:  0028 c9ae 0000 1d06 759d bc1d a467 c05f  .(......u....g._
	0x0020:  3da0 78d3 1b39 0000 e036 0000 0000 5802  =.x..9...6....X.
	0x0030:  ffd7 d542 0000 0000 0000 0000            ...B........
09:51:59.691549 IP (tos 0x0, ttl 64, id 1, offset 0, flags [none], proto TCP (6), length 40)
    192.95.61.160.6969 > 188.29.164.103.30931: Flags [S.], cksum 0x84d0 (correct), seq 12345, ack 57399, win 8192, length 0
	0x0000:  0007 b400 0101 0200 00d2 bf75 0800 4500  ...........u..E.
	0x0010:  0028 0001 0000 4006 1c4b c05f 3da0 bc1d  .(....@..K._=...
	0x0020:  a467 1b39 78d3 0000 3039 0000 e037 5812  .g.9x...09...7X.
	0x0030:  2000 84d0 0000                           ......
09:52:00.175592 IP (tos 0x0, ttl 29, id 51632, offset 0, flags [none], proto TCP (6), length 40)
    188.29.164.103.30931 > 192.95.61.160.6969: Flags [.], cksum 0xa4f9 (correct), seq 1, ack 1, win 65495, length 0
	0x0000:  0200 00d2 bf75 6c9c edba ec40 0800 4500  .....ul....@..E.
	0x0010:  0028 c9b0 0000 1d06 759b bc1d a467 c05f  .(......u....g._
	0x0020:  3da0 78d3 1b39 0000 e037 0000 303a 5810  =.x..9...7..0:X.
	0x0030:  ffd7 a4f9 0000 0000 0000 0000            ............
09:52:00.259994 IP (tos 0x0, ttl 30, id 51633, offset 0, flags [none], proto TCP (6), length 45)
    188.29.164.103.30931 > 192.95.61.160.6969: Flags [P.], cksum 0xc95a (correct), seq 1:6, ack 1, win 65495, length 5
	0x0000:  0200 00d2 bf75 6c9c edba ec40 0800 4500  .....ul....@..E.
	0x0010:  002d c9b1 0000 1e06 7495 bc1d a467 c05f  .-......t....g._
	0x0020:  3da0 78d3 1b39 0000 e037 0000 303a 5018  =.x..9...7..0:P.
	0x0030:  ffd7 c95a 0000 4845 4c4c 4f00            ...Z..HELLO.
09:52:00.265812 IP (tos 0x0, ttl 64, id 1, offset 0, flags [none], proto TCP (6), length 45)
    192.95.61.160.6969 > 188.29.164.103.30931: Flags [.], cksum 0xa935 (correct), seq 1:6, ack 6, win 8192, length 5
	0x0000:  0007 b400 0101 0200 00d2 bf75 0800 4500  ...........u..E.
	0x0010:  002d 0001 0000 4006 1c46 c05f 3da0 bc1d  .-....@..F._=...
	0x0020:  a467 1b39 78d3 0000 303a 0000 e03c 5010  .g.9x...0:...<P.
	0x0030:  2000 a935 0000 4f4c 4c45 48              ...5..OLLEH
09:52:00.728395 IP (tos 0x0, ttl 30, id 51635, offset 0, flags [none], proto TCP (6), length 40)
    188.29.164.103.30931 > 192.95.61.160.6969: Flags [.], cksum 0xacef (correct), seq 6, ack 6, win 65495, length 0
	0x0000:  0200 00d2 bf75 6c9c edba ec40 0800 4500  .....ul....@..E.
	0x0010:  0028 c9b3 0000 1e06 7498 bc1d a467 c05f  .(......t....g._
	0x0020:  3da0 78d3 1b39 0000 e03c 0000 303f 5010  =.x..9...<..0?P.
	0x0030:  ffd7 acef 0000 0000 0000 0000            ............
09:52:00.816382 IP (tos 0x0, ttl 30, id 51636, offset 0, flags [none], proto TCP (6), length 40)
    188.29.164.103.30931 > 192.95.61.160.6969: Flags [F.], cksum 0xacee (correct), seq 6, ack 6, win 65495, length 0
	0x0000:  0200 00d2 bf75 6c9c edba ec40 0800 4500  .....ul....@..E.
	0x0010:  0028 c9b4 0000 1e06 7497 bc1d a467 c05f  .(......t....g._
	0x0020:  3da0 78d3 1b39 0000 e03c 0000 303f 5011  =.x..9...<..0?P.
	0x0030:  ffd7 acee 0000 0000 0000 0000            ............
09:52:00.821534 IP (tos 0x0, ttl 64, id 1, offset 0, flags [none], proto TCP (6), length 40)
    192.95.61.160.6969 > 188.29.164.103.30931: Flags [F.], cksum 0x8cc5 (correct), seq 6, ack 7, win 8192, length 0
	0x0000:  0007 b400 0101 0200 00d2 bf75 0800 4500  ...........u..E.
	0x0010:  0028 0001 0000 4006 1c4b c05f 3da0 bc1d  .(....@..K._=...
	0x0020:  a467 1b39 78d3 0000 303f 0000 e03d 5011  .g.9x...0?...=P.
	0x0030:  2000 8cc5 0000                           ......
09:52:01.308097 IP (tos 0x0, ttl 29, id 51638, offset 0, flags [none], proto TCP (6), length 40)
    188.29.164.103.30931 > 192.95.61.160.6969: Flags [.], cksum 0xfcef (correct), seq 6, ack 45061, win 65495, length 0
	0x0000:  0200 00d2 bf75 6c9c edba ec40 0800 4500  .....ul....@..E.
	0x0010:  0028 c9b6 0000 1d06 7595 bc1d a467 c05f  .(......u....g._
	0x0020:  3da0 78d3 1b39 0000 e03c 0000 e03e 5010  =.x..9...<...>P.
	0x0030:  ffd7 fcef 0000 0000 0000 0000            ............
09:52:01.496533 IP (tos 0x0, ttl 29, id 51639, offset 0, flags [none], proto TCP (6), length 40)
    188.29.164.103.9171 > 192.95.61.160.6969: Flags [S], cksum 0xeaac (correct), seq 10189, win 65495, length 0
	0x0000:  0200 00d2 bf75 6c9c edba ec40 0800 4500  .....ul....@..E.
	0x0010:  0028 c9b7 0000 1d06 7594 bc1d a467 c05f  .(......u....g._
	0x0020:  3da0 23d3 1b39 0000 27cd 0000 0000 5002  =.#..9..'.....P.
	0x0030:  ffd7 eaac 0000 0000 0000 0000            ............
09:52:01.501744 IP (tos 0x0, ttl 64, id 1, offset 0, flags [none], proto TCP (6), length 40)
    192.95.61.160.6969 > 188.29.164.103.9171: Flags [S.], cksum 0xdc35 (correct), seq 12345, ack 10190, win 8192, length 0
	0x0000:  0007 b400 0101 0200 00d2 bf75 0800 4500  ...........u..E.
	0x0010:  0028 0001 0000 4006 1c4b c05f 3da0 bc1d  .(....@..K._=...
	0x0020:  a467 1b39 23d3 0000 3039 0000 27ce 5012  .g.9#...09..'.P.
	0x0030:  2000 dc35 be04                           ...5..
09:52:02.026125 IP (tos 0x0, ttl 29, id 51641, offset 0, flags [none], proto TCP (6), length 40)
    188.29.164.103.9171 > 192.95.61.160.6969: Flags [.], cksum 0xba63 (correct), seq 1, ack 1, win 65495, length 0
	0x0000:  0200 00d2 bf75 6c9c edba ec40 0800 4500  .....ul....@..E.
	0x0010:  0028 c9b9 0000 1d06 7592 bc1d a467 c05f  .(......u....g._
	0x0020:  3da0 23d3 1b39 0000 27ce 0000 303a 5010  =.#..9..'...0:P.
	0x0030:  ffd7 ba63 0000 0000 0000 0000            ...c........
09:52:02.110647 IP (tos 0x0, ttl 30, id 51642, offset 0, flags [none], proto TCP (6), length 45)
    188.29.164.103.9171 > 192.95.61.160.6969: Flags [P.], cksum 0xd5c4 (correct), seq 1:6, ack 1, win 65495, length 5
	0x0000:  0200 00d2 bf75 6c9c edba ec40 0800 4500  .....ul....@..E.
	0x0010:  002d c9ba 0000 1e06 748c bc1d a467 c05f  .-......t....g._
	0x0020:  3da0 23d3 1b39 0000 27ce 0000 303a 5118  =.#..9..'...0:Q.
	0x0030:  ffd7 d5c4 0000 4845 4c4c 4f00            ......HELLO.
09:52:02.116497 IP (tos 0x0, ttl 64, id 1, offset 0, flags [none], proto TCP (6), length 45)
    192.95.61.160.6969 > 188.29.164.103.9171: Flags [.], cksum 0xb59f (correct), seq 1:6, ack 6, win 8192, length 5
	0x0000:  0007 b400 0101 0200 00d2 bf75 0800 4500  ...........u..E.
	0x0010:  002d 0001 0000 4006 1c46 c05f 3da0 bc1d  .-....@..F._=...
	0x0020:  a467 1b39 23d3 0000 303a 0000 27d3 5110  .g.9#...0:..'.Q.
	0x0030:  2000 b59f 0000 4f4c 4c45 48              ......OLLEH
09:52:02.605739 IP (tos 0x0, ttl 30, id 51644, offset 0, flags [none], proto TCP (6), length 40)
    188.29.164.103.9171 > 192.95.61.160.6969: Flags [.], cksum 0xb959 (correct), seq 6, ack 6, win 65495, length 0
	0x0000:  0200 00d2 bf75 6c9c edba ec40 0800 4500  .....ul....@..E.
	0x0010:  0028 c9bc 0000 1e06 748f bc1d a467 c05f  .(......t....g._
	0x0020:  3da0 23d3 1b39 0000 27d3 0000 303f 5110  =.#..9..'...0?Q.
	0x0030:  ffd7 b959 0000 0000 0000 0000            ...Y........
09:52:02.692943 IP (tos 0x0, ttl 30, id 51645, offset 0, flags [none], proto TCP (6), length 40)
    188.29.164.103.9171 > 192.95.61.160.6969: Flags [F.], cksum 0xb958 (correct), seq 6, ack 6, win 65495, length 0
	0x0000:  0200 00d2 bf75 6c9c edba ec40 0800 4500  .....ul....@..E.
	0x0010:  0028 c9bd 0000 1e06 748e bc1d a467 c05f  .(......t....g._
	0x0020:  3da0 23d3 1b39 0000 27d3 0000 303f 5111  =.#..9..'...0?Q.
	0x0030:  ffd7 b958 0000 0000 0000 0000            ...X........
09:52:02.697883 IP (tos 0x0, ttl 64, id 1, offset 0, flags [none], proto TCP (6), length 40)
    192.95.61.160.6969 > 188.29.164.103.9171: Flags [F.], cksum 0x9a2f (correct), seq 6, ack 7, win 8192, length 0
	0x0000:  0007 b400 0101 0200 00d2 bf75 0800 4500  ...........u..E.
	0x0010:  0028 0001 0000 4006 1c4b c05f 3da0 bc1d  .(....@..K._=...
	0x0020:  a467 1b39 23d3 0000 303f 0000 27d4 5011  .g.9#...0?..'.P.
	0x0030:  2000 9a2f 0000                           .../..
09:52:03.204020 IP (tos 0x0, ttl 29, id 51647, offset 0, flags [none], proto TCP (6), length 40)
    188.29.164.103.9171 > 192.95.61.160.6969: Flags [.], cksum 0xc2c3 (correct), seq 6, ack 4294965148, win 65495, length 0
	0x0000:  0200 00d2 bf75 6c9c edba ec40 0800 4500  .....ul....@..E.
	0x0010:  0028 c9bf 0000 1d06 758c bc1d a467 c05f  .(......u....g._
	0x0020:  3da0 23d3 1b39 0000 27d3 0000 27d5 5010  =.#..9..'...'.P.
	0x0030:  ffd7 c2c3 0000 0000 0000 0000            ............
09:52:03.378928 IP (tos 0x0, ttl 29, id 51648, offset 0, flags [none], proto TCP (6), length 40)
    188.29.164.103.24706 > 192.95.61.160.6969: Flags [S], cksum 0x4cf4 (correct), seq 35030, win 65495, length 0
	0x0000:  0200 00d2 bf75 6c9c edba ec40 0800 4500  .....ul....@..E.
	0x0010:  0028 c9c0 0000 1d06 758b bc1d a467 c05f  .(......u....g._
	0x0020:  3da0 6082 1b39 0000 88d6 0000 0000 5002  =.`..9........P.
	0x0030:  ffd7 4cf4 0000 0000 0000 0000            ..L.........
09:52:03.384410 IP (tos 0x0, ttl 64, id 1, offset 0, flags [none], proto TCP (6), length 40)
    192.95.61.160.6969 > 188.29.164.103.24706: Flags [S.], cksum 0x3e7d (correct), seq 12345, ack 35031, win 8192, length 0
	0x0000:  0007 b400 0101 0200 00d2 bf75 0800 4500  ...........u..E.
	0x0010:  0028 0001 0000 4006 1c4b c05f 3da0 bc1d  .(....@..K._=...
	0x0020:  a467 1b39 6082 0000 3039 0000 88d7 5012  .g.9`...09....P.
	0x0030:  2000 3e7d be04                           ..>}..
09:52:03.887098 IP (tos 0x0, ttl 29, id 51650, offset 0, flags [none], proto TCP (6), length 40)
    188.29.164.103.24706 > 192.95.61.160.6969: Flags [.], cksum 0x1cab (correct), seq 1, ack 1, win 65495, length 0
	0x0000:  0200 00d2 bf75 6c9c edba ec40 0800 4500  .....ul....@..E.
	0x0010:  0028 c9c2 0000 1d06 7589 bc1d a467 c05f  .(......u....g._
	0x0020:  3da0 6082 1b39 0000 88d7 0000 303a 5010  =.`..9......0:P.
	0x0030:  ffd7 1cab 0000 0000 0000 0000            ............
09:52:03.973786 IP (tos 0x0, ttl 30, id 51651, offset 0, flags [none], proto TCP (6), length 45)
    188.29.164.103.24706 > 192.95.61.160.6969: Flags [P.], cksum 0x370c (correct), seq 1:6, ack 1, win 65495, length 5
	0x0000:  0200 00d2 bf75 6c9c edba ec40 0800 4500  .....ul....@..E.
	0x0010:  002d c9c3 0000 1e06 7483 bc1d a467 c05f  .-......t....g._
	0x0020:  3da0 6082 1b39 0000 88d7 0000 303a 5218  =.`..9......0:R.
	0x0030:  ffd7 370c 0000 4845 4c4c 4f00            ..7...HELLO.
09:52:03.979731 IP (tos 0x0, ttl 64, id 1, offset 0, flags [none], proto TCP (6), length 45)
    192.95.61.160.6969 > 188.29.164.103.24706: Flags [.], cksum 0x16e7 (correct), seq 1:6, ack 6, win 8192, length 5
	0x0000:  0007 b400 0101 0200 00d2 bf75 0800 4500  ...........u..E.
	0x0010:  002d 0001 0000 4006 1c46 c05f 3da0 bc1d  .-....@..F._=...
	0x0020:  a467 1b39 6082 0000 303a 0000 88dc 5210  .g.9`...0:....R.
	0x0030:  2000 16e7 0000 4f4c 4c45 48              ......OLLEH
09:52:04.473761 IP (tos 0x0, ttl 29, id 51653, offset 0, flags [none], proto TCP (6), length 40)
    188.29.164.103.24706 > 192.95.61.160.6969: Flags [.], cksum 0x1aa1 (correct), seq 6, ack 6, win 65495, length 0
	0x0000:  0200 00d2 bf75 6c9c edba ec40 0800 4500  .....ul....@..E.
	0x0010:  0028 c9c5 0000 1d06 7586 bc1d a467 c05f  .(......u....g._
	0x0020:  3da0 6082 1b39 0000 88dc 0000 303f 5210  =.`..9......0?R.
	0x0030:  ffd7 1aa1 0000 0000 0000 0000            ............
09:52:04.564777 IP (tos 0x0, ttl 30, id 51654, offset 0, flags [none], proto TCP (6), length 40)
    188.29.164.103.24706 > 192.95.61.160.6969: Flags [F.], cksum 0x1aa0 (correct), seq 6, ack 6, win 65495, length 0
	0x0000:  0200 00d2 bf75 6c9c edba ec40 0800 4500  .....ul....@..E.
	0x0010:  0028 c9c6 0000 1e06 7485 bc1d a467 c05f  .(......t....g._
	0x0020:  3da0 6082 1b39 0000 88dc 0000 303f 5211  =.`..9......0?R.
	0x0030:  ffd7 1aa0 0000 0000 0000 0000            ............
09:52:04.569441 IP (tos 0x0, ttl 64, id 1, offset 0, flags [none], proto TCP (6), length 40)
    192.95.61.160.6969 > 188.29.164.103.24706: Flags [F.], cksum 0xfc76 (correct), seq 6, ack 7, win 8192, length 0
	0x0000:  0007 b400 0101 0200 00d2 bf75 0800 4500  ...........u..E.
	0x0010:  0028 0001 0000 4006 1c4b c05f 3da0 bc1d  .(....@..K._=...
	0x0020:  a467 1b39 6082 0000 303f 0000 88dd 5011  .g.9`...0?....P.
	0x0030:  2000 fc76 0000                           ...v..
09:52:05.138078 IP (tos 0x0, ttl 30, id 51656, offset 0, flags [none], proto TCP (6), length 40)
    188.29.164.103.24706 > 192.95.61.160.6969: Flags [.], cksum 0xc401 (correct), seq 6, ack 22693, win 65495, length 0
	0x0000:  0200 00d2 bf75 6c9c edba ec40 0800 4500  .....ul....@..E.
	0x0010:  0028 c9c8 0000 1e06 7483 bc1d a467 c05f  .(......t....g._
	0x0020:  3da0 6082 1b39 0000 88dc 0000 88de 5010  =.`..9........P.
	0x0030:  ffd7 c401 0000 0000 0000 0000            ............
09:52:05.301245 IP (tos 0x0, ttl 29, id 51657, offset 0, flags [none], proto TCP (6), length 40)
    188.29.164.103.65477 > 192.95.61.160.6969: Flags [S], cksum 0x7b5f (correct), seq 47911, win 65495, length 0
	0x0000:  0200 00d2 bf75 6c9c edba ec40 0800 4500  .....ul....@..E.
	0x0010:  0028 c9c9 0000 1d06 7582 bc1d a467 c05f  .(......u....g._
	0x0020:  3da0 ffc5 1b39 0000 bb27 0000 0000 5002  =....9...'....P.
	0x0030:  ffd7 7b5f 0000 0000 0000 0000            ..{_........
09:52:05.306631 IP (tos 0x0, ttl 64, id 1, offset 0, flags [none], proto TCP (6), length 40)
    192.95.61.160.6969 > 188.29.164.103.65477: Flags [S.], cksum 0x6ce8 (correct), seq 12345, ack 47912, win 8192, length 0
	0x0000:  0007 b400 0101 0200 00d2 bf75 0800 4500  ...........u..E.
	0x0010:  0028 0001 0000 4006 1c4b c05f 3da0 bc1d  .(....@..K._=...
	0x0020:  a467 1b39 ffc5 0000 3039 0000 bb28 5012  .g.9....09...(P.
	0x0030:  2000 6ce8 be04                           ..l...
09:52:05.808637 IP (tos 0x0, ttl 29, id 51659, offset 0, flags [none], proto TCP (6), length 40)
    188.29.164.103.65477 > 192.95.61.160.6969: Flags [.], cksum 0x4b16 (correct), seq 1, ack 1, win 65495, length 0
	0x0000:  0200 00d2 bf75 6c9c edba ec40 0800 4500  .....ul....@..E.
	0x0010:  0028 c9cb 0000 1d06 7580 bc1d a467 c05f  .(......u....g._
	0x0020:  3da0 ffc5 1b39 0000 bb28 0000 303a 5010  =....9...(..0:P.
	0x0030:  ffd7 4b16 0000 0000 0000 0000            ..K.........
09:52:05.901845 IP (tos 0x0, ttl 30, id 51660, offset 0, flags [none], proto TCP (6), length 45)
    188.29.164.103.65477 > 192.95.61.160.6969: Flags [P.], cksum 0x6377 (correct), seq 1:6, ack 1, win 65495, length 5
	0x0000:  0200 00d2 bf75 6c9c edba ec40 0800 4500  .....ul....@..E.
	0x0010:  002d c9cc 0000 1e06 747a bc1d a467 c05f  .-......tz...g._
	0x0020:  3da0 ffc5 1b39 0000 bb28 0000 303a 5418  =....9...(..0:T.
	0x0030:  ffd7 6377 0000 4845 4c4c 4f00            ..cw..HELLO.
09:52:05.908185 IP (tos 0x0, ttl 64, id 1, offset 0, flags [none], proto TCP (6), length 45)
    192.95.61.160.6969 > 188.29.164.103.65477: Flags [.], cksum 0x4352 (correct), seq 1:6, ack 6, win 8192, length 5
	0x0000:  0007 b400 0101 0200 00d2 bf75 0800 4500  ...........u..E.
	0x0010:  002d 0001 0000 4006 1c46 c05f 3da0 bc1d  .-....@..F._=...
	0x0020:  a467 1b39 ffc5 0000 303a 0000 bb2d 5410  .g.9....0:...-T.
	0x0030:  2000 4352 0000 4f4c 4c45 48              ..CR..OLLEH
09:52:06.386153 IP (tos 0x0, ttl 29, id 51662, offset 0, flags [none], proto TCP (6), length 40)
    188.29.164.103.65477 > 192.95.61.160.6969: Flags [.], cksum 0x470c (correct), seq 6, ack 6, win 65495, length 0
	0x0000:  0200 00d2 bf75 6c9c edba ec40 0800 4500  .....ul....@..E.
	0x0010:  0028 c9ce 0000 1d06 757d bc1d a467 c05f  .(......u}...g._
	0x0020:  3da0 ffc5 1b39 0000 bb2d 0000 303f 5410  =....9...-..0?T.
	0x0030:  ffd7 470c 0000 0000 0000 0000            ..G.........
09:52:06.475748 IP (tos 0x0, ttl 30, id 51663, offset 0, flags [none], proto TCP (6), length 40)
    188.29.164.103.65477 > 192.95.61.160.6969: Flags [F.], cksum 0x470b (correct), seq 6, ack 6, win 65495, length 0
	0x0000:  0200 00d2 bf75 6c9c edba ec40 0800 4500  .....ul....@..E.
	0x0010:  0028 c9cf 0000 1e06 747c bc1d a467 c05f  .(......t|...g._
	0x0020:  3da0 ffc5 1b39 0000 bb2d 0000 303f 5411  =....9...-..0?T.
	0x0030:  ffd7 470b 0000 0000 0000 0000            ..G.........
09:52:06.480446 IP (tos 0x0, ttl 64, id 1, offset 0, flags [none], proto TCP (6), length 40)
    192.95.61.160.6969 > 188.29.164.103.65477: Flags [F.], cksum 0x2ae2 (correct), seq 6, ack 7, win 8192, length 0
	0x0000:  0007 b400 0101 0200 00d2 bf75 0800 4500  ...........u..E.
	0x0010:  0028 0001 0000 4006 1c4b c05f 3da0 bc1d  .(....@..K._=...
	0x0020:  a467 1b39 ffc5 0000 303f 0000 bb2e 5011  .g.9....0?....P.
	0x0030:  2000 2ae2 0000                           ..*...
09:52:06.995626 IP (tos 0x0, ttl 30, id 51665, offset 0, flags [none], proto TCP (6), length 40)
    188.29.164.103.65477 > 192.95.61.160.6969: Flags [.], cksum 0xc01b (correct), seq 6, ack 35574, win 65495, length 0
	0x0000:  0200 00d2 bf75 6c9c edba ec40 0800 4500  .....ul....@..E.
	0x0010:  0028 c9d1 0000 1e06 747a bc1d a467 c05f  .(......tz...g._
	0x0020:  3da0 ffc5 1b39 0000 bb2d 0000 bb2f 5010  =....9...-.../P.
	0x0030:  ffd7 c01b 0000 0000 0000 0000            ............
09:52:07.174504 IP (tos 0x0, ttl 29, id 51666, offset 0, flags [none], proto TCP (6), length 40)
    188.29.164.103.10118 > 192.95.61.160.6969: Flags [S], cksum 0x28aa (correct), seq 58908, win 65495, length 0
	0x0000:  0200 00d2 bf75 6c9c edba ec40 0800 4500  .....ul....@..E.
	0x0010:  0028 c9d2 0000 1d06 7579 bc1d a467 c05f  .(......uy...g._
	0x0020:  3da0 2786 1b39 0000 e61c 0000 0000 5002  =.'..9........P.
	0x0030:  ffd7 28aa 0000 0000 0000 0000            ..(.........
09:52:07.179670 IP (tos 0x0, ttl 64, id 1, offset 0, flags [none], proto TCP (6), length 40)
    192.95.61.160.6969 > 188.29.164.103.10118: Flags [S.], cksum 0x1a33 (correct), seq 12345, ack 58909, win 8192, length 0
	0x0000:  0007 b400 0101 0200 00d2 bf75 0800 4500  ...........u..E.
	0x0010:  0028 0001 0000 4006 1c4b c05f 3da0 bc1d  .(....@..K._=...
	0x0020:  a467 1b39 2786 0000 3039 0000 e61d 5012  .g.9'...09....P.
	0x0030:  2000 1a33 be04                           ...3..
09:52:07.693499 IP (tos 0x0, ttl 29, id 51668, offset 0, flags [none], proto TCP (6), length 40)
    188.29.164.103.10118 > 192.95.61.160.6969: Flags [.], cksum 0xf860 (correct), seq 1, ack 1, win 65495, length 0
	0x0000:  0200 00d2 bf75 6c9c edba ec40 0800 4500  .....ul....@..E.
	0x0010:  0028 c9d4 0000 1d06 7577 bc1d a467 c05f  .(......uw...g._
	0x0020:  3da0 2786 1b39 0000 e61d 0000 303a 5010  =.'..9......0:P.
	0x0030:  ffd7 f860 0000 0000 0000 0000            ...`........
09:52:07.779708 IP (tos 0x0, ttl 30, id 51669, offset 0, flags [none], proto TCP (6), length 45)
    188.29.164.103.10118 > 192.95.61.160.6969: Flags [P.], cksum 0x0cc2 (correct), seq 1:6, ack 1, win 65495, length 5
	0x0000:  0200 00d2 bf75 6c9c edba ec40 0800 4500  .....ul....@..E.
	0x0010:  002d c9d5 0000 1e06 7471 bc1d a467 c05f  .-......tq...g._
	0x0020:  3da0 2786 1b39 0000 e61d 0000 303a 5818  =.'..9......0:X.
	0x0030:  ffd7 0cc2 0000 4845 4c4c 4f00            ......HELLO.
09:52:07.785731 IP (tos 0x0, ttl 64, id 1, offset 0, flags [none], proto TCP (6), length 45)
    192.95.61.160.6969 > 188.29.164.103.10118: Flags [.], cksum 0xec9c (correct), seq 1:6, ack 6, win 8192, length 5
	0x0000:  0007 b400 0101 0200 00d2 bf75 0800 4500  ...........u..E.
	0x0010:  002d 0001 0000 4006 1c46 c05f 3da0 bc1d  .-....@..F._=...
	0x0020:  a467 1b39 2786 0000 303a 0000 e622 5810  .g.9'...0:..."X.
	0x0030:  2000 ec9c 0000 4f4c 4c45 48              ......OLLEH
09:52:08.273897 IP (tos 0x0, ttl 30, id 51671, offset 0, flags [none], proto TCP (6), length 40)
    188.29.164.103.10118 > 192.95.61.160.6969: Flags [.], cksum 0xf056 (correct), seq 6, ack 6, win 65495, length 0
	0x0000:  0200 00d2 bf75 6c9c edba ec40 0800 4500  .....ul....@..E.
	0x0010:  0028 c9d7 0000 1e06 7474 bc1d a467 c05f  .(......tt...g._
	0x0020:  3da0 2786 1b39 0000 e622 0000 303f 5810  =.'..9..."..0?X.
	0x0030:  ffd7 f056 0000 0000 0000 0000            ...V........
09:52:08.380158 IP (tos 0x0, ttl 29, id 51672, offset 0, flags [none], proto TCP (6), length 40)
    188.29.164.103.10118 > 192.95.61.160.6969: Flags [F.], cksum 0xf055 (correct), seq 6, ack 6, win 65495, length 0
	0x0000:  0200 00d2 bf75 6c9c edba ec40 0800 4500  .....ul....@..E.
	0x0010:  0028 c9d8 0000 1d06 7573 bc1d a467 c05f  .(......us...g._
	0x0020:  3da0 2786 1b39 0000 e622 0000 303f 5811  =.'..9..."..0?X.
	0x0030:  ffd7 f055 0000 0000 0000 0000            ...U........
09:52:08.385296 IP (tos 0x0, ttl 64, id 1, offset 0, flags [none], proto TCP (6), length 40)
    192.95.61.160.6969 > 188.29.164.103.10118: Flags [F.], cksum 0xd82c (correct), seq 6, ack 7, win 8192, length 0
	0x0000:  0007 b400 0101 0200 00d2 bf75 0800 4500  ...........u..E.
	0x0010:  0028 0001 0000 4006 1c4b c05f 3da0 bc1d  .(....@..K._=...
	0x0020:  a467 1b39 2786 0000 303f 0000 e623 5011  .g.9'...0?...#P.
	0x0030:  2000 d82c 0000                           ...,..
09:52:08.911813 IP (tos 0x0, ttl 30, id 51674, offset 0, flags [none], proto TCP (6), length 40)
    188.29.164.103.10118 > 192.95.61.160.6969: Flags [.], cksum 0x4271 (correct), seq 6, ack 46571, win 65495, length 0
	0x0000:  0200 00d2 bf75 6c9c edba ec40 0800 4500  .....ul....@..E.
	0x0010:  0028 c9da 0000 1e06 7471 bc1d a467 c05f  .(......tq...g._
	0x0020:  3da0 2786 1b39 0000 e622 0000 e624 5010  =.'..9..."...$P.
	0x0030:  ffd7 4271 0000 0000 0000 0000            ..Bq........
09:52:09.099939 IP (tos 0x0, ttl 29, id 51675, offset 0, flags [none], proto TCP (6), length 40)
    188.29.164.103.42897 > 192.95.61.160.6969: Flags [S], cksum 0xa37d (correct), seq 11329, win 65495, length 0
	0x0000:  0200 00d2 bf75 6c9c edba ec40 0800 4500  .....ul....@..E.
	0x0010:  0028 c9db 0000 1d06 7570 bc1d a467 c05f  .(......up...g._
	0x0020:  3da0 a791 1b39 0000 2c41 beef 000d 5002  =....9..,A....P.
	0x0030:  ffd7 a37d 0000 0000 0000 0000            ...}........
09:52:09.105018 IP (tos 0x0, ttl 64, id 1, offset 0, flags [none], proto TCP (6), length 40)
    192.95.61.160.6969 > 188.29.164.103.42897: Flags [S.], cksum 0x5a5c (incorrect -> 0x1208), seq 12345, ack 11330, win 8192, length 0
	0x0000:  0007 b400 0101 0200 00d2 bf75 0800 4500  ...........u..E.
	0x0010:  0028 0001 0000 4006 1c4b c05f 3da0 bc1d  .(....@..K._=...
	0x0020:  a467 1b39 a791 0000 3039 0000 2c42 5012  .g.9....09..,BP.
	0x0030:  2000 5a5c 0000                           ..Z\..

