ThinkAir:tcpdump-android andrius$ adb root
restarting adbd as root
ThinkAir:tcpdump-android andrius$ adb shell tcpdump -XXAvvns 0 'port 6969'
tcpdump: listening on pdp0, link-type LINUX_SLL (Linux cooked), capture size 65535 bytes
14:51:21.761140 IP (tos 0x0, ttl 48, id 1, offset 0, flags [none], proto TCP (6), length 40)
    192.95.61.160.6969 > 10.5.28.116.47039: Flags [S.], cksum 0xd9d5 (correct), seq 12345, ack 36434, win 8192, length 0
	0x0000:  0000 0200 0000 0000 0000 0000 0000 0800  ................
	0x0010:  4500 0028 0001 0000 3006 6657 c05f 3da0  E..(....0.fW?_=?
	0x0020:  0a05 1c74 1b39 b7bf 0000 3039 0000 8e52  ...t.9??..09...R
	0x0030:  5012 2000 d9d5 0000                      P...??..
14:51:21.761966 IP (tos 0x0, ttl 40, id 51547, offset 0, flags [none], proto TCP (6), length 40)
    10.5.28.116.47039 > 192.95.61.160.6969: Flags [.], cksum 0xf9fe (correct), seq 1, ack 1, win 65495, length 0
	0x0000:  0004 0200 0000 0000 0000 0000 0000 0800  ................
	0x0010:  4500 0028 c95b 0000 2806 a4fc 0a05 1c74  E..(?[..(.??...t
	0x0020:  c05f 3da0 b7bf 1b39 0000 8e52 0000 303a  ?_=???.9...R..0:
	0x0030:  5010 ffd7 f9fe 0000                      P.????..
14:51:21.762163 IP (tos 0x0, ttl 40, id 51548, offset 0, flags [none], proto TCP (6), length 45)
    10.5.28.116.47039 > 192.95.61.160.6969: Flags [P.], cksum 0x1660 (correct), seq 1:6, ack 1, win 65495, length 5
	0x0000:  0004 0200 0000 0000 0000 0000 0000 0800  ................
	0x0010:  4500 002d c95c 0000 2806 a4f6 0a05 1c74  E..-?\..(.??...t
	0x0020:  c05f 3da0 b7bf 1b39 0000 8e52 0000 303a  ?_=???.9...R..0:
	0x0030:  5018 ffd7 1660 0000 4845 4c4c 4f         P.??.`..HELLO
14:51:22.511361 IP (tos 0x0, ttl 49, id 1, offset 0, flags [none], proto TCP (6), length 44)
    192.95.61.160.6969 > 10.5.28.116.47039: Flags [.], cksum 0x1add (correct), seq 1:5, ack 6, win 8192, length 4
	0x0000:  0000 0200 0000 0000 0000 0000 0000 0800  ................
	0x0010:  4500 002c 0001 0000 3106 6553 c05f 3da0  E..,....1.eS?_=?
	0x0020:  0a05 1c74 1b39 b7bf 0000 303a 0000 8e57  ...t.9??..0:...W
	0x0030:  5010 2000 1add 0000 beef 0001            P....?..??..
14:51:22.513909 IP (tos 0x0, ttl 40, id 51550, offset 0, flags [none], proto TCP (6), length 40)
    10.5.28.116.47039 > 192.95.61.160.6969: Flags [.], cksum 0xf9f5 (correct), seq 6, ack 5, win 65495, length 0
	0x0000:  0004 0200 0000 0000 0000 0000 0000 0800  ................
	0x0010:  4500 0028 c95e 0000 2806 a4f9 0a05 1c74  E..(?^..(.??...t
	0x0020:  c05f 3da0 b7bf 1b39 0000 8e57 0000 303e  ?_=???.9...W..0>
	0x0030:  5010 ffd7 f9f5 0000                      P.????..
14:51:22.514373 IP (tos 0x0, ttl 40, id 51551, offset 0, flags [none], proto TCP (6), length 40)
    10.5.28.116.47039 > 192.95.61.160.6969: Flags [F.], cksum 0xf9f4 (correct), seq 6, ack 5, win 65495, length 0
	0x0000:  0004 0200 0000 0000 0000 0000 0000 0800  ................
	0x0010:  4500 0028 c95f 0000 2806 a4f8 0a05 1c74  E..(?_..(.??...t
	0x0020:  c05f 3da0 b7bf 1b39 0000 8e57 0000 303e  ?_=???.9...W..0>
	0x0030:  5011 ffd7 f9f4 0000                      P.????..
14:51:23.211367 IP (tos 0x0, ttl 49, id 1, offset 0, flags [none], proto TCP (6), length 40)
    192.95.61.160.6969 > 10.5.28.116.47039: Flags [F.], cksum 0xd9cb (correct), seq 5, ack 7, win 8192, length 0
	0x0000:  0000 0200 0000 0000 0000 0000 0000 0800  ................
	0x0010:  4500 0028 0001 0000 3106 6557 c05f 3da0  E..(....1.eW?_=?
	0x0020:  0a05 1c74 1b39 b7bf 0000 303e 0000 8e58  ...t.9??..0>...X
	0x0030:  5011 2000 d9cb 0000                      P...??..
14:51:23.212728 IP (tos 0x0, ttl 40, id 51553, offset 0, flags [none], proto TCP (6), length 40)
    10.5.28.116.47039 > 192.95.61.160.6969: Flags [.], cksum 0x9bda (correct), seq 6, ack 24096, win 65495, length 0
	0x0000:  0004 0200 0000 0000 0000 0000 0000 0800  ................
	0x0010:  4500 0028 c961 0000 2806 a4f6 0a05 1c74  E..(?a..(.??...t
	0x0020:  c05f 3da0 b7bf 1b39 0000 8e57 0000 8e59  ?_=???.9...W...Y
	0x0030:  5010 ffd7 9bda 0000                      P.??.?..
14:51:23.436320 IP (tos 0x0, ttl 40, id 51554, offset 0, flags [none], proto TCP (6), length 40)
    10.5.28.116.18192 > 192.95.61.160.6969: Flags [S], cksum 0xf965 (correct), seq 29152, win 65495, length 0
	0x0000:  0004 0200 0000 0000 0000 0000 0000 0800  ................
	0x0010:  4500 0028 c962 0000 2806 a4f5 0a05 1c74  E..(?b..(.??...t
	0x0020:  c05f 3da0 4710 1b39 0000 71e0 0000 0000  ?_=?G..9..q?....
	0x0030:  5002 ffd7 f965 be02                      P.???e?.
14:51:23.861084 IP (tos 0x0, ttl 48, id 1, offset 0, flags [none], proto TCP (6), length 40)
    192.95.61.160.6969 > 10.5.28.116.18192: Flags [S.], cksum 0x66f6 (correct), seq 12345, ack 29153, win 8192, length 0
	0x0000:  0000 0200 0000 0000 0000 0000 0000 0800  ................
	0x0010:  4500 0028 0001 0000 3006 6657 c05f 3da0  E..(....0.fW?_=?
	0x0020:  0a05 1c74 1b39 4710 0000 3039 0000 71e1  ...t.9G...09..q?
	0x0030:  5012 2000 66f6 0000                      P...f?..
14:51:23.864315 IP (tos 0x0, ttl 40, id 51556, offset 0, flags [none], proto TCP (6), length 40)
    10.5.28.116.18192 > 192.95.61.160.6969: Flags [.], cksum 0x871f (correct), seq 1, ack 1, win 65495, length 0
	0x0000:  0004 0200 0000 0000 0000 0000 0000 0800  ................
	0x0010:  4500 0028 c964 0000 2806 a4f3 0a05 1c74  E..(?d..(.??...t
	0x0020:  c05f 3da0 4710 1b39 0000 71e1 0000 303a  ?_=?G..9..q?..0:
	0x0030:  5010 ffd7 871f 0000                      P.??....
14:51:23.864801 IP (tos 0x0, ttl 40, id 51557, offset 0, flags [none], proto TCP (6), length 45)
    10.5.28.116.18192 > 192.95.61.160.6969: Flags [P.], cksum 0xa380 (correct), seq 1:6, ack 1, win 65495, length 5
	0x0000:  0004 0200 0000 0000 0000 0000 0000 0800  ................
	0x0010:  4500 002d c965 0000 2806 a4ed 0a05 1c74  E..-?e..(.??...t
	0x0020:  c05f 3da0 4710 1b39 0000 71e1 0000 303a  ?_=?G..9..q?..0:
	0x0030:  5018 ffd7 a380 0000 4845 4c4c 4f         P.?ף...HELLO
14:51:24.411562 IP (tos 0x0, ttl 49, id 1, offset 0, flags [none], proto TCP (6), length 42)
    192.95.61.160.6969 > 10.5.28.116.18192: Flags [.], cksum 0xa8ed (correct), seq 1:3, ack 6, win 8192, length 2
	0x0000:  0000 0200 0000 0000 0000 0000 0000 0800  ................
	0x0010:  4500 002a 0001 0000 3106 6555 c05f 3da0  E..*....1.eU?_=?
	0x0020:  0a05 1c74 1b39 4710 0000 303a 0000 71e6  ...t.9G...0:..q?
	0x0030:  5010 2000 a8ed 0000 be02                 P...??..?.
14:51:24.414361 IP (tos 0x0, ttl 40, id 51559, offset 0, flags [none], proto TCP (6), length 40)
    10.5.28.116.18192 > 192.95.61.160.6969: Flags [.], cksum 0x8718 (correct), seq 6, ack 3, win 65495, length 0
	0x0000:  0004 0200 0000 0000 0000 0000 0000 0800  ................
	0x0010:  4500 0028 c967 0000 2806 a4f0 0a05 1c74  E..(?g..(.??...t
	0x0020:  c05f 3da0 4710 1b39 0000 71e6 0000 303c  ?_=?G..9..q?..0<
	0x0030:  5010 ffd7 8718 0000                      P.??....
14:51:24.414826 IP (tos 0x0, ttl 40, id 51560, offset 0, flags [none], proto TCP (6), length 40)
    10.5.28.116.18192 > 192.95.61.160.6969: Flags [F.], cksum 0x8717 (correct), seq 6, ack 3, win 65495, length 0
	0x0000:  0004 0200 0000 0000 0000 0000 0000 0800  ................
	0x0010:  4500 0028 c968 0000 2806 a4ef 0a05 1c74  E..(?h..(.??...t
	0x0020:  c05f 3da0 4710 1b39 0000 71e6 0000 303c  ?_=?G..9..q?..0<
	0x0030:  5011 ffd7 8717 0000                      P.??....
14:51:24.951512 IP (tos 0x0, ttl 49, id 1, offset 0, flags [none], proto TCP (6), length 40)
    192.95.61.160.6969 > 10.5.28.116.18192: Flags [F.], cksum 0x66ee (correct), seq 3, ack 7, win 8192, length 0
	0x0000:  0000 0200 0000 0000 0000 0000 0000 0800  ................
	0x0010:  4500 0028 0001 0000 3106 6557 c05f 3da0  E..(....1.eW?_=?
	0x0020:  0a05 1c74 1b39 4710 0000 303c 0000 71e7  ...t.9G...0<..q?
	0x0030:  5011 2000 66ee 0000                      P...f?..
14:51:24.953429 IP (tos 0x0, ttl 40, id 51562, offset 0, flags [none], proto TCP (6), length 40)
    10.5.28.116.18192 > 192.95.61.160.6969: Flags [.], cksum 0x456c (correct), seq 6, ack 16815, win 65495, length 0
	0x0000:  0004 0200 0000 0000 0000 0000 0000 0800  ................
	0x0010:  4500 0028 c96a 0000 2806 a4ed 0a05 1c74  E..(?j..(.??...t
	0x0020:  c05f 3da0 4710 1b39 0000 71e6 0000 71e8  ?_=?G..9..q?..q?
	0x0030:  5010 ffd7 456c 0000                      P.??El..
14:51:25.182855 IP (tos 0x0, ttl 40, id 51563, offset 0, flags [none], proto TCP (6), length 40)
    10.5.28.116.53162 > 192.95.61.160.6969: Flags [S], cksum 0x967e (correct), seq 19261, win 65495, length 0
	0x0000:  0004 0200 0000 0000 0000 0000 0000 0800  ................
	0x0010:  4500 0028 c96b 0000 2806 a4ec 0a05 1c74  E..(?k..(.??...t
	0x0020:  c05f 3da0 cfaa 1b39 0000 4b3d beef 0003  ?_=?Ϫ.9..K=??..
	0x0030:  5002 ffd7 967e 0000                      P.??.~..
14:51:25.621206 IP (tos 0x0, ttl 48, id 1, offset 0, flags [none], proto TCP (6), length 40)
    192.95.61.160.6969 > 10.5.28.116.53162: Flags [S.], cksum 0x46fb (correct), seq 12345, ack 19262, win 8192, length 0
	0x0000:  0000 0200 0000 0000 0000 0000 0000 0800  ................
	0x0010:  4500 0028 0001 0000 3006 6657 c05f 3da0  E..(....0.fW?_=?
	0x0020:  0a05 1c74 1b39 cfaa 0000 3039 0000 4b3e  ...t.9Ϫ..09..K>
	0x0030:  5012 2000 46fb be03                      P...F??.
14:51:25.623778 IP (tos 0x0, ttl 40, id 51565, offset 0, flags [none], proto TCP (6), length 40)
    10.5.28.116.53162 > 192.95.61.160.6969: Flags [.], cksum 0x2528 (correct), seq 1, ack 1, win 65495, length 0
	0x0000:  0004 0200 0000 0000 0000 0000 0000 0800  ................
	0x0010:  4500 0028 c96d 0000 2806 a4ea 0a05 1c74  E..(?m..(.??...t
	0x0020:  c05f 3da0 cfaa 1b39 0000 4b3e 0000 303a  ?_=?Ϫ.9..K>..0:
	0x0030:  5010 ffd7 2528 0000                      P.??%(..
14:51:25.631313 IP (tos 0x0, ttl 40, id 51566, offset 0, flags [none], proto TCP (6), length 45)
    10.5.28.116.53162 > 192.95.61.160.6969: Flags [P.], cksum 0x4189 (correct), seq 1:6, ack 1, win 65495, length 5
	0x0000:  0004 0200 0000 0000 0000 0000 0000 0800  ................
	0x0010:  4500 002d c96e 0000 2806 a4e4 0a05 1c74  E..-?n..(.??...t
	0x0020:  c05f 3da0 cfaa 1b39 0000 4b3e 0000 303a  ?_=?Ϫ.9..K>..0:
	0x0030:  5018 ffd7 4189 0000 4845 4c4c 4f         P.??A...HELLO
14:51:26.321550 IP (tos 0x0, ttl 49, id 1, offset 0, flags [none], proto TCP (6), length 45)
    192.95.61.160.6969 > 10.5.28.116.53162: Flags [.], cksum 0x2164 (correct), seq 1:6, ack 6, win 8192, length 5
	0x0000:  0000 0200 0000 0000 0000 0000 0000 0800  ................
	0x0010:  4500 002d 0001 0000 3106 6552 c05f 3da0  E..-....1.eR?_=?
	0x0020:  0a05 1c74 1b39 cfaa 0000 303a 0000 4b43  ...t.9Ϫ..0:..KC
	0x0030:  5010 2000 2164 0000 4f4c 4c45 48         P...!d..OLLEH
14:51:26.325475 IP (tos 0x0, ttl 40, id 51568, offset 0, flags [none], proto TCP (6), length 40)
    10.5.28.116.53162 > 192.95.61.160.6969: Flags [.], cksum 0x251e (correct), seq 6, ack 6, win 65495, length 0
	0x0000:  0004 0200 0000 0000 0000 0000 0000 0800  ................
	0x0010:  4500 0028 c970 0000 2806 a4e7 0a05 1c74  E..(?p..(.??...t
	0x0020:  c05f 3da0 cfaa 1b39 0000 4b43 0000 303f  ?_=?Ϫ.9..KC..0?
	0x0030:  5010 ffd7 251e 0000                      P.??%...
14:51:26.326358 IP (tos 0x0, ttl 40, id 51569, offset 0, flags [none], proto TCP (6), length 40)
    10.5.28.116.53162 > 192.95.61.160.6969: Flags [F.], cksum 0x251d (correct), seq 6, ack 6, win 65495, length 0
	0x0000:  0004 0200 0000 0000 0000 0000 0000 0800  ................
	0x0010:  4500 0028 c971 0000 2806 a4e6 0a05 1c74  E..(?q..(.??...t
	0x0020:  c05f 3da0 cfaa 1b39 0000 4b43 0000 303f  ?_=?Ϫ.9..KC..0?
	0x0030:  5011 ffd7 251d 0000                      P.??%...
14:51:26.921613 IP (tos 0x0, ttl 49, id 1, offset 0, flags [none], proto TCP (6), length 40)
    192.95.61.160.6969 > 10.5.28.116.53162: Flags [F.], cksum 0x04f4 (correct), seq 6, ack 7, win 8192, length 0
	0x0000:  0000 0200 0000 0000 0000 0000 0000 0800  ................
	0x0010:  4500 0028 0001 0000 3106 6557 c05f 3da0  E..(....1.eW?_=?
	0x0020:  0a05 1c74 1b39 cfaa 0000 303f 0000 4b44  ...t.9Ϫ..0?..KD
	0x0030:  5011 2000 04f4 0000                      P....?..
14:51:26.926996 IP (tos 0x0, ttl 40, id 51571, offset 0, flags [none], proto TCP (6), length 40)
    10.5.28.116.53162 > 192.95.61.160.6969: Flags [.], cksum 0x0a18 (correct), seq 6, ack 6924, win 65495, length 0
	0x0000:  0004 0200 0000 0000 0000 0000 0000 0800  ................
	0x0010:  4500 0028 c973 0000 2806 a4e4 0a05 1c74  E..(?s..(.??...t
	0x0020:  c05f 3da0 cfaa 1b39 0000 4b43 0000 4b45  ?_=?Ϫ.9..KC..KE
	0x0030:  5010 ffd7 0a18 0000                      P.??....
14:51:27.168463 IP (tos 0x0, ttl 40, id 51572, offset 0, flags [none], proto TCP (6), length 40)
    10.5.28.116.22321 > 192.95.61.160.6969: Flags [S], cksum 0x3a9f (correct), seq 56968, win 65495, length 0
	0x0000:  0004 0200 0000 0000 0000 0000 0000 0800  ................
	0x0010:  4500 0028 c974 0000 2806 a4e3 0a05 1c74  E..(?t..(.??...t
	0x0020:  c05f 3da0 5731 1b39 0000 de88 0000 0000  ?_=?W1.9..?.....
	0x0030:  5002 ffd7 3a9f 0000                      P.??:...
14:51:27.591794 IP (tos 0x0, ttl 48, id 1, offset 0, flags [none], proto TCP (6), length 40)
    192.95.61.160.6969 > 10.5.28.116.22321: Flags [S.], cksum 0x2c28 (correct), seq 12345, ack 56969, win 8192, length 0
	0x0000:  0000 0200 0000 0000 0000 0000 0000 0800  ................
	0x0010:  4500 0028 0001 0000 3006 6657 c05f 3da0  E..(....0.fW?_=?
	0x0020:  0a05 1c74 1b39 5731 0000 3039 0000 de89  ...t.9W1..09..?.
	0x0030:  5012 2000 2c28 be04                      P...,(?.
14:51:27.595009 IP (tos 0x0, ttl 40, id 51574, offset 0, flags [none], proto TCP (6), length 40)
    10.5.28.116.22321 > 192.95.61.160.6969: Flags [.], cksum 0x0a56 (correct), seq 1, ack 1, win 65495, length 0
	0x0000:  0004 0200 0000 0000 0000 0000 0000 0800  ................
	0x0010:  4500 0028 c976 0000 2806 a4e1 0a05 1c74  E..(?v..(.??...t
	0x0020:  c05f 3da0 5731 1b39 0000 de89 0000 303a  ?_=?W1.9..?...0:
	0x0030:  5010 ffd7 0a56 0000                      P.??.V..
14:51:27.596548 IP (tos 0x0, ttl 40, id 51575, offset 0, flags [none], proto TCP (6), length 45)
    10.5.28.116.22321 > 192.95.61.160.6969: Flags [P.], cksum 0x26b7 (correct), seq 1:6, ack 1, win 65495, length 5
	0x0000:  0004 0200 0000 0000 0000 0000 0000 0800  ................
	0x0010:  4500 002d c977 0000 2806 a4db 0a05 1c74  E..-?w..(.??...t
	0x0020:  c05f 3da0 5731 1b39 0000 de89 0000 303a  ?_=?W1.9..?...0:
	0x0030:  5018 ffd7 26b7 0000 4845 4c4c 4f         P.??&?..HELLO
14:51:28.191687 IP (tos 0x0, ttl 49, id 1, offset 0, flags [none], proto TCP (6), length 45)
    192.95.61.160.6969 > 10.5.28.116.22321: Flags [.], cksum 0x0692 (correct), seq 1:6, ack 6, win 8192, length 5
	0x0000:  0000 0200 0000 0000 0000 0000 0000 0800  ................
	0x0010:  4500 002d 0001 0000 3106 6552 c05f 3da0  E..-....1.eR?_=?
	0x0020:  0a05 1c74 1b39 5731 0000 303a 0000 de8e  ...t.9W1..0:..?.
	0x0030:  5010 2000 0692 0000 4f4c 4c45 48         P.......OLLEH
14:51:28.196637 IP (tos 0x0, ttl 40, id 51577, offset 0, flags [none], proto TCP (6), length 40)
    10.5.28.116.22321 > 192.95.61.160.6969: Flags [.], cksum 0x0a4c (correct), seq 6, ack 6, win 65495, length 0
	0x0000:  0004 0200 0000 0000 0000 0000 0000 0800  ................
	0x0010:  4500 0028 c979 0000 2806 a4de 0a05 1c74  E..(?y..(.??...t
	0x0020:  c05f 3da0 5731 1b39 0000 de8e 0000 303f  ?_=?W1.9..?...0?
	0x0030:  5010 ffd7 0a4c 0000                      P.??.L..
14:51:28.197518 IP (tos 0x0, ttl 40, id 51578, offset 0, flags [none], proto TCP (6), length 40)
    10.5.28.116.22321 > 192.95.61.160.6969: Flags [F.], cksum 0x0a4b (correct), seq 6, ack 6, win 65495, length 0
	0x0000:  0004 0200 0000 0000 0000 0000 0000 0800  ................
	0x0010:  4500 0028 c97a 0000 2806 a4dd 0a05 1c74  E..(?z..(.??...t
	0x0020:  c05f 3da0 5731 1b39 0000 de8e 0000 303f  ?_=?W1.9..?...0?
	0x0030:  5011 ffd7 0a4b 0000                      P.??.K..
14:51:28.761653 IP (tos 0x0, ttl 48, id 1, offset 0, flags [none], proto TCP (6), length 40)
    192.95.61.160.6969 > 10.5.28.116.22321: Flags [F.], cksum 0xea21 (correct), seq 6, ack 7, win 8192, length 0
	0x0000:  0000 0200 0000 0000 0000 0000 0000 0800  ................
	0x0010:  4500 0028 0001 0000 3006 6657 c05f 3da0  E..(....0.fW?_=?
	0x0020:  0a05 1c74 1b39 5731 0000 303f 0000 de8f  ...t.9W1..0?..?.
	0x0030:  5011 2000 ea21 0000                      P...?!..
14:51:28.766794 IP (tos 0x0, ttl 40, id 51580, offset 0, flags [none], proto TCP (6), length 40)
    10.5.28.116.22321 > 192.95.61.160.6969: Flags [.], cksum 0x5bfa (correct), seq 6, ack 44631, win 65495, length 0
	0x0000:  0004 0200 0000 0000 0000 0000 0000 0800  ................
	0x0010:  4500 0028 c97c 0000 2806 a4db 0a05 1c74  E..(?|..(.??...t
	0x0020:  c05f 3da0 5731 1b39 0000 de8e 0000 de90  ?_=?W1.9..?...?.
	0x0030:  5010 ffd7 5bfa 0000                      P.??[?..
14:51:29.009963 IP (tos 0x0, ttl 40, id 51581, offset 0, flags [none], proto TCP (6), length 40)
    10.5.28.116.11702 > 192.95.61.160.6969: Flags [S], cksum 0x6e26 (correct), seq 5512, win 65495, length 0
	0x0000:  0004 0200 0000 0000 0000 0000 0000 0800  ................
	0x0010:  4500 0028 c97d 0000 2806 a4da 0a05 1c74  E..(?}..(.??...t
	0x0020:  c05f 3da0 2db6 1b39 0000 1588 beef 0005  ?_=?-?.9....??..
	0x0030:  5002 ffd7 6e26 0000                      P.??n&..
14:51:41.260756 IP (tos 0x0, ttl 40, id 51582, offset 0, flags [none], proto TCP (6), length 40)
    10.5.28.116.48404 > 192.95.61.160.6969: Flags [S], cksum 0x0633 (correct), seq 60955, win 65495, length 0
	0x0000:  0004 0200 0000 0000 0000 0000 0000 0800  ................
	0x0010:  4500 0028 c97e 0000 2806 a4d9 0a05 1c74  E..(?~..(.??...t
	0x0020:  c05f 3da0 bd14 1b39 0000 ee1b beef 0006  ?_=??..9..?.??..
	0x0030:  5002 ffd7 0633 0000                      P.??.3..
14:51:41.661948 IP (tos 0x0, ttl 48, id 1, offset 0, flags [none], proto TCP (6), length 42)
    192.95.61.160.6969 > 10.5.28.116.48404: Flags [S.], cksum 0xdb61 (correct), seq 12345:12347, ack 60956, win 8192, length 2
	0x0000:  0000 0200 0000 0000 0000 0000 0000 0800  ................
	0x0010:  4500 002a 0001 0000 3006 6655 c05f 3da0  E..*....0.fU?_=?
	0x0020:  0a05 1c74 1b39 bd14 0000 3039 0000 ee1c  ...t.9?...09..?.
	0x0030:  5012 2000 db61 0000 9952                 P...?a...R
14:51:41.679163 IP (tos 0x0, ttl 40, id 51584, offset 0, flags [none], proto TCP (6), length 40)
    10.5.28.116.48404 > 192.95.61.160.6969: Flags [.], cksum 0x94df (correct), seq 1, ack 1, win 65495, length 0
	0x0000:  0004 0200 0000 0000 0000 0000 0000 0800  ................
	0x0010:  4500 0028 c980 0000 2806 a4d7 0a05 1c74  E..(?...(.??...t
	0x0020:  c05f 3da0 bd14 1b39 0000 ee1c 0000 303a  ?_=??..9..?...0:
	0x0030:  5010 ffd7 94df 0000                      P.??.?..
14:51:41.685623 IP (tos 0x0, ttl 40, id 51585, offset 0, flags [none], proto TCP (6), length 45)
    10.5.28.116.48404 > 192.95.61.160.6969: Flags [P.], cksum 0xb140 (correct), seq 1:6, ack 1, win 65495, length 5
	0x0000:  0004 0200 0000 0000 0000 0000 0000 0800  ................
	0x0010:  4500 002d c981 0000 2806 a4d1 0a05 1c74  E..-?...(.??...t
	0x0020:  c05f 3da0 bd14 1b39 0000 ee1c 0000 303a  ?_=??..9..?...0:
	0x0030:  5018 ffd7 b140 0000 4845 4c4c 4f         P.?ױ@..HELLO
14:51:42.221534 IP (tos 0x0, ttl 49, id 1, offset 0, flags [none], proto TCP (6), length 45)
    192.95.61.160.6969 > 10.5.28.116.48404: Flags [.], cksum 0x911b (correct), seq 1:6, ack 6, win 8192, length 5
	0x0000:  0000 0200 0000 0000 0000 0000 0000 0800  ................
	0x0010:  4500 002d 0001 0000 3106 6552 c05f 3da0  E..-....1.eR?_=?
	0x0020:  0a05 1c74 1b39 bd14 0000 303a 0000 ee21  ...t.9?...0:..?!
	0x0030:  5010 2000 911b 0000 4f4c 4c45 48         P.......OLLEH
14:51:42.224111 IP (tos 0x0, ttl 40, id 51587, offset 0, flags [none], proto TCP (6), length 40)
    10.5.28.116.48404 > 192.95.61.160.6969: Flags [.], cksum 0x94d5 (correct), seq 6, ack 6, win 65495, length 0
	0x0000:  0004 0200 0000 0000 0000 0000 0000 0800  ................
	0x0010:  4500 0028 c983 0000 2806 a4d4 0a05 1c74  E..(?...(.??...t
	0x0020:  c05f 3da0 bd14 1b39 0000 ee21 0000 303f  ?_=??..9..?!..0?
	0x0030:  5010 ffd7 94d5 0000                      P.??.?..
14:51:42.224570 IP (tos 0x0, ttl 40, id 51588, offset 0, flags [none], proto TCP (6), length 40)
    10.5.28.116.48404 > 192.95.61.160.6969: Flags [F.], cksum 0x94d4 (correct), seq 6, ack 6, win 65495, length 0
	0x0000:  0004 0200 0000 0000 0000 0000 0000 0800  ................
	0x0010:  4500 0028 c984 0000 2806 a4d3 0a05 1c74  E..(?...(.??...t
	0x0020:  c05f 3da0 bd14 1b39 0000 ee21 0000 303f  ?_=??..9..?!..0?
	0x0030:  5011 ffd7 94d4 0000                      P.??.?..
14:51:42.771515 IP (tos 0x0, ttl 49, id 1, offset 0, flags [none], proto TCP (6), length 40)
    192.95.61.160.6969 > 10.5.28.116.48404: Flags [F.], cksum 0x74ab (correct), seq 6, ack 7, win 8192, length 0
	0x0000:  0000 0200 0000 0000 0000 0000 0000 0800  ................
	0x0010:  4500 0028 0001 0000 3106 6557 c05f 3da0  E..(....1.eW?_=?
	0x0020:  0a05 1c74 1b39 bd14 0000 303f 0000 ee22  ...t.9?...0?..?"
	0x0030:  5011 2000 74ab 0000                      P...t?..
14:51:42.773660 IP (tos 0x0, ttl 40, id 51590, offset 0, flags [none], proto TCP (6), length 40)
    10.5.28.116.48404 > 192.95.61.160.6969: Flags [.], cksum 0xd6f0 (correct), seq 6, ack 48618, win 65495, length 0
	0x0000:  0004 0200 0000 0000 0000 0000 0000 0800  ................
	0x0010:  4500 0028 c986 0000 2806 a4d1 0a05 1c74  E..(?...(.??...t
	0x0020:  c05f 3da0 bd14 1b39 0000 ee21 0000 ee23  ?_=??..9..?!..?#
	0x0030:  5010 ffd7 d6f0 0000                      P.????..
14:51:42.996271 IP (tos 0x0, ttl 40, id 51591, offset 0, flags [none], proto TCP (6), length 40)
    10.5.28.116.19305 > 192.95.61.160.6969: Flags [S], cksum 0xc67f (correct), seq 41064, win 65495, length 0
	0x0000:  0004 0200 0000 0000 0000 0000 0000 0800  ................
	0x0010:  4500 0028 c987 0000 2806 a4d0 0a05 1c74  E..(?...(.??...t
	0x0020:  c05f 3da0 4b69 1b39 0000 a068 0000 0000  ?_=?Ki.9..?h....
	0x0030:  5002 ffd7 c67f be07                      P.???.?.
14:51:43.411834 IP (tos 0x0, ttl 48, id 1, offset 0, flags [none], proto TCP (6), length 40)
    192.95.61.160.6969 > 10.5.28.116.19305: Flags [S.], cksum 0x760d (correct), seq 12345, ack 41065, win 8192, length 0
	0x0000:  0000 0200 0000 0000 0000 0000 0000 0800  ................
	0x0010:  4500 0028 0001 0000 3006 6657 c05f 3da0  E..(....0.fW?_=?
	0x0020:  0a05 1c74 1b39 4b69 0000 3039 0000 a069  ...t.9Ki..09..?i
	0x0030:  5012 2000 760d be07                      P...v.?.
14:51:43.415514 IP (tos 0x0, ttl 40, id 51593, offset 0, flags [none], proto TCP (6), length 40)
    10.5.28.116.19305 > 192.95.61.160.6969: Flags [.], cksum 0x543e (correct), seq 1, ack 1, win 65495, length 0
	0x0000:  0004 0200 0000 0000 0000 0000 0000 0800  ................
	0x0010:  4500 0028 c989 0000 2806 a4ce 0a05 1c74  E..(?...(.??...t
	0x0020:  c05f 3da0 4b69 1b39 0000 a069 0000 303a  ?_=?Ki.9..?i..0:
	0x0030:  5010 ffd7 543e 0000                      P.??T>..
14:51:43.417040 IP (tos 0x0, ttl 40, id 51594, offset 0, flags [none], proto TCP (6), length 45)
    10.5.28.116.19305 > 192.95.61.160.6969: Flags [P.], cksum 0x709f (correct), seq 1:6, ack 1, win 65495, length 5
	0x0000:  0004 0200 0000 0000 0000 0000 0000 0800  ................
	0x0010:  4500 002d c98a 0000 2806 a4c8 0a05 1c74  E..-?...(.??...t
	0x0020:  c05f 3da0 4b69 1b39 0000 a069 0000 303a  ?_=?Ki.9..?i..0:
	0x0030:  5018 ffd7 709f 0000 4845 4c4c 4f         P.??p...HELLO
14:51:43.931671 IP (tos 0x0, ttl 49, id 1, offset 0, flags [none], proto TCP (6), length 45)
    192.95.61.160.6969 > 10.5.28.116.19305: Flags [.], cksum 0x507a (correct), seq 1:6, ack 6, win 8192, length 5
	0x0000:  0000 0200 0000 0000 0000 0000 0000 0800  ................
	0x0010:  4500 002d 0001 0000 3106 6552 c05f 3da0  E..-....1.eR?_=?
	0x0020:  0a05 1c74 1b39 4b69 0000 303a 0000 a06e  ...t.9Ki..0:..?n
	0x0030:  5010 2000 507a 0000 4f4c 4c45 48         P...Pz..OLLEH
14:51:43.934855 IP (tos 0x0, ttl 40, id 51596, offset 0, flags [none], proto TCP (6), length 40)
    10.5.28.116.19305 > 192.95.61.160.6969: Flags [.], cksum 0x5434 (correct), seq 6, ack 6, win 65495, length 0
	0x0000:  0004 0200 0000 0000 0000 0000 0000 0800  ................
	0x0010:  4500 0028 c98c 0000 2806 a4cb 0a05 1c74  E..(?...(.??...t
	0x0020:  c05f 3da0 4b69 1b39 0000 a06e 0000 303f  ?_=?Ki.9..?n..0?
	0x0030:  5010 ffd7 5434 0000                      P.??T4..
14:51:43.935769 IP (tos 0x0, ttl 40, id 51597, offset 0, flags [none], proto TCP (6), length 40)
    10.5.28.116.19305 > 192.95.61.160.6969: Flags [F.], cksum 0x5433 (correct), seq 6, ack 6, win 65495, length 0
	0x0000:  0004 0200 0000 0000 0000 0000 0000 0800  ................
	0x0010:  4500 0028 c98d 0000 2806 a4ca 0a05 1c74  E..(?...(.??...t
	0x0020:  c05f 3da0 4b69 1b39 0000 a06e 0000 303f  ?_=?Ki.9..?n..0?
	0x0030:  5011 ffd7 5433 0000                      P.??T3..
14:51:44.501742 IP (tos 0x0, ttl 49, id 1, offset 0, flags [none], proto TCP (6), length 40)
    192.95.61.160.6969 > 10.5.28.116.19305: Flags [F.], cksum 0x340a (correct), seq 6, ack 7, win 8192, length 0
	0x0000:  0000 0200 0000 0000 0000 0000 0000 0800  ................
	0x0010:  4500 0028 0001 0000 3106 6557 c05f 3da0  E..(....1.eW?_=?
	0x0020:  0a05 1c74 1b39 4b69 0000 303f 0000 a06f  ...t.9Ki..0?..?o
	0x0030:  5011 2000 340a 0000                      P...4...
14:51:44.512680 IP (tos 0x0, ttl 40, id 51599, offset 0, flags [none], proto TCP (6), length 40)
    10.5.28.116.19305 > 192.95.61.160.6969: Flags [.], cksum 0xe402 (correct), seq 6, ack 28727, win 65495, length 0
	0x0000:  0004 0200 0000 0000 0000 0000 0000 0800  ................
	0x0010:  4500 0028 c98f 0000 2806 a4c8 0a05 1c74  E..(?...(.??...t
	0x0020:  c05f 3da0 4b69 1b39 0000 a06e 0000 a070  ?_=?Ki.9..?n..?p
	0x0030:  5010 ffd7 e402 0000                      P.???...
14:51:44.751701 IP (tos 0x0, ttl 40, id 51600, offset 0, flags [none], proto TCP (6), length 40)
    10.5.28.116.15095 > 192.95.61.160.6969: Flags [S], cksum 0xb4b0 (correct), seq 49832, win 65495, length 0
	0x0000:  0004 0200 0000 0000 0000 0000 0000 0800  ................
	0x0010:  4500 0028 c990 0000 2806 a4c7 0a05 1c74  E..(?...(.??...t
	0x0020:  c05f 3da0 3af7 1b39 0000 c2a8 0000 0000  ?_=?:?.9..¨....
	0x0030:  5002 ffd7 b4b0 be08                      P.?״??.
14:51:45.191765 IP (tos 0x0, ttl 48, id 1, offset 0, flags [none], proto TCP (6), length 40)
    192.95.61.160.6969 > 10.5.28.116.15095: Flags [S.], cksum 0x6442 (correct), seq 12345, ack 49833, win 8192, length 0
	0x0000:  0000 0200 0000 0000 0000 0000 0000 0800  ................
	0x0010:  4500 0028 0001 0000 3006 6657 c05f 3da0  E..(....0.fW?_=?
	0x0020:  0a05 1c74 1b39 3af7 0000 3039 0000 c2a9  ...t.9:?..09..©
	0x0030:  5012 2000 6442 be04                      P...dB?.
14:51:45.437985 IP (tos 0x0, ttl 40, id 51602, offset 0, flags [none], proto TCP (6), length 40)
    10.5.28.116.42286 > 192.95.61.160.6969: Flags [S], cksum 0xc7cb (correct), seq 17749, win 65495, length 0
	0x0000:  0004 0200 0000 0000 0000 0000 0000 0800  ................
	0x0010:  4500 0028 c992 0000 2806 a4c5 0a05 1c74  E..(?...(.??...t
	0x0020:  c05f 3da0 a52e 1b39 0000 4555 0000 0000  ?_=??..9..EU....
	0x0030:  5002 ffd7 c7cb be09                      P.???˾.
14:51:55.653278 IP (tos 0x0, ttl 40, id 51603, offset 0, flags [none], proto TCP (6), length 40)
    10.5.28.116.22455 > 192.95.61.160.6969: Flags [S], cksum 0x4c76 (correct), seq 52011, win 65495, length 0
	0x0000:  0004 0200 0000 0000 0000 0000 0000 0800  ................
	0x0010:  4500 0028 c993 0000 2806 a4c4 0a05 1c74  E..(?...(.??...t
	0x0020:  c05f 3da0 57b7 1b39 0000 cb2b 0000 0000  ?_=?W?.9..?+....
	0x0030:  5102 ffd7 4c76 0000                      Q.??Lv..
14:51:56.762769 IP (tos 0x0, ttl 48, id 1, offset 0, flags [none], proto TCP (6), length 40)
    192.95.61.160.6969 > 10.5.28.116.22455: Flags [S.], cksum 0xfc03 (correct), seq 12345, ack 52012, win 8192, length 0
	0x0000:  0000 0200 0000 0000 0000 0000 0000 0800  ................
	0x0010:  4500 0028 0001 0000 3006 6657 c05f 3da0  E..(....0.fW?_=?
	0x0020:  0a05 1c74 1b39 57b7 0000 3039 0000 cb2c  ...t.9W?..09..?,
	0x0030:  5112 2000 fc03 0000                      Q...?...
14:51:56.766507 IP (tos 0x0, ttl 40, id 51605, offset 0, flags [none], proto TCP (6), length 40)
    10.5.28.116.22455 > 192.95.61.160.6969: Flags [.], cksum 0x1c2d (correct), seq 1, ack 1, win 65495, length 0
	0x0000:  0004 0200 0000 0000 0000 0000 0000 0800  ................
	0x0010:  4500 0028 c995 0000 2806 a4c2 0a05 1c74  E..(?...(.??...t
	0x0020:  c05f 3da0 57b7 1b39 0000 cb2c 0000 303a  ?_=?W?.9..?,..0:
	0x0030:  5110 ffd7 1c2d 0000                      Q.??.-..
14:51:56.767289 IP (tos 0x0, ttl 40, id 51606, offset 0, flags [none], proto TCP (6), length 45)
    10.5.28.116.22455 > 192.95.61.160.6969: Flags [P.], cksum 0x398e (correct), seq 1:6, ack 1, win 65495, length 5
	0x0000:  0004 0200 0000 0000 0000 0000 0000 0800  ................
	0x0010:  4500 002d c996 0000 2806 a4bc 0a05 1c74  E..-?...(.??...t
	0x0020:  c05f 3da0 57b7 1b39 0000 cb2c 0000 303a  ?_=?W?.9..?,..0:
	0x0030:  5018 ffd7 398e 0000 4845 4c4c 4f         P.??9...HELLO
14:51:57.281876 IP (tos 0x0, ttl 49, id 1, offset 0, flags [none], proto TCP (6), length 45)
    192.95.61.160.6969 > 10.5.28.116.22455: Flags [.], cksum 0x1969 (correct), seq 1:6, ack 6, win 8192, length 5
	0x0000:  0000 0200 0000 0000 0000 0000 0000 0800  ................
	0x0010:  4500 002d 0001 0000 3106 6552 c05f 3da0  E..-....1.eR?_=?
	0x0020:  0a05 1c74 1b39 57b7 0000 303a 0000 cb31  ...t.9W?..0:..?1
	0x0030:  5010 2000 1969 0000 4f4c 4c45 48         P....i..OLLEH
14:51:57.283268 IP (tos 0x0, ttl 40, id 51608, offset 0, flags [none], proto TCP (6), length 40)
    10.5.28.116.22455 > 192.95.61.160.6969: Flags [.], cksum 0x1d23 (correct), seq 6, ack 6, win 65495, length 0
	0x0000:  0004 0200 0000 0000 0000 0000 0000 0800  ................
	0x0010:  4500 0028 c998 0000 2806 a4bf 0a05 1c74  E..(?...(.??...t
	0x0020:  c05f 3da0 57b7 1b39 0000 cb31 0000 303f  ?_=?W?.9..?1..0?
	0x0030:  5010 ffd7 1d23 0000                      P.??.#..
14:51:57.283506 IP (tos 0x0, ttl 40, id 51609, offset 0, flags [none], proto TCP (6), length 40)
    10.5.28.116.22455 > 192.95.61.160.6969: Flags [F.], cksum 0x1d22 (correct), seq 6, ack 6, win 65495, length 0
	0x0000:  0004 0200 0000 0000 0000 0000 0000 0800  ................
	0x0010:  4500 0028 c999 0000 2806 a4be 0a05 1c74  E..(?...(.??...t
	0x0020:  c05f 3da0 57b7 1b39 0000 cb31 0000 303f  ?_=?W?.9..?1..0?
	0x0030:  5011 ffd7 1d22 0000                      P.??."..
14:51:57.811688 IP (tos 0x0, ttl 49, id 1, offset 0, flags [none], proto TCP (6), length 40)
    192.95.61.160.6969 > 10.5.28.116.22455: Flags [F.], cksum 0xfcf8 (correct), seq 6, ack 7, win 8192, length 0
	0x0000:  0000 0200 0000 0000 0000 0000 0000 0800  ................
	0x0010:  4500 0028 0001 0000 3106 6557 c05f 3da0  E..(....1.eW?_=?
	0x0020:  0a05 1c74 1b39 57b7 0000 303f 0000 cb32  ...t.9W?..0?..?2
	0x0030:  5011 2000 fcf8 0000                      P...??..
14:51:57.814131 IP (tos 0x0, ttl 40, id 51611, offset 0, flags [none], proto TCP (6), length 40)
    10.5.28.116.22455 > 192.95.61.160.6969: Flags [.], cksum 0x822e (correct), seq 6, ack 39674, win 65495, length 0
	0x0000:  0004 0200 0000 0000 0000 0000 0000 0800  ................
	0x0010:  4500 0028 c99b 0000 2806 a4bc 0a05 1c74  E..(?...(.??...t
	0x0020:  c05f 3da0 57b7 1b39 0000 cb31 0000 cb33  ?_=?W?.9..?1..?3
	0x0030:  5010 ffd7 822e 0000                      P.??....
14:51:58.035071 IP (tos 0x0, ttl 40, id 51612, offset 0, flags [none], proto TCP (6), length 40)
    10.5.28.116.44479 > 192.95.61.160.6969: Flags [S], cksum 0x9356 (correct), seq 11587, win 65495, length 0
	0x0000:  0004 0200 0000 0000 0000 0000 0000 0800  ................
	0x0010:  4500 0028 c99c 0000 2806 a4bb 0a05 1c74  E..(?...(.??...t
	0x0020:  c05f 3da0 adbf 1b39 0000 2d43 0000 0000  ?_=???.9..-C....
	0x0030:  5202 ffd7 9356 0000                      R.??.V..
14:51:58.461951 IP (tos 0x0, ttl 48, id 1, offset 0, flags [none], proto TCP (6), length 40)
    192.95.61.160.6969 > 10.5.28.116.44479: Flags [S.], cksum 0x42e4 (correct), seq 12345, ack 11588, win 8192, length 0
	0x0000:  0000 0200 0000 0000 0000 0000 0000 0800  ................
	0x0010:  4500 0028 0001 0000 3006 6657 c05f 3da0  E..(....0.fW?_=?
	0x0020:  0a05 1c74 1b39 adbf 0000 3039 0000 2d44  ...t.9??..09..-D
	0x0030:  5212 2000 42e4 0000                      R...B?..
14:51:58.469066 IP (tos 0x0, ttl 40, id 51614, offset 0, flags [none], proto TCP (6), length 40)
    10.5.28.116.44479 > 192.95.61.160.6969: Flags [.], cksum 0x630d (correct), seq 1, ack 1, win 65495, length 0
	0x0000:  0004 0200 0000 0000 0000 0000 0000 0800  ................
	0x0010:  4500 0028 c99e 0000 2806 a4b9 0a05 1c74  E..(?...(.??...t
	0x0020:  c05f 3da0 adbf 1b39 0000 2d44 0000 303a  ?_=???.9..-D..0:
	0x0030:  5210 ffd7 630d 0000                      R.??c...
14:51:58.470618 IP (tos 0x0, ttl 40, id 51615, offset 0, flags [none], proto TCP (6), length 45)
    10.5.28.116.44479 > 192.95.61.160.6969: Flags [P.], cksum 0x816e (correct), seq 1:6, ack 1, win 65495, length 5
	0x0000:  0004 0200 0000 0000 0000 0000 0000 0800  ................
	0x0010:  4500 002d c99f 0000 2806 a4b3 0a05 1c74  E..-?...(.??...t
	0x0020:  c05f 3da0 adbf 1b39 0000 2d44 0000 303a  ?_=???.9..-D..0:
	0x0030:  5018 ffd7 816e 0000 4845 4c4c 4f         P.??.n..HELLO
14:51:59.202264 IP (tos 0x0, ttl 49, id 1, offset 0, flags [none], proto TCP (6), length 45)
    192.95.61.160.6969 > 10.5.28.116.44479: Flags [.], cksum 0x6149 (correct), seq 1:6, ack 6, win 8192, length 5
	0x0000:  0000 0200 0000 0000 0000 0000 0000 0800  ................
	0x0010:  4500 002d 0001 0000 3106 6552 c05f 3da0  E..-....1.eR?_=?
	0x0020:  0a05 1c74 1b39 adbf 0000 303a 0000 2d49  ...t.9??..0:..-I
	0x0030:  5010 2000 6149 0000 4f4c 4c45 48         P...aI..OLLEH
14:51:59.209133 IP (tos 0x0, ttl 40, id 51617, offset 0, flags [none], proto TCP (6), length 40)
    10.5.28.116.44479 > 192.95.61.160.6969: Flags [.], cksum 0x6503 (correct), seq 6, ack 6, win 65495, length 0
	0x0000:  0004 0200 0000 0000 0000 0000 0000 0800  ................
	0x0010:  4500 0028 c9a1 0000 2806 a4b6 0a05 1c74  E..(ɡ..(.??...t
	0x0020:  c05f 3da0 adbf 1b39 0000 2d49 0000 303f  ?_=???.9..-I..0?
	0x0030:  5010 ffd7 6503 0000                      P.??e...
14:51:59.210060 IP (tos 0x0, ttl 40, id 51618, offset 0, flags [none], proto TCP (6), length 40)
    10.5.28.116.44479 > 192.95.61.160.6969: Flags [F.], cksum 0x6502 (correct), seq 6, ack 6, win 65495, length 0
	0x0000:  0004 0200 0000 0000 0000 0000 0000 0800  ................
	0x0010:  4500 0028 c9a2 0000 2806 a4b5 0a05 1c74  E..(ɢ..(.??...t
	0x0020:  c05f 3da0 adbf 1b39 0000 2d49 0000 303f  ?_=???.9..-I..0?
	0x0030:  5011 ffd7 6502 0000                      P.??e...
14:51:59.742153 IP (tos 0x0, ttl 49, id 1, offset 0, flags [none], proto TCP (6), length 40)
    192.95.61.160.6969 > 10.5.28.116.44479: Flags [F.], cksum 0x44d9 (correct), seq 6, ack 7, win 8192, length 0
	0x0000:  0000 0200 0000 0000 0000 0000 0000 0800  ................
	0x0010:  4500 0028 0001 0000 3106 6557 c05f 3da0  E..(....1.eW?_=?
	0x0020:  0a05 1c74 1b39 adbf 0000 303f 0000 2d4a  ...t.9??..0?..-J
	0x0030:  5011 2000 44d9 0000                      P...D?..
14:51:59.747262 IP (tos 0x0, ttl 40, id 51620, offset 0, flags [none], proto TCP (6), length 40)
    10.5.28.116.44479 > 192.95.61.160.6969: Flags [.], cksum 0x67f7 (correct), seq 6, ack 4294966546, win 65495, length 0
	0x0000:  0004 0200 0000 0000 0000 0000 0000 0800  ................
	0x0010:  4500 0028 c9a4 0000 2806 a4b3 0a05 1c74  E..(ɤ..(.??...t
	0x0020:  c05f 3da0 adbf 1b39 0000 2d49 0000 2d4b  ?_=???.9..-I..-K
	0x0030:  5010 ffd7 67f7 0000                      P.??g?..
14:51:59.988848 IP (tos 0x0, ttl 40, id 51621, offset 0, flags [none], proto TCP (6), length 40)
    10.5.28.116.16809 > 192.95.61.160.6969: Flags [S], cksum 0x72cd (correct), seq 47074, win 65495, length 0
	0x0000:  0004 0200 0000 0000 0000 0000 0000 0800  ................
	0x0010:  4500 0028 c9a5 0000 2806 a4b2 0a05 1c74  E..(ɥ..(.??...t
	0x0020:  c05f 3da0 41a9 1b39 0000 b7e2 0000 0000  ?_=?A?.9..??....
	0x0030:  5402 ffd7 72cd 0000                      T.??r?..
14:52:00.391754 IP (tos 0x0, ttl 48, id 1, offset 0, flags [none], proto TCP (6), length 40)
    192.95.61.160.6969 > 10.5.28.116.16809: Flags [S.], cksum 0x225b (correct), seq 12345, ack 47075, win 8192, length 0
	0x0000:  0000 0200 0000 0000 0000 0000 0000 0800  ................
	0x0010:  4500 0028 0001 0000 3006 6657 c05f 3da0  E..(....0.fW?_=?
	0x0020:  0a05 1c74 1b39 41a9 0000 3039 0000 b7e3  ...t.9A?..09..??
	0x0030:  5412 2000 225b 0000                      T..."[..
14:52:00.395409 IP (tos 0x0, ttl 40, id 51623, offset 0, flags [none], proto TCP (6), length 40)
    10.5.28.116.16809 > 192.95.61.160.6969: Flags [.], cksum 0x4284 (correct), seq 1, ack 1, win 65495, length 0
	0x0000:  0004 0200 0000 0000 0000 0000 0000 0800  ................
	0x0010:  4500 0028 c9a7 0000 2806 a4b0 0a05 1c74  E..(ɧ..(.??...t
	0x0020:  c05f 3da0 41a9 1b39 0000 b7e3 0000 303a  ?_=?A?.9..??..0:
	0x0030:  5410 ffd7 4284 0000                      T.??B...
14:52:00.396195 IP (tos 0x0, ttl 40, id 51624, offset 0, flags [none], proto TCP (6), length 45)
    10.5.28.116.16809 > 192.95.61.160.6969: Flags [P.], cksum 0x62e5 (correct), seq 1:6, ack 1, win 65495, length 5
	0x0000:  0004 0200 0000 0000 0000 0000 0000 0800  ................
	0x0010:  4500 002d c9a8 0000 2806 a4aa 0a05 1c74  E..-ɨ..(.??...t
	0x0020:  c05f 3da0 41a9 1b39 0000 b7e3 0000 303a  ?_=?A?.9..??..0:
	0x0030:  5018 ffd7 62e5 0000 4845 4c4c 4f         P.??b?..HELLO
14:52:00.961858 IP (tos 0x0, ttl 49, id 1, offset 0, flags [none], proto TCP (6), length 45)
    192.95.61.160.6969 > 10.5.28.116.16809: Flags [.], cksum 0x42c0 (correct), seq 1:6, ack 6, win 8192, length 5
	0x0000:  0000 0200 0000 0000 0000 0000 0000 0800  ................
	0x0010:  4500 002d 0001 0000 3106 6552 c05f 3da0  E..-....1.eR?_=?
	0x0020:  0a05 1c74 1b39 41a9 0000 303a 0000 b7e8  ...t.9A?..0:..??
	0x0030:  5010 2000 42c0 0000 4f4c 4c45 48         P...B?..OLLEH
14:52:00.965840 IP (tos 0x0, ttl 40, id 51626, offset 0, flags [none], proto TCP (6), length 40)
    10.5.28.116.16809 > 192.95.61.160.6969: Flags [.], cksum 0x467a (correct), seq 6, ack 6, win 65495, length 0
	0x0000:  0004 0200 0000 0000 0000 0000 0000 0800  ................
	0x0010:  4500 0028 c9aa 0000 2806 a4ad 0a05 1c74  E..(ɪ..(.??...t
	0x0020:  c05f 3da0 41a9 1b39 0000 b7e8 0000 303f  ?_=?A?.9..??..0?
	0x0030:  5010 ffd7 467a 0000                      P.??Fz..
14:52:00.966308 IP (tos 0x0, ttl 40, id 51627, offset 0, flags [none], proto TCP (6), length 40)
    10.5.28.116.16809 > 192.95.61.160.6969: Flags [F.], cksum 0x4679 (correct), seq 6, ack 6, win 65495, length 0
	0x0000:  0004 0200 0000 0000 0000 0000 0000 0800  ................
	0x0010:  4500 0028 c9ab 0000 2806 a4ac 0a05 1c74  E..(ɫ..(.??...t
	0x0020:  c05f 3da0 41a9 1b39 0000 b7e8 0000 303f  ?_=?A?.9..??..0?
	0x0030:  5011 ffd7 4679 0000                      P.??Fy..
14:52:01.531652 IP (tos 0x0, ttl 48, id 1, offset 0, flags [none], proto TCP (6), length 40)
    192.95.61.160.6969 > 10.5.28.116.16809: Flags [F.], cksum 0x2650 (correct), seq 6, ack 7, win 8192, length 0
	0x0000:  0000 0200 0000 0000 0000 0000 0000 0800  ................
	0x0010:  4500 0028 0001 0000 3006 6657 c05f 3da0  E..(....0.fW?_=?
	0x0020:  0a05 1c74 1b39 41a9 0000 303f 0000 b7e9  ...t.9A?..0?..??
	0x0030:  5011 2000 2650 0000                      P...&P..
14:52:01.534072 IP (tos 0x0, ttl 40, id 51629, offset 0, flags [none], proto TCP (6), length 40)
    10.5.28.116.16809 > 192.95.61.160.6969: Flags [.], cksum 0xbece (correct), seq 6, ack 34737, win 65495, length 0
	0x0000:  0004 0200 0000 0000 0000 0000 0000 0800  ................
	0x0010:  4500 0028 c9ad 0000 2806 a4aa 0a05 1c74  E..(ɭ..(.??...t
	0x0020:  c05f 3da0 41a9 1b39 0000 b7e8 0000 b7ea  ?_=?A?.9..??..??
	0x0030:  5010 ffd7 bece 0000                      P.?׾?..
14:52:01.758687 IP (tos 0x0, ttl 40, id 51630, offset 0, flags [none], proto TCP (6), length 40)
    10.5.28.116.30931 > 192.95.61.160.6969: Flags [S], cksum 0x0f4f (correct), seq 57398, win 65495, length 0
	0x0000:  0004 0200 0000 0000 0000 0000 0000 0800  ................
	0x0010:  4500 0028 c9ae 0000 2806 a4a9 0a05 1c74  E..(ɮ..(.??...t
	0x0020:  c05f 3da0 78d3 1b39 0000 e036 0000 0000  ?_=?x?.9..?6....
	0x0030:  5802 ffd7 0f4f 0000                      X.??.O..
14:52:02.191887 IP (tos 0x0, ttl 48, id 1, offset 0, flags [none], proto TCP (6), length 40)
    192.95.61.160.6969 > 10.5.28.116.30931: Flags [S.], cksum 0xbedc (correct), seq 12345, ack 57399, win 8192, length 0
	0x0000:  0000 0200 0000 0000 0000 0000 0000 0800  ................
	0x0010:  4500 0028 0001 0000 3006 6657 c05f 3da0  E..(....0.fW?_=?
	0x0020:  0a05 1c74 1b39 78d3 0000 3039 0000 e037  ...t.9x?..09..?7
	0x0030:  5812 2000 bedc 0000                      X...??..
14:52:02.196746 IP (tos 0x0, ttl 40, id 51632, offset 0, flags [none], proto TCP (6), length 40)
    10.5.28.116.30931 > 192.95.61.160.6969: Flags [.], cksum 0xdf05 (correct), seq 1, ack 1, win 65495, length 0
	0x0000:  0004 0200 0000 0000 0000 0000 0000 0800  ................
	0x0010:  4500 0028 c9b0 0000 2806 a4a7 0a05 1c74  E..(ɰ..(.??...t
	0x0020:  c05f 3da0 78d3 1b39 0000 e037 0000 303a  ?_=?x?.9..?7..0:
	0x0030:  5810 ffd7 df05 0000                      X.???...
14:52:02.198636 IP (tos 0x0, ttl 40, id 51633, offset 0, flags [none], proto TCP (6), length 45)
    10.5.28.116.30931 > 192.95.61.160.6969: Flags [P.], cksum 0x0367 (correct), seq 1:6, ack 1, win 65495, length 5
	0x0000:  0004 0200 0000 0000 0000 0000 0000 0800  ................
	0x0010:  4500 002d c9b1 0000 2806 a4a1 0a05 1c74  E..-ɱ..(.??...t
	0x0020:  c05f 3da0 78d3 1b39 0000 e037 0000 303a  ?_=?x?.9..?7..0:
	0x0030:  5018 ffd7 0367 0000 4845 4c4c 4f         P.??.g..HELLO
14:52:02.752143 IP (tos 0x0, ttl 49, id 1, offset 0, flags [none], proto TCP (6), length 45)
    192.95.61.160.6969 > 10.5.28.116.30931: Flags [.], cksum 0xe341 (correct), seq 1:6, ack 6, win 8192, length 5
	0x0000:  0000 0200 0000 0000 0000 0000 0000 0800  ................
	0x0010:  4500 002d 0001 0000 3106 6552 c05f 3da0  E..-....1.eR?_=?
	0x0020:  0a05 1c74 1b39 78d3 0000 303a 0000 e03c  ...t.9x?..0:..?<
	0x0030:  5010 2000 e341 0000 4f4c 4c45 48         P...?A..OLLEH
14:52:02.755246 IP (tos 0x0, ttl 40, id 51635, offset 0, flags [none], proto TCP (6), length 40)
    10.5.28.116.30931 > 192.95.61.160.6969: Flags [.], cksum 0xe6fb (correct), seq 6, ack 6, win 65495, length 0
	0x0000:  0004 0200 0000 0000 0000 0000 0000 0800  ................
	0x0010:  4500 0028 c9b3 0000 2806 a4a4 0a05 1c74  E..(ɳ..(.??...t
	0x0020:  c05f 3da0 78d3 1b39 0000 e03c 0000 303f  ?_=?x?.9..?<..0?
	0x0030:  5010 ffd7 e6fb 0000                      P.????..
14:52:02.756122 IP (tos 0x0, ttl 40, id 51636, offset 0, flags [none], proto TCP (6), length 40)
    10.5.28.116.30931 > 192.95.61.160.6969: Flags [F.], cksum 0xe6fa (correct), seq 6, ack 6, win 65495, length 0
	0x0000:  0004 0200 0000 0000 0000 0000 0000 0800  ................
	0x0010:  4500 0028 c9b4 0000 2806 a4a3 0a05 1c74  E..(ɴ..(.??...t
	0x0020:  c05f 3da0 78d3 1b39 0000 e03c 0000 303f  ?_=?x?.9..?<..0?
	0x0030:  5011 ffd7 e6fa 0000                      P.????..
14:52:03.342205 IP (tos 0x0, ttl 49, id 1, offset 0, flags [none], proto TCP (6), length 40)
    192.95.61.160.6969 > 10.5.28.116.30931: Flags [F.], cksum 0xc6d1 (correct), seq 6, ack 7, win 8192, length 0
	0x0000:  0000 0200 0000 0000 0000 0000 0000 0800  ................
	0x0010:  4500 0028 0001 0000 3106 6557 c05f 3da0  E..(....1.eW?_=?
	0x0020:  0a05 1c74 1b39 78d3 0000 303f 0000 e03d  ...t.9x?..0?..?=
	0x0030:  5011 2000 c6d1 0000                      P...??..
14:52:03.355193 IP (tos 0x0, ttl 40, id 51638, offset 0, flags [none], proto TCP (6), length 40)
    10.5.28.116.30931 > 192.95.61.160.6969: Flags [.], cksum 0x36fc (correct), seq 6, ack 45061, win 65495, length 0
	0x0000:  0004 0200 0000 0000 0000 0000 0000 0800  ................
	0x0010:  4500 0028 c9b6 0000 2806 a4a1 0a05 1c74  E..(ɶ..(.??...t
	0x0020:  c05f 3da0 78d3 1b39 0000 e03c 0000 e03e  ?_=?x?.9..?<..?>
	0x0030:  5010 ffd7 36fc 0000                      P.??6?..
14:52:03.595083 IP (tos 0x0, ttl 40, id 51639, offset 0, flags [none], proto TCP (6), length 40)
    10.5.28.116.9171 > 192.95.61.160.6969: Flags [S], cksum 0x24b9 (correct), seq 10189, win 65495, length 0
	0x0000:  0004 0200 0000 0000 0000 0000 0000 0800  ................
	0x0010:  4500 0028 c9b7 0000 2806 a4a0 0a05 1c74  E..(ɷ..(.??...t
	0x0020:  c05f 3da0 23d3 1b39 0000 27cd 0000 0000  ?_=?#?.9..'?....
	0x0030:  5002 ffd7 24b9 0000                      P.??$?..
14:52:04.022118 IP (tos 0x0, ttl 48, id 1, offset 0, flags [none], proto TCP (6), length 40)
    192.95.61.160.6969 > 10.5.28.116.9171: Flags [S.], cksum 0x1642 (correct), seq 12345, ack 10190, win 8192, length 0
	0x0000:  0000 0200 0000 0000 0000 0000 0000 0800  ................
	0x0010:  4500 0028 0001 0000 3006 6657 c05f 3da0  E..(....0.fW?_=?
	0x0020:  0a05 1c74 1b39 23d3 0000 3039 0000 27ce  ...t.9#?..09..'?
	0x0030:  5012 2000 1642 be04                      P....B?.
14:52:04.025146 IP (tos 0x0, ttl 40, id 51641, offset 0, flags [none], proto TCP (6), length 40)
    10.5.28.116.9171 > 192.95.61.160.6969: Flags [.], cksum 0xf46f (correct), seq 1, ack 1, win 65495, length 0
	0x0000:  0004 0200 0000 0000 0000 0000 0000 0800  ................
	0x0010:  4500 0028 c9b9 0000 2806 a49e 0a05 1c74  E..(ɹ..(.?....t
	0x0020:  c05f 3da0 23d3 1b39 0000 27ce 0000 303a  ?_=?#?.9..'?..0:
	0x0030:  5010 ffd7 f46f 0000                      P.???o..
14:52:04.036912 IP (tos 0x0, ttl 40, id 51642, offset 0, flags [none], proto TCP (6), length 45)
    10.5.28.116.9171 > 192.95.61.160.6969: Flags [P.], cksum 0x0fd1 (correct), seq 1:6, ack 1, win 65495, length 5
	0x0000:  0004 0200 0000 0000 0000 0000 0000 0800  ................
	0x0010:  4500 002d c9ba 0000 2806 a498 0a05 1c74  E..-ɺ..(.?....t
	0x0020:  c05f 3da0 23d3 1b39 0000 27ce 0000 303a  ?_=?#?.9..'?..0:
	0x0030:  5118 ffd7 0fd1 0000 4845 4c4c 4f         Q.??.?..HELLO
14:52:04.622054 IP (tos 0x0, ttl 48, id 1, offset 0, flags [none], proto TCP (6), length 45)
    192.95.61.160.6969 > 10.5.28.116.9171: Flags [.], cksum 0xefab (correct), seq 1:6, ack 6, win 8192, length 5
	0x0000:  0000 0200 0000 0000 0000 0000 0000 0800  ................
	0x0010:  4500 002d 0001 0000 3006 6652 c05f 3da0  E..-....0.fR?_=?
	0x0020:  0a05 1c74 1b39 23d3 0000 303a 0000 27d3  ...t.9#?..0:..'?
	0x0030:  5110 2000 efab 0000 4f4c 4c45 48         Q...?..OLLEH
14:52:04.629062 IP (tos 0x0, ttl 40, id 51644, offset 0, flags [none], proto TCP (6), length 40)
    10.5.28.116.9171 > 192.95.61.160.6969: Flags [.], cksum 0xf365 (correct), seq 6, ack 6, win 65495, length 0
	0x0000:  0004 0200 0000 0000 0000 0000 0000 0800  ................
	0x0010:  4500 0028 c9bc 0000 2806 a49b 0a05 1c74  E..(ɼ..(.?....t
	0x0020:  c05f 3da0 23d3 1b39 0000 27d3 0000 303f  ?_=?#?.9..'?..0?
	0x0030:  5110 ffd7 f365 0000                      Q.???e..
14:52:04.629981 IP (tos 0x0, ttl 40, id 51645, offset 0, flags [none], proto TCP (6), length 40)
    10.5.28.116.9171 > 192.95.61.160.6969: Flags [F.], cksum 0xf364 (correct), seq 6, ack 6, win 65495, length 0
	0x0000:  0004 0200 0000 0000 0000 0000 0000 0800  ................
	0x0010:  4500 0028 c9bd 0000 2806 a49a 0a05 1c74  E..(ɽ..(.?....t
	0x0020:  c05f 3da0 23d3 1b39 0000 27d3 0000 303f  ?_=?#?.9..'?..0?
	0x0030:  5111 ffd7 f364 0000                      Q.???d..
14:52:05.212097 IP (tos 0x0, ttl 49, id 1, offset 0, flags [none], proto TCP (6), length 40)
    192.95.61.160.6969 > 10.5.28.116.9171: Flags [F.], cksum 0xd43b (correct), seq 6, ack 7, win 8192, length 0
	0x0000:  0000 0200 0000 0000 0000 0000 0000 0800  ................
	0x0010:  4500 0028 0001 0000 3106 6557 c05f 3da0  E..(....1.eW?_=?
	0x0020:  0a05 1c74 1b39 23d3 0000 303f 0000 27d4  ...t.9#?..0?..'?
	0x0030:  5011 2000 d43b 0000                      P...?;..
14:52:05.216138 IP (tos 0x0, ttl 40, id 51647, offset 0, flags [none], proto TCP (6), length 40)
    10.5.28.116.9171 > 192.95.61.160.6969: Flags [.], cksum 0xfccf (correct), seq 6, ack 4294965148, win 65495, length 0
	0x0000:  0004 0200 0000 0000 0000 0000 0000 0800  ................
	0x0010:  4500 0028 c9bf 0000 2806 a498 0a05 1c74  E..(ɿ..(.?....t
	0x0020:  c05f 3da0 23d3 1b39 0000 27d3 0000 27d5  ?_=?#?.9..'?..'?
	0x0030:  5010 ffd7 fccf 0000                      P.????..
14:52:05.472600 IP (tos 0x0, ttl 40, id 51648, offset 0, flags [none], proto TCP (6), length 40)
    10.5.28.116.24706 > 192.95.61.160.6969: Flags [S], cksum 0x8700 (correct), seq 35030, win 65495, length 0
	0x0000:  0004 0200 0000 0000 0000 0000 0000 0800  ................
	0x0010:  4500 0028 c9c0 0000 2806 a497 0a05 1c74  E..(??..(.?....t
	0x0020:  c05f 3da0 6082 1b39 0000 88d6 0000 0000  ?_=?`..9...?....
	0x0030:  5002 ffd7 8700 0000                      P.??....
14:52:05.882364 IP (tos 0x0, ttl 48, id 1, offset 0, flags [none], proto TCP (6), length 40)
    192.95.61.160.6969 > 10.5.28.116.24706: Flags [S.], cksum 0x7889 (correct), seq 12345, ack 35031, win 8192, length 0
	0x0000:  0000 0200 0000 0000 0000 0000 0000 0800  ................
	0x0010:  4500 0028 0001 0000 3006 6657 c05f 3da0  E..(....0.fW?_=?
	0x0020:  0a05 1c74 1b39 6082 0000 3039 0000 88d7  ...t.9`...09...?
	0x0030:  5012 2000 7889 be04                      P...x.?.
14:52:05.888737 IP (tos 0x0, ttl 40, id 51650, offset 0, flags [none], proto TCP (6), length 40)
    10.5.28.116.24706 > 192.95.61.160.6969: Flags [.], cksum 0x56b7 (correct), seq 1, ack 1, win 65495, length 0
	0x0000:  0004 0200 0000 0000 0000 0000 0000 0800  ................
	0x0010:  4500 0028 c9c2 0000 2806 a495 0a05 1c74  E..(??..(.?....t
	0x0020:  c05f 3da0 6082 1b39 0000 88d7 0000 303a  ?_=?`..9...?..0:
	0x0030:  5010 ffd7 56b7 0000                      P.??V?..
14:52:05.899309 IP (tos 0x0, ttl 40, id 51651, offset 0, flags [none], proto TCP (6), length 45)
    10.5.28.116.24706 > 192.95.61.160.6969: Flags [P.], cksum 0x7118 (correct), seq 1:6, ack 1, win 65495, length 5
	0x0000:  0004 0200 0000 0000 0000 0000 0000 0800  ................
	0x0010:  4500 002d c9c3 0000 2806 a48f 0a05 1c74  E..-??..(.?....t
	0x0020:  c05f 3da0 6082 1b39 0000 88d7 0000 303a  ?_=?`..9...?..0:
	0x0030:  5218 ffd7 7118 0000 4845 4c4c 4f         R.??q...HELLO
14:52:06.472225 IP (tos 0x0, ttl 49, id 1, offset 0, flags [none], proto TCP (6), length 45)
    192.95.61.160.6969 > 10.5.28.116.24706: Flags [.], cksum 0x50f3 (correct), seq 1:6, ack 6, win 8192, length 5
	0x0000:  0000 0200 0000 0000 0000 0000 0000 0800  ................
	0x0010:  4500 002d 0001 0000 3106 6552 c05f 3da0  E..-....1.eR?_=?
	0x0020:  0a05 1c74 1b39 6082 0000 303a 0000 88dc  ...t.9`...0:...?
	0x0030:  5210 2000 50f3 0000 4f4c 4c45 48         R...P?..OLLEH
14:52:06.477924 IP (tos 0x0, ttl 40, id 51653, offset 0, flags [none], proto TCP (6), length 40)
    10.5.28.116.24706 > 192.95.61.160.6969: Flags [.], cksum 0x54ad (correct), seq 6, ack 6, win 65495, length 0
	0x0000:  0004 0200 0000 0000 0000 0000 0000 0800  ................
	0x0010:  4500 0028 c9c5 0000 2806 a492 0a05 1c74  E..(??..(.?....t
	0x0020:  c05f 3da0 6082 1b39 0000 88dc 0000 303f  ?_=?`..9...?..0?
	0x0030:  5210 ffd7 54ad 0000                      R.??T?..
14:52:06.478851 IP (tos 0x0, ttl 40, id 51654, offset 0, flags [none], proto TCP (6), length 40)
    10.5.28.116.24706 > 192.95.61.160.6969: Flags [F.], cksum 0x54ac (correct), seq 6, ack 6, win 65495, length 0
	0x0000:  0004 0200 0000 0000 0000 0000 0000 0800  ................
	0x0010:  4500 0028 c9c6 0000 2806 a491 0a05 1c74  E..(??..(.?....t
	0x0020:  c05f 3da0 6082 1b39 0000 88dc 0000 303f  ?_=?`..9...?..0?
	0x0030:  5211 ffd7 54ac 0000                      R.??T?..
14:52:07.122304 IP (tos 0x0, ttl 49, id 1, offset 0, flags [none], proto TCP (6), length 40)
    192.95.61.160.6969 > 10.5.28.116.24706: Flags [F.], cksum 0x3683 (correct), seq 6, ack 7, win 8192, length 0
	0x0000:  0000 0200 0000 0000 0000 0000 0000 0800  ................
	0x0010:  4500 0028 0001 0000 3106 6557 c05f 3da0  E..(....1.eW?_=?
	0x0020:  0a05 1c74 1b39 6082 0000 303f 0000 88dd  ...t.9`...0?...?
	0x0030:  5011 2000 3683 0000                      P...6...
14:52:07.126234 IP (tos 0x0, ttl 40, id 51656, offset 0, flags [none], proto TCP (6), length 40)
    10.5.28.116.24706 > 192.95.61.160.6969: Flags [.], cksum 0xfe0d (correct), seq 6, ack 22693, win 65495, length 0
	0x0000:  0004 0200 0000 0000 0000 0000 0000 0800  ................
	0x0010:  4500 0028 c9c8 0000 2806 a48f 0a05 1c74  E..(??..(.?....t
	0x0020:  c05f 3da0 6082 1b39 0000 88dc 0000 88de  ?_=?`..9...?...?
	0x0030:  5010 ffd7 fe0d 0000                      P.???...
14:52:07.363603 IP (tos 0x0, ttl 40, id 51657, offset 0, flags [none], proto TCP (6), length 40)
    10.5.28.116.30332 > 192.95.61.160.6969: Flags [S], cksum 0x3eb5 (correct), seq 47911, win 65495, length 0
	0x0000:  0004 0200 0000 0000 0000 0000 0000 0800  ................
	0x0010:  4500 0028 c9c9 0000 2806 a48e 0a05 1c74  E..(??..(.?....t
	0x0020:  c05f 3da0 767c 1b39 0000 bb27 0000 0000  ?_=?v|.9..?'....
	0x0030:  5002 ffd7 3eb5 0000                      P.??>?..
14:52:07.812170 IP (tos 0x0, ttl 48, id 1, offset 0, flags [none], proto TCP (6), length 40)
    192.95.61.160.6969 > 10.5.28.116.30332: Flags [S.], cksum 0x303e (correct), seq 12345, ack 47912, win 8192, length 0
	0x0000:  0000 0200 0000 0000 0000 0000 0000 0800  ................
	0x0010:  4500 0028 0001 0000 3006 6657 c05f 3da0  E..(....0.fW?_=?
	0x0020:  0a05 1c74 1b39 767c 0000 3039 0000 bb28  ...t.9v|..09..?(
	0x0030:  5012 2000 303e be04                      P...0>?.
14:52:07.818150 IP (tos 0x0, ttl 40, id 51659, offset 0, flags [none], proto TCP (6), length 40)
    10.5.28.116.30332 > 192.95.61.160.6969: Flags [.], cksum 0x0e6c (correct), seq 1, ack 1, win 65495, length 0
	0x0000:  0004 0200 0000 0000 0000 0000 0000 0800  ................
	0x0010:  4500 0028 c9cb 0000 2806 a48c 0a05 1c74  E..(??..(.?....t
	0x0020:  c05f 3da0 767c 1b39 0000 bb28 0000 303a  ?_=?v|.9..?(..0:
	0x0030:  5010 ffd7 0e6c 0000                      P.??.l..
14:52:07.825720 IP (tos 0x0, ttl 40, id 51660, offset 0, flags [none], proto TCP (6), length 45)
    10.5.28.116.30332 > 192.95.61.160.6969: Flags [P.], cksum 0x26cd (correct), seq 1:6, ack 1, win 65495, length 5
	0x0000:  0004 0200 0000 0000 0000 0000 0000 0800  ................
	0x0010:  4500 002d c9cc 0000 2806 a486 0a05 1c74  E..-??..(.?....t
	0x0020:  c05f 3da0 767c 1b39 0000 bb28 0000 303a  ?_=?v|.9..?(..0:
	0x0030:  5418 ffd7 26cd 0000 4845 4c4c 4f         T.??&?..HELLO
14:52:08.392152 IP (tos 0x0, ttl 49, id 1, offset 0, flags [none], proto TCP (6), length 45)
    192.95.61.160.6969 > 10.5.28.116.30332: Flags [.], cksum 0x06a8 (correct), seq 1:6, ack 6, win 8192, length 5
	0x0000:  0000 0200 0000 0000 0000 0000 0000 0800  ................
	0x0010:  4500 002d 0001 0000 3106 6552 c05f 3da0  E..-....1.eR?_=?
	0x0020:  0a05 1c74 1b39 767c 0000 303a 0000 bb2d  ...t.9v|..0:..?-
	0x0030:  5410 2000 06a8 0000 4f4c 4c45 48         T....?..OLLEH
14:52:08.395744 IP (tos 0x0, ttl 40, id 51662, offset 0, flags [none], proto TCP (6), length 40)
    10.5.28.116.30332 > 192.95.61.160.6969: Flags [.], cksum 0x0a62 (correct), seq 6, ack 6, win 65495, length 0
	0x0000:  0004 0200 0000 0000 0000 0000 0000 0800  ................
	0x0010:  4500 0028 c9ce 0000 2806 a489 0a05 1c74  E..(??..(.?....t
	0x0020:  c05f 3da0 767c 1b39 0000 bb2d 0000 303f  ?_=?v|.9..?-..0?
	0x0030:  5410 ffd7 0a62 0000                      T.??.b..
14:52:08.396633 IP (tos 0x0, ttl 40, id 51663, offset 0, flags [none], proto TCP (6), length 40)
    10.5.28.116.30332 > 192.95.61.160.6969: Flags [F.], cksum 0x0a61 (correct), seq 6, ack 6, win 65495, length 0
	0x0000:  0004 0200 0000 0000 0000 0000 0000 0800  ................
	0x0010:  4500 0028 c9cf 0000 2806 a488 0a05 1c74  E..(??..(.?....t
	0x0020:  c05f 3da0 767c 1b39 0000 bb2d 0000 303f  ?_=?v|.9..?-..0?
	0x0030:  5411 ffd7 0a61 0000                      T.??.a..
14:52:09.012114 IP (tos 0x0, ttl 49, id 1, offset 0, flags [none], proto TCP (6), length 40)
    192.95.61.160.6969 > 10.5.28.116.30332: Flags [F.], cksum 0xee37 (correct), seq 6, ack 7, win 8192, length 0
	0x0000:  0000 0200 0000 0000 0000 0000 0000 0800  ................
	0x0010:  4500 0028 0001 0000 3106 6557 c05f 3da0  E..(....1.eW?_=?
	0x0020:  0a05 1c74 1b39 767c 0000 303f 0000 bb2e  ...t.9v|..0?..?.
	0x0030:  5011 2000 ee37 0000                      P...?7..
14:52:09.016939 IP (tos 0x0, ttl 40, id 51665, offset 0, flags [none], proto TCP (6), length 40)
    10.5.28.116.30332 > 192.95.61.160.6969: Flags [.], cksum 0x8371 (correct), seq 6, ack 35574, win 65495, length 0
	0x0000:  0004 0200 0000 0000 0000 0000 0000 0800  ................
	0x0010:  4500 0028 c9d1 0000 2806 a486 0a05 1c74  E..(??..(.?....t
	0x0020:  c05f 3da0 767c 1b39 0000 bb2d 0000 bb2f  ?_=?v|.9..?-..?/
	0x0030:  5010 ffd7 8371 0000                      P.??.q..
14:52:09.269505 IP (tos 0x0, ttl 40, id 51666, offset 0, flags [none], proto TCP (6), length 40)
    10.5.28.116.10118 > 192.95.61.160.6969: Flags [S], cksum 0x62b6 (correct), seq 58908, win 65495, length 0
	0x0000:  0004 0200 0000 0000 0000 0000 0000 0800  ................
	0x0010:  4500 0028 c9d2 0000 2806 a485 0a05 1c74  E..(??..(.?....t
	0x0020:  c05f 3da0 2786 1b39 0000 e61c 0000 0000  ?_=?'..9..?.....
	0x0030:  5002 ffd7 62b6 0000                      P.??b?..
14:52:09.682012 IP (tos 0x0, ttl 48, id 1, offset 0, flags [none], proto TCP (6), length 40)
    192.95.61.160.6969 > 10.5.28.116.10118: Flags [S.], cksum 0x543f (correct), seq 12345, ack 58909, win 8192, length 0
	0x0000:  0000 0200 0000 0000 0000 0000 0000 0800  ................
	0x0010:  4500 0028 0001 0000 3006 6657 c05f 3da0  E..(....0.fW?_=?
	0x0020:  0a05 1c74 1b39 2786 0000 3039 0000 e61d  ...t.9'...09..?.
	0x0030:  5012 2000 543f be04                      P...T??.
14:52:09.690804 IP (tos 0x0, ttl 40, id 51668, offset 0, flags [none], proto TCP (6), length 40)
    10.5.28.116.10118 > 192.95.61.160.6969: Flags [.], cksum 0x326d (correct), seq 1, ack 1, win 65495, length 0
	0x0000:  0004 0200 0000 0000 0000 0000 0000 0800  ................
	0x0010:  4500 0028 c9d4 0000 2806 a483 0a05 1c74  E..(??..(.?....t
	0x0020:  c05f 3da0 2786 1b39 0000 e61d 0000 303a  ?_=?'..9..?...0:
	0x0030:  5010 ffd7 326d 0000                      P.??2m..
14:52:09.696398 IP (tos 0x0, ttl 40, id 51669, offset 0, flags [none], proto TCP (6), length 45)
    10.5.28.116.10118 > 192.95.61.160.6969: Flags [P.], cksum 0x46ce (correct), seq 1:6, ack 1, win 65495, length 5
	0x0000:  0004 0200 0000 0000 0000 0000 0000 0800  ................
	0x0010:  4500 002d c9d5 0000 2806 a47d 0a05 1c74  E..-??..(.?}...t
	0x0020:  c05f 3da0 2786 1b39 0000 e61d 0000 303a  ?_=?'..9..?...0:
	0x0030:  5818 ffd7 46ce 0000 4845 4c4c 4f         X.??F?..HELLO
14:52:10.281985 IP (tos 0x0, ttl 49, id 1, offset 0, flags [none], proto TCP (6), length 45)
    192.95.61.160.6969 > 10.5.28.116.10118: Flags [.], cksum 0x26a9 (correct), seq 1:6, ack 6, win 8192, length 5
	0x0000:  0000 0200 0000 0000 0000 0000 0000 0800  ................
	0x0010:  4500 002d 0001 0000 3106 6552 c05f 3da0  E..-....1.eR?_=?
	0x0020:  0a05 1c74 1b39 2786 0000 303a 0000 e622  ...t.9'...0:..?"
	0x0030:  5810 2000 26a9 0000 4f4c 4c45 48         X...&?..OLLEH
14:52:10.286446 IP (tos 0x0, ttl 40, id 51671, offset 0, flags [none], proto TCP (6), length 40)
    10.5.28.116.10118 > 192.95.61.160.6969: Flags [.], cksum 0x2a63 (correct), seq 6, ack 6, win 65495, length 0
	0x0000:  0004 0200 0000 0000 0000 0000 0000 0800  ................
	0x0010:  4500 0028 c9d7 0000 2806 a480 0a05 1c74  E..(??..(.?....t
	0x0020:  c05f 3da0 2786 1b39 0000 e622 0000 303f  ?_=?'..9..?"..0?
	0x0030:  5810 ffd7 2a63 0000                      X.??*c..
14:52:10.287317 IP (tos 0x0, ttl 40, id 51672, offset 0, flags [none], proto TCP (6), length 40)
    10.5.28.116.10118 > 192.95.61.160.6969: Flags [F.], cksum 0x2a62 (correct), seq 6, ack 6, win 65495, length 0
	0x0000:  0004 0200 0000 0000 0000 0000 0000 0800  ................
	0x0010:  4500 0028 c9d8 0000 2806 a47f 0a05 1c74  E..(??..(.?....t
	0x0020:  c05f 3da0 2786 1b39 0000 e622 0000 303f  ?_=?'..9..?"..0?
	0x0030:  5811 ffd7 2a62 0000                      X.??*b..
14:52:10.882121 IP (tos 0x0, ttl 49, id 1, offset 0, flags [none], proto TCP (6), length 40)
    192.95.61.160.6969 > 10.5.28.116.10118: Flags [F.], cksum 0x1239 (correct), seq 6, ack 7, win 8192, length 0
	0x0000:  0000 0200 0000 0000 0000 0000 0000 0800  ................
	0x0010:  4500 0028 0001 0000 3106 6557 c05f 3da0  E..(....1.eW?_=?
	0x0020:  0a05 1c74 1b39 2786 0000 303f 0000 e623  ...t.9'...0?..?#
	0x0030:  5011 2000 1239 0000                      P....9..
14:52:10.884951 IP (tos 0x0, ttl 40, id 51674, offset 0, flags [none], proto TCP (6), length 40)
    10.5.28.116.10118 > 192.95.61.160.6969: Flags [.], cksum 0x7c7d (correct), seq 6, ack 46571, win 65495, length 0
	0x0000:  0004 0200 0000 0000 0000 0000 0000 0800  ................
	0x0010:  4500 0028 c9da 0000 2806 a47d 0a05 1c74  E..(??..(.?}...t
	0x0020:  c05f 3da0 2786 1b39 0000 e622 0000 e624  ?_=?'..9..?"..?$
	0x0030:  5010 ffd7 7c7d 0000                      P.??|}..
14:52:11.139008 IP (tos 0x0, ttl 40, id 51675, offset 0, flags [none], proto TCP (6), length 40)
    10.5.28.116.42897 > 192.95.61.160.6969: Flags [S], cksum 0xdd89 (correct), seq 11329, win 65495, length 0
	0x0000:  0004 0200 0000 0000 0000 0000 0000 0800  ................
	0x0010:  4500 0028 c9db 0000 2806 a47c 0a05 1c74  E..(??..(.?|...t
	0x0020:  c05f 3da0 a791 1b39 0000 2c41 beef 000d  ?_=??..9..,A??..
	0x0030:  5002 ffd7 dd89 0000                      P.???...

